{
	"contracts/mycontract2.sol": {
		"Learnopoly": {
			"abi": [
				{
					"inputs": [],
					"stateMutability": "nonpayable",
					"type": "constructor"
				},
				{
					"anonymous": false,
					"inputs": [
						{
							"indexed": false,
							"internalType": "uint256",
							"name": "id",
							"type": "uint256"
						},
						{
							"indexed": false,
							"internalType": "string",
							"name": "title",
							"type": "string"
						},
						{
							"indexed": false,
							"internalType": "address",
							"name": "creator",
							"type": "address"
						}
					],
					"name": "CourseCreated",
					"type": "event"
				},
				{
					"anonymous": false,
					"inputs": [
						{
							"indexed": false,
							"internalType": "uint256",
							"name": "courseId",
							"type": "uint256"
						},
						{
							"indexed": false,
							"internalType": "address",
							"name": "student",
							"type": "address"
						}
					],
					"name": "CourseEnrolled",
					"type": "event"
				},
				{
					"anonymous": false,
					"inputs": [
						{
							"indexed": false,
							"internalType": "uint256",
							"name": "id",
							"type": "uint256"
						},
						{
							"indexed": false,
							"internalType": "string",
							"name": "name",
							"type": "string"
						},
						{
							"indexed": false,
							"internalType": "address",
							"name": "organizer",
							"type": "address"
						}
					],
					"name": "HackathonCreated",
					"type": "event"
				},
				{
					"anonymous": false,
					"inputs": [
						{
							"indexed": false,
							"internalType": "uint256",
							"name": "hackathonId",
							"type": "uint256"
						},
						{
							"indexed": false,
							"internalType": "address",
							"name": "participant",
							"type": "address"
						}
					],
					"name": "HackathonJoined",
					"type": "event"
				},
				{
					"anonymous": false,
					"inputs": [
						{
							"indexed": false,
							"internalType": "uint256",
							"name": "hackathonId",
							"type": "uint256"
						},
						{
							"indexed": false,
							"internalType": "address",
							"name": "winner",
							"type": "address"
						},
						{
							"indexed": false,
							"internalType": "uint256",
							"name": "prize",
							"type": "uint256"
						}
					],
					"name": "PrizeDistributed",
					"type": "event"
				},
				{
					"anonymous": false,
					"inputs": [
						{
							"indexed": false,
							"internalType": "address",
							"name": "user",
							"type": "address"
						},
						{
							"indexed": false,
							"internalType": "string",
							"name": "name",
							"type": "string"
						},
						{
							"indexed": false,
							"internalType": "string",
							"name": "role",
							"type": "string"
						}
					],
					"name": "UserRegistered",
					"type": "event"
				},
				{
					"inputs": [],
					"name": "courseCounter",
					"outputs": [
						{
							"internalType": "uint256",
							"name": "",
							"type": "uint256"
						}
					],
					"stateMutability": "view",
					"type": "function"
				},
				{
					"inputs": [
						{
							"internalType": "uint256",
							"name": "",
							"type": "uint256"
						}
					],
					"name": "courses",
					"outputs": [
						{
							"internalType": "uint256",
							"name": "id",
							"type": "uint256"
						},
						{
							"internalType": "string",
							"name": "title",
							"type": "string"
						},
						{
							"internalType": "uint256",
							"name": "price",
							"type": "uint256"
						},
						{
							"internalType": "address",
							"name": "creator",
							"type": "address"
						}
					],
					"stateMutability": "view",
					"type": "function"
				},
				{
					"inputs": [
						{
							"internalType": "string",
							"name": "title",
							"type": "string"
						},
						{
							"internalType": "uint256",
							"name": "price",
							"type": "uint256"
						}
					],
					"name": "createCourse",
					"outputs": [],
					"stateMutability": "nonpayable",
					"type": "function"
				},
				{
					"inputs": [
						{
							"internalType": "string",
							"name": "name",
							"type": "string"
						},
						{
							"internalType": "uint256",
							"name": "registrationFee",
							"type": "uint256"
						},
						{
							"internalType": "uint256",
							"name": "prizePool",
							"type": "uint256"
						}
					],
					"name": "createHackathon",
					"outputs": [],
					"stateMutability": "nonpayable",
					"type": "function"
				},
				{
					"inputs": [
						{
							"internalType": "uint256",
							"name": "hackathonId",
							"type": "uint256"
						},
						{
							"internalType": "address",
							"name": "winner",
							"type": "address"
						}
					],
					"name": "distributePrize",
					"outputs": [],
					"stateMutability": "nonpayable",
					"type": "function"
				},
				{
					"inputs": [
						{
							"internalType": "uint256",
							"name": "courseId",
							"type": "uint256"
						}
					],
					"name": "enrollInCourse",
					"outputs": [],
					"stateMutability": "payable",
					"type": "function"
				},
				{
					"inputs": [
						{
							"internalType": "uint256",
							"name": "courseId",
							"type": "uint256"
						}
					],
					"name": "getCourseStudents",
					"outputs": [
						{
							"internalType": "address[]",
							"name": "",
							"type": "address[]"
						}
					],
					"stateMutability": "view",
					"type": "function"
				},
				{
					"inputs": [
						{
							"internalType": "uint256",
							"name": "hackathonId",
							"type": "uint256"
						}
					],
					"name": "getHackathonParticipants",
					"outputs": [
						{
							"internalType": "address[]",
							"name": "",
							"type": "address[]"
						}
					],
					"stateMutability": "view",
					"type": "function"
				},
				{
					"inputs": [
						{
							"internalType": "address",
							"name": "user",
							"type": "address"
						}
					],
					"name": "getUserEnrolledCourses",
					"outputs": [
						{
							"internalType": "uint256[]",
							"name": "",
							"type": "uint256[]"
						}
					],
					"stateMutability": "view",
					"type": "function"
				},
				{
					"inputs": [
						{
							"internalType": "address",
							"name": "user",
							"type": "address"
						}
					],
					"name": "getUserEnrolledHackathons",
					"outputs": [
						{
							"internalType": "uint256[]",
							"name": "",
							"type": "uint256[]"
						}
					],
					"stateMutability": "view",
					"type": "function"
				},
				{
					"inputs": [],
					"name": "hackathonCounter",
					"outputs": [
						{
							"internalType": "uint256",
							"name": "",
							"type": "uint256"
						}
					],
					"stateMutability": "view",
					"type": "function"
				},
				{
					"inputs": [
						{
							"internalType": "uint256",
							"name": "",
							"type": "uint256"
						}
					],
					"name": "hackathons",
					"outputs": [
						{
							"internalType": "uint256",
							"name": "id",
							"type": "uint256"
						},
						{
							"internalType": "string",
							"name": "name",
							"type": "string"
						},
						{
							"internalType": "uint256",
							"name": "registrationFee",
							"type": "uint256"
						},
						{
							"internalType": "uint256",
							"name": "prizePool",
							"type": "uint256"
						},
						{
							"internalType": "address",
							"name": "organizer",
							"type": "address"
						},
						{
							"internalType": "bool",
							"name": "isActive",
							"type": "bool"
						}
					],
					"stateMutability": "view",
					"type": "function"
				},
				{
					"inputs": [
						{
							"internalType": "uint256",
							"name": "hackathonId",
							"type": "uint256"
						}
					],
					"name": "joinHackathon",
					"outputs": [],
					"stateMutability": "payable",
					"type": "function"
				},
				{
					"inputs": [],
					"name": "owner",
					"outputs": [
						{
							"internalType": "address",
							"name": "",
							"type": "address"
						}
					],
					"stateMutability": "view",
					"type": "function"
				},
				{
					"inputs": [
						{
							"internalType": "address",
							"name": "",
							"type": "address"
						}
					],
					"name": "users",
					"outputs": [
						{
							"internalType": "address",
							"name": "walletAddress",
							"type": "address"
						},
						{
							"internalType": "string",
							"name": "name",
							"type": "string"
						},
						{
							"internalType": "string",
							"name": "role",
							"type": "string"
						}
					],
					"stateMutability": "view",
					"type": "function"
				},
				{
					"stateMutability": "payable",
					"type": "receive"
				}
			],
			"devdoc": {
				"kind": "dev",
				"methods": {},
				"version": 1
			},
			"evm": {
				"assembly": "    /* \"contracts/mycontract2.sol\":60:4901  contract Learnopoly {... */\n  mstore(0x40, 0x80)\n    /* \"contracts/mycontract2.sol\":1651:1702  constructor() {... */\n  callvalue\n  dup1\n  iszero\n  tag_1\n  jumpi\n  0x00\n  dup1\n  revert\ntag_1:\n  pop\n    /* \"contracts/mycontract2.sol\":1684:1694  msg.sender */\n  caller\n    /* \"contracts/mycontract2.sol\":1676:1681  owner */\n  0x00\n  dup1\n    /* \"contracts/mycontract2.sol\":1676:1694  owner = msg.sender */\n  0x0100\n  exp\n  dup2\n  sload\n  dup2\n  0xffffffffffffffffffffffffffffffffffffffff\n  mul\n  not\n  and\n  swap1\n  dup4\n  0xffffffffffffffffffffffffffffffffffffffff\n  and\n  mul\n  or\n  swap1\n  sstore\n  pop\n    /* \"contracts/mycontract2.sol\":60:4901  contract Learnopoly {... */\n  dataSize(sub_0)\n  dup1\n  dataOffset(sub_0)\n  0x00\n  codecopy\n  0x00\n  return\nstop\n\nsub_0: assembly {\n        /* \"contracts/mycontract2.sol\":60:4901  contract Learnopoly {... */\n      mstore(0x40, 0x80)\n      jumpi(tag_1, lt(calldatasize, 0x04))\n      shr(0xe0, calldataload(0x00))\n      dup1\n      0x8da5cb5b\n      gt\n      tag_18\n      jumpi\n      dup1\n      0xa87430ba\n      gt\n      tag_19\n      jumpi\n      dup1\n      0xa87430ba\n      eq\n      tag_14\n      jumpi\n      dup1\n      0xc1077194\n      eq\n      tag_15\n      jumpi\n      dup1\n      0xd62d5f78\n      eq\n      tag_16\n      jumpi\n      dup1\n      0xf5ff83b3\n      eq\n      tag_17\n      jumpi\n      jump(tag_2)\n    tag_19:\n      dup1\n      0x8da5cb5b\n      eq\n      tag_10\n      jumpi\n      dup1\n      0x96f979d2\n      eq\n      tag_11\n      jumpi\n      dup1\n      0x97b913db\n      eq\n      tag_12\n      jumpi\n      dup1\n      0xa1db0e27\n      eq\n      tag_13\n      jumpi\n      jump(tag_2)\n    tag_18:\n      dup1\n      0x5e52da27\n      gt\n      tag_20\n      jumpi\n      dup1\n      0x5e52da27\n      eq\n      tag_6\n      jumpi\n      dup1\n      0x60dd60e3\n      eq\n      tag_7\n      jumpi\n      dup1\n      0x82216fbd\n      eq\n      tag_8\n      jumpi\n      dup1\n      0x829ae6f4\n      eq\n      tag_9\n      jumpi\n      jump(tag_2)\n    tag_20:\n      dup1\n      0x1cd12e53\n      eq\n      tag_3\n      jumpi\n      dup1\n      0x40aca1b1\n      eq\n      tag_4\n      jumpi\n      dup1\n      0x42ca6d58\n      eq\n      tag_5\n      jumpi\n      jump(tag_2)\n    tag_1:\n      jumpi(tag_2, calldatasize)\n      stop\n    tag_2:\n      0x00\n      dup1\n      revert\n        /* \"contracts/mycontract2.sol\":2500:3078  function createHackathon(... */\n    tag_3:\n      callvalue\n      dup1\n      iszero\n      tag_23\n      jumpi\n      0x00\n      dup1\n      revert\n    tag_23:\n      pop\n      tag_24\n      0x04\n      dup1\n      calldatasize\n      sub\n      dup2\n      add\n      swap1\n      tag_25\n      swap2\n      swap1\n      tag_26\n      jump\t// in\n    tag_25:\n      tag_27\n      jump\t// in\n    tag_24:\n      stop\n        /* \"contracts/mycontract2.sol\":705:736  uint256 public hackathonCounter */\n    tag_4:\n      callvalue\n      dup1\n      iszero\n      tag_28\n      jumpi\n      0x00\n      dup1\n      revert\n    tag_28:\n      pop\n      tag_29\n      tag_30\n      jump\t// in\n    tag_29:\n      mload(0x40)\n      tag_31\n      swap2\n      swap1\n      tag_32\n      jump\t// in\n    tag_31:\n      mload(0x40)\n      dup1\n      swap2\n      sub\n      swap1\n      return\n        /* \"contracts/mycontract2.sol\":3086:3584  function joinHackathon(uint256 hackathonId) external payable {... */\n    tag_5:\n      tag_33\n      0x04\n      dup1\n      calldatasize\n      sub\n      dup2\n      add\n      swap1\n      tag_34\n      swap2\n      swap1\n      tag_35\n      jump\t// in\n    tag_34:\n      tag_36\n      jump\t// in\n    tag_33:\n      stop\n        /* \"contracts/mycontract2.sol\":2092:2492  function enrollInCourse(uint256 courseId) external payable {... */\n    tag_6:\n      tag_37\n      0x04\n      dup1\n      calldatasize\n      sub\n      dup2\n      add\n      swap1\n      tag_38\n      swap2\n      swap1\n      tag_35\n      jump\t// in\n    tag_38:\n      tag_39\n      jump\t// in\n    tag_37:\n      stop\n        /* \"contracts/mycontract2.sol\":4121:4291  function getCourseStudents(uint256 courseId)... */\n    tag_7:\n      callvalue\n      dup1\n      iszero\n      tag_40\n      jumpi\n      0x00\n      dup1\n      revert\n    tag_40:\n      pop\n      tag_41\n      0x04\n      dup1\n      calldatasize\n      sub\n      dup2\n      add\n      swap1\n      tag_42\n      swap2\n      swap1\n      tag_35\n      jump\t// in\n    tag_42:\n      tag_43\n      jump\t// in\n    tag_41:\n      mload(0x40)\n      tag_44\n      swap2\n      swap1\n      tag_45\n      jump\t// in\n    tag_44:\n      mload(0x40)\n      dup1\n      swap2\n      sub\n      swap1\n      return\n        /* \"contracts/mycontract2.sol\":670:698  uint256 public courseCounter */\n    tag_8:\n      callvalue\n      dup1\n      iszero\n      tag_46\n      jumpi\n      0x00\n      dup1\n      revert\n    tag_46:\n      pop\n      tag_47\n      tag_48\n      jump\t// in\n    tag_47:\n      mload(0x40)\n      tag_49\n      swap2\n      swap1\n      tag_32\n      jump\t// in\n    tag_49:\n      mload(0x40)\n      dup1\n      swap2\n      sub\n      swap1\n      return\n        /* \"contracts/mycontract2.sol\":4497:4669  function getUserEnrolledCourses(address user)... */\n    tag_9:\n      callvalue\n      dup1\n      iszero\n      tag_50\n      jumpi\n      0x00\n      dup1\n      revert\n    tag_50:\n      pop\n      tag_51\n      0x04\n      dup1\n      calldatasize\n      sub\n      dup2\n      add\n      swap1\n      tag_52\n      swap2\n      swap1\n      tag_53\n      jump\t// in\n    tag_52:\n      tag_54\n      jump\t// in\n    tag_51:\n      mload(0x40)\n      tag_55\n      swap2\n      swap1\n      tag_56\n      jump\t// in\n    tag_55:\n      mload(0x40)\n      dup1\n      swap2\n      sub\n      swap1\n      return\n        /* \"contracts/mycontract2.sol\":643:663  address public owner */\n    tag_10:\n      callvalue\n      dup1\n      iszero\n      tag_57\n      jumpi\n      0x00\n      dup1\n      revert\n    tag_57:\n      pop\n      tag_58\n      tag_59\n      jump\t// in\n    tag_58:\n      mload(0x40)\n      tag_60\n      swap2\n      swap1\n      tag_61\n      jump\t// in\n    tag_60:\n      mload(0x40)\n      dup1\n      swap2\n      sub\n      swap1\n      return\n        /* \"contracts/mycontract2.sol\":787:828  mapping(uint256 => Course) public courses */\n    tag_11:\n      callvalue\n      dup1\n      iszero\n      tag_62\n      jumpi\n      0x00\n      dup1\n      revert\n    tag_62:\n      pop\n      tag_63\n      0x04\n      dup1\n      calldatasize\n      sub\n      dup2\n      add\n      swap1\n      tag_64\n      swap2\n      swap1\n      tag_35\n      jump\t// in\n    tag_64:\n      tag_65\n      jump\t// in\n    tag_63:\n      mload(0x40)\n      tag_66\n      swap5\n      swap4\n      swap3\n      swap2\n      swap1\n      tag_67\n      jump\t// in\n    tag_66:\n      mload(0x40)\n      dup1\n      swap2\n      sub\n      swap1\n      return\n        /* \"contracts/mycontract2.sol\":4299:4489  function getHackathonParticipants(uint256 hackathonId)... */\n    tag_12:\n      callvalue\n      dup1\n      iszero\n      tag_68\n      jumpi\n      0x00\n      dup1\n      revert\n    tag_68:\n      pop\n      tag_69\n      0x04\n      dup1\n      calldatasize\n      sub\n      dup2\n      add\n      swap1\n      tag_70\n      swap2\n      swap1\n      tag_35\n      jump\t// in\n    tag_70:\n      tag_71\n      jump\t// in\n    tag_69:\n      mload(0x40)\n      tag_72\n      swap2\n      swap1\n      tag_45\n      jump\t// in\n    tag_72:\n      mload(0x40)\n      dup1\n      swap2\n      sub\n      swap1\n      return\n        /* \"contracts/mycontract2.sol\":1710:2084  function createCourse(string memory title, uint256 price) external {... */\n    tag_13:\n      callvalue\n      dup1\n      iszero\n      tag_73\n      jumpi\n      0x00\n      dup1\n      revert\n    tag_73:\n      pop\n      tag_74\n      0x04\n      dup1\n      calldatasize\n      sub\n      dup2\n      add\n      swap1\n      tag_75\n      swap2\n      swap1\n      tag_76\n      jump\t// in\n    tag_75:\n      tag_77\n      jump\t// in\n    tag_74:\n      stop\n        /* \"contracts/mycontract2.sol\":743:780  mapping(address => User) public users */\n    tag_14:\n      callvalue\n      dup1\n      iszero\n      tag_78\n      jumpi\n      0x00\n      dup1\n      revert\n    tag_78:\n      pop\n      tag_79\n      0x04\n      dup1\n      calldatasize\n      sub\n      dup2\n      add\n      swap1\n      tag_80\n      swap2\n      swap1\n      tag_53\n      jump\t// in\n    tag_80:\n      tag_81\n      jump\t// in\n    tag_79:\n      mload(0x40)\n      tag_82\n      swap4\n      swap3\n      swap2\n      swap1\n      tag_83\n      jump\t// in\n    tag_82:\n      mload(0x40)\n      dup1\n      swap2\n      sub\n      swap1\n      return\n        /* \"contracts/mycontract2.sol\":835:882  mapping(uint256 => Hackathon) public hackathons */\n    tag_15:\n      callvalue\n      dup1\n      iszero\n      tag_84\n      jumpi\n      0x00\n      dup1\n      revert\n    tag_84:\n      pop\n      tag_85\n      0x04\n      dup1\n      calldatasize\n      sub\n      dup2\n      add\n      swap1\n      tag_86\n      swap2\n      swap1\n      tag_35\n      jump\t// in\n    tag_86:\n      tag_87\n      jump\t// in\n    tag_85:\n      mload(0x40)\n      tag_88\n      swap7\n      swap6\n      swap5\n      swap4\n      swap3\n      swap2\n      swap1\n      tag_89\n      jump\t// in\n    tag_88:\n      mload(0x40)\n      dup1\n      swap2\n      sub\n      swap1\n      return\n        /* \"contracts/mycontract2.sol\":4677:4855  function getUserEnrolledHackathons(address user)... */\n    tag_16:\n      callvalue\n      dup1\n      iszero\n      tag_90\n      jumpi\n      0x00\n      dup1\n      revert\n    tag_90:\n      pop\n      tag_91\n      0x04\n      dup1\n      calldatasize\n      sub\n      dup2\n      add\n      swap1\n      tag_92\n      swap2\n      swap1\n      tag_53\n      jump\t// in\n    tag_92:\n      tag_93\n      jump\t// in\n    tag_91:\n      mload(0x40)\n      tag_94\n      swap2\n      swap1\n      tag_56\n      jump\t// in\n    tag_94:\n      mload(0x40)\n      dup1\n      swap2\n      sub\n      swap1\n      return\n        /* \"contracts/mycontract2.sol\":3592:4113  function distributePrize(uint256 hackathonId, address winner) external onlyOwner {... */\n    tag_17:\n      callvalue\n      dup1\n      iszero\n      tag_95\n      jumpi\n      0x00\n      dup1\n      revert\n    tag_95:\n      pop\n      tag_96\n      0x04\n      dup1\n      calldatasize\n      sub\n      dup2\n      add\n      swap1\n      tag_97\n      swap2\n      swap1\n      tag_98\n      jump\t// in\n    tag_97:\n      tag_99\n      jump\t// in\n    tag_96:\n      stop\n        /* \"contracts/mycontract2.sol\":2500:3078  function createHackathon(... */\n    tag_27:\n        /* \"contracts/mycontract2.sol\":2643:2659  hackathonCounter */\n      0x02\n      0x00\n        /* \"contracts/mycontract2.sol\":2643:2661  hackathonCounter++ */\n      dup2\n      sload\n      dup1\n      swap3\n      swap2\n      swap1\n      tag_101\n      swap1\n      tag_102\n      jump\t// in\n    tag_101:\n      swap2\n      swap1\n      pop\n      sstore\n      pop\n        /* \"contracts/mycontract2.sol\":2672:2702  Hackathon storage newHackathon */\n      0x00\n        /* \"contracts/mycontract2.sol\":2705:2715  hackathons */\n      0x05\n        /* \"contracts/mycontract2.sol\":2705:2733  hackathons[hackathonCounter] */\n      0x00\n        /* \"contracts/mycontract2.sol\":2716:2732  hackathonCounter */\n      sload(0x02)\n        /* \"contracts/mycontract2.sol\":2705:2733  hackathons[hackathonCounter] */\n      dup2\n      mstore\n      0x20\n      add\n      swap1\n      dup2\n      mstore\n      0x20\n      add\n      0x00\n      keccak256\n        /* \"contracts/mycontract2.sol\":2672:2733  Hackathon storage newHackathon = hackathons[hackathonCounter] */\n      swap1\n      pop\n        /* \"contracts/mycontract2.sol\":2762:2778  hackathonCounter */\n      sload(0x02)\n        /* \"contracts/mycontract2.sol\":2744:2756  newHackathon */\n      dup2\n        /* \"contracts/mycontract2.sol\":2744:2759  newHackathon.id */\n      0x00\n      add\n        /* \"contracts/mycontract2.sol\":2744:2778  newHackathon.id = hackathonCounter */\n      dup2\n      swap1\n      sstore\n      pop\n        /* \"contracts/mycontract2.sol\":2809:2813  name */\n      dup4\n        /* \"contracts/mycontract2.sol\":2789:2801  newHackathon */\n      dup2\n        /* \"contracts/mycontract2.sol\":2789:2806  newHackathon.name */\n      0x01\n      add\n        /* \"contracts/mycontract2.sol\":2789:2813  newHackathon.name = name */\n      swap1\n      dup2\n      tag_103\n      swap2\n      swap1\n      tag_104\n      jump\t// in\n    tag_103:\n      pop\n        /* \"contracts/mycontract2.sol\":2855:2870  registrationFee */\n      dup3\n        /* \"contracts/mycontract2.sol\":2824:2836  newHackathon */\n      dup2\n        /* \"contracts/mycontract2.sol\":2824:2852  newHackathon.registrationFee */\n      0x02\n      add\n        /* \"contracts/mycontract2.sol\":2824:2870  newHackathon.registrationFee = registrationFee */\n      dup2\n      swap1\n      sstore\n      pop\n        /* \"contracts/mycontract2.sol\":2906:2915  prizePool */\n      dup2\n        /* \"contracts/mycontract2.sol\":2881:2893  newHackathon */\n      dup2\n        /* \"contracts/mycontract2.sol\":2881:2903  newHackathon.prizePool */\n      0x03\n      add\n        /* \"contracts/mycontract2.sol\":2881:2915  newHackathon.prizePool = prizePool */\n      dup2\n      swap1\n      sstore\n      pop\n        /* \"contracts/mycontract2.sol\":2951:2961  msg.sender */\n      caller\n        /* \"contracts/mycontract2.sol\":2926:2938  newHackathon */\n      dup2\n        /* \"contracts/mycontract2.sol\":2926:2948  newHackathon.organizer */\n      0x04\n      add\n      0x00\n        /* \"contracts/mycontract2.sol\":2926:2961  newHackathon.organizer = msg.sender */\n      0x0100\n      exp\n      dup2\n      sload\n      dup2\n      0xffffffffffffffffffffffffffffffffffffffff\n      mul\n      not\n      and\n      swap1\n      dup4\n      0xffffffffffffffffffffffffffffffffffffffff\n      and\n      mul\n      or\n      swap1\n      sstore\n      pop\n        /* \"contracts/mycontract2.sol\":2996:3000  true */\n      0x01\n        /* \"contracts/mycontract2.sol\":2972:2984  newHackathon */\n      dup2\n        /* \"contracts/mycontract2.sol\":2972:2993  newHackathon.isActive */\n      0x06\n      add\n      0x00\n        /* \"contracts/mycontract2.sol\":2972:3000  newHackathon.isActive = true */\n      0x0100\n      exp\n      dup2\n      sload\n      dup2\n      0xff\n      mul\n      not\n      and\n      swap1\n      dup4\n      iszero\n      iszero\n      mul\n      or\n      swap1\n      sstore\n      pop\n        /* \"contracts/mycontract2.sol\":3018:3070  HackathonCreated(hackathonCounter, name, msg.sender) */\n      0xa94cd0b7a6a30768493dd3c96d659f8684f84657295d41125416f89e1027f876\n        /* \"contracts/mycontract2.sol\":3035:3051  hackathonCounter */\n      sload(0x02)\n        /* \"contracts/mycontract2.sol\":3053:3057  name */\n      dup6\n        /* \"contracts/mycontract2.sol\":3059:3069  msg.sender */\n      caller\n        /* \"contracts/mycontract2.sol\":3018:3070  HackathonCreated(hackathonCounter, name, msg.sender) */\n      mload(0x40)\n      tag_105\n      swap4\n      swap3\n      swap2\n      swap1\n      tag_106\n      jump\t// in\n    tag_105:\n      mload(0x40)\n      dup1\n      swap2\n      sub\n      swap1\n      log1\n        /* \"contracts/mycontract2.sol\":2632:3078  {... */\n      pop\n        /* \"contracts/mycontract2.sol\":2500:3078  function createHackathon(... */\n      pop\n      pop\n      pop\n      jump\t// out\n        /* \"contracts/mycontract2.sol\":705:736  uint256 public hackathonCounter */\n    tag_30:\n      sload(0x02)\n      dup2\n      jump\t// out\n        /* \"contracts/mycontract2.sol\":3086:3584  function joinHackathon(uint256 hackathonId) external payable {... */\n    tag_36:\n        /* \"contracts/mycontract2.sol\":3158:3185  Hackathon storage hackathon */\n      0x00\n        /* \"contracts/mycontract2.sol\":3188:3198  hackathons */\n      0x05\n        /* \"contracts/mycontract2.sol\":3188:3211  hackathons[hackathonId] */\n      0x00\n        /* \"contracts/mycontract2.sol\":3199:3210  hackathonId */\n      dup4\n        /* \"contracts/mycontract2.sol\":3188:3211  hackathons[hackathonId] */\n      dup2\n      mstore\n      0x20\n      add\n      swap1\n      dup2\n      mstore\n      0x20\n      add\n      0x00\n      keccak256\n        /* \"contracts/mycontract2.sol\":3158:3211  Hackathon storage hackathon = hackathons[hackathonId] */\n      swap1\n      pop\n        /* \"contracts/mycontract2.sol\":3230:3239  hackathon */\n      dup1\n        /* \"contracts/mycontract2.sol\":3230:3248  hackathon.isActive */\n      0x06\n      add\n      0x00\n      swap1\n      sload\n      swap1\n      0x0100\n      exp\n      swap1\n      div\n      0xff\n      and\n        /* \"contracts/mycontract2.sol\":3222:3276  require(hackathon.isActive, \"Hackathon is not active\") */\n      tag_108\n      jumpi\n      mload(0x40)\n      0x08c379a000000000000000000000000000000000000000000000000000000000\n      dup2\n      mstore\n      0x04\n      add\n      tag_109\n      swap1\n      tag_110\n      jump\t// in\n    tag_109:\n      mload(0x40)\n      dup1\n      swap2\n      sub\n      swap1\n      revert\n    tag_108:\n        /* \"contracts/mycontract2.sol\":3322:3331  hackathon */\n      dup1\n        /* \"contracts/mycontract2.sol\":3322:3347  hackathon.registrationFee */\n      0x02\n      add\n      sload\n        /* \"contracts/mycontract2.sol\":3309:3318  msg.value */\n      callvalue\n        /* \"contracts/mycontract2.sol\":3309:3347  msg.value == hackathon.registrationFee */\n      eq\n        /* \"contracts/mycontract2.sol\":3287:3401  require(... */\n      tag_111\n      jumpi\n      mload(0x40)\n      0x08c379a000000000000000000000000000000000000000000000000000000000\n      dup2\n      mstore\n      0x04\n      add\n      tag_112\n      swap1\n      tag_113\n      jump\t// in\n    tag_112:\n      mload(0x40)\n      dup1\n      swap2\n      sub\n      swap1\n      revert\n    tag_111:\n        /* \"contracts/mycontract2.sol\":3414:3423  hackathon */\n      dup1\n        /* \"contracts/mycontract2.sol\":3414:3436  hackathon.participants */\n      0x05\n      add\n        /* \"contracts/mycontract2.sol\":3442:3452  msg.sender */\n      caller\n        /* \"contracts/mycontract2.sol\":3414:3453  hackathon.participants.push(msg.sender) */\n      swap1\n      dup1\n      0x01\n      dup2\n      sload\n      add\n      dup1\n      dup3\n      sstore\n      dup1\n      swap2\n      pop\n      pop\n      0x01\n      swap1\n      sub\n      swap1\n      0x00\n      mstore\n      keccak256(0x00, 0x20)\n      add\n      0x00\n      swap1\n      swap2\n      swap1\n      swap2\n      swap1\n      swap2\n      0x0100\n      exp\n      dup2\n      sload\n      dup2\n      0xffffffffffffffffffffffffffffffffffffffff\n      mul\n      not\n      and\n      swap1\n      dup4\n      0xffffffffffffffffffffffffffffffffffffffff\n      and\n      mul\n      or\n      swap1\n      sstore\n      pop\n        /* \"contracts/mycontract2.sol\":3464:3469  users */\n      0x03\n        /* \"contracts/mycontract2.sol\":3464:3481  users[msg.sender] */\n      0x00\n        /* \"contracts/mycontract2.sol\":3470:3480  msg.sender */\n      caller\n        /* \"contracts/mycontract2.sol\":3464:3481  users[msg.sender] */\n      0xffffffffffffffffffffffffffffffffffffffff\n      and\n      0xffffffffffffffffffffffffffffffffffffffff\n      and\n      dup2\n      mstore\n      0x20\n      add\n      swap1\n      dup2\n      mstore\n      0x20\n      add\n      0x00\n      keccak256\n        /* \"contracts/mycontract2.sol\":3464:3500  users[msg.sender].enrolledHackathons */\n      0x04\n      add\n        /* \"contracts/mycontract2.sol\":3506:3517  hackathonId */\n      dup3\n        /* \"contracts/mycontract2.sol\":3464:3518  users[msg.sender].enrolledHackathons.push(hackathonId) */\n      swap1\n      dup1\n      0x01\n      dup2\n      sload\n      add\n      dup1\n      dup3\n      sstore\n      dup1\n      swap2\n      pop\n      pop\n      0x01\n      swap1\n      sub\n      swap1\n      0x00\n      mstore\n      keccak256(0x00, 0x20)\n      add\n      0x00\n      swap1\n      swap2\n      swap1\n      swap2\n      swap1\n      swap2\n      pop\n      sstore\n        /* \"contracts/mycontract2.sol\":3536:3576  HackathonJoined(hackathonId, msg.sender) */\n      0xeed04d4be145b563e5e53575c494b5a2fccc5ce019758c15d37a0984f3633307\n        /* \"contracts/mycontract2.sol\":3552:3563  hackathonId */\n      dup3\n        /* \"contracts/mycontract2.sol\":3565:3575  msg.sender */\n      caller\n        /* \"contracts/mycontract2.sol\":3536:3576  HackathonJoined(hackathonId, msg.sender) */\n      mload(0x40)\n      tag_116\n      swap3\n      swap2\n      swap1\n      tag_117\n      jump\t// in\n    tag_116:\n      mload(0x40)\n      dup1\n      swap2\n      sub\n      swap1\n      log1\n        /* \"contracts/mycontract2.sol\":3147:3584  {... */\n      pop\n        /* \"contracts/mycontract2.sol\":3086:3584  function joinHackathon(uint256 hackathonId) external payable {... */\n      pop\n      jump\t// out\n        /* \"contracts/mycontract2.sol\":2092:2492  function enrollInCourse(uint256 courseId) external payable {... */\n    tag_39:\n        /* \"contracts/mycontract2.sol\":2162:2183  Course storage course */\n      0x00\n        /* \"contracts/mycontract2.sol\":2186:2193  courses */\n      0x04\n        /* \"contracts/mycontract2.sol\":2186:2203  courses[courseId] */\n      0x00\n        /* \"contracts/mycontract2.sol\":2194:2202  courseId */\n      dup4\n        /* \"contracts/mycontract2.sol\":2186:2203  courses[courseId] */\n      dup2\n      mstore\n      0x20\n      add\n      swap1\n      dup2\n      mstore\n      0x20\n      add\n      0x00\n      keccak256\n        /* \"contracts/mycontract2.sol\":2162:2203  Course storage course = courses[courseId] */\n      swap1\n      pop\n        /* \"contracts/mycontract2.sol\":2235:2241  course */\n      dup1\n        /* \"contracts/mycontract2.sol\":2235:2247  course.price */\n      0x02\n      add\n      sload\n        /* \"contracts/mycontract2.sol\":2222:2231  msg.value */\n      callvalue\n        /* \"contracts/mycontract2.sol\":2222:2247  msg.value == course.price */\n      eq\n        /* \"contracts/mycontract2.sol\":2214:2272  require(msg.value == course.price, \"Incorrect course fee\") */\n      tag_119\n      jumpi\n      mload(0x40)\n      0x08c379a000000000000000000000000000000000000000000000000000000000\n      dup2\n      mstore\n      0x04\n      add\n      tag_120\n      swap1\n      tag_121\n      jump\t// in\n    tag_120:\n      mload(0x40)\n      dup1\n      swap2\n      sub\n      swap1\n      revert\n    tag_119:\n        /* \"contracts/mycontract2.sol\":2285:2291  course */\n      dup1\n        /* \"contracts/mycontract2.sol\":2285:2300  course.students */\n      0x04\n      add\n        /* \"contracts/mycontract2.sol\":2306:2316  msg.sender */\n      caller\n        /* \"contracts/mycontract2.sol\":2285:2317  course.students.push(msg.sender) */\n      swap1\n      dup1\n      0x01\n      dup2\n      sload\n      add\n      dup1\n      dup3\n      sstore\n      dup1\n      swap2\n      pop\n      pop\n      0x01\n      swap1\n      sub\n      swap1\n      0x00\n      mstore\n      keccak256(0x00, 0x20)\n      add\n      0x00\n      swap1\n      swap2\n      swap1\n      swap2\n      swap1\n      swap2\n      0x0100\n      exp\n      dup2\n      sload\n      dup2\n      0xffffffffffffffffffffffffffffffffffffffff\n      mul\n      not\n      and\n      swap1\n      dup4\n      0xffffffffffffffffffffffffffffffffffffffff\n      and\n      mul\n      or\n      swap1\n      sstore\n      pop\n        /* \"contracts/mycontract2.sol\":2328:2333  users */\n      0x03\n        /* \"contracts/mycontract2.sol\":2328:2345  users[msg.sender] */\n      0x00\n        /* \"contracts/mycontract2.sol\":2334:2344  msg.sender */\n      caller\n        /* \"contracts/mycontract2.sol\":2328:2345  users[msg.sender] */\n      0xffffffffffffffffffffffffffffffffffffffff\n      and\n      0xffffffffffffffffffffffffffffffffffffffff\n      and\n      dup2\n      mstore\n      0x20\n      add\n      swap1\n      dup2\n      mstore\n      0x20\n      add\n      0x00\n      keccak256\n        /* \"contracts/mycontract2.sol\":2328:2361  users[msg.sender].enrolledCourses */\n      0x03\n      add\n        /* \"contracts/mycontract2.sol\":2367:2375  courseId */\n      dup3\n        /* \"contracts/mycontract2.sol\":2328:2376  users[msg.sender].enrolledCourses.push(courseId) */\n      swap1\n      dup1\n      0x01\n      dup2\n      sload\n      add\n      dup1\n      dup3\n      sstore\n      dup1\n      swap2\n      pop\n      pop\n      0x01\n      swap1\n      sub\n      swap1\n      0x00\n      mstore\n      keccak256(0x00, 0x20)\n      add\n      0x00\n      swap1\n      swap2\n      swap1\n      swap2\n      swap1\n      swap2\n      pop\n      sstore\n        /* \"contracts/mycontract2.sol\":2397:2403  course */\n      dup1\n        /* \"contracts/mycontract2.sol\":2397:2411  course.creator */\n      0x03\n      add\n      0x00\n      swap1\n      sload\n      swap1\n      0x0100\n      exp\n      swap1\n      div\n      0xffffffffffffffffffffffffffffffffffffffff\n      and\n        /* \"contracts/mycontract2.sol\":2389:2421  payable(course.creator).transfer */\n      0xffffffffffffffffffffffffffffffffffffffff\n      and\n        /* \"contracts/mycontract2.sol\":2389:2432  payable(course.creator).transfer(msg.value) */\n      0x08fc\n        /* \"contracts/mycontract2.sol\":2422:2431  msg.value */\n      callvalue\n        /* \"contracts/mycontract2.sol\":2389:2432  payable(course.creator).transfer(msg.value) */\n      swap1\n      dup2\n      iszero\n      mul\n      swap1\n      mload(0x40)\n      0x00\n      mload(0x40)\n      dup1\n      dup4\n      sub\n      dup2\n      dup6\n      dup9\n      dup9\n      call\n      swap4\n      pop\n      pop\n      pop\n      pop\n      iszero\n      dup1\n      iszero\n      tag_125\n      jumpi\n      returndatasize\n      0x00\n      dup1\n      returndatacopy\n      revert(0x00, returndatasize)\n    tag_125:\n      pop\n        /* \"contracts/mycontract2.sol\":2448:2484  CourseEnrolled(courseId, msg.sender) */\n      0xd1a80c70750f3ae815515ec08d02c6202510aa13797609fe270e902cdfd99f03\n        /* \"contracts/mycontract2.sol\":2463:2471  courseId */\n      dup3\n        /* \"contracts/mycontract2.sol\":2473:2483  msg.sender */\n      caller\n        /* \"contracts/mycontract2.sol\":2448:2484  CourseEnrolled(courseId, msg.sender) */\n      mload(0x40)\n      tag_126\n      swap3\n      swap2\n      swap1\n      tag_117\n      jump\t// in\n    tag_126:\n      mload(0x40)\n      dup1\n      swap2\n      sub\n      swap1\n      log1\n        /* \"contracts/mycontract2.sol\":2151:2492  {... */\n      pop\n        /* \"contracts/mycontract2.sol\":2092:2492  function enrollInCourse(uint256 courseId) external payable {... */\n      pop\n      jump\t// out\n        /* \"contracts/mycontract2.sol\":4121:4291  function getCourseStudents(uint256 courseId)... */\n    tag_43:\n        /* \"contracts/mycontract2.sol\":4216:4232  address[] memory */\n      0x60\n        /* \"contracts/mycontract2.sol\":4257:4264  courses */\n      0x04\n        /* \"contracts/mycontract2.sol\":4257:4274  courses[courseId] */\n      0x00\n        /* \"contracts/mycontract2.sol\":4265:4273  courseId */\n      dup4\n        /* \"contracts/mycontract2.sol\":4257:4274  courses[courseId] */\n      dup2\n      mstore\n      0x20\n      add\n      swap1\n      dup2\n      mstore\n      0x20\n      add\n      0x00\n      keccak256\n        /* \"contracts/mycontract2.sol\":4257:4283  courses[courseId].students */\n      0x04\n      add\n        /* \"contracts/mycontract2.sol\":4250:4283  return courses[courseId].students */\n      dup1\n      sload\n      dup1\n      0x20\n      mul\n      0x20\n      add\n      mload(0x40)\n      swap1\n      dup2\n      add\n      0x40\n      mstore\n      dup1\n      swap3\n      swap2\n      swap1\n      dup2\n      dup2\n      mstore\n      0x20\n      add\n      dup3\n      dup1\n      sload\n      dup1\n      iszero\n      tag_128\n      jumpi\n      0x20\n      mul\n      dup3\n      add\n      swap2\n      swap1\n      0x00\n      mstore\n      keccak256(0x00, 0x20)\n      swap1\n    tag_129:\n      dup2\n      0x00\n      swap1\n      sload\n      swap1\n      0x0100\n      exp\n      swap1\n      div\n      0xffffffffffffffffffffffffffffffffffffffff\n      and\n      0xffffffffffffffffffffffffffffffffffffffff\n      and\n      dup2\n      mstore\n      0x20\n      add\n      swap1\n      0x01\n      add\n      swap1\n      dup1\n      dup4\n      gt\n      tag_129\n      jumpi\n    tag_128:\n      pop\n      pop\n      pop\n      pop\n      pop\n      swap1\n      pop\n        /* \"contracts/mycontract2.sol\":4121:4291  function getCourseStudents(uint256 courseId)... */\n      swap2\n      swap1\n      pop\n      jump\t// out\n        /* \"contracts/mycontract2.sol\":670:698  uint256 public courseCounter */\n    tag_48:\n      sload(0x01)\n      dup2\n      jump\t// out\n        /* \"contracts/mycontract2.sol\":4497:4669  function getUserEnrolledCourses(address user)... */\n    tag_54:\n        /* \"contracts/mycontract2.sol\":4593:4609  uint256[] memory */\n      0x60\n        /* \"contracts/mycontract2.sol\":4634:4639  users */\n      0x03\n        /* \"contracts/mycontract2.sol\":4634:4645  users[user] */\n      0x00\n        /* \"contracts/mycontract2.sol\":4640:4644  user */\n      dup4\n        /* \"contracts/mycontract2.sol\":4634:4645  users[user] */\n      0xffffffffffffffffffffffffffffffffffffffff\n      and\n      0xffffffffffffffffffffffffffffffffffffffff\n      and\n      dup2\n      mstore\n      0x20\n      add\n      swap1\n      dup2\n      mstore\n      0x20\n      add\n      0x00\n      keccak256\n        /* \"contracts/mycontract2.sol\":4634:4661  users[user].enrolledCourses */\n      0x03\n      add\n        /* \"contracts/mycontract2.sol\":4627:4661  return users[user].enrolledCourses */\n      dup1\n      sload\n      dup1\n      0x20\n      mul\n      0x20\n      add\n      mload(0x40)\n      swap1\n      dup2\n      add\n      0x40\n      mstore\n      dup1\n      swap3\n      swap2\n      swap1\n      dup2\n      dup2\n      mstore\n      0x20\n      add\n      dup3\n      dup1\n      sload\n      dup1\n      iszero\n      tag_131\n      jumpi\n      0x20\n      mul\n      dup3\n      add\n      swap2\n      swap1\n      0x00\n      mstore\n      keccak256(0x00, 0x20)\n      swap1\n    tag_132:\n      dup2\n      sload\n      dup2\n      mstore\n      0x20\n      add\n      swap1\n      0x01\n      add\n      swap1\n      dup1\n      dup4\n      gt\n      tag_132\n      jumpi\n    tag_131:\n      pop\n      pop\n      pop\n      pop\n      pop\n      swap1\n      pop\n        /* \"contracts/mycontract2.sol\":4497:4669  function getUserEnrolledCourses(address user)... */\n      swap2\n      swap1\n      pop\n      jump\t// out\n        /* \"contracts/mycontract2.sol\":643:663  address public owner */\n    tag_59:\n      0x00\n      dup1\n      sload\n      swap1\n      0x0100\n      exp\n      swap1\n      div\n      0xffffffffffffffffffffffffffffffffffffffff\n      and\n      dup2\n      jump\t// out\n        /* \"contracts/mycontract2.sol\":787:828  mapping(uint256 => Course) public courses */\n    tag_65:\n      mstore(0x20, 0x04)\n      dup1\n      0x00\n      mstore\n      keccak256(0x00, 0x40)\n      0x00\n      swap2\n      pop\n      swap1\n      pop\n      dup1\n      0x00\n      add\n      sload\n      swap1\n      dup1\n      0x01\n      add\n      dup1\n      sload\n      tag_133\n      swap1\n      tag_134\n      jump\t// in\n    tag_133:\n      dup1\n      0x1f\n      add\n      0x20\n      dup1\n      swap2\n      div\n      mul\n      0x20\n      add\n      mload(0x40)\n      swap1\n      dup2\n      add\n      0x40\n      mstore\n      dup1\n      swap3\n      swap2\n      swap1\n      dup2\n      dup2\n      mstore\n      0x20\n      add\n      dup3\n      dup1\n      sload\n      tag_135\n      swap1\n      tag_134\n      jump\t// in\n    tag_135:\n      dup1\n      iszero\n      tag_136\n      jumpi\n      dup1\n      0x1f\n      lt\n      tag_137\n      jumpi\n      0x0100\n      dup1\n      dup4\n      sload\n      div\n      mul\n      dup4\n      mstore\n      swap2\n      0x20\n      add\n      swap2\n      jump(tag_136)\n    tag_137:\n      dup3\n      add\n      swap2\n      swap1\n      0x00\n      mstore\n      keccak256(0x00, 0x20)\n      swap1\n    tag_138:\n      dup2\n      sload\n      dup2\n      mstore\n      swap1\n      0x01\n      add\n      swap1\n      0x20\n      add\n      dup1\n      dup4\n      gt\n      tag_138\n      jumpi\n      dup3\n      swap1\n      sub\n      0x1f\n      and\n      dup3\n      add\n      swap2\n    tag_136:\n      pop\n      pop\n      pop\n      pop\n      pop\n      swap1\n      dup1\n      0x02\n      add\n      sload\n      swap1\n      dup1\n      0x03\n      add\n      0x00\n      swap1\n      sload\n      swap1\n      0x0100\n      exp\n      swap1\n      div\n      0xffffffffffffffffffffffffffffffffffffffff\n      and\n      swap1\n      pop\n      dup5\n      jump\t// out\n        /* \"contracts/mycontract2.sol\":4299:4489  function getHackathonParticipants(uint256 hackathonId)... */\n    tag_71:\n        /* \"contracts/mycontract2.sol\":4404:4420  address[] memory */\n      0x60\n        /* \"contracts/mycontract2.sol\":4445:4455  hackathons */\n      0x05\n        /* \"contracts/mycontract2.sol\":4445:4468  hackathons[hackathonId] */\n      0x00\n        /* \"contracts/mycontract2.sol\":4456:4467  hackathonId */\n      dup4\n        /* \"contracts/mycontract2.sol\":4445:4468  hackathons[hackathonId] */\n      dup2\n      mstore\n      0x20\n      add\n      swap1\n      dup2\n      mstore\n      0x20\n      add\n      0x00\n      keccak256\n        /* \"contracts/mycontract2.sol\":4445:4481  hackathons[hackathonId].participants */\n      0x05\n      add\n        /* \"contracts/mycontract2.sol\":4438:4481  return hackathons[hackathonId].participants */\n      dup1\n      sload\n      dup1\n      0x20\n      mul\n      0x20\n      add\n      mload(0x40)\n      swap1\n      dup2\n      add\n      0x40\n      mstore\n      dup1\n      swap3\n      swap2\n      swap1\n      dup2\n      dup2\n      mstore\n      0x20\n      add\n      dup3\n      dup1\n      sload\n      dup1\n      iszero\n      tag_140\n      jumpi\n      0x20\n      mul\n      dup3\n      add\n      swap2\n      swap1\n      0x00\n      mstore\n      keccak256(0x00, 0x20)\n      swap1\n    tag_141:\n      dup2\n      0x00\n      swap1\n      sload\n      swap1\n      0x0100\n      exp\n      swap1\n      div\n      0xffffffffffffffffffffffffffffffffffffffff\n      and\n      0xffffffffffffffffffffffffffffffffffffffff\n      and\n      dup2\n      mstore\n      0x20\n      add\n      swap1\n      0x01\n      add\n      swap1\n      dup1\n      dup4\n      gt\n      tag_141\n      jumpi\n    tag_140:\n      pop\n      pop\n      pop\n      pop\n      pop\n      swap1\n      pop\n        /* \"contracts/mycontract2.sol\":4299:4489  function getHackathonParticipants(uint256 hackathonId)... */\n      swap2\n      swap1\n      pop\n      jump\t// out\n        /* \"contracts/mycontract2.sol\":1710:2084  function createCourse(string memory title, uint256 price) external {... */\n    tag_77:\n        /* \"contracts/mycontract2.sol\":1788:1801  courseCounter */\n      0x01\n      0x00\n        /* \"contracts/mycontract2.sol\":1788:1803  courseCounter++ */\n      dup2\n      sload\n      dup1\n      swap3\n      swap2\n      swap1\n      tag_143\n      swap1\n      tag_102\n      jump\t// in\n    tag_143:\n      swap2\n      swap1\n      pop\n      sstore\n      pop\n        /* \"contracts/mycontract2.sol\":1814:1838  Course storage newCourse */\n      0x00\n        /* \"contracts/mycontract2.sol\":1841:1848  courses */\n      0x04\n        /* \"contracts/mycontract2.sol\":1841:1863  courses[courseCounter] */\n      0x00\n        /* \"contracts/mycontract2.sol\":1849:1862  courseCounter */\n      sload(0x01)\n        /* \"contracts/mycontract2.sol\":1841:1863  courses[courseCounter] */\n      dup2\n      mstore\n      0x20\n      add\n      swap1\n      dup2\n      mstore\n      0x20\n      add\n      0x00\n      keccak256\n        /* \"contracts/mycontract2.sol\":1814:1863  Course storage newCourse = courses[courseCounter] */\n      swap1\n      pop\n        /* \"contracts/mycontract2.sol\":1889:1902  courseCounter */\n      sload(0x01)\n        /* \"contracts/mycontract2.sol\":1874:1883  newCourse */\n      dup2\n        /* \"contracts/mycontract2.sol\":1874:1886  newCourse.id */\n      0x00\n      add\n        /* \"contracts/mycontract2.sol\":1874:1902  newCourse.id = courseCounter */\n      dup2\n      swap1\n      sstore\n      pop\n        /* \"contracts/mycontract2.sol\":1931:1936  title */\n      dup3\n        /* \"contracts/mycontract2.sol\":1913:1922  newCourse */\n      dup2\n        /* \"contracts/mycontract2.sol\":1913:1928  newCourse.title */\n      0x01\n      add\n        /* \"contracts/mycontract2.sol\":1913:1936  newCourse.title = title */\n      swap1\n      dup2\n      tag_144\n      swap2\n      swap1\n      tag_104\n      jump\t// in\n    tag_144:\n      pop\n        /* \"contracts/mycontract2.sol\":1965:1970  price */\n      dup2\n        /* \"contracts/mycontract2.sol\":1947:1956  newCourse */\n      dup2\n        /* \"contracts/mycontract2.sol\":1947:1962  newCourse.price */\n      0x02\n      add\n        /* \"contracts/mycontract2.sol\":1947:1970  newCourse.price = price */\n      dup2\n      swap1\n      sstore\n      pop\n        /* \"contracts/mycontract2.sol\":2001:2011  msg.sender */\n      caller\n        /* \"contracts/mycontract2.sol\":1981:1990  newCourse */\n      dup2\n        /* \"contracts/mycontract2.sol\":1981:1998  newCourse.creator */\n      0x03\n      add\n      0x00\n        /* \"contracts/mycontract2.sol\":1981:2011  newCourse.creator = msg.sender */\n      0x0100\n      exp\n      dup2\n      sload\n      dup2\n      0xffffffffffffffffffffffffffffffffffffffff\n      mul\n      not\n      and\n      swap1\n      dup4\n      0xffffffffffffffffffffffffffffffffffffffff\n      and\n      mul\n      or\n      swap1\n      sstore\n      pop\n        /* \"contracts/mycontract2.sol\":2029:2076  CourseCreated(courseCounter, title, msg.sender) */\n      0xdb3fafffbb284e95f813ac0a83dbcafbbe522f0facb2ca6ed137fb6b807f3149\n        /* \"contracts/mycontract2.sol\":2043:2056  courseCounter */\n      sload(0x01)\n        /* \"contracts/mycontract2.sol\":2058:2063  title */\n      dup5\n        /* \"contracts/mycontract2.sol\":2065:2075  msg.sender */\n      caller\n        /* \"contracts/mycontract2.sol\":2029:2076  CourseCreated(courseCounter, title, msg.sender) */\n      mload(0x40)\n      tag_145\n      swap4\n      swap3\n      swap2\n      swap1\n      tag_106\n      jump\t// in\n    tag_145:\n      mload(0x40)\n      dup1\n      swap2\n      sub\n      swap1\n      log1\n        /* \"contracts/mycontract2.sol\":1777:2084  {... */\n      pop\n        /* \"contracts/mycontract2.sol\":1710:2084  function createCourse(string memory title, uint256 price) external {... */\n      pop\n      pop\n      jump\t// out\n        /* \"contracts/mycontract2.sol\":743:780  mapping(address => User) public users */\n    tag_81:\n      mstore(0x20, 0x03)\n      dup1\n      0x00\n      mstore\n      keccak256(0x00, 0x40)\n      0x00\n      swap2\n      pop\n      swap1\n      pop\n      dup1\n      0x00\n      add\n      0x00\n      swap1\n      sload\n      swap1\n      0x0100\n      exp\n      swap1\n      div\n      0xffffffffffffffffffffffffffffffffffffffff\n      and\n      swap1\n      dup1\n      0x01\n      add\n      dup1\n      sload\n      tag_146\n      swap1\n      tag_134\n      jump\t// in\n    tag_146:\n      dup1\n      0x1f\n      add\n      0x20\n      dup1\n      swap2\n      div\n      mul\n      0x20\n      add\n      mload(0x40)\n      swap1\n      dup2\n      add\n      0x40\n      mstore\n      dup1\n      swap3\n      swap2\n      swap1\n      dup2\n      dup2\n      mstore\n      0x20\n      add\n      dup3\n      dup1\n      sload\n      tag_147\n      swap1\n      tag_134\n      jump\t// in\n    tag_147:\n      dup1\n      iszero\n      tag_148\n      jumpi\n      dup1\n      0x1f\n      lt\n      tag_149\n      jumpi\n      0x0100\n      dup1\n      dup4\n      sload\n      div\n      mul\n      dup4\n      mstore\n      swap2\n      0x20\n      add\n      swap2\n      jump(tag_148)\n    tag_149:\n      dup3\n      add\n      swap2\n      swap1\n      0x00\n      mstore\n      keccak256(0x00, 0x20)\n      swap1\n    tag_150:\n      dup2\n      sload\n      dup2\n      mstore\n      swap1\n      0x01\n      add\n      swap1\n      0x20\n      add\n      dup1\n      dup4\n      gt\n      tag_150\n      jumpi\n      dup3\n      swap1\n      sub\n      0x1f\n      and\n      dup3\n      add\n      swap2\n    tag_148:\n      pop\n      pop\n      pop\n      pop\n      pop\n      swap1\n      dup1\n      0x02\n      add\n      dup1\n      sload\n      tag_151\n      swap1\n      tag_134\n      jump\t// in\n    tag_151:\n      dup1\n      0x1f\n      add\n      0x20\n      dup1\n      swap2\n      div\n      mul\n      0x20\n      add\n      mload(0x40)\n      swap1\n      dup2\n      add\n      0x40\n      mstore\n      dup1\n      swap3\n      swap2\n      swap1\n      dup2\n      dup2\n      mstore\n      0x20\n      add\n      dup3\n      dup1\n      sload\n      tag_152\n      swap1\n      tag_134\n      jump\t// in\n    tag_152:\n      dup1\n      iszero\n      tag_153\n      jumpi\n      dup1\n      0x1f\n      lt\n      tag_154\n      jumpi\n      0x0100\n      dup1\n      dup4\n      sload\n      div\n      mul\n      dup4\n      mstore\n      swap2\n      0x20\n      add\n      swap2\n      jump(tag_153)\n    tag_154:\n      dup3\n      add\n      swap2\n      swap1\n      0x00\n      mstore\n      keccak256(0x00, 0x20)\n      swap1\n    tag_155:\n      dup2\n      sload\n      dup2\n      mstore\n      swap1\n      0x01\n      add\n      swap1\n      0x20\n      add\n      dup1\n      dup4\n      gt\n      tag_155\n      jumpi\n      dup3\n      swap1\n      sub\n      0x1f\n      and\n      dup3\n      add\n      swap2\n    tag_153:\n      pop\n      pop\n      pop\n      pop\n      pop\n      swap1\n      pop\n      dup4\n      jump\t// out\n        /* \"contracts/mycontract2.sol\":835:882  mapping(uint256 => Hackathon) public hackathons */\n    tag_87:\n      mstore(0x20, 0x05)\n      dup1\n      0x00\n      mstore\n      keccak256(0x00, 0x40)\n      0x00\n      swap2\n      pop\n      swap1\n      pop\n      dup1\n      0x00\n      add\n      sload\n      swap1\n      dup1\n      0x01\n      add\n      dup1\n      sload\n      tag_156\n      swap1\n      tag_134\n      jump\t// in\n    tag_156:\n      dup1\n      0x1f\n      add\n      0x20\n      dup1\n      swap2\n      div\n      mul\n      0x20\n      add\n      mload(0x40)\n      swap1\n      dup2\n      add\n      0x40\n      mstore\n      dup1\n      swap3\n      swap2\n      swap1\n      dup2\n      dup2\n      mstore\n      0x20\n      add\n      dup3\n      dup1\n      sload\n      tag_157\n      swap1\n      tag_134\n      jump\t// in\n    tag_157:\n      dup1\n      iszero\n      tag_158\n      jumpi\n      dup1\n      0x1f\n      lt\n      tag_159\n      jumpi\n      0x0100\n      dup1\n      dup4\n      sload\n      div\n      mul\n      dup4\n      mstore\n      swap2\n      0x20\n      add\n      swap2\n      jump(tag_158)\n    tag_159:\n      dup3\n      add\n      swap2\n      swap1\n      0x00\n      mstore\n      keccak256(0x00, 0x20)\n      swap1\n    tag_160:\n      dup2\n      sload\n      dup2\n      mstore\n      swap1\n      0x01\n      add\n      swap1\n      0x20\n      add\n      dup1\n      dup4\n      gt\n      tag_160\n      jumpi\n      dup3\n      swap1\n      sub\n      0x1f\n      and\n      dup3\n      add\n      swap2\n    tag_158:\n      pop\n      pop\n      pop\n      pop\n      pop\n      swap1\n      dup1\n      0x02\n      add\n      sload\n      swap1\n      dup1\n      0x03\n      add\n      sload\n      swap1\n      dup1\n      0x04\n      add\n      0x00\n      swap1\n      sload\n      swap1\n      0x0100\n      exp\n      swap1\n      div\n      0xffffffffffffffffffffffffffffffffffffffff\n      and\n      swap1\n      dup1\n      0x06\n      add\n      0x00\n      swap1\n      sload\n      swap1\n      0x0100\n      exp\n      swap1\n      div\n      0xff\n      and\n      swap1\n      pop\n      dup7\n      jump\t// out\n        /* \"contracts/mycontract2.sol\":4677:4855  function getUserEnrolledHackathons(address user)... */\n    tag_93:\n        /* \"contracts/mycontract2.sol\":4776:4792  uint256[] memory */\n      0x60\n        /* \"contracts/mycontract2.sol\":4817:4822  users */\n      0x03\n        /* \"contracts/mycontract2.sol\":4817:4828  users[user] */\n      0x00\n        /* \"contracts/mycontract2.sol\":4823:4827  user */\n      dup4\n        /* \"contracts/mycontract2.sol\":4817:4828  users[user] */\n      0xffffffffffffffffffffffffffffffffffffffff\n      and\n      0xffffffffffffffffffffffffffffffffffffffff\n      and\n      dup2\n      mstore\n      0x20\n      add\n      swap1\n      dup2\n      mstore\n      0x20\n      add\n      0x00\n      keccak256\n        /* \"contracts/mycontract2.sol\":4817:4847  users[user].enrolledHackathons */\n      0x04\n      add\n        /* \"contracts/mycontract2.sol\":4810:4847  return users[user].enrolledHackathons */\n      dup1\n      sload\n      dup1\n      0x20\n      mul\n      0x20\n      add\n      mload(0x40)\n      swap1\n      dup2\n      add\n      0x40\n      mstore\n      dup1\n      swap3\n      swap2\n      swap1\n      dup2\n      dup2\n      mstore\n      0x20\n      add\n      dup3\n      dup1\n      sload\n      dup1\n      iszero\n      tag_162\n      jumpi\n      0x20\n      mul\n      dup3\n      add\n      swap2\n      swap1\n      0x00\n      mstore\n      keccak256(0x00, 0x20)\n      swap1\n    tag_163:\n      dup2\n      sload\n      dup2\n      mstore\n      0x20\n      add\n      swap1\n      0x01\n      add\n      swap1\n      dup1\n      dup4\n      gt\n      tag_163\n      jumpi\n    tag_162:\n      pop\n      pop\n      pop\n      pop\n      pop\n      swap1\n      pop\n        /* \"contracts/mycontract2.sol\":4677:4855  function getUserEnrolledHackathons(address user)... */\n      swap2\n      swap1\n      pop\n      jump\t// out\n        /* \"contracts/mycontract2.sol\":3592:4113  function distributePrize(uint256 hackathonId, address winner) external onlyOwner {... */\n    tag_99:\n        /* \"contracts/mycontract2.sol\":1369:1374  owner */\n      0x00\n      dup1\n      sload\n      swap1\n      0x0100\n      exp\n      swap1\n      div\n      0xffffffffffffffffffffffffffffffffffffffff\n      and\n        /* \"contracts/mycontract2.sol\":1355:1374  msg.sender == owner */\n      0xffffffffffffffffffffffffffffffffffffffff\n      and\n        /* \"contracts/mycontract2.sol\":1355:1365  msg.sender */\n      caller\n        /* \"contracts/mycontract2.sol\":1355:1374  msg.sender == owner */\n      0xffffffffffffffffffffffffffffffffffffffff\n      and\n      eq\n        /* \"contracts/mycontract2.sol\":1347:1413  require(msg.sender == owner, \"Only owner can perform this action\") */\n      tag_165\n      jumpi\n      mload(0x40)\n      0x08c379a000000000000000000000000000000000000000000000000000000000\n      dup2\n      mstore\n      0x04\n      add\n      tag_166\n      swap1\n      tag_167\n      jump\t// in\n    tag_166:\n      mload(0x40)\n      dup1\n      swap2\n      sub\n      swap1\n      revert\n    tag_165:\n        /* \"contracts/mycontract2.sol\":3684:3711  Hackathon storage hackathon */\n      0x00\n        /* \"contracts/mycontract2.sol\":3714:3724  hackathons */\n      0x05\n        /* \"contracts/mycontract2.sol\":3714:3737  hackathons[hackathonId] */\n      0x00\n        /* \"contracts/mycontract2.sol\":3725:3736  hackathonId */\n      dup5\n        /* \"contracts/mycontract2.sol\":3714:3737  hackathons[hackathonId] */\n      dup2\n      mstore\n      0x20\n      add\n      swap1\n      dup2\n      mstore\n      0x20\n      add\n      0x00\n      keccak256\n        /* \"contracts/mycontract2.sol\":3684:3737  Hackathon storage hackathon = hackathons[hackathonId] */\n      swap1\n      pop\n        /* \"contracts/mycontract2.sol\":3756:3765  hackathon */\n      dup1\n        /* \"contracts/mycontract2.sol\":3756:3774  hackathon.isActive */\n      0x06\n      add\n      0x00\n      swap1\n      sload\n      swap1\n      0x0100\n      exp\n      swap1\n      div\n      0xff\n      and\n        /* \"contracts/mycontract2.sol\":3748:3802  require(hackathon.isActive, \"Hackathon is not active\") */\n      tag_169\n      jumpi\n      mload(0x40)\n      0x08c379a000000000000000000000000000000000000000000000000000000000\n      dup2\n      mstore\n      0x04\n      add\n      tag_170\n      swap1\n      tag_110\n      jump\t// in\n    tag_170:\n      mload(0x40)\n      dup1\n      swap2\n      sub\n      swap1\n      revert\n    tag_169:\n        /* \"contracts/mycontract2.sol\":3860:3869  hackathon */\n      dup1\n        /* \"contracts/mycontract2.sol\":3860:3879  hackathon.prizePool */\n      0x03\n      add\n      sload\n        /* \"contracts/mycontract2.sol\":3835:3856  address(this).balance */\n      selfbalance\n        /* \"contracts/mycontract2.sol\":3835:3879  address(this).balance >= hackathon.prizePool */\n      lt\n      iszero\n        /* \"contracts/mycontract2.sol\":3813:3936  require(... */\n      tag_171\n      jumpi\n      mload(0x40)\n      0x08c379a000000000000000000000000000000000000000000000000000000000\n      dup2\n      mstore\n      0x04\n      add\n      tag_172\n      swap1\n      tag_173\n      jump\t// in\n    tag_172:\n      mload(0x40)\n      dup1\n      swap2\n      sub\n      swap1\n      revert\n    tag_171:\n        /* \"contracts/mycontract2.sol\":3970:3975  false */\n      0x00\n        /* \"contracts/mycontract2.sol\":3949:3958  hackathon */\n      dup2\n        /* \"contracts/mycontract2.sol\":3949:3967  hackathon.isActive */\n      0x06\n      add\n      0x00\n        /* \"contracts/mycontract2.sol\":3949:3975  hackathon.isActive = false */\n      0x0100\n      exp\n      dup2\n      sload\n      dup2\n      0xff\n      mul\n      not\n      and\n      swap1\n      dup4\n      iszero\n      iszero\n      mul\n      or\n      swap1\n      sstore\n      pop\n        /* \"contracts/mycontract2.sol\":3994:4000  winner */\n      dup2\n        /* \"contracts/mycontract2.sol\":3986:4010  payable(winner).transfer */\n      0xffffffffffffffffffffffffffffffffffffffff\n      and\n        /* \"contracts/mycontract2.sol\":3986:4031  payable(winner).transfer(hackathon.prizePool) */\n      0x08fc\n        /* \"contracts/mycontract2.sol\":4011:4020  hackathon */\n      dup3\n        /* \"contracts/mycontract2.sol\":4011:4030  hackathon.prizePool */\n      0x03\n      add\n      sload\n        /* \"contracts/mycontract2.sol\":3986:4031  payable(winner).transfer(hackathon.prizePool) */\n      swap1\n      dup2\n      iszero\n      mul\n      swap1\n      mload(0x40)\n      0x00\n      mload(0x40)\n      dup1\n      dup4\n      sub\n      dup2\n      dup6\n      dup9\n      dup9\n      call\n      swap4\n      pop\n      pop\n      pop\n      pop\n      iszero\n      dup1\n      iszero\n      tag_175\n      jumpi\n      returndatasize\n      0x00\n      dup1\n      returndatacopy\n      revert(0x00, returndatasize)\n    tag_175:\n      pop\n        /* \"contracts/mycontract2.sol\":4047:4105  PrizeDistributed(hackathonId, winner, hackathon.prizePool) */\n      0xdc1d0b6a7cbfa6f3b2d4325bab5a169b265ad0b2b4022fb550364f0dfeeb6a74\n        /* \"contracts/mycontract2.sol\":4064:4075  hackathonId */\n      dup4\n        /* \"contracts/mycontract2.sol\":4077:4083  winner */\n      dup4\n        /* \"contracts/mycontract2.sol\":4085:4094  hackathon */\n      dup4\n        /* \"contracts/mycontract2.sol\":4085:4104  hackathon.prizePool */\n      0x03\n      add\n      sload\n        /* \"contracts/mycontract2.sol\":4047:4105  PrizeDistributed(hackathonId, winner, hackathon.prizePool) */\n      mload(0x40)\n      tag_176\n      swap4\n      swap3\n      swap2\n      swap1\n      tag_177\n      jump\t// in\n    tag_176:\n      mload(0x40)\n      dup1\n      swap2\n      sub\n      swap1\n      log1\n        /* \"contracts/mycontract2.sol\":3673:4113  {... */\n      pop\n        /* \"contracts/mycontract2.sol\":3592:4113  function distributePrize(uint256 hackathonId, address winner) external onlyOwner {... */\n      pop\n      pop\n      jump\t// out\n        /* \"#utility.yul\":7:82   */\n    tag_178:\n        /* \"#utility.yul\":40:46   */\n      0x00\n        /* \"#utility.yul\":73:75   */\n      0x40\n        /* \"#utility.yul\":67:76   */\n      mload\n        /* \"#utility.yul\":57:76   */\n      swap1\n      pop\n        /* \"#utility.yul\":7:82   */\n      swap1\n      jump\t// out\n        /* \"#utility.yul\":88:205   */\n    tag_179:\n        /* \"#utility.yul\":197:198   */\n      0x00\n        /* \"#utility.yul\":194:195   */\n      dup1\n        /* \"#utility.yul\":187:199   */\n      revert\n        /* \"#utility.yul\":211:328   */\n    tag_180:\n        /* \"#utility.yul\":320:321   */\n      0x00\n        /* \"#utility.yul\":317:318   */\n      dup1\n        /* \"#utility.yul\":310:322   */\n      revert\n        /* \"#utility.yul\":334:451   */\n    tag_181:\n        /* \"#utility.yul\":443:444   */\n      0x00\n        /* \"#utility.yul\":440:441   */\n      dup1\n        /* \"#utility.yul\":433:445   */\n      revert\n        /* \"#utility.yul\":457:574   */\n    tag_182:\n        /* \"#utility.yul\":566:567   */\n      0x00\n        /* \"#utility.yul\":563:564   */\n      dup1\n        /* \"#utility.yul\":556:568   */\n      revert\n        /* \"#utility.yul\":580:682   */\n    tag_183:\n        /* \"#utility.yul\":621:627   */\n      0x00\n        /* \"#utility.yul\":672:674   */\n      0x1f\n        /* \"#utility.yul\":668:675   */\n      not\n        /* \"#utility.yul\":663:665   */\n      0x1f\n        /* \"#utility.yul\":656:661   */\n      dup4\n        /* \"#utility.yul\":652:666   */\n      add\n        /* \"#utility.yul\":648:676   */\n      and\n        /* \"#utility.yul\":638:676   */\n      swap1\n      pop\n        /* \"#utility.yul\":580:682   */\n      swap2\n      swap1\n      pop\n      jump\t// out\n        /* \"#utility.yul\":688:868   */\n    tag_184:\n        /* \"#utility.yul\":736:813   */\n      0x4e487b7100000000000000000000000000000000000000000000000000000000\n        /* \"#utility.yul\":733:734   */\n      0x00\n        /* \"#utility.yul\":726:814   */\n      mstore\n        /* \"#utility.yul\":833:837   */\n      0x41\n        /* \"#utility.yul\":830:831   */\n      0x04\n        /* \"#utility.yul\":823:838   */\n      mstore\n        /* \"#utility.yul\":857:861   */\n      0x24\n        /* \"#utility.yul\":854:855   */\n      0x00\n        /* \"#utility.yul\":847:862   */\n      revert\n        /* \"#utility.yul\":874:1155   */\n    tag_185:\n        /* \"#utility.yul\":957:984   */\n      tag_256\n        /* \"#utility.yul\":979:983   */\n      dup3\n        /* \"#utility.yul\":957:984   */\n      tag_183\n      jump\t// in\n    tag_256:\n        /* \"#utility.yul\":949:955   */\n      dup2\n        /* \"#utility.yul\":945:985   */\n      add\n        /* \"#utility.yul\":1087:1093   */\n      dup2\n        /* \"#utility.yul\":1075:1085   */\n      dup2\n        /* \"#utility.yul\":1072:1094   */\n      lt\n        /* \"#utility.yul\":1051:1069   */\n      0xffffffffffffffff\n        /* \"#utility.yul\":1039:1049   */\n      dup3\n        /* \"#utility.yul\":1036:1070   */\n      gt\n        /* \"#utility.yul\":1033:1095   */\n      or\n        /* \"#utility.yul\":1030:1118   */\n      iszero\n      tag_257\n      jumpi\n        /* \"#utility.yul\":1098:1116   */\n      tag_258\n      tag_184\n      jump\t// in\n    tag_258:\n        /* \"#utility.yul\":1030:1118   */\n    tag_257:\n        /* \"#utility.yul\":1138:1148   */\n      dup1\n        /* \"#utility.yul\":1134:1136   */\n      0x40\n        /* \"#utility.yul\":1127:1149   */\n      mstore\n        /* \"#utility.yul\":917:1155   */\n      pop\n        /* \"#utility.yul\":874:1155   */\n      pop\n      pop\n      jump\t// out\n        /* \"#utility.yul\":1161:1290   */\n    tag_186:\n        /* \"#utility.yul\":1195:1201   */\n      0x00\n        /* \"#utility.yul\":1222:1242   */\n      tag_260\n      tag_178\n      jump\t// in\n    tag_260:\n        /* \"#utility.yul\":1212:1242   */\n      swap1\n      pop\n        /* \"#utility.yul\":1251:1284   */\n      tag_261\n        /* \"#utility.yul\":1279:1283   */\n      dup3\n        /* \"#utility.yul\":1271:1277   */\n      dup3\n        /* \"#utility.yul\":1251:1284   */\n      tag_185\n      jump\t// in\n    tag_261:\n        /* \"#utility.yul\":1161:1290   */\n      swap2\n      swap1\n      pop\n      jump\t// out\n        /* \"#utility.yul\":1296:1604   */\n    tag_187:\n        /* \"#utility.yul\":1358:1362   */\n      0x00\n        /* \"#utility.yul\":1448:1466   */\n      0xffffffffffffffff\n        /* \"#utility.yul\":1440:1446   */\n      dup3\n        /* \"#utility.yul\":1437:1467   */\n      gt\n        /* \"#utility.yul\":1434:1490   */\n      iszero\n      tag_263\n      jumpi\n        /* \"#utility.yul\":1470:1488   */\n      tag_264\n      tag_184\n      jump\t// in\n    tag_264:\n        /* \"#utility.yul\":1434:1490   */\n    tag_263:\n        /* \"#utility.yul\":1508:1537   */\n      tag_265\n        /* \"#utility.yul\":1530:1536   */\n      dup3\n        /* \"#utility.yul\":1508:1537   */\n      tag_183\n      jump\t// in\n    tag_265:\n        /* \"#utility.yul\":1500:1537   */\n      swap1\n      pop\n        /* \"#utility.yul\":1592:1596   */\n      0x20\n        /* \"#utility.yul\":1586:1590   */\n      dup2\n        /* \"#utility.yul\":1582:1597   */\n      add\n        /* \"#utility.yul\":1574:1597   */\n      swap1\n      pop\n        /* \"#utility.yul\":1296:1604   */\n      swap2\n      swap1\n      pop\n      jump\t// out\n        /* \"#utility.yul\":1610:1758   */\n    tag_188:\n        /* \"#utility.yul\":1708:1714   */\n      dup3\n        /* \"#utility.yul\":1703:1706   */\n      dup2\n        /* \"#utility.yul\":1698:1701   */\n      dup4\n        /* \"#utility.yul\":1685:1715   */\n      calldatacopy\n        /* \"#utility.yul\":1749:1750   */\n      0x00\n        /* \"#utility.yul\":1740:1746   */\n      dup4\n        /* \"#utility.yul\":1735:1738   */\n      dup4\n        /* \"#utility.yul\":1731:1747   */\n      add\n        /* \"#utility.yul\":1724:1751   */\n      mstore\n        /* \"#utility.yul\":1610:1758   */\n      pop\n      pop\n      pop\n      jump\t// out\n        /* \"#utility.yul\":1764:2189   */\n    tag_189:\n        /* \"#utility.yul\":1842:1847   */\n      0x00\n        /* \"#utility.yul\":1867:1933   */\n      tag_268\n        /* \"#utility.yul\":1883:1932   */\n      tag_269\n        /* \"#utility.yul\":1925:1931   */\n      dup5\n        /* \"#utility.yul\":1883:1932   */\n      tag_187\n      jump\t// in\n    tag_269:\n        /* \"#utility.yul\":1867:1933   */\n      tag_186\n      jump\t// in\n    tag_268:\n        /* \"#utility.yul\":1858:1933   */\n      swap1\n      pop\n        /* \"#utility.yul\":1956:1962   */\n      dup3\n        /* \"#utility.yul\":1949:1954   */\n      dup2\n        /* \"#utility.yul\":1942:1963   */\n      mstore\n        /* \"#utility.yul\":1994:1998   */\n      0x20\n        /* \"#utility.yul\":1987:1992   */\n      dup2\n        /* \"#utility.yul\":1983:1999   */\n      add\n        /* \"#utility.yul\":2032:2035   */\n      dup5\n        /* \"#utility.yul\":2023:2029   */\n      dup5\n        /* \"#utility.yul\":2018:2021   */\n      dup5\n        /* \"#utility.yul\":2014:2030   */\n      add\n        /* \"#utility.yul\":2011:2036   */\n      gt\n        /* \"#utility.yul\":2008:2120   */\n      iszero\n      tag_270\n      jumpi\n        /* \"#utility.yul\":2039:2118   */\n      tag_271\n      tag_182\n      jump\t// in\n    tag_271:\n        /* \"#utility.yul\":2008:2120   */\n    tag_270:\n        /* \"#utility.yul\":2129:2183   */\n      tag_272\n        /* \"#utility.yul\":2176:2182   */\n      dup5\n        /* \"#utility.yul\":2171:2174   */\n      dup3\n        /* \"#utility.yul\":2166:2169   */\n      dup6\n        /* \"#utility.yul\":2129:2183   */\n      tag_188\n      jump\t// in\n    tag_272:\n        /* \"#utility.yul\":1848:2189   */\n      pop\n        /* \"#utility.yul\":1764:2189   */\n      swap4\n      swap3\n      pop\n      pop\n      pop\n      jump\t// out\n        /* \"#utility.yul\":2209:2549   */\n    tag_190:\n        /* \"#utility.yul\":2265:2270   */\n      0x00\n        /* \"#utility.yul\":2314:2317   */\n      dup3\n        /* \"#utility.yul\":2307:2311   */\n      0x1f\n        /* \"#utility.yul\":2299:2305   */\n      dup4\n        /* \"#utility.yul\":2295:2312   */\n      add\n        /* \"#utility.yul\":2291:2318   */\n      slt\n        /* \"#utility.yul\":2281:2403   */\n      tag_274\n      jumpi\n        /* \"#utility.yul\":2322:2401   */\n      tag_275\n      tag_181\n      jump\t// in\n    tag_275:\n        /* \"#utility.yul\":2281:2403   */\n    tag_274:\n        /* \"#utility.yul\":2439:2445   */\n      dup2\n        /* \"#utility.yul\":2426:2446   */\n      calldataload\n        /* \"#utility.yul\":2464:2543   */\n      tag_276\n        /* \"#utility.yul\":2539:2542   */\n      dup5\n        /* \"#utility.yul\":2531:2537   */\n      dup3\n        /* \"#utility.yul\":2524:2528   */\n      0x20\n        /* \"#utility.yul\":2516:2522   */\n      dup7\n        /* \"#utility.yul\":2512:2529   */\n      add\n        /* \"#utility.yul\":2464:2543   */\n      tag_189\n      jump\t// in\n    tag_276:\n        /* \"#utility.yul\":2455:2543   */\n      swap2\n      pop\n        /* \"#utility.yul\":2271:2549   */\n      pop\n        /* \"#utility.yul\":2209:2549   */\n      swap3\n      swap2\n      pop\n      pop\n      jump\t// out\n        /* \"#utility.yul\":2555:2632   */\n    tag_191:\n        /* \"#utility.yul\":2592:2599   */\n      0x00\n        /* \"#utility.yul\":2621:2626   */\n      dup2\n        /* \"#utility.yul\":2610:2626   */\n      swap1\n      pop\n        /* \"#utility.yul\":2555:2632   */\n      swap2\n      swap1\n      pop\n      jump\t// out\n        /* \"#utility.yul\":2638:2760   */\n    tag_192:\n        /* \"#utility.yul\":2711:2735   */\n      tag_279\n        /* \"#utility.yul\":2729:2734   */\n      dup2\n        /* \"#utility.yul\":2711:2735   */\n      tag_191\n      jump\t// in\n    tag_279:\n        /* \"#utility.yul\":2704:2709   */\n      dup2\n        /* \"#utility.yul\":2701:2736   */\n      eq\n        /* \"#utility.yul\":2691:2754   */\n      tag_280\n      jumpi\n        /* \"#utility.yul\":2750:2751   */\n      0x00\n        /* \"#utility.yul\":2747:2748   */\n      dup1\n        /* \"#utility.yul\":2740:2752   */\n      revert\n        /* \"#utility.yul\":2691:2754   */\n    tag_280:\n        /* \"#utility.yul\":2638:2760   */\n      pop\n      jump\t// out\n        /* \"#utility.yul\":2766:2905   */\n    tag_193:\n        /* \"#utility.yul\":2812:2817   */\n      0x00\n        /* \"#utility.yul\":2850:2856   */\n      dup2\n        /* \"#utility.yul\":2837:2857   */\n      calldataload\n        /* \"#utility.yul\":2828:2857   */\n      swap1\n      pop\n        /* \"#utility.yul\":2866:2899   */\n      tag_282\n        /* \"#utility.yul\":2893:2898   */\n      dup2\n        /* \"#utility.yul\":2866:2899   */\n      tag_192\n      jump\t// in\n    tag_282:\n        /* \"#utility.yul\":2766:2905   */\n      swap3\n      swap2\n      pop\n      pop\n      jump\t// out\n        /* \"#utility.yul\":2911:3710   */\n    tag_26:\n        /* \"#utility.yul\":2998:3004   */\n      0x00\n        /* \"#utility.yul\":3006:3012   */\n      dup1\n        /* \"#utility.yul\":3014:3020   */\n      0x00\n        /* \"#utility.yul\":3063:3065   */\n      0x60\n        /* \"#utility.yul\":3051:3060   */\n      dup5\n        /* \"#utility.yul\":3042:3049   */\n      dup7\n        /* \"#utility.yul\":3038:3061   */\n      sub\n        /* \"#utility.yul\":3034:3066   */\n      slt\n        /* \"#utility.yul\":3031:3150   */\n      iszero\n      tag_284\n      jumpi\n        /* \"#utility.yul\":3069:3148   */\n      tag_285\n      tag_179\n      jump\t// in\n    tag_285:\n        /* \"#utility.yul\":3031:3150   */\n    tag_284:\n        /* \"#utility.yul\":3217:3218   */\n      0x00\n        /* \"#utility.yul\":3206:3215   */\n      dup5\n        /* \"#utility.yul\":3202:3219   */\n      add\n        /* \"#utility.yul\":3189:3220   */\n      calldataload\n        /* \"#utility.yul\":3247:3265   */\n      0xffffffffffffffff\n        /* \"#utility.yul\":3239:3245   */\n      dup2\n        /* \"#utility.yul\":3236:3266   */\n      gt\n        /* \"#utility.yul\":3233:3350   */\n      iszero\n      tag_286\n      jumpi\n        /* \"#utility.yul\":3269:3348   */\n      tag_287\n      tag_180\n      jump\t// in\n    tag_287:\n        /* \"#utility.yul\":3233:3350   */\n    tag_286:\n        /* \"#utility.yul\":3374:3437   */\n      tag_288\n        /* \"#utility.yul\":3429:3436   */\n      dup7\n        /* \"#utility.yul\":3420:3426   */\n      dup3\n        /* \"#utility.yul\":3409:3418   */\n      dup8\n        /* \"#utility.yul\":3405:3427   */\n      add\n        /* \"#utility.yul\":3374:3437   */\n      tag_190\n      jump\t// in\n    tag_288:\n        /* \"#utility.yul\":3364:3437   */\n      swap4\n      pop\n        /* \"#utility.yul\":3160:3447   */\n      pop\n        /* \"#utility.yul\":3486:3488   */\n      0x20\n        /* \"#utility.yul\":3512:3565   */\n      tag_289\n        /* \"#utility.yul\":3557:3564   */\n      dup7\n        /* \"#utility.yul\":3548:3554   */\n      dup3\n        /* \"#utility.yul\":3537:3546   */\n      dup8\n        /* \"#utility.yul\":3533:3555   */\n      add\n        /* \"#utility.yul\":3512:3565   */\n      tag_193\n      jump\t// in\n    tag_289:\n        /* \"#utility.yul\":3502:3565   */\n      swap3\n      pop\n        /* \"#utility.yul\":3457:3575   */\n      pop\n        /* \"#utility.yul\":3614:3616   */\n      0x40\n        /* \"#utility.yul\":3640:3693   */\n      tag_290\n        /* \"#utility.yul\":3685:3692   */\n      dup7\n        /* \"#utility.yul\":3676:3682   */\n      dup3\n        /* \"#utility.yul\":3665:3674   */\n      dup8\n        /* \"#utility.yul\":3661:3683   */\n      add\n        /* \"#utility.yul\":3640:3693   */\n      tag_193\n      jump\t// in\n    tag_290:\n        /* \"#utility.yul\":3630:3693   */\n      swap2\n      pop\n        /* \"#utility.yul\":3585:3703   */\n      pop\n        /* \"#utility.yul\":2911:3710   */\n      swap3\n      pop\n      swap3\n      pop\n      swap3\n      jump\t// out\n        /* \"#utility.yul\":3716:3834   */\n    tag_194:\n        /* \"#utility.yul\":3803:3827   */\n      tag_292\n        /* \"#utility.yul\":3821:3826   */\n      dup2\n        /* \"#utility.yul\":3803:3827   */\n      tag_191\n      jump\t// in\n    tag_292:\n        /* \"#utility.yul\":3798:3801   */\n      dup3\n        /* \"#utility.yul\":3791:3828   */\n      mstore\n        /* \"#utility.yul\":3716:3834   */\n      pop\n      pop\n      jump\t// out\n        /* \"#utility.yul\":3840:4062   */\n    tag_32:\n        /* \"#utility.yul\":3933:3937   */\n      0x00\n        /* \"#utility.yul\":3971:3973   */\n      0x20\n        /* \"#utility.yul\":3960:3969   */\n      dup3\n        /* \"#utility.yul\":3956:3974   */\n      add\n        /* \"#utility.yul\":3948:3974   */\n      swap1\n      pop\n        /* \"#utility.yul\":3984:4055   */\n      tag_294\n        /* \"#utility.yul\":4052:4053   */\n      0x00\n        /* \"#utility.yul\":4041:4050   */\n      dup4\n        /* \"#utility.yul\":4037:4054   */\n      add\n        /* \"#utility.yul\":4028:4034   */\n      dup5\n        /* \"#utility.yul\":3984:4055   */\n      tag_194\n      jump\t// in\n    tag_294:\n        /* \"#utility.yul\":3840:4062   */\n      swap3\n      swap2\n      pop\n      pop\n      jump\t// out\n        /* \"#utility.yul\":4068:4397   */\n    tag_35:\n        /* \"#utility.yul\":4127:4133   */\n      0x00\n        /* \"#utility.yul\":4176:4178   */\n      0x20\n        /* \"#utility.yul\":4164:4173   */\n      dup3\n        /* \"#utility.yul\":4155:4162   */\n      dup5\n        /* \"#utility.yul\":4151:4174   */\n      sub\n        /* \"#utility.yul\":4147:4179   */\n      slt\n        /* \"#utility.yul\":4144:4263   */\n      iszero\n      tag_296\n      jumpi\n        /* \"#utility.yul\":4182:4261   */\n      tag_297\n      tag_179\n      jump\t// in\n    tag_297:\n        /* \"#utility.yul\":4144:4263   */\n    tag_296:\n        /* \"#utility.yul\":4302:4303   */\n      0x00\n        /* \"#utility.yul\":4327:4380   */\n      tag_298\n        /* \"#utility.yul\":4372:4379   */\n      dup5\n        /* \"#utility.yul\":4363:4369   */\n      dup3\n        /* \"#utility.yul\":4352:4361   */\n      dup6\n        /* \"#utility.yul\":4348:4370   */\n      add\n        /* \"#utility.yul\":4327:4380   */\n      tag_193\n      jump\t// in\n    tag_298:\n        /* \"#utility.yul\":4317:4380   */\n      swap2\n      pop\n        /* \"#utility.yul\":4273:4390   */\n      pop\n        /* \"#utility.yul\":4068:4397   */\n      swap3\n      swap2\n      pop\n      pop\n      jump\t// out\n        /* \"#utility.yul\":4403:4517   */\n    tag_195:\n        /* \"#utility.yul\":4470:4476   */\n      0x00\n        /* \"#utility.yul\":4504:4509   */\n      dup2\n        /* \"#utility.yul\":4498:4510   */\n      mload\n        /* \"#utility.yul\":4488:4510   */\n      swap1\n      pop\n        /* \"#utility.yul\":4403:4517   */\n      swap2\n      swap1\n      pop\n      jump\t// out\n        /* \"#utility.yul\":4523:4707   */\n    tag_196:\n        /* \"#utility.yul\":4622:4633   */\n      0x00\n        /* \"#utility.yul\":4656:4662   */\n      dup3\n        /* \"#utility.yul\":4651:4654   */\n      dup3\n        /* \"#utility.yul\":4644:4663   */\n      mstore\n        /* \"#utility.yul\":4696:4700   */\n      0x20\n        /* \"#utility.yul\":4691:4694   */\n      dup3\n        /* \"#utility.yul\":4687:4701   */\n      add\n        /* \"#utility.yul\":4672:4701   */\n      swap1\n      pop\n        /* \"#utility.yul\":4523:4707   */\n      swap3\n      swap2\n      pop\n      pop\n      jump\t// out\n        /* \"#utility.yul\":4713:4845   */\n    tag_197:\n        /* \"#utility.yul\":4780:4784   */\n      0x00\n        /* \"#utility.yul\":4803:4806   */\n      dup2\n        /* \"#utility.yul\":4795:4806   */\n      swap1\n      pop\n        /* \"#utility.yul\":4833:4837   */\n      0x20\n        /* \"#utility.yul\":4828:4831   */\n      dup3\n        /* \"#utility.yul\":4824:4838   */\n      add\n        /* \"#utility.yul\":4816:4838   */\n      swap1\n      pop\n        /* \"#utility.yul\":4713:4845   */\n      swap2\n      swap1\n      pop\n      jump\t// out\n        /* \"#utility.yul\":4851:4977   */\n    tag_198:\n        /* \"#utility.yul\":4888:4895   */\n      0x00\n        /* \"#utility.yul\":4928:4970   */\n      0xffffffffffffffffffffffffffffffffffffffff\n        /* \"#utility.yul\":4921:4926   */\n      dup3\n        /* \"#utility.yul\":4917:4971   */\n      and\n        /* \"#utility.yul\":4906:4971   */\n      swap1\n      pop\n        /* \"#utility.yul\":4851:4977   */\n      swap2\n      swap1\n      pop\n      jump\t// out\n        /* \"#utility.yul\":4983:5079   */\n    tag_199:\n        /* \"#utility.yul\":5020:5027   */\n      0x00\n        /* \"#utility.yul\":5049:5073   */\n      tag_304\n        /* \"#utility.yul\":5067:5072   */\n      dup3\n        /* \"#utility.yul\":5049:5073   */\n      tag_198\n      jump\t// in\n    tag_304:\n        /* \"#utility.yul\":5038:5073   */\n      swap1\n      pop\n        /* \"#utility.yul\":4983:5079   */\n      swap2\n      swap1\n      pop\n      jump\t// out\n        /* \"#utility.yul\":5085:5193   */\n    tag_200:\n        /* \"#utility.yul\":5162:5186   */\n      tag_306\n        /* \"#utility.yul\":5180:5185   */\n      dup2\n        /* \"#utility.yul\":5162:5186   */\n      tag_199\n      jump\t// in\n    tag_306:\n        /* \"#utility.yul\":5157:5160   */\n      dup3\n        /* \"#utility.yul\":5150:5187   */\n      mstore\n        /* \"#utility.yul\":5085:5193   */\n      pop\n      pop\n      jump\t// out\n        /* \"#utility.yul\":5199:5378   */\n    tag_201:\n        /* \"#utility.yul\":5268:5278   */\n      0x00\n        /* \"#utility.yul\":5289:5335   */\n      tag_308\n        /* \"#utility.yul\":5331:5334   */\n      dup4\n        /* \"#utility.yul\":5323:5329   */\n      dup4\n        /* \"#utility.yul\":5289:5335   */\n      tag_200\n      jump\t// in\n    tag_308:\n        /* \"#utility.yul\":5367:5371   */\n      0x20\n        /* \"#utility.yul\":5362:5365   */\n      dup4\n        /* \"#utility.yul\":5358:5372   */\n      add\n        /* \"#utility.yul\":5344:5372   */\n      swap1\n      pop\n        /* \"#utility.yul\":5199:5378   */\n      swap3\n      swap2\n      pop\n      pop\n      jump\t// out\n        /* \"#utility.yul\":5384:5497   */\n    tag_202:\n        /* \"#utility.yul\":5454:5458   */\n      0x00\n        /* \"#utility.yul\":5486:5490   */\n      0x20\n        /* \"#utility.yul\":5481:5484   */\n      dup3\n        /* \"#utility.yul\":5477:5491   */\n      add\n        /* \"#utility.yul\":5469:5491   */\n      swap1\n      pop\n        /* \"#utility.yul\":5384:5497   */\n      swap2\n      swap1\n      pop\n      jump\t// out\n        /* \"#utility.yul\":5533:6265   */\n    tag_203:\n        /* \"#utility.yul\":5652:5655   */\n      0x00\n        /* \"#utility.yul\":5681:5735   */\n      tag_311\n        /* \"#utility.yul\":5729:5734   */\n      dup3\n        /* \"#utility.yul\":5681:5735   */\n      tag_195\n      jump\t// in\n    tag_311:\n        /* \"#utility.yul\":5751:5837   */\n      tag_312\n        /* \"#utility.yul\":5830:5836   */\n      dup2\n        /* \"#utility.yul\":5825:5828   */\n      dup6\n        /* \"#utility.yul\":5751:5837   */\n      tag_196\n      jump\t// in\n    tag_312:\n        /* \"#utility.yul\":5744:5837   */\n      swap4\n      pop\n        /* \"#utility.yul\":5861:5917   */\n      tag_313\n        /* \"#utility.yul\":5911:5916   */\n      dup4\n        /* \"#utility.yul\":5861:5917   */\n      tag_197\n      jump\t// in\n    tag_313:\n        /* \"#utility.yul\":5940:5947   */\n      dup1\n        /* \"#utility.yul\":5971:5972   */\n      0x00\n        /* \"#utility.yul\":5956:6240   */\n    tag_314:\n        /* \"#utility.yul\":5981:5987   */\n      dup4\n        /* \"#utility.yul\":5978:5979   */\n      dup2\n        /* \"#utility.yul\":5975:5988   */\n      lt\n        /* \"#utility.yul\":5956:6240   */\n      iszero\n      tag_316\n      jumpi\n        /* \"#utility.yul\":6057:6063   */\n      dup2\n        /* \"#utility.yul\":6051:6064   */\n      mload\n        /* \"#utility.yul\":6084:6147   */\n      tag_317\n        /* \"#utility.yul\":6143:6146   */\n      dup9\n        /* \"#utility.yul\":6128:6141   */\n      dup3\n        /* \"#utility.yul\":6084:6147   */\n      tag_201\n      jump\t// in\n    tag_317:\n        /* \"#utility.yul\":6077:6147   */\n      swap8\n      pop\n        /* \"#utility.yul\":6170:6230   */\n      tag_318\n        /* \"#utility.yul\":6223:6229   */\n      dup4\n        /* \"#utility.yul\":6170:6230   */\n      tag_202\n      jump\t// in\n    tag_318:\n        /* \"#utility.yul\":6160:6230   */\n      swap3\n      pop\n        /* \"#utility.yul\":6016:6240   */\n      pop\n        /* \"#utility.yul\":6003:6004   */\n      0x01\n        /* \"#utility.yul\":6000:6001   */\n      dup2\n        /* \"#utility.yul\":5996:6005   */\n      add\n        /* \"#utility.yul\":5991:6005   */\n      swap1\n      pop\n        /* \"#utility.yul\":5956:6240   */\n      jump(tag_314)\n    tag_316:\n        /* \"#utility.yul\":5960:5974   */\n      pop\n        /* \"#utility.yul\":6256:6259   */\n      dup6\n        /* \"#utility.yul\":6249:6259   */\n      swap4\n      pop\n        /* \"#utility.yul\":5657:6265   */\n      pop\n      pop\n      pop\n        /* \"#utility.yul\":5533:6265   */\n      swap3\n      swap2\n      pop\n      pop\n      jump\t// out\n        /* \"#utility.yul\":6271:6644   */\n    tag_45:\n        /* \"#utility.yul\":6414:6418   */\n      0x00\n        /* \"#utility.yul\":6452:6454   */\n      0x20\n        /* \"#utility.yul\":6441:6450   */\n      dup3\n        /* \"#utility.yul\":6437:6455   */\n      add\n        /* \"#utility.yul\":6429:6455   */\n      swap1\n      pop\n        /* \"#utility.yul\":6501:6510   */\n      dup2\n        /* \"#utility.yul\":6495:6499   */\n      dup2\n        /* \"#utility.yul\":6491:6511   */\n      sub\n        /* \"#utility.yul\":6487:6488   */\n      0x00\n        /* \"#utility.yul\":6476:6485   */\n      dup4\n        /* \"#utility.yul\":6472:6489   */\n      add\n        /* \"#utility.yul\":6465:6512   */\n      mstore\n        /* \"#utility.yul\":6529:6637   */\n      tag_320\n        /* \"#utility.yul\":6632:6636   */\n      dup2\n        /* \"#utility.yul\":6623:6629   */\n      dup5\n        /* \"#utility.yul\":6529:6637   */\n      tag_203\n      jump\t// in\n    tag_320:\n        /* \"#utility.yul\":6521:6637   */\n      swap1\n      pop\n        /* \"#utility.yul\":6271:6644   */\n      swap3\n      swap2\n      pop\n      pop\n      jump\t// out\n        /* \"#utility.yul\":6650:6772   */\n    tag_204:\n        /* \"#utility.yul\":6723:6747   */\n      tag_322\n        /* \"#utility.yul\":6741:6746   */\n      dup2\n        /* \"#utility.yul\":6723:6747   */\n      tag_199\n      jump\t// in\n    tag_322:\n        /* \"#utility.yul\":6716:6721   */\n      dup2\n        /* \"#utility.yul\":6713:6748   */\n      eq\n        /* \"#utility.yul\":6703:6766   */\n      tag_323\n      jumpi\n        /* \"#utility.yul\":6762:6763   */\n      0x00\n        /* \"#utility.yul\":6759:6760   */\n      dup1\n        /* \"#utility.yul\":6752:6764   */\n      revert\n        /* \"#utility.yul\":6703:6766   */\n    tag_323:\n        /* \"#utility.yul\":6650:6772   */\n      pop\n      jump\t// out\n        /* \"#utility.yul\":6778:6917   */\n    tag_205:\n        /* \"#utility.yul\":6824:6829   */\n      0x00\n        /* \"#utility.yul\":6862:6868   */\n      dup2\n        /* \"#utility.yul\":6849:6869   */\n      calldataload\n        /* \"#utility.yul\":6840:6869   */\n      swap1\n      pop\n        /* \"#utility.yul\":6878:6911   */\n      tag_325\n        /* \"#utility.yul\":6905:6910   */\n      dup2\n        /* \"#utility.yul\":6878:6911   */\n      tag_204\n      jump\t// in\n    tag_325:\n        /* \"#utility.yul\":6778:6917   */\n      swap3\n      swap2\n      pop\n      pop\n      jump\t// out\n        /* \"#utility.yul\":6923:7252   */\n    tag_53:\n        /* \"#utility.yul\":6982:6988   */\n      0x00\n        /* \"#utility.yul\":7031:7033   */\n      0x20\n        /* \"#utility.yul\":7019:7028   */\n      dup3\n        /* \"#utility.yul\":7010:7017   */\n      dup5\n        /* \"#utility.yul\":7006:7029   */\n      sub\n        /* \"#utility.yul\":7002:7034   */\n      slt\n        /* \"#utility.yul\":6999:7118   */\n      iszero\n      tag_327\n      jumpi\n        /* \"#utility.yul\":7037:7116   */\n      tag_328\n      tag_179\n      jump\t// in\n    tag_328:\n        /* \"#utility.yul\":6999:7118   */\n    tag_327:\n        /* \"#utility.yul\":7157:7158   */\n      0x00\n        /* \"#utility.yul\":7182:7235   */\n      tag_329\n        /* \"#utility.yul\":7227:7234   */\n      dup5\n        /* \"#utility.yul\":7218:7224   */\n      dup3\n        /* \"#utility.yul\":7207:7216   */\n      dup6\n        /* \"#utility.yul\":7203:7225   */\n      add\n        /* \"#utility.yul\":7182:7235   */\n      tag_205\n      jump\t// in\n    tag_329:\n        /* \"#utility.yul\":7172:7235   */\n      swap2\n      pop\n        /* \"#utility.yul\":7128:7245   */\n      pop\n        /* \"#utility.yul\":6923:7252   */\n      swap3\n      swap2\n      pop\n      pop\n      jump\t// out\n        /* \"#utility.yul\":7258:7372   */\n    tag_206:\n        /* \"#utility.yul\":7325:7331   */\n      0x00\n        /* \"#utility.yul\":7359:7364   */\n      dup2\n        /* \"#utility.yul\":7353:7365   */\n      mload\n        /* \"#utility.yul\":7343:7365   */\n      swap1\n      pop\n        /* \"#utility.yul\":7258:7372   */\n      swap2\n      swap1\n      pop\n      jump\t// out\n        /* \"#utility.yul\":7378:7562   */\n    tag_207:\n        /* \"#utility.yul\":7477:7488   */\n      0x00\n        /* \"#utility.yul\":7511:7517   */\n      dup3\n        /* \"#utility.yul\":7506:7509   */\n      dup3\n        /* \"#utility.yul\":7499:7518   */\n      mstore\n        /* \"#utility.yul\":7551:7555   */\n      0x20\n        /* \"#utility.yul\":7546:7549   */\n      dup3\n        /* \"#utility.yul\":7542:7556   */\n      add\n        /* \"#utility.yul\":7527:7556   */\n      swap1\n      pop\n        /* \"#utility.yul\":7378:7562   */\n      swap3\n      swap2\n      pop\n      pop\n      jump\t// out\n        /* \"#utility.yul\":7568:7700   */\n    tag_208:\n        /* \"#utility.yul\":7635:7639   */\n      0x00\n        /* \"#utility.yul\":7658:7661   */\n      dup2\n        /* \"#utility.yul\":7650:7661   */\n      swap1\n      pop\n        /* \"#utility.yul\":7688:7692   */\n      0x20\n        /* \"#utility.yul\":7683:7686   */\n      dup3\n        /* \"#utility.yul\":7679:7693   */\n      add\n        /* \"#utility.yul\":7671:7693   */\n      swap1\n      pop\n        /* \"#utility.yul\":7568:7700   */\n      swap2\n      swap1\n      pop\n      jump\t// out\n        /* \"#utility.yul\":7706:7814   */\n    tag_209:\n        /* \"#utility.yul\":7783:7807   */\n      tag_334\n        /* \"#utility.yul\":7801:7806   */\n      dup2\n        /* \"#utility.yul\":7783:7807   */\n      tag_191\n      jump\t// in\n    tag_334:\n        /* \"#utility.yul\":7778:7781   */\n      dup3\n        /* \"#utility.yul\":7771:7808   */\n      mstore\n        /* \"#utility.yul\":7706:7814   */\n      pop\n      pop\n      jump\t// out\n        /* \"#utility.yul\":7820:7999   */\n    tag_210:\n        /* \"#utility.yul\":7889:7899   */\n      0x00\n        /* \"#utility.yul\":7910:7956   */\n      tag_336\n        /* \"#utility.yul\":7952:7955   */\n      dup4\n        /* \"#utility.yul\":7944:7950   */\n      dup4\n        /* \"#utility.yul\":7910:7956   */\n      tag_209\n      jump\t// in\n    tag_336:\n        /* \"#utility.yul\":7988:7992   */\n      0x20\n        /* \"#utility.yul\":7983:7986   */\n      dup4\n        /* \"#utility.yul\":7979:7993   */\n      add\n        /* \"#utility.yul\":7965:7993   */\n      swap1\n      pop\n        /* \"#utility.yul\":7820:7999   */\n      swap3\n      swap2\n      pop\n      pop\n      jump\t// out\n        /* \"#utility.yul\":8005:8118   */\n    tag_211:\n        /* \"#utility.yul\":8075:8079   */\n      0x00\n        /* \"#utility.yul\":8107:8111   */\n      0x20\n        /* \"#utility.yul\":8102:8105   */\n      dup3\n        /* \"#utility.yul\":8098:8112   */\n      add\n        /* \"#utility.yul\":8090:8112   */\n      swap1\n      pop\n        /* \"#utility.yul\":8005:8118   */\n      swap2\n      swap1\n      pop\n      jump\t// out\n        /* \"#utility.yul\":8154:8886   */\n    tag_212:\n        /* \"#utility.yul\":8273:8276   */\n      0x00\n        /* \"#utility.yul\":8302:8356   */\n      tag_339\n        /* \"#utility.yul\":8350:8355   */\n      dup3\n        /* \"#utility.yul\":8302:8356   */\n      tag_206\n      jump\t// in\n    tag_339:\n        /* \"#utility.yul\":8372:8458   */\n      tag_340\n        /* \"#utility.yul\":8451:8457   */\n      dup2\n        /* \"#utility.yul\":8446:8449   */\n      dup6\n        /* \"#utility.yul\":8372:8458   */\n      tag_207\n      jump\t// in\n    tag_340:\n        /* \"#utility.yul\":8365:8458   */\n      swap4\n      pop\n        /* \"#utility.yul\":8482:8538   */\n      tag_341\n        /* \"#utility.yul\":8532:8537   */\n      dup4\n        /* \"#utility.yul\":8482:8538   */\n      tag_208\n      jump\t// in\n    tag_341:\n        /* \"#utility.yul\":8561:8568   */\n      dup1\n        /* \"#utility.yul\":8592:8593   */\n      0x00\n        /* \"#utility.yul\":8577:8861   */\n    tag_342:\n        /* \"#utility.yul\":8602:8608   */\n      dup4\n        /* \"#utility.yul\":8599:8600   */\n      dup2\n        /* \"#utility.yul\":8596:8609   */\n      lt\n        /* \"#utility.yul\":8577:8861   */\n      iszero\n      tag_344\n      jumpi\n        /* \"#utility.yul\":8678:8684   */\n      dup2\n        /* \"#utility.yul\":8672:8685   */\n      mload\n        /* \"#utility.yul\":8705:8768   */\n      tag_345\n        /* \"#utility.yul\":8764:8767   */\n      dup9\n        /* \"#utility.yul\":8749:8762   */\n      dup3\n        /* \"#utility.yul\":8705:8768   */\n      tag_210\n      jump\t// in\n    tag_345:\n        /* \"#utility.yul\":8698:8768   */\n      swap8\n      pop\n        /* \"#utility.yul\":8791:8851   */\n      tag_346\n        /* \"#utility.yul\":8844:8850   */\n      dup4\n        /* \"#utility.yul\":8791:8851   */\n      tag_211\n      jump\t// in\n    tag_346:\n        /* \"#utility.yul\":8781:8851   */\n      swap3\n      pop\n        /* \"#utility.yul\":8637:8861   */\n      pop\n        /* \"#utility.yul\":8624:8625   */\n      0x01\n        /* \"#utility.yul\":8621:8622   */\n      dup2\n        /* \"#utility.yul\":8617:8626   */\n      add\n        /* \"#utility.yul\":8612:8626   */\n      swap1\n      pop\n        /* \"#utility.yul\":8577:8861   */\n      jump(tag_342)\n    tag_344:\n        /* \"#utility.yul\":8581:8595   */\n      pop\n        /* \"#utility.yul\":8877:8880   */\n      dup6\n        /* \"#utility.yul\":8870:8880   */\n      swap4\n      pop\n        /* \"#utility.yul\":8278:8886   */\n      pop\n      pop\n      pop\n        /* \"#utility.yul\":8154:8886   */\n      swap3\n      swap2\n      pop\n      pop\n      jump\t// out\n        /* \"#utility.yul\":8892:9265   */\n    tag_56:\n        /* \"#utility.yul\":9035:9039   */\n      0x00\n        /* \"#utility.yul\":9073:9075   */\n      0x20\n        /* \"#utility.yul\":9062:9071   */\n      dup3\n        /* \"#utility.yul\":9058:9076   */\n      add\n        /* \"#utility.yul\":9050:9076   */\n      swap1\n      pop\n        /* \"#utility.yul\":9122:9131   */\n      dup2\n        /* \"#utility.yul\":9116:9120   */\n      dup2\n        /* \"#utility.yul\":9112:9132   */\n      sub\n        /* \"#utility.yul\":9108:9109   */\n      0x00\n        /* \"#utility.yul\":9097:9106   */\n      dup4\n        /* \"#utility.yul\":9093:9110   */\n      add\n        /* \"#utility.yul\":9086:9133   */\n      mstore\n        /* \"#utility.yul\":9150:9258   */\n      tag_348\n        /* \"#utility.yul\":9253:9257   */\n      dup2\n        /* \"#utility.yul\":9244:9250   */\n      dup5\n        /* \"#utility.yul\":9150:9258   */\n      tag_212\n      jump\t// in\n    tag_348:\n        /* \"#utility.yul\":9142:9258   */\n      swap1\n      pop\n        /* \"#utility.yul\":8892:9265   */\n      swap3\n      swap2\n      pop\n      pop\n      jump\t// out\n        /* \"#utility.yul\":9271:9389   */\n    tag_213:\n        /* \"#utility.yul\":9358:9382   */\n      tag_350\n        /* \"#utility.yul\":9376:9381   */\n      dup2\n        /* \"#utility.yul\":9358:9382   */\n      tag_199\n      jump\t// in\n    tag_350:\n        /* \"#utility.yul\":9353:9356   */\n      dup3\n        /* \"#utility.yul\":9346:9383   */\n      mstore\n        /* \"#utility.yul\":9271:9389   */\n      pop\n      pop\n      jump\t// out\n        /* \"#utility.yul\":9395:9617   */\n    tag_61:\n        /* \"#utility.yul\":9488:9492   */\n      0x00\n        /* \"#utility.yul\":9526:9528   */\n      0x20\n        /* \"#utility.yul\":9515:9524   */\n      dup3\n        /* \"#utility.yul\":9511:9529   */\n      add\n        /* \"#utility.yul\":9503:9529   */\n      swap1\n      pop\n        /* \"#utility.yul\":9539:9610   */\n      tag_352\n        /* \"#utility.yul\":9607:9608   */\n      0x00\n        /* \"#utility.yul\":9596:9605   */\n      dup4\n        /* \"#utility.yul\":9592:9609   */\n      add\n        /* \"#utility.yul\":9583:9589   */\n      dup5\n        /* \"#utility.yul\":9539:9610   */\n      tag_213\n      jump\t// in\n    tag_352:\n        /* \"#utility.yul\":9395:9617   */\n      swap3\n      swap2\n      pop\n      pop\n      jump\t// out\n        /* \"#utility.yul\":9623:9722   */\n    tag_214:\n        /* \"#utility.yul\":9675:9681   */\n      0x00\n        /* \"#utility.yul\":9709:9714   */\n      dup2\n        /* \"#utility.yul\":9703:9715   */\n      mload\n        /* \"#utility.yul\":9693:9715   */\n      swap1\n      pop\n        /* \"#utility.yul\":9623:9722   */\n      swap2\n      swap1\n      pop\n      jump\t// out\n        /* \"#utility.yul\":9728:9897   */\n    tag_215:\n        /* \"#utility.yul\":9812:9823   */\n      0x00\n        /* \"#utility.yul\":9846:9852   */\n      dup3\n        /* \"#utility.yul\":9841:9844   */\n      dup3\n        /* \"#utility.yul\":9834:9853   */\n      mstore\n        /* \"#utility.yul\":9886:9890   */\n      0x20\n        /* \"#utility.yul\":9881:9884   */\n      dup3\n        /* \"#utility.yul\":9877:9891   */\n      add\n        /* \"#utility.yul\":9862:9891   */\n      swap1\n      pop\n        /* \"#utility.yul\":9728:9897   */\n      swap3\n      swap2\n      pop\n      pop\n      jump\t// out\n        /* \"#utility.yul\":9903:10042   */\n    tag_216:\n        /* \"#utility.yul\":9992:9998   */\n      dup3\n        /* \"#utility.yul\":9987:9990   */\n      dup2\n        /* \"#utility.yul\":9982:9985   */\n      dup4\n        /* \"#utility.yul\":9976:9999   */\n      mcopy\n        /* \"#utility.yul\":10033:10034   */\n      0x00\n        /* \"#utility.yul\":10024:10030   */\n      dup4\n        /* \"#utility.yul\":10019:10022   */\n      dup4\n        /* \"#utility.yul\":10015:10031   */\n      add\n        /* \"#utility.yul\":10008:10035   */\n      mstore\n        /* \"#utility.yul\":9903:10042   */\n      pop\n      pop\n      pop\n      jump\t// out\n        /* \"#utility.yul\":10048:10425   */\n    tag_217:\n        /* \"#utility.yul\":10136:10139   */\n      0x00\n        /* \"#utility.yul\":10164:10203   */\n      tag_357\n        /* \"#utility.yul\":10197:10202   */\n      dup3\n        /* \"#utility.yul\":10164:10203   */\n      tag_214\n      jump\t// in\n    tag_357:\n        /* \"#utility.yul\":10219:10290   */\n      tag_358\n        /* \"#utility.yul\":10283:10289   */\n      dup2\n        /* \"#utility.yul\":10278:10281   */\n      dup6\n        /* \"#utility.yul\":10219:10290   */\n      tag_215\n      jump\t// in\n    tag_358:\n        /* \"#utility.yul\":10212:10290   */\n      swap4\n      pop\n        /* \"#utility.yul\":10299:10364   */\n      tag_359\n        /* \"#utility.yul\":10357:10363   */\n      dup2\n        /* \"#utility.yul\":10352:10355   */\n      dup6\n        /* \"#utility.yul\":10345:10349   */\n      0x20\n        /* \"#utility.yul\":10338:10343   */\n      dup7\n        /* \"#utility.yul\":10334:10350   */\n      add\n        /* \"#utility.yul\":10299:10364   */\n      tag_216\n      jump\t// in\n    tag_359:\n        /* \"#utility.yul\":10389:10418   */\n      tag_360\n        /* \"#utility.yul\":10411:10417   */\n      dup2\n        /* \"#utility.yul\":10389:10418   */\n      tag_183\n      jump\t// in\n    tag_360:\n        /* \"#utility.yul\":10384:10387   */\n      dup5\n        /* \"#utility.yul\":10380:10419   */\n      add\n        /* \"#utility.yul\":10373:10419   */\n      swap2\n      pop\n        /* \"#utility.yul\":10140:10425   */\n      pop\n        /* \"#utility.yul\":10048:10425   */\n      swap3\n      swap2\n      pop\n      pop\n      jump\t// out\n        /* \"#utility.yul\":10431:11075   */\n    tag_67:\n        /* \"#utility.yul\":10628:10632   */\n      0x00\n        /* \"#utility.yul\":10666:10669   */\n      0x80\n        /* \"#utility.yul\":10655:10664   */\n      dup3\n        /* \"#utility.yul\":10651:10670   */\n      add\n        /* \"#utility.yul\":10643:10670   */\n      swap1\n      pop\n        /* \"#utility.yul\":10680:10751   */\n      tag_362\n        /* \"#utility.yul\":10748:10749   */\n      0x00\n        /* \"#utility.yul\":10737:10746   */\n      dup4\n        /* \"#utility.yul\":10733:10750   */\n      add\n        /* \"#utility.yul\":10724:10730   */\n      dup8\n        /* \"#utility.yul\":10680:10751   */\n      tag_194\n      jump\t// in\n    tag_362:\n        /* \"#utility.yul\":10798:10807   */\n      dup2\n        /* \"#utility.yul\":10792:10796   */\n      dup2\n        /* \"#utility.yul\":10788:10808   */\n      sub\n        /* \"#utility.yul\":10783:10785   */\n      0x20\n        /* \"#utility.yul\":10772:10781   */\n      dup4\n        /* \"#utility.yul\":10768:10786   */\n      add\n        /* \"#utility.yul\":10761:10809   */\n      mstore\n        /* \"#utility.yul\":10826:10904   */\n      tag_363\n        /* \"#utility.yul\":10899:10903   */\n      dup2\n        /* \"#utility.yul\":10890:10896   */\n      dup7\n        /* \"#utility.yul\":10826:10904   */\n      tag_217\n      jump\t// in\n    tag_363:\n        /* \"#utility.yul\":10818:10904   */\n      swap1\n      pop\n        /* \"#utility.yul\":10914:10986   */\n      tag_364\n        /* \"#utility.yul\":10982:10984   */\n      0x40\n        /* \"#utility.yul\":10971:10980   */\n      dup4\n        /* \"#utility.yul\":10967:10985   */\n      add\n        /* \"#utility.yul\":10958:10964   */\n      dup6\n        /* \"#utility.yul\":10914:10986   */\n      tag_194\n      jump\t// in\n    tag_364:\n        /* \"#utility.yul\":10996:11068   */\n      tag_365\n        /* \"#utility.yul\":11064:11066   */\n      0x60\n        /* \"#utility.yul\":11053:11062   */\n      dup4\n        /* \"#utility.yul\":11049:11067   */\n      add\n        /* \"#utility.yul\":11040:11046   */\n      dup5\n        /* \"#utility.yul\":10996:11068   */\n      tag_213\n      jump\t// in\n    tag_365:\n        /* \"#utility.yul\":10431:11075   */\n      swap6\n      swap5\n      pop\n      pop\n      pop\n      pop\n      pop\n      jump\t// out\n        /* \"#utility.yul\":11081:11735   */\n    tag_76:\n        /* \"#utility.yul\":11159:11165   */\n      0x00\n        /* \"#utility.yul\":11167:11173   */\n      dup1\n        /* \"#utility.yul\":11216:11218   */\n      0x40\n        /* \"#utility.yul\":11204:11213   */\n      dup4\n        /* \"#utility.yul\":11195:11202   */\n      dup6\n        /* \"#utility.yul\":11191:11214   */\n      sub\n        /* \"#utility.yul\":11187:11219   */\n      slt\n        /* \"#utility.yul\":11184:11303   */\n      iszero\n      tag_367\n      jumpi\n        /* \"#utility.yul\":11222:11301   */\n      tag_368\n      tag_179\n      jump\t// in\n    tag_368:\n        /* \"#utility.yul\":11184:11303   */\n    tag_367:\n        /* \"#utility.yul\":11370:11371   */\n      0x00\n        /* \"#utility.yul\":11359:11368   */\n      dup4\n        /* \"#utility.yul\":11355:11372   */\n      add\n        /* \"#utility.yul\":11342:11373   */\n      calldataload\n        /* \"#utility.yul\":11400:11418   */\n      0xffffffffffffffff\n        /* \"#utility.yul\":11392:11398   */\n      dup2\n        /* \"#utility.yul\":11389:11419   */\n      gt\n        /* \"#utility.yul\":11386:11503   */\n      iszero\n      tag_369\n      jumpi\n        /* \"#utility.yul\":11422:11501   */\n      tag_370\n      tag_180\n      jump\t// in\n    tag_370:\n        /* \"#utility.yul\":11386:11503   */\n    tag_369:\n        /* \"#utility.yul\":11527:11590   */\n      tag_371\n        /* \"#utility.yul\":11582:11589   */\n      dup6\n        /* \"#utility.yul\":11573:11579   */\n      dup3\n        /* \"#utility.yul\":11562:11571   */\n      dup7\n        /* \"#utility.yul\":11558:11580   */\n      add\n        /* \"#utility.yul\":11527:11590   */\n      tag_190\n      jump\t// in\n    tag_371:\n        /* \"#utility.yul\":11517:11590   */\n      swap3\n      pop\n        /* \"#utility.yul\":11313:11600   */\n      pop\n        /* \"#utility.yul\":11639:11641   */\n      0x20\n        /* \"#utility.yul\":11665:11718   */\n      tag_372\n        /* \"#utility.yul\":11710:11717   */\n      dup6\n        /* \"#utility.yul\":11701:11707   */\n      dup3\n        /* \"#utility.yul\":11690:11699   */\n      dup7\n        /* \"#utility.yul\":11686:11708   */\n      add\n        /* \"#utility.yul\":11665:11718   */\n      tag_193\n      jump\t// in\n    tag_372:\n        /* \"#utility.yul\":11655:11718   */\n      swap2\n      pop\n        /* \"#utility.yul\":11610:11728   */\n      pop\n        /* \"#utility.yul\":11081:11735   */\n      swap3\n      pop\n      swap3\n      swap1\n      pop\n      jump\t// out\n        /* \"#utility.yul\":11741:12365   */\n    tag_83:\n        /* \"#utility.yul\":11930:11934   */\n      0x00\n        /* \"#utility.yul\":11968:11970   */\n      0x60\n        /* \"#utility.yul\":11957:11966   */\n      dup3\n        /* \"#utility.yul\":11953:11971   */\n      add\n        /* \"#utility.yul\":11945:11971   */\n      swap1\n      pop\n        /* \"#utility.yul\":11981:12052   */\n      tag_374\n        /* \"#utility.yul\":12049:12050   */\n      0x00\n        /* \"#utility.yul\":12038:12047   */\n      dup4\n        /* \"#utility.yul\":12034:12051   */\n      add\n        /* \"#utility.yul\":12025:12031   */\n      dup7\n        /* \"#utility.yul\":11981:12052   */\n      tag_213\n      jump\t// in\n    tag_374:\n        /* \"#utility.yul\":12099:12108   */\n      dup2\n        /* \"#utility.yul\":12093:12097   */\n      dup2\n        /* \"#utility.yul\":12089:12109   */\n      sub\n        /* \"#utility.yul\":12084:12086   */\n      0x20\n        /* \"#utility.yul\":12073:12082   */\n      dup4\n        /* \"#utility.yul\":12069:12087   */\n      add\n        /* \"#utility.yul\":12062:12110   */\n      mstore\n        /* \"#utility.yul\":12127:12205   */\n      tag_375\n        /* \"#utility.yul\":12200:12204   */\n      dup2\n        /* \"#utility.yul\":12191:12197   */\n      dup6\n        /* \"#utility.yul\":12127:12205   */\n      tag_217\n      jump\t// in\n    tag_375:\n        /* \"#utility.yul\":12119:12205   */\n      swap1\n      pop\n        /* \"#utility.yul\":12252:12261   */\n      dup2\n        /* \"#utility.yul\":12246:12250   */\n      dup2\n        /* \"#utility.yul\":12242:12262   */\n      sub\n        /* \"#utility.yul\":12237:12239   */\n      0x40\n        /* \"#utility.yul\":12226:12235   */\n      dup4\n        /* \"#utility.yul\":12222:12240   */\n      add\n        /* \"#utility.yul\":12215:12263   */\n      mstore\n        /* \"#utility.yul\":12280:12358   */\n      tag_376\n        /* \"#utility.yul\":12353:12357   */\n      dup2\n        /* \"#utility.yul\":12344:12350   */\n      dup5\n        /* \"#utility.yul\":12280:12358   */\n      tag_217\n      jump\t// in\n    tag_376:\n        /* \"#utility.yul\":12272:12358   */\n      swap1\n      pop\n        /* \"#utility.yul\":11741:12365   */\n      swap5\n      swap4\n      pop\n      pop\n      pop\n      pop\n      jump\t// out\n        /* \"#utility.yul\":12371:12461   */\n    tag_218:\n        /* \"#utility.yul\":12405:12412   */\n      0x00\n        /* \"#utility.yul\":12448:12453   */\n      dup2\n        /* \"#utility.yul\":12441:12454   */\n      iszero\n        /* \"#utility.yul\":12434:12455   */\n      iszero\n        /* \"#utility.yul\":12423:12455   */\n      swap1\n      pop\n        /* \"#utility.yul\":12371:12461   */\n      swap2\n      swap1\n      pop\n      jump\t// out\n        /* \"#utility.yul\":12467:12576   */\n    tag_219:\n        /* \"#utility.yul\":12548:12569   */\n      tag_379\n        /* \"#utility.yul\":12563:12568   */\n      dup2\n        /* \"#utility.yul\":12548:12569   */\n      tag_218\n      jump\t// in\n    tag_379:\n        /* \"#utility.yul\":12543:12546   */\n      dup3\n        /* \"#utility.yul\":12536:12570   */\n      mstore\n        /* \"#utility.yul\":12467:12576   */\n      pop\n      pop\n      jump\t// out\n        /* \"#utility.yul\":12582:13436   */\n    tag_89:\n        /* \"#utility.yul\":12829:12833   */\n      0x00\n        /* \"#utility.yul\":12867:12870   */\n      0xc0\n        /* \"#utility.yul\":12856:12865   */\n      dup3\n        /* \"#utility.yul\":12852:12871   */\n      add\n        /* \"#utility.yul\":12844:12871   */\n      swap1\n      pop\n        /* \"#utility.yul\":12881:12952   */\n      tag_381\n        /* \"#utility.yul\":12949:12950   */\n      0x00\n        /* \"#utility.yul\":12938:12947   */\n      dup4\n        /* \"#utility.yul\":12934:12951   */\n      add\n        /* \"#utility.yul\":12925:12931   */\n      dup10\n        /* \"#utility.yul\":12881:12952   */\n      tag_194\n      jump\t// in\n    tag_381:\n        /* \"#utility.yul\":12999:13008   */\n      dup2\n        /* \"#utility.yul\":12993:12997   */\n      dup2\n        /* \"#utility.yul\":12989:13009   */\n      sub\n        /* \"#utility.yul\":12984:12986   */\n      0x20\n        /* \"#utility.yul\":12973:12982   */\n      dup4\n        /* \"#utility.yul\":12969:12987   */\n      add\n        /* \"#utility.yul\":12962:13010   */\n      mstore\n        /* \"#utility.yul\":13027:13105   */\n      tag_382\n        /* \"#utility.yul\":13100:13104   */\n      dup2\n        /* \"#utility.yul\":13091:13097   */\n      dup9\n        /* \"#utility.yul\":13027:13105   */\n      tag_217\n      jump\t// in\n    tag_382:\n        /* \"#utility.yul\":13019:13105   */\n      swap1\n      pop\n        /* \"#utility.yul\":13115:13187   */\n      tag_383\n        /* \"#utility.yul\":13183:13185   */\n      0x40\n        /* \"#utility.yul\":13172:13181   */\n      dup4\n        /* \"#utility.yul\":13168:13186   */\n      add\n        /* \"#utility.yul\":13159:13165   */\n      dup8\n        /* \"#utility.yul\":13115:13187   */\n      tag_194\n      jump\t// in\n    tag_383:\n        /* \"#utility.yul\":13197:13269   */\n      tag_384\n        /* \"#utility.yul\":13265:13267   */\n      0x60\n        /* \"#utility.yul\":13254:13263   */\n      dup4\n        /* \"#utility.yul\":13250:13268   */\n      add\n        /* \"#utility.yul\":13241:13247   */\n      dup7\n        /* \"#utility.yul\":13197:13269   */\n      tag_194\n      jump\t// in\n    tag_384:\n        /* \"#utility.yul\":13279:13352   */\n      tag_385\n        /* \"#utility.yul\":13347:13350   */\n      0x80\n        /* \"#utility.yul\":13336:13345   */\n      dup4\n        /* \"#utility.yul\":13332:13351   */\n      add\n        /* \"#utility.yul\":13323:13329   */\n      dup6\n        /* \"#utility.yul\":13279:13352   */\n      tag_213\n      jump\t// in\n    tag_385:\n        /* \"#utility.yul\":13362:13429   */\n      tag_386\n        /* \"#utility.yul\":13424:13427   */\n      0xa0\n        /* \"#utility.yul\":13413:13422   */\n      dup4\n        /* \"#utility.yul\":13409:13428   */\n      add\n        /* \"#utility.yul\":13400:13406   */\n      dup5\n        /* \"#utility.yul\":13362:13429   */\n      tag_219\n      jump\t// in\n    tag_386:\n        /* \"#utility.yul\":12582:13436   */\n      swap8\n      swap7\n      pop\n      pop\n      pop\n      pop\n      pop\n      pop\n      pop\n      jump\t// out\n        /* \"#utility.yul\":13442:13916   */\n    tag_98:\n        /* \"#utility.yul\":13510:13516   */\n      0x00\n        /* \"#utility.yul\":13518:13524   */\n      dup1\n        /* \"#utility.yul\":13567:13569   */\n      0x40\n        /* \"#utility.yul\":13555:13564   */\n      dup4\n        /* \"#utility.yul\":13546:13553   */\n      dup6\n        /* \"#utility.yul\":13542:13565   */\n      sub\n        /* \"#utility.yul\":13538:13570   */\n      slt\n        /* \"#utility.yul\":13535:13654   */\n      iszero\n      tag_388\n      jumpi\n        /* \"#utility.yul\":13573:13652   */\n      tag_389\n      tag_179\n      jump\t// in\n    tag_389:\n        /* \"#utility.yul\":13535:13654   */\n    tag_388:\n        /* \"#utility.yul\":13693:13694   */\n      0x00\n        /* \"#utility.yul\":13718:13771   */\n      tag_390\n        /* \"#utility.yul\":13763:13770   */\n      dup6\n        /* \"#utility.yul\":13754:13760   */\n      dup3\n        /* \"#utility.yul\":13743:13752   */\n      dup7\n        /* \"#utility.yul\":13739:13761   */\n      add\n        /* \"#utility.yul\":13718:13771   */\n      tag_193\n      jump\t// in\n    tag_390:\n        /* \"#utility.yul\":13708:13771   */\n      swap3\n      pop\n        /* \"#utility.yul\":13664:13781   */\n      pop\n        /* \"#utility.yul\":13820:13822   */\n      0x20\n        /* \"#utility.yul\":13846:13899   */\n      tag_391\n        /* \"#utility.yul\":13891:13898   */\n      dup6\n        /* \"#utility.yul\":13882:13888   */\n      dup3\n        /* \"#utility.yul\":13871:13880   */\n      dup7\n        /* \"#utility.yul\":13867:13889   */\n      add\n        /* \"#utility.yul\":13846:13899   */\n      tag_205\n      jump\t// in\n    tag_391:\n        /* \"#utility.yul\":13836:13899   */\n      swap2\n      pop\n        /* \"#utility.yul\":13791:13909   */\n      pop\n        /* \"#utility.yul\":13442:13916   */\n      swap3\n      pop\n      swap3\n      swap1\n      pop\n      jump\t// out\n        /* \"#utility.yul\":13922:14102   */\n    tag_220:\n        /* \"#utility.yul\":13970:14047   */\n      0x4e487b7100000000000000000000000000000000000000000000000000000000\n        /* \"#utility.yul\":13967:13968   */\n      0x00\n        /* \"#utility.yul\":13960:14048   */\n      mstore\n        /* \"#utility.yul\":14067:14071   */\n      0x11\n        /* \"#utility.yul\":14064:14065   */\n      0x04\n        /* \"#utility.yul\":14057:14072   */\n      mstore\n        /* \"#utility.yul\":14091:14095   */\n      0x24\n        /* \"#utility.yul\":14088:14089   */\n      0x00\n        /* \"#utility.yul\":14081:14096   */\n      revert\n        /* \"#utility.yul\":14108:14341   */\n    tag_102:\n        /* \"#utility.yul\":14147:14150   */\n      0x00\n        /* \"#utility.yul\":14170:14194   */\n      tag_394\n        /* \"#utility.yul\":14188:14193   */\n      dup3\n        /* \"#utility.yul\":14170:14194   */\n      tag_191\n      jump\t// in\n    tag_394:\n        /* \"#utility.yul\":14161:14194   */\n      swap2\n      pop\n        /* \"#utility.yul\":14216:14282   */\n      0xffffffffffffffffffffffffffffffffffffffffffffffffffffffffffffffff\n        /* \"#utility.yul\":14209:14214   */\n      dup3\n        /* \"#utility.yul\":14206:14283   */\n      sub\n        /* \"#utility.yul\":14203:14306   */\n      tag_395\n      jumpi\n        /* \"#utility.yul\":14286:14304   */\n      tag_396\n      tag_220\n      jump\t// in\n    tag_396:\n        /* \"#utility.yul\":14203:14306   */\n    tag_395:\n        /* \"#utility.yul\":14333:14334   */\n      0x01\n        /* \"#utility.yul\":14326:14331   */\n      dup3\n        /* \"#utility.yul\":14322:14335   */\n      add\n        /* \"#utility.yul\":14315:14335   */\n      swap1\n      pop\n        /* \"#utility.yul\":14108:14341   */\n      swap2\n      swap1\n      pop\n      jump\t// out\n        /* \"#utility.yul\":14347:14527   */\n    tag_221:\n        /* \"#utility.yul\":14395:14472   */\n      0x4e487b7100000000000000000000000000000000000000000000000000000000\n        /* \"#utility.yul\":14392:14393   */\n      0x00\n        /* \"#utility.yul\":14385:14473   */\n      mstore\n        /* \"#utility.yul\":14492:14496   */\n      0x22\n        /* \"#utility.yul\":14489:14490   */\n      0x04\n        /* \"#utility.yul\":14482:14497   */\n      mstore\n        /* \"#utility.yul\":14516:14520   */\n      0x24\n        /* \"#utility.yul\":14513:14514   */\n      0x00\n        /* \"#utility.yul\":14506:14521   */\n      revert\n        /* \"#utility.yul\":14533:14853   */\n    tag_134:\n        /* \"#utility.yul\":14577:14583   */\n      0x00\n        /* \"#utility.yul\":14614:14615   */\n      0x02\n        /* \"#utility.yul\":14608:14612   */\n      dup3\n        /* \"#utility.yul\":14604:14616   */\n      div\n        /* \"#utility.yul\":14594:14616   */\n      swap1\n      pop\n        /* \"#utility.yul\":14661:14662   */\n      0x01\n        /* \"#utility.yul\":14655:14659   */\n      dup3\n        /* \"#utility.yul\":14651:14663   */\n      and\n        /* \"#utility.yul\":14682:14700   */\n      dup1\n        /* \"#utility.yul\":14672:14753   */\n      tag_399\n      jumpi\n        /* \"#utility.yul\":14738:14742   */\n      0x7f\n        /* \"#utility.yul\":14730:14736   */\n      dup3\n        /* \"#utility.yul\":14726:14743   */\n      and\n        /* \"#utility.yul\":14716:14743   */\n      swap2\n      pop\n        /* \"#utility.yul\":14672:14753   */\n    tag_399:\n        /* \"#utility.yul\":14800:14802   */\n      0x20\n        /* \"#utility.yul\":14792:14798   */\n      dup3\n        /* \"#utility.yul\":14789:14803   */\n      lt\n        /* \"#utility.yul\":14769:14787   */\n      dup2\n        /* \"#utility.yul\":14766:14804   */\n      sub\n        /* \"#utility.yul\":14763:14847   */\n      tag_400\n      jumpi\n        /* \"#utility.yul\":14819:14837   */\n      tag_401\n      tag_221\n      jump\t// in\n    tag_401:\n        /* \"#utility.yul\":14763:14847   */\n    tag_400:\n        /* \"#utility.yul\":14584:14853   */\n      pop\n        /* \"#utility.yul\":14533:14853   */\n      swap2\n      swap1\n      pop\n      jump\t// out\n        /* \"#utility.yul\":14859:15000   */\n    tag_222:\n        /* \"#utility.yul\":14908:14912   */\n      0x00\n        /* \"#utility.yul\":14931:14934   */\n      dup2\n        /* \"#utility.yul\":14923:14934   */\n      swap1\n      pop\n        /* \"#utility.yul\":14954:14957   */\n      dup2\n        /* \"#utility.yul\":14951:14952   */\n      0x00\n        /* \"#utility.yul\":14944:14958   */\n      mstore\n        /* \"#utility.yul\":14988:14992   */\n      0x20\n        /* \"#utility.yul\":14985:14986   */\n      0x00\n        /* \"#utility.yul\":14975:14993   */\n      keccak256\n        /* \"#utility.yul\":14967:14993   */\n      swap1\n      pop\n        /* \"#utility.yul\":14859:15000   */\n      swap2\n      swap1\n      pop\n      jump\t// out\n        /* \"#utility.yul\":15006:15099   */\n    tag_223:\n        /* \"#utility.yul\":15043:15049   */\n      0x00\n        /* \"#utility.yul\":15090:15092   */\n      0x20\n        /* \"#utility.yul\":15085:15087   */\n      0x1f\n        /* \"#utility.yul\":15078:15083   */\n      dup4\n        /* \"#utility.yul\":15074:15088   */\n      add\n        /* \"#utility.yul\":15070:15093   */\n      div\n        /* \"#utility.yul\":15060:15093   */\n      swap1\n      pop\n        /* \"#utility.yul\":15006:15099   */\n      swap2\n      swap1\n      pop\n      jump\t// out\n        /* \"#utility.yul\":15105:15212   */\n    tag_224:\n        /* \"#utility.yul\":15149:15157   */\n      0x00\n        /* \"#utility.yul\":15199:15204   */\n      dup3\n        /* \"#utility.yul\":15193:15197   */\n      dup3\n        /* \"#utility.yul\":15189:15205   */\n      shl\n        /* \"#utility.yul\":15168:15205   */\n      swap1\n      pop\n        /* \"#utility.yul\":15105:15212   */\n      swap3\n      swap2\n      pop\n      pop\n      jump\t// out\n        /* \"#utility.yul\":15218:15611   */\n    tag_225:\n        /* \"#utility.yul\":15287:15293   */\n      0x00\n        /* \"#utility.yul\":15337:15338   */\n      0x08\n        /* \"#utility.yul\":15325:15335   */\n      dup4\n        /* \"#utility.yul\":15321:15339   */\n      mul\n        /* \"#utility.yul\":15360:15457   */\n      tag_406\n        /* \"#utility.yul\":15390:15456   */\n      0xffffffffffffffffffffffffffffffffffffffffffffffffffffffffffffffff\n        /* \"#utility.yul\":15379:15388   */\n      dup3\n        /* \"#utility.yul\":15360:15457   */\n      tag_224\n      jump\t// in\n    tag_406:\n        /* \"#utility.yul\":15478:15517   */\n      tag_407\n        /* \"#utility.yul\":15508:15516   */\n      dup7\n        /* \"#utility.yul\":15497:15506   */\n      dup4\n        /* \"#utility.yul\":15478:15517   */\n      tag_224\n      jump\t// in\n    tag_407:\n        /* \"#utility.yul\":15466:15517   */\n      swap6\n      pop\n        /* \"#utility.yul\":15550:15554   */\n      dup1\n        /* \"#utility.yul\":15546:15555   */\n      not\n        /* \"#utility.yul\":15539:15544   */\n      dup5\n        /* \"#utility.yul\":15535:15556   */\n      and\n        /* \"#utility.yul\":15526:15556   */\n      swap4\n      pop\n        /* \"#utility.yul\":15599:15603   */\n      dup1\n        /* \"#utility.yul\":15589:15597   */\n      dup7\n        /* \"#utility.yul\":15585:15604   */\n      and\n        /* \"#utility.yul\":15578:15583   */\n      dup5\n        /* \"#utility.yul\":15575:15605   */\n      or\n        /* \"#utility.yul\":15565:15605   */\n      swap3\n      pop\n        /* \"#utility.yul\":15294:15611   */\n      pop\n      pop\n        /* \"#utility.yul\":15218:15611   */\n      swap4\n      swap3\n      pop\n      pop\n      pop\n      jump\t// out\n        /* \"#utility.yul\":15617:15677   */\n    tag_226:\n        /* \"#utility.yul\":15645:15648   */\n      0x00\n        /* \"#utility.yul\":15666:15671   */\n      dup2\n        /* \"#utility.yul\":15659:15671   */\n      swap1\n      pop\n        /* \"#utility.yul\":15617:15677   */\n      swap2\n      swap1\n      pop\n      jump\t// out\n        /* \"#utility.yul\":15683:15825   */\n    tag_227:\n        /* \"#utility.yul\":15733:15742   */\n      0x00\n        /* \"#utility.yul\":15766:15819   */\n      tag_410\n        /* \"#utility.yul\":15784:15818   */\n      tag_411\n        /* \"#utility.yul\":15793:15817   */\n      tag_412\n        /* \"#utility.yul\":15811:15816   */\n      dup5\n        /* \"#utility.yul\":15793:15817   */\n      tag_191\n      jump\t// in\n    tag_412:\n        /* \"#utility.yul\":15784:15818   */\n      tag_226\n      jump\t// in\n    tag_411:\n        /* \"#utility.yul\":15766:15819   */\n      tag_191\n      jump\t// in\n    tag_410:\n        /* \"#utility.yul\":15753:15819   */\n      swap1\n      pop\n        /* \"#utility.yul\":15683:15825   */\n      swap2\n      swap1\n      pop\n      jump\t// out\n        /* \"#utility.yul\":15831:15906   */\n    tag_228:\n        /* \"#utility.yul\":15874:15877   */\n      0x00\n        /* \"#utility.yul\":15895:15900   */\n      dup2\n        /* \"#utility.yul\":15888:15900   */\n      swap1\n      pop\n        /* \"#utility.yul\":15831:15906   */\n      swap2\n      swap1\n      pop\n      jump\t// out\n        /* \"#utility.yul\":15912:16181   */\n    tag_229:\n        /* \"#utility.yul\":16022:16061   */\n      tag_415\n        /* \"#utility.yul\":16053:16060   */\n      dup4\n        /* \"#utility.yul\":16022:16061   */\n      tag_227\n      jump\t// in\n    tag_415:\n        /* \"#utility.yul\":16083:16174   */\n      tag_416\n        /* \"#utility.yul\":16132:16173   */\n      tag_417\n        /* \"#utility.yul\":16156:16172   */\n      dup3\n        /* \"#utility.yul\":16132:16173   */\n      tag_228\n      jump\t// in\n    tag_417:\n        /* \"#utility.yul\":16124:16130   */\n      dup5\n        /* \"#utility.yul\":16117:16121   */\n      dup5\n        /* \"#utility.yul\":16111:16122   */\n      sload\n        /* \"#utility.yul\":16083:16174   */\n      tag_225\n      jump\t// in\n    tag_416:\n        /* \"#utility.yul\":16077:16081   */\n      dup3\n        /* \"#utility.yul\":16070:16175   */\n      sstore\n        /* \"#utility.yul\":15988:16181   */\n      pop\n        /* \"#utility.yul\":15912:16181   */\n      pop\n      pop\n      pop\n      jump\t// out\n        /* \"#utility.yul\":16187:16260   */\n    tag_230:\n        /* \"#utility.yul\":16232:16235   */\n      0x00\n        /* \"#utility.yul\":16187:16260   */\n      swap1\n      jump\t// out\n        /* \"#utility.yul\":16266:16455   */\n    tag_231:\n        /* \"#utility.yul\":16343:16375   */\n      tag_420\n      tag_230\n      jump\t// in\n    tag_420:\n        /* \"#utility.yul\":16384:16449   */\n      tag_421\n        /* \"#utility.yul\":16442:16448   */\n      dup2\n        /* \"#utility.yul\":16434:16440   */\n      dup5\n        /* \"#utility.yul\":16428:16432   */\n      dup5\n        /* \"#utility.yul\":16384:16449   */\n      tag_229\n      jump\t// in\n    tag_421:\n        /* \"#utility.yul\":16319:16455   */\n      pop\n        /* \"#utility.yul\":16266:16455   */\n      pop\n      pop\n      jump\t// out\n        /* \"#utility.yul\":16461:16647   */\n    tag_232:\n        /* \"#utility.yul\":16521:16641   */\n    tag_423:\n        /* \"#utility.yul\":16538:16541   */\n      dup2\n        /* \"#utility.yul\":16531:16536   */\n      dup2\n        /* \"#utility.yul\":16528:16542   */\n      lt\n        /* \"#utility.yul\":16521:16641   */\n      iszero\n      tag_425\n      jumpi\n        /* \"#utility.yul\":16592:16631   */\n      tag_426\n        /* \"#utility.yul\":16629:16630   */\n      0x00\n        /* \"#utility.yul\":16622:16627   */\n      dup3\n        /* \"#utility.yul\":16592:16631   */\n      tag_231\n      jump\t// in\n    tag_426:\n        /* \"#utility.yul\":16565:16566   */\n      0x01\n        /* \"#utility.yul\":16558:16563   */\n      dup2\n        /* \"#utility.yul\":16554:16567   */\n      add\n        /* \"#utility.yul\":16545:16567   */\n      swap1\n      pop\n        /* \"#utility.yul\":16521:16641   */\n      jump(tag_423)\n    tag_425:\n        /* \"#utility.yul\":16461:16647   */\n      pop\n      pop\n      jump\t// out\n        /* \"#utility.yul\":16653:17196   */\n    tag_233:\n        /* \"#utility.yul\":16754:16756   */\n      0x1f\n        /* \"#utility.yul\":16749:16752   */\n      dup3\n        /* \"#utility.yul\":16746:16757   */\n      gt\n        /* \"#utility.yul\":16743:17189   */\n      iszero\n      tag_428\n      jumpi\n        /* \"#utility.yul\":16788:16826   */\n      tag_429\n        /* \"#utility.yul\":16820:16825   */\n      dup2\n        /* \"#utility.yul\":16788:16826   */\n      tag_222\n      jump\t// in\n    tag_429:\n        /* \"#utility.yul\":16872:16901   */\n      tag_430\n        /* \"#utility.yul\":16890:16900   */\n      dup5\n        /* \"#utility.yul\":16872:16901   */\n      tag_223\n      jump\t// in\n    tag_430:\n        /* \"#utility.yul\":16862:16870   */\n      dup2\n        /* \"#utility.yul\":16858:16902   */\n      add\n        /* \"#utility.yul\":17055:17057   */\n      0x20\n        /* \"#utility.yul\":17043:17053   */\n      dup6\n        /* \"#utility.yul\":17040:17058   */\n      lt\n        /* \"#utility.yul\":17037:17086   */\n      iszero\n      tag_431\n      jumpi\n        /* \"#utility.yul\":17076:17084   */\n      dup2\n        /* \"#utility.yul\":17061:17084   */\n      swap1\n      pop\n        /* \"#utility.yul\":17037:17086   */\n    tag_431:\n        /* \"#utility.yul\":17099:17179   */\n      tag_432\n        /* \"#utility.yul\":17155:17177   */\n      tag_433\n        /* \"#utility.yul\":17173:17176   */\n      dup6\n        /* \"#utility.yul\":17155:17177   */\n      tag_223\n      jump\t// in\n    tag_433:\n        /* \"#utility.yul\":17145:17153   */\n      dup4\n        /* \"#utility.yul\":17141:17178   */\n      add\n        /* \"#utility.yul\":17128:17139   */\n      dup3\n        /* \"#utility.yul\":17099:17179   */\n      tag_232\n      jump\t// in\n    tag_432:\n        /* \"#utility.yul\":16758:17189   */\n      pop\n      pop\n        /* \"#utility.yul\":16743:17189   */\n    tag_428:\n        /* \"#utility.yul\":16653:17196   */\n      pop\n      pop\n      pop\n      jump\t// out\n        /* \"#utility.yul\":17202:17319   */\n    tag_234:\n        /* \"#utility.yul\":17256:17264   */\n      0x00\n        /* \"#utility.yul\":17306:17311   */\n      dup3\n        /* \"#utility.yul\":17300:17304   */\n      dup3\n        /* \"#utility.yul\":17296:17312   */\n      shr\n        /* \"#utility.yul\":17275:17312   */\n      swap1\n      pop\n        /* \"#utility.yul\":17202:17319   */\n      swap3\n      swap2\n      pop\n      pop\n      jump\t// out\n        /* \"#utility.yul\":17325:17494   */\n    tag_235:\n        /* \"#utility.yul\":17369:17375   */\n      0x00\n        /* \"#utility.yul\":17402:17453   */\n      tag_436\n        /* \"#utility.yul\":17450:17451   */\n      0x00\n        /* \"#utility.yul\":17446:17452   */\n      not\n        /* \"#utility.yul\":17438:17443   */\n      dup5\n        /* \"#utility.yul\":17435:17436   */\n      0x08\n        /* \"#utility.yul\":17431:17444   */\n      mul\n        /* \"#utility.yul\":17402:17453   */\n      tag_234\n      jump\t// in\n    tag_436:\n        /* \"#utility.yul\":17398:17454   */\n      not\n        /* \"#utility.yul\":17483:17487   */\n      dup1\n        /* \"#utility.yul\":17477:17481   */\n      dup4\n        /* \"#utility.yul\":17473:17488   */\n      and\n        /* \"#utility.yul\":17463:17488   */\n      swap2\n      pop\n        /* \"#utility.yul\":17376:17494   */\n      pop\n        /* \"#utility.yul\":17325:17494   */\n      swap3\n      swap2\n      pop\n      pop\n      jump\t// out\n        /* \"#utility.yul\":17499:17794   */\n    tag_236:\n        /* \"#utility.yul\":17575:17579   */\n      0x00\n        /* \"#utility.yul\":17721:17750   */\n      tag_438\n        /* \"#utility.yul\":17746:17749   */\n      dup4\n        /* \"#utility.yul\":17740:17744   */\n      dup4\n        /* \"#utility.yul\":17721:17750   */\n      tag_235\n      jump\t// in\n    tag_438:\n        /* \"#utility.yul\":17713:17750   */\n      swap2\n      pop\n        /* \"#utility.yul\":17783:17786   */\n      dup3\n        /* \"#utility.yul\":17780:17781   */\n      0x02\n        /* \"#utility.yul\":17776:17787   */\n      mul\n        /* \"#utility.yul\":17770:17774   */\n      dup3\n        /* \"#utility.yul\":17767:17788   */\n      or\n        /* \"#utility.yul\":17759:17788   */\n      swap1\n      pop\n        /* \"#utility.yul\":17499:17794   */\n      swap3\n      swap2\n      pop\n      pop\n      jump\t// out\n        /* \"#utility.yul\":17799:19194   */\n    tag_104:\n        /* \"#utility.yul\":17916:17953   */\n      tag_440\n        /* \"#utility.yul\":17949:17952   */\n      dup3\n        /* \"#utility.yul\":17916:17953   */\n      tag_214\n      jump\t// in\n    tag_440:\n        /* \"#utility.yul\":18018:18036   */\n      0xffffffffffffffff\n        /* \"#utility.yul\":18010:18016   */\n      dup2\n        /* \"#utility.yul\":18007:18037   */\n      gt\n        /* \"#utility.yul\":18004:18060   */\n      iszero\n      tag_441\n      jumpi\n        /* \"#utility.yul\":18040:18058   */\n      tag_442\n      tag_184\n      jump\t// in\n    tag_442:\n        /* \"#utility.yul\":18004:18060   */\n    tag_441:\n        /* \"#utility.yul\":18084:18122   */\n      tag_443\n        /* \"#utility.yul\":18116:18120   */\n      dup3\n        /* \"#utility.yul\":18110:18121   */\n      sload\n        /* \"#utility.yul\":18084:18122   */\n      tag_134\n      jump\t// in\n    tag_443:\n        /* \"#utility.yul\":18169:18236   */\n      tag_444\n        /* \"#utility.yul\":18229:18235   */\n      dup3\n        /* \"#utility.yul\":18221:18227   */\n      dup3\n        /* \"#utility.yul\":18215:18219   */\n      dup6\n        /* \"#utility.yul\":18169:18236   */\n      tag_233\n      jump\t// in\n    tag_444:\n        /* \"#utility.yul\":18263:18264   */\n      0x00\n        /* \"#utility.yul\":18287:18291   */\n      0x20\n        /* \"#utility.yul\":18274:18291   */\n      swap1\n      pop\n        /* \"#utility.yul\":18319:18321   */\n      0x1f\n        /* \"#utility.yul\":18311:18317   */\n      dup4\n        /* \"#utility.yul\":18308:18322   */\n      gt\n        /* \"#utility.yul\":18336:18337   */\n      0x01\n        /* \"#utility.yul\":18331:18949   */\n      dup2\n      eq\n      tag_446\n      jumpi\n        /* \"#utility.yul\":18993:18994   */\n      0x00\n        /* \"#utility.yul\":19010:19016   */\n      dup5\n        /* \"#utility.yul\":19007:19084   */\n      iszero\n      tag_447\n      jumpi\n        /* \"#utility.yul\":19059:19068   */\n      dup3\n        /* \"#utility.yul\":19054:19057   */\n      dup8\n        /* \"#utility.yul\":19050:19069   */\n      add\n        /* \"#utility.yul\":19044:19070   */\n      mload\n        /* \"#utility.yul\":19035:19070   */\n      swap1\n      pop\n        /* \"#utility.yul\":19007:19084   */\n    tag_447:\n        /* \"#utility.yul\":19110:19177   */\n      tag_448\n        /* \"#utility.yul\":19170:19176   */\n      dup6\n        /* \"#utility.yul\":19163:19168   */\n      dup3\n        /* \"#utility.yul\":19110:19177   */\n      tag_236\n      jump\t// in\n    tag_448:\n        /* \"#utility.yul\":19104:19108   */\n      dup7\n        /* \"#utility.yul\":19097:19178   */\n      sstore\n        /* \"#utility.yul\":18966:19188   */\n      pop\n        /* \"#utility.yul\":18301:19188   */\n      jump(tag_445)\n        /* \"#utility.yul\":18331:18949   */\n    tag_446:\n        /* \"#utility.yul\":18383:18387   */\n      0x1f\n        /* \"#utility.yul\":18379:18388   */\n      not\n        /* \"#utility.yul\":18371:18377   */\n      dup5\n        /* \"#utility.yul\":18367:18389   */\n      and\n        /* \"#utility.yul\":18417:18454   */\n      tag_449\n        /* \"#utility.yul\":18449:18453   */\n      dup7\n        /* \"#utility.yul\":18417:18454   */\n      tag_222\n      jump\t// in\n    tag_449:\n        /* \"#utility.yul\":18476:18477   */\n      0x00\n        /* \"#utility.yul\":18490:18698   */\n    tag_450:\n        /* \"#utility.yul\":18504:18511   */\n      dup3\n        /* \"#utility.yul\":18501:18502   */\n      dup2\n        /* \"#utility.yul\":18498:18512   */\n      lt\n        /* \"#utility.yul\":18490:18698   */\n      iszero\n      tag_452\n      jumpi\n        /* \"#utility.yul\":18583:18592   */\n      dup5\n        /* \"#utility.yul\":18578:18581   */\n      dup10\n        /* \"#utility.yul\":18574:18593   */\n      add\n        /* \"#utility.yul\":18568:18594   */\n      mload\n        /* \"#utility.yul\":18560:18566   */\n      dup3\n        /* \"#utility.yul\":18553:18595   */\n      sstore\n        /* \"#utility.yul\":18634:18635   */\n      0x01\n        /* \"#utility.yul\":18626:18632   */\n      dup3\n        /* \"#utility.yul\":18622:18636   */\n      add\n        /* \"#utility.yul\":18612:18636   */\n      swap2\n      pop\n        /* \"#utility.yul\":18681:18683   */\n      0x20\n        /* \"#utility.yul\":18670:18679   */\n      dup6\n        /* \"#utility.yul\":18666:18684   */\n      add\n        /* \"#utility.yul\":18653:18684   */\n      swap5\n      pop\n        /* \"#utility.yul\":18527:18531   */\n      0x20\n        /* \"#utility.yul\":18524:18525   */\n      dup2\n        /* \"#utility.yul\":18520:18532   */\n      add\n        /* \"#utility.yul\":18515:18532   */\n      swap1\n      pop\n        /* \"#utility.yul\":18490:18698   */\n      jump(tag_450)\n    tag_452:\n        /* \"#utility.yul\":18726:18732   */\n      dup7\n        /* \"#utility.yul\":18717:18724   */\n      dup4\n        /* \"#utility.yul\":18714:18733   */\n      lt\n        /* \"#utility.yul\":18711:18890   */\n      iszero\n      tag_453\n      jumpi\n        /* \"#utility.yul\":18784:18793   */\n      dup5\n        /* \"#utility.yul\":18779:18782   */\n      dup10\n        /* \"#utility.yul\":18775:18794   */\n      add\n        /* \"#utility.yul\":18769:18795   */\n      mload\n        /* \"#utility.yul\":18827:18875   */\n      tag_454\n        /* \"#utility.yul\":18869:18873   */\n      0x1f\n        /* \"#utility.yul\":18861:18867   */\n      dup10\n        /* \"#utility.yul\":18857:18874   */\n      and\n        /* \"#utility.yul\":18846:18855   */\n      dup3\n        /* \"#utility.yul\":18827:18875   */\n      tag_235\n      jump\t// in\n    tag_454:\n        /* \"#utility.yul\":18819:18825   */\n      dup4\n        /* \"#utility.yul\":18812:18876   */\n      sstore\n        /* \"#utility.yul\":18734:18890   */\n      pop\n        /* \"#utility.yul\":18711:18890   */\n    tag_453:\n        /* \"#utility.yul\":18936:18937   */\n      0x01\n        /* \"#utility.yul\":18932:18933   */\n      0x02\n        /* \"#utility.yul\":18924:18930   */\n      dup9\n        /* \"#utility.yul\":18920:18934   */\n      mul\n        /* \"#utility.yul\":18916:18938   */\n      add\n        /* \"#utility.yul\":18910:18914   */\n      dup9\n        /* \"#utility.yul\":18903:18939   */\n      sstore\n        /* \"#utility.yul\":18338:18949   */\n      pop\n      pop\n      pop\n        /* \"#utility.yul\":18301:19188   */\n    tag_445:\n      pop\n        /* \"#utility.yul\":17891:19194   */\n      pop\n      pop\n      pop\n        /* \"#utility.yul\":17799:19194   */\n      pop\n      pop\n      jump\t// out\n        /* \"#utility.yul\":19200:19733   */\n    tag_106:\n        /* \"#utility.yul\":19369:19373   */\n      0x00\n        /* \"#utility.yul\":19407:19409   */\n      0x60\n        /* \"#utility.yul\":19396:19405   */\n      dup3\n        /* \"#utility.yul\":19392:19410   */\n      add\n        /* \"#utility.yul\":19384:19410   */\n      swap1\n      pop\n        /* \"#utility.yul\":19420:19491   */\n      tag_456\n        /* \"#utility.yul\":19488:19489   */\n      0x00\n        /* \"#utility.yul\":19477:19486   */\n      dup4\n        /* \"#utility.yul\":19473:19490   */\n      add\n        /* \"#utility.yul\":19464:19470   */\n      dup7\n        /* \"#utility.yul\":19420:19491   */\n      tag_194\n      jump\t// in\n    tag_456:\n        /* \"#utility.yul\":19538:19547   */\n      dup2\n        /* \"#utility.yul\":19532:19536   */\n      dup2\n        /* \"#utility.yul\":19528:19548   */\n      sub\n        /* \"#utility.yul\":19523:19525   */\n      0x20\n        /* \"#utility.yul\":19512:19521   */\n      dup4\n        /* \"#utility.yul\":19508:19526   */\n      add\n        /* \"#utility.yul\":19501:19549   */\n      mstore\n        /* \"#utility.yul\":19566:19644   */\n      tag_457\n        /* \"#utility.yul\":19639:19643   */\n      dup2\n        /* \"#utility.yul\":19630:19636   */\n      dup6\n        /* \"#utility.yul\":19566:19644   */\n      tag_217\n      jump\t// in\n    tag_457:\n        /* \"#utility.yul\":19558:19644   */\n      swap1\n      pop\n        /* \"#utility.yul\":19654:19726   */\n      tag_458\n        /* \"#utility.yul\":19722:19724   */\n      0x40\n        /* \"#utility.yul\":19711:19720   */\n      dup4\n        /* \"#utility.yul\":19707:19725   */\n      add\n        /* \"#utility.yul\":19698:19704   */\n      dup5\n        /* \"#utility.yul\":19654:19726   */\n      tag_213\n      jump\t// in\n    tag_458:\n        /* \"#utility.yul\":19200:19733   */\n      swap5\n      swap4\n      pop\n      pop\n      pop\n      pop\n      jump\t// out\n        /* \"#utility.yul\":19739:19912   */\n    tag_237:\n        /* \"#utility.yul\":19879:19904   */\n      0x4861636b6174686f6e206973206e6f7420616374697665000000000000000000\n        /* \"#utility.yul\":19875:19876   */\n      0x00\n        /* \"#utility.yul\":19867:19873   */\n      dup3\n        /* \"#utility.yul\":19863:19877   */\n      add\n        /* \"#utility.yul\":19856:19905   */\n      mstore\n        /* \"#utility.yul\":19739:19912   */\n      pop\n      jump\t// out\n        /* \"#utility.yul\":19918:20284   */\n    tag_238:\n        /* \"#utility.yul\":20060:20063   */\n      0x00\n        /* \"#utility.yul\":20081:20148   */\n      tag_461\n        /* \"#utility.yul\":20145:20147   */\n      0x17\n        /* \"#utility.yul\":20140:20143   */\n      dup4\n        /* \"#utility.yul\":20081:20148   */\n      tag_215\n      jump\t// in\n    tag_461:\n        /* \"#utility.yul\":20074:20148   */\n      swap2\n      pop\n        /* \"#utility.yul\":20157:20250   */\n      tag_462\n        /* \"#utility.yul\":20246:20249   */\n      dup3\n        /* \"#utility.yul\":20157:20250   */\n      tag_237\n      jump\t// in\n    tag_462:\n        /* \"#utility.yul\":20275:20277   */\n      0x20\n        /* \"#utility.yul\":20270:20273   */\n      dup3\n        /* \"#utility.yul\":20266:20278   */\n      add\n        /* \"#utility.yul\":20259:20278   */\n      swap1\n      pop\n        /* \"#utility.yul\":19918:20284   */\n      swap2\n      swap1\n      pop\n      jump\t// out\n        /* \"#utility.yul\":20290:20709   */\n    tag_110:\n        /* \"#utility.yul\":20456:20460   */\n      0x00\n        /* \"#utility.yul\":20494:20496   */\n      0x20\n        /* \"#utility.yul\":20483:20492   */\n      dup3\n        /* \"#utility.yul\":20479:20497   */\n      add\n        /* \"#utility.yul\":20471:20497   */\n      swap1\n      pop\n        /* \"#utility.yul\":20543:20552   */\n      dup2\n        /* \"#utility.yul\":20537:20541   */\n      dup2\n        /* \"#utility.yul\":20533:20553   */\n      sub\n        /* \"#utility.yul\":20529:20530   */\n      0x00\n        /* \"#utility.yul\":20518:20527   */\n      dup4\n        /* \"#utility.yul\":20514:20531   */\n      add\n        /* \"#utility.yul\":20507:20554   */\n      mstore\n        /* \"#utility.yul\":20571:20702   */\n      tag_464\n        /* \"#utility.yul\":20697:20701   */\n      dup2\n        /* \"#utility.yul\":20571:20702   */\n      tag_238\n      jump\t// in\n    tag_464:\n        /* \"#utility.yul\":20563:20702   */\n      swap1\n      pop\n        /* \"#utility.yul\":20290:20709   */\n      swap2\n      swap1\n      pop\n      jump\t// out\n        /* \"#utility.yul\":20715:20891   */\n    tag_239:\n        /* \"#utility.yul\":20855:20883   */\n      0x496e636f727265637420726567697374726174696f6e20666565000000000000\n        /* \"#utility.yul\":20851:20852   */\n      0x00\n        /* \"#utility.yul\":20843:20849   */\n      dup3\n        /* \"#utility.yul\":20839:20853   */\n      add\n        /* \"#utility.yul\":20832:20884   */\n      mstore\n        /* \"#utility.yul\":20715:20891   */\n      pop\n      jump\t// out\n        /* \"#utility.yul\":20897:21263   */\n    tag_240:\n        /* \"#utility.yul\":21039:21042   */\n      0x00\n        /* \"#utility.yul\":21060:21127   */\n      tag_467\n        /* \"#utility.yul\":21124:21126   */\n      0x1a\n        /* \"#utility.yul\":21119:21122   */\n      dup4\n        /* \"#utility.yul\":21060:21127   */\n      tag_215\n      jump\t// in\n    tag_467:\n        /* \"#utility.yul\":21053:21127   */\n      swap2\n      pop\n        /* \"#utility.yul\":21136:21229   */\n      tag_468\n        /* \"#utility.yul\":21225:21228   */\n      dup3\n        /* \"#utility.yul\":21136:21229   */\n      tag_239\n      jump\t// in\n    tag_468:\n        /* \"#utility.yul\":21254:21256   */\n      0x20\n        /* \"#utility.yul\":21249:21252   */\n      dup3\n        /* \"#utility.yul\":21245:21257   */\n      add\n        /* \"#utility.yul\":21238:21257   */\n      swap1\n      pop\n        /* \"#utility.yul\":20897:21263   */\n      swap2\n      swap1\n      pop\n      jump\t// out\n        /* \"#utility.yul\":21269:21688   */\n    tag_113:\n        /* \"#utility.yul\":21435:21439   */\n      0x00\n        /* \"#utility.yul\":21473:21475   */\n      0x20\n        /* \"#utility.yul\":21462:21471   */\n      dup3\n        /* \"#utility.yul\":21458:21476   */\n      add\n        /* \"#utility.yul\":21450:21476   */\n      swap1\n      pop\n        /* \"#utility.yul\":21522:21531   */\n      dup2\n        /* \"#utility.yul\":21516:21520   */\n      dup2\n        /* \"#utility.yul\":21512:21532   */\n      sub\n        /* \"#utility.yul\":21508:21509   */\n      0x00\n        /* \"#utility.yul\":21497:21506   */\n      dup4\n        /* \"#utility.yul\":21493:21510   */\n      add\n        /* \"#utility.yul\":21486:21533   */\n      mstore\n        /* \"#utility.yul\":21550:21681   */\n      tag_470\n        /* \"#utility.yul\":21676:21680   */\n      dup2\n        /* \"#utility.yul\":21550:21681   */\n      tag_240\n      jump\t// in\n    tag_470:\n        /* \"#utility.yul\":21542:21681   */\n      swap1\n      pop\n        /* \"#utility.yul\":21269:21688   */\n      swap2\n      swap1\n      pop\n      jump\t// out\n        /* \"#utility.yul\":21694:22026   */\n    tag_117:\n        /* \"#utility.yul\":21815:21819   */\n      0x00\n        /* \"#utility.yul\":21853:21855   */\n      0x40\n        /* \"#utility.yul\":21842:21851   */\n      dup3\n        /* \"#utility.yul\":21838:21856   */\n      add\n        /* \"#utility.yul\":21830:21856   */\n      swap1\n      pop\n        /* \"#utility.yul\":21866:21937   */\n      tag_472\n        /* \"#utility.yul\":21934:21935   */\n      0x00\n        /* \"#utility.yul\":21923:21932   */\n      dup4\n        /* \"#utility.yul\":21919:21936   */\n      add\n        /* \"#utility.yul\":21910:21916   */\n      dup6\n        /* \"#utility.yul\":21866:21937   */\n      tag_194\n      jump\t// in\n    tag_472:\n        /* \"#utility.yul\":21947:22019   */\n      tag_473\n        /* \"#utility.yul\":22015:22017   */\n      0x20\n        /* \"#utility.yul\":22004:22013   */\n      dup4\n        /* \"#utility.yul\":22000:22018   */\n      add\n        /* \"#utility.yul\":21991:21997   */\n      dup5\n        /* \"#utility.yul\":21947:22019   */\n      tag_213\n      jump\t// in\n    tag_473:\n        /* \"#utility.yul\":21694:22026   */\n      swap4\n      swap3\n      pop\n      pop\n      pop\n      jump\t// out\n        /* \"#utility.yul\":22032:22202   */\n    tag_241:\n        /* \"#utility.yul\":22172:22194   */\n      0x496e636f727265637420636f7572736520666565000000000000000000000000\n        /* \"#utility.yul\":22168:22169   */\n      0x00\n        /* \"#utility.yul\":22160:22166   */\n      dup3\n        /* \"#utility.yul\":22156:22170   */\n      add\n        /* \"#utility.yul\":22149:22195   */\n      mstore\n        /* \"#utility.yul\":22032:22202   */\n      pop\n      jump\t// out\n        /* \"#utility.yul\":22208:22574   */\n    tag_242:\n        /* \"#utility.yul\":22350:22353   */\n      0x00\n        /* \"#utility.yul\":22371:22438   */\n      tag_476\n        /* \"#utility.yul\":22435:22437   */\n      0x14\n        /* \"#utility.yul\":22430:22433   */\n      dup4\n        /* \"#utility.yul\":22371:22438   */\n      tag_215\n      jump\t// in\n    tag_476:\n        /* \"#utility.yul\":22364:22438   */\n      swap2\n      pop\n        /* \"#utility.yul\":22447:22540   */\n      tag_477\n        /* \"#utility.yul\":22536:22539   */\n      dup3\n        /* \"#utility.yul\":22447:22540   */\n      tag_241\n      jump\t// in\n    tag_477:\n        /* \"#utility.yul\":22565:22567   */\n      0x20\n        /* \"#utility.yul\":22560:22563   */\n      dup3\n        /* \"#utility.yul\":22556:22568   */\n      add\n        /* \"#utility.yul\":22549:22568   */\n      swap1\n      pop\n        /* \"#utility.yul\":22208:22574   */\n      swap2\n      swap1\n      pop\n      jump\t// out\n        /* \"#utility.yul\":22580:22999   */\n    tag_121:\n        /* \"#utility.yul\":22746:22750   */\n      0x00\n        /* \"#utility.yul\":22784:22786   */\n      0x20\n        /* \"#utility.yul\":22773:22782   */\n      dup3\n        /* \"#utility.yul\":22769:22787   */\n      add\n        /* \"#utility.yul\":22761:22787   */\n      swap1\n      pop\n        /* \"#utility.yul\":22833:22842   */\n      dup2\n        /* \"#utility.yul\":22827:22831   */\n      dup2\n        /* \"#utility.yul\":22823:22843   */\n      sub\n        /* \"#utility.yul\":22819:22820   */\n      0x00\n        /* \"#utility.yul\":22808:22817   */\n      dup4\n        /* \"#utility.yul\":22804:22821   */\n      add\n        /* \"#utility.yul\":22797:22844   */\n      mstore\n        /* \"#utility.yul\":22861:22992   */\n      tag_479\n        /* \"#utility.yul\":22987:22991   */\n      dup2\n        /* \"#utility.yul\":22861:22992   */\n      tag_242\n      jump\t// in\n    tag_479:\n        /* \"#utility.yul\":22853:22992   */\n      swap1\n      pop\n        /* \"#utility.yul\":22580:22999   */\n      swap2\n      swap1\n      pop\n      jump\t// out\n        /* \"#utility.yul\":23005:23226   */\n    tag_243:\n        /* \"#utility.yul\":23145:23179   */\n      0x4f6e6c79206f776e65722063616e20706572666f726d20746869732061637469\n        /* \"#utility.yul\":23141:23142   */\n      0x00\n        /* \"#utility.yul\":23133:23139   */\n      dup3\n        /* \"#utility.yul\":23129:23143   */\n      add\n        /* \"#utility.yul\":23122:23180   */\n      mstore\n        /* \"#utility.yul\":23214:23218   */\n      0x6f6e000000000000000000000000000000000000000000000000000000000000\n        /* \"#utility.yul\":23209:23211   */\n      0x20\n        /* \"#utility.yul\":23201:23207   */\n      dup3\n        /* \"#utility.yul\":23197:23212   */\n      add\n        /* \"#utility.yul\":23190:23219   */\n      mstore\n        /* \"#utility.yul\":23005:23226   */\n      pop\n      jump\t// out\n        /* \"#utility.yul\":23232:23598   */\n    tag_244:\n        /* \"#utility.yul\":23374:23377   */\n      0x00\n        /* \"#utility.yul\":23395:23462   */\n      tag_482\n        /* \"#utility.yul\":23459:23461   */\n      0x22\n        /* \"#utility.yul\":23454:23457   */\n      dup4\n        /* \"#utility.yul\":23395:23462   */\n      tag_215\n      jump\t// in\n    tag_482:\n        /* \"#utility.yul\":23388:23462   */\n      swap2\n      pop\n        /* \"#utility.yul\":23471:23564   */\n      tag_483\n        /* \"#utility.yul\":23560:23563   */\n      dup3\n        /* \"#utility.yul\":23471:23564   */\n      tag_243\n      jump\t// in\n    tag_483:\n        /* \"#utility.yul\":23589:23591   */\n      0x40\n        /* \"#utility.yul\":23584:23587   */\n      dup3\n        /* \"#utility.yul\":23580:23592   */\n      add\n        /* \"#utility.yul\":23573:23592   */\n      swap1\n      pop\n        /* \"#utility.yul\":23232:23598   */\n      swap2\n      swap1\n      pop\n      jump\t// out\n        /* \"#utility.yul\":23604:24023   */\n    tag_167:\n        /* \"#utility.yul\":23770:23774   */\n      0x00\n        /* \"#utility.yul\":23808:23810   */\n      0x20\n        /* \"#utility.yul\":23797:23806   */\n      dup3\n        /* \"#utility.yul\":23793:23811   */\n      add\n        /* \"#utility.yul\":23785:23811   */\n      swap1\n      pop\n        /* \"#utility.yul\":23857:23866   */\n      dup2\n        /* \"#utility.yul\":23851:23855   */\n      dup2\n        /* \"#utility.yul\":23847:23867   */\n      sub\n        /* \"#utility.yul\":23843:23844   */\n      0x00\n        /* \"#utility.yul\":23832:23841   */\n      dup4\n        /* \"#utility.yul\":23828:23845   */\n      add\n        /* \"#utility.yul\":23821:23868   */\n      mstore\n        /* \"#utility.yul\":23885:24016   */\n      tag_485\n        /* \"#utility.yul\":24011:24015   */\n      dup2\n        /* \"#utility.yul\":23885:24016   */\n      tag_244\n      jump\t// in\n    tag_485:\n        /* \"#utility.yul\":23877:24016   */\n      swap1\n      pop\n        /* \"#utility.yul\":23604:24023   */\n      swap2\n      swap1\n      pop\n      jump\t// out\n        /* \"#utility.yul\":24029:24208   */\n    tag_245:\n        /* \"#utility.yul\":24169:24200   */\n      0x496e73756666696369656e7420636f6e74726163742062616c616e6365000000\n        /* \"#utility.yul\":24165:24166   */\n      0x00\n        /* \"#utility.yul\":24157:24163   */\n      dup3\n        /* \"#utility.yul\":24153:24167   */\n      add\n        /* \"#utility.yul\":24146:24201   */\n      mstore\n        /* \"#utility.yul\":24029:24208   */\n      pop\n      jump\t// out\n        /* \"#utility.yul\":24214:24580   */\n    tag_246:\n        /* \"#utility.yul\":24356:24359   */\n      0x00\n        /* \"#utility.yul\":24377:24444   */\n      tag_488\n        /* \"#utility.yul\":24441:24443   */\n      0x1d\n        /* \"#utility.yul\":24436:24439   */\n      dup4\n        /* \"#utility.yul\":24377:24444   */\n      tag_215\n      jump\t// in\n    tag_488:\n        /* \"#utility.yul\":24370:24444   */\n      swap2\n      pop\n        /* \"#utility.yul\":24453:24546   */\n      tag_489\n        /* \"#utility.yul\":24542:24545   */\n      dup3\n        /* \"#utility.yul\":24453:24546   */\n      tag_245\n      jump\t// in\n    tag_489:\n        /* \"#utility.yul\":24571:24573   */\n      0x20\n        /* \"#utility.yul\":24566:24569   */\n      dup3\n        /* \"#utility.yul\":24562:24574   */\n      add\n        /* \"#utility.yul\":24555:24574   */\n      swap1\n      pop\n        /* \"#utility.yul\":24214:24580   */\n      swap2\n      swap1\n      pop\n      jump\t// out\n        /* \"#utility.yul\":24586:25005   */\n    tag_173:\n        /* \"#utility.yul\":24752:24756   */\n      0x00\n        /* \"#utility.yul\":24790:24792   */\n      0x20\n        /* \"#utility.yul\":24779:24788   */\n      dup3\n        /* \"#utility.yul\":24775:24793   */\n      add\n        /* \"#utility.yul\":24767:24793   */\n      swap1\n      pop\n        /* \"#utility.yul\":24839:24848   */\n      dup2\n        /* \"#utility.yul\":24833:24837   */\n      dup2\n        /* \"#utility.yul\":24829:24849   */\n      sub\n        /* \"#utility.yul\":24825:24826   */\n      0x00\n        /* \"#utility.yul\":24814:24823   */\n      dup4\n        /* \"#utility.yul\":24810:24827   */\n      add\n        /* \"#utility.yul\":24803:24850   */\n      mstore\n        /* \"#utility.yul\":24867:24998   */\n      tag_491\n        /* \"#utility.yul\":24993:24997   */\n      dup2\n        /* \"#utility.yul\":24867:24998   */\n      tag_246\n      jump\t// in\n    tag_491:\n        /* \"#utility.yul\":24859:24998   */\n      swap1\n      pop\n        /* \"#utility.yul\":24586:25005   */\n      swap2\n      swap1\n      pop\n      jump\t// out\n        /* \"#utility.yul\":25011:25453   */\n    tag_177:\n        /* \"#utility.yul\":25160:25164   */\n      0x00\n        /* \"#utility.yul\":25198:25200   */\n      0x60\n        /* \"#utility.yul\":25187:25196   */\n      dup3\n        /* \"#utility.yul\":25183:25201   */\n      add\n        /* \"#utility.yul\":25175:25201   */\n      swap1\n      pop\n        /* \"#utility.yul\":25211:25282   */\n      tag_493\n        /* \"#utility.yul\":25279:25280   */\n      0x00\n        /* \"#utility.yul\":25268:25277   */\n      dup4\n        /* \"#utility.yul\":25264:25281   */\n      add\n        /* \"#utility.yul\":25255:25261   */\n      dup7\n        /* \"#utility.yul\":25211:25282   */\n      tag_194\n      jump\t// in\n    tag_493:\n        /* \"#utility.yul\":25292:25364   */\n      tag_494\n        /* \"#utility.yul\":25360:25362   */\n      0x20\n        /* \"#utility.yul\":25349:25358   */\n      dup4\n        /* \"#utility.yul\":25345:25363   */\n      add\n        /* \"#utility.yul\":25336:25342   */\n      dup6\n        /* \"#utility.yul\":25292:25364   */\n      tag_213\n      jump\t// in\n    tag_494:\n        /* \"#utility.yul\":25374:25446   */\n      tag_495\n        /* \"#utility.yul\":25442:25444   */\n      0x40\n        /* \"#utility.yul\":25431:25440   */\n      dup4\n        /* \"#utility.yul\":25427:25445   */\n      add\n        /* \"#utility.yul\":25418:25424   */\n      dup5\n        /* \"#utility.yul\":25374:25446   */\n      tag_194\n      jump\t// in\n    tag_495:\n        /* \"#utility.yul\":25011:25453   */\n      swap5\n      swap4\n      pop\n      pop\n      pop\n      pop\n      jump\t// out\n\n    auxdata: 0xa264697066735822122023a37d3d3b2ad93fde247c4a33cca72de77565b8ee8abf4d4cb1bd5aad5a171264736f6c634300081a0033\n}\n",
				"bytecode": {
					"linkReferences": {},
					"object": "6080604052348015600e575f80fd5b50335f806101000a81548173ffffffffffffffffffffffffffffffffffffffff021916908373ffffffffffffffffffffffffffffffffffffffff160217905550611d708061005b5f395ff3fe6080604052600436106100eb575f3560e01c80638da5cb5b11610089578063a87430ba11610058578063a87430ba146102ef578063c10771941461032d578063d62d5f781461036e578063f5ff83b3146103aa576100f2565b80638da5cb5b1461022257806396f979d21461024c57806397b913db1461028b578063a1db0e27146102c7576100f2565b80635e52da27116100c55780635e52da271461016457806360dd60e31461018057806382216fbd146101bc578063829ae6f4146101e6576100f2565b80631cd12e53146100f657806340aca1b11461011e57806342ca6d5814610148576100f2565b366100f257005b5f80fd5b348015610101575f80fd5b5061011c60048036038101906101179190611218565b6103d2565b005b348015610129575f80fd5b506101326104ce565b60405161013f9190611293565b60405180910390f35b610162600480360381019061015d91906112ac565b6104d4565b005b61017e600480360381019061017991906112ac565b610681565b005b34801561018b575f80fd5b506101a660048036038101906101a191906112ac565b610845565b6040516101b391906113be565b60405180910390f35b3480156101c7575f80fd5b506101d06108e4565b6040516101dd9190611293565b60405180910390f35b3480156101f1575f80fd5b5061020c60048036038101906102079190611408565b6108ea565b60405161021991906114ea565b60405180910390f35b34801561022d575f80fd5b50610236610980565b6040516102439190611519565b60405180910390f35b348015610257575f80fd5b50610272600480360381019061026d91906112ac565b6109a3565b6040516102829493929190611592565b60405180910390f35b348015610296575f80fd5b506102b160048036038101906102ac91906112ac565b610a74565b6040516102be91906113be565b60405180910390f35b3480156102d2575f80fd5b506102ed60048036038101906102e891906115dc565b610b13565b005b3480156102fa575f80fd5b5061031560048036038101906103109190611408565b610be9565b60405161032493929190611636565b60405180910390f35b348015610338575f80fd5b50610353600480360381019061034e91906112ac565b610d3a565b60405161036596959493929190611693565b60405180910390f35b348015610379575f80fd5b50610394600480360381019061038f9190611408565b610e23565b6040516103a191906114ea565b60405180910390f35b3480156103b5575f80fd5b506103d060048036038101906103cb91906116f9565b610eb9565b005b60025f8154809291906103e490611764565b91905055505f60055f60025481526020019081526020015f209050600254815f01819055508381600101908161041a91906119a5565b5082816002018190555081816003018190555033816004015f6101000a81548173ffffffffffffffffffffffffffffffffffffffff021916908373ffffffffffffffffffffffffffffffffffffffff1602179055506001816006015f6101000a81548160ff0219169083151502179055507fa94cd0b7a6a30768493dd3c96d659f8684f84657295d41125416f89e1027f87660025485336040516104c093929190611a74565b60405180910390a150505050565b60025481565b5f60055f8381526020019081526020015f209050806006015f9054906101000a900460ff16610538576040517f08c379a000000000000000000000000000000000000000000000000000000000815260040161052f90611afa565b60405180910390fd5b8060020154341461057e576040517f08c379a000000000000000000000000000000000000000000000000000000000815260040161057590611b62565b60405180910390fd5b8060050133908060018154018082558091505060019003905f5260205f20015f9091909190916101000a81548173ffffffffffffffffffffffffffffffffffffffff021916908373ffffffffffffffffffffffffffffffffffffffff16021790555060035f3373ffffffffffffffffffffffffffffffffffffffff1673ffffffffffffffffffffffffffffffffffffffff1681526020019081526020015f2060040182908060018154018082558091505060019003905f5260205f20015f90919091909150557feed04d4be145b563e5e53575c494b5a2fccc5ce019758c15d37a0984f36333078233604051610675929190611b80565b60405180910390a15050565b5f60045f8381526020019081526020015f209050806002015434146106db576040517f08c379a00000000000000000000000000000000000000000000000000000000081526004016106d290611bf1565b60405180910390fd5b8060040133908060018154018082558091505060019003905f5260205f20015f9091909190916101000a81548173ffffffffffffffffffffffffffffffffffffffff021916908373ffffffffffffffffffffffffffffffffffffffff16021790555060035f3373ffffffffffffffffffffffffffffffffffffffff1673ffffffffffffffffffffffffffffffffffffffff1681526020019081526020015f2060030182908060018154018082558091505060019003905f5260205f20015f9091909190915055806003015f9054906101000a900473ffffffffffffffffffffffffffffffffffffffff1673ffffffffffffffffffffffffffffffffffffffff166108fc3490811502906040515f60405180830381858888f19350505050158015610807573d5f803e3d5ffd5b507fd1a80c70750f3ae815515ec08d02c6202510aa13797609fe270e902cdfd99f038233604051610839929190611b80565b60405180910390a15050565b606060045f8381526020019081526020015f206004018054806020026020016040519081016040528092919081815260200182805480156108d857602002820191905f5260205f20905b815f9054906101000a900473ffffffffffffffffffffffffffffffffffffffff1673ffffffffffffffffffffffffffffffffffffffff168152602001906001019080831161088f575b50505050509050919050565b60015481565b606060035f8373ffffffffffffffffffffffffffffffffffffffff1673ffffffffffffffffffffffffffffffffffffffff1681526020019081526020015f2060030180548060200260200160405190810160405280929190818152602001828054801561097457602002820191905f5260205f20905b815481526020019060010190808311610960575b50505050509050919050565b5f8054906101000a900473ffffffffffffffffffffffffffffffffffffffff1681565b6004602052805f5260405f205f91509050805f0154908060010180546109c8906117d8565b80601f01602080910402602001604051908101604052809291908181526020018280546109f4906117d8565b8015610a3f5780601f10610a1657610100808354040283529160200191610a3f565b820191905f5260205f20905b815481529060010190602001808311610a2257829003601f168201915b505050505090806002015490806003015f9054906101000a900473ffffffffffffffffffffffffffffffffffffffff16905084565b606060055f8381526020019081526020015f20600501805480602002602001604051908101604052809291908181526020018280548015610b0757602002820191905f5260205f20905b815f9054906101000a900473ffffffffffffffffffffffffffffffffffffffff1673ffffffffffffffffffffffffffffffffffffffff1681526020019060010190808311610abe575b50505050509050919050565b60015f815480929190610b2590611764565b91905055505f60045f60015481526020019081526020015f209050600154815f018190555082816001019081610b5b91906119a5565b5081816002018190555033816003015f6101000a81548173ffffffffffffffffffffffffffffffffffffffff021916908373ffffffffffffffffffffffffffffffffffffffff1602179055507fdb3fafffbb284e95f813ac0a83dbcafbbe522f0facb2ca6ed137fb6b807f31496001548433604051610bdc93929190611a74565b60405180910390a1505050565b6003602052805f5260405f205f91509050805f015f9054906101000a900473ffffffffffffffffffffffffffffffffffffffff1690806001018054610c2d906117d8565b80601f0160208091040260200160405190810160405280929190818152602001828054610c59906117d8565b8015610ca45780601f10610c7b57610100808354040283529160200191610ca4565b820191905f5260205f20905b815481529060010190602001808311610c8757829003601f168201915b505050505090806002018054610cb9906117d8565b80601f0160208091040260200160405190810160405280929190818152602001828054610ce5906117d8565b8015610d305780601f10610d0757610100808354040283529160200191610d30565b820191905f5260205f20905b815481529060010190602001808311610d1357829003601f168201915b5050505050905083565b6005602052805f5260405f205f91509050805f015490806001018054610d5f906117d8565b80601f0160208091040260200160405190810160405280929190818152602001828054610d8b906117d8565b8015610dd65780601f10610dad57610100808354040283529160200191610dd6565b820191905f5260205f20905b815481529060010190602001808311610db957829003601f168201915b505050505090806002015490806003015490806004015f9054906101000a900473ffffffffffffffffffffffffffffffffffffffff1690806006015f9054906101000a900460ff16905086565b606060035f8373ffffffffffffffffffffffffffffffffffffffff1673ffffffffffffffffffffffffffffffffffffffff1681526020019081526020015f20600401805480602002602001604051908101604052809291908181526020018280548015610ead57602002820191905f5260205f20905b815481526020019060010190808311610e99575b50505050509050919050565b5f8054906101000a900473ffffffffffffffffffffffffffffffffffffffff1673ffffffffffffffffffffffffffffffffffffffff163373ffffffffffffffffffffffffffffffffffffffff1614610f46576040517f08c379a0000000000000000000000000000000000000000000000000000000008152600401610f3d90611c7f565b60405180910390fd5b5f60055f8481526020019081526020015f209050806006015f9054906101000a900460ff16610faa576040517f08c379a0000000000000000000000000000000000000000000000000000000008152600401610fa190611afa565b60405180910390fd5b8060030154471015610ff1576040517f08c379a0000000000000000000000000000000000000000000000000000000008152600401610fe890611ce7565b60405180910390fd5b5f816006015f6101000a81548160ff0219169083151502179055508173ffffffffffffffffffffffffffffffffffffffff166108fc826003015490811502906040515f60405180830381858888f19350505050158015611053573d5f803e3d5ffd5b507fdc1d0b6a7cbfa6f3b2d4325bab5a169b265ad0b2b4022fb550364f0dfeeb6a748383836003015460405161108b93929190611d05565b60405180910390a1505050565b5f604051905090565b5f80fd5b5f80fd5b5f80fd5b5f80fd5b5f601f19601f8301169050919050565b7f4e487b71000000000000000000000000000000000000000000000000000000005f52604160045260245ffd5b6110f7826110b1565b810181811067ffffffffffffffff82111715611116576111156110c1565b5b80604052505050565b5f611128611098565b905061113482826110ee565b919050565b5f67ffffffffffffffff821115611153576111526110c1565b5b61115c826110b1565b9050602081019050919050565b828183375f83830152505050565b5f61118961118484611139565b61111f565b9050828152602081018484840111156111a5576111a46110ad565b5b6111b0848285611169565b509392505050565b5f82601f8301126111cc576111cb6110a9565b5b81356111dc848260208601611177565b91505092915050565b5f819050919050565b6111f7816111e5565b8114611201575f80fd5b50565b5f81359050611212816111ee565b92915050565b5f805f6060848603121561122f5761122e6110a1565b5b5f84013567ffffffffffffffff81111561124c5761124b6110a5565b5b611258868287016111b8565b935050602061126986828701611204565b925050604061127a86828701611204565b9150509250925092565b61128d816111e5565b82525050565b5f6020820190506112a65f830184611284565b92915050565b5f602082840312156112c1576112c06110a1565b5b5f6112ce84828501611204565b91505092915050565b5f81519050919050565b5f82825260208201905092915050565b5f819050602082019050919050565b5f73ffffffffffffffffffffffffffffffffffffffff82169050919050565b5f61132982611300565b9050919050565b6113398161131f565b82525050565b5f61134a8383611330565b60208301905092915050565b5f602082019050919050565b5f61136c826112d7565b61137681856112e1565b9350611381836112f1565b805f5b838110156113b1578151611398888261133f565b97506113a383611356565b925050600181019050611384565b5085935050505092915050565b5f6020820190508181035f8301526113d68184611362565b905092915050565b6113e78161131f565b81146113f1575f80fd5b50565b5f81359050611402816113de565b92915050565b5f6020828403121561141d5761141c6110a1565b5b5f61142a848285016113f4565b91505092915050565b5f81519050919050565b5f82825260208201905092915050565b5f819050602082019050919050565b611465816111e5565b82525050565b5f611476838361145c565b60208301905092915050565b5f602082019050919050565b5f61149882611433565b6114a2818561143d565b93506114ad8361144d565b805f5b838110156114dd5781516114c4888261146b565b97506114cf83611482565b9250506001810190506114b0565b5085935050505092915050565b5f6020820190508181035f830152611502818461148e565b905092915050565b6115138161131f565b82525050565b5f60208201905061152c5f83018461150a565b92915050565b5f81519050919050565b5f82825260208201905092915050565b8281835e5f83830152505050565b5f61156482611532565b61156e818561153c565b935061157e81856020860161154c565b611587816110b1565b840191505092915050565b5f6080820190506115a55f830187611284565b81810360208301526115b7818661155a565b90506115c66040830185611284565b6115d3606083018461150a565b95945050505050565b5f80604083850312156115f2576115f16110a1565b5b5f83013567ffffffffffffffff81111561160f5761160e6110a5565b5b61161b858286016111b8565b925050602061162c85828601611204565b9150509250929050565b5f6060820190506116495f83018661150a565b818103602083015261165b818561155a565b9050818103604083015261166f818461155a565b9050949350505050565b5f8115159050919050565b61168d81611679565b82525050565b5f60c0820190506116a65f830189611284565b81810360208301526116b8818861155a565b90506116c76040830187611284565b6116d46060830186611284565b6116e1608083018561150a565b6116ee60a0830184611684565b979650505050505050565b5f806040838503121561170f5761170e6110a1565b5b5f61171c85828601611204565b925050602061172d858286016113f4565b9150509250929050565b7f4e487b71000000000000000000000000000000000000000000000000000000005f52601160045260245ffd5b5f61176e826111e5565b91507fffffffffffffffffffffffffffffffffffffffffffffffffffffffffffffffff82036117a05761179f611737565b5b600182019050919050565b7f4e487b71000000000000000000000000000000000000000000000000000000005f52602260045260245ffd5b5f60028204905060018216806117ef57607f821691505b602082108103611802576118016117ab565b5b50919050565b5f819050815f5260205f209050919050565b5f6020601f8301049050919050565b5f82821b905092915050565b5f600883026118647fffffffffffffffffffffffffffffffffffffffffffffffffffffffffffffffff82611829565b61186e8683611829565b95508019841693508086168417925050509392505050565b5f819050919050565b5f6118a96118a461189f846111e5565b611886565b6111e5565b9050919050565b5f819050919050565b6118c28361188f565b6118d66118ce826118b0565b848454611835565b825550505050565b5f90565b6118ea6118de565b6118f58184846118b9565b505050565b5b818110156119185761190d5f826118e2565b6001810190506118fb565b5050565b601f82111561195d5761192e81611808565b6119378461181a565b81016020851015611946578190505b61195a6119528561181a565b8301826118fa565b50505b505050565b5f82821c905092915050565b5f61197d5f1984600802611962565b1980831691505092915050565b5f611995838361196e565b9150826002028217905092915050565b6119ae82611532565b67ffffffffffffffff8111156119c7576119c66110c1565b5b6119d182546117d8565b6119dc82828561191c565b5f60209050601f831160018114611a0d575f84156119fb578287015190505b611a05858261198a565b865550611a6c565b601f198416611a1b86611808565b5f5b82811015611a4257848901518255600182019150602085019450602081019050611a1d565b86831015611a5f5784890151611a5b601f89168261196e565b8355505b6001600288020188555050505b505050505050565b5f606082019050611a875f830186611284565b8181036020830152611a99818561155a565b9050611aa8604083018461150a565b949350505050565b7f4861636b6174686f6e206973206e6f74206163746976650000000000000000005f82015250565b5f611ae460178361153c565b9150611aef82611ab0565b602082019050919050565b5f6020820190508181035f830152611b1181611ad8565b9050919050565b7f496e636f727265637420726567697374726174696f6e206665650000000000005f82015250565b5f611b4c601a8361153c565b9150611b5782611b18565b602082019050919050565b5f6020820190508181035f830152611b7981611b40565b9050919050565b5f604082019050611b935f830185611284565b611ba0602083018461150a565b9392505050565b7f496e636f727265637420636f75727365206665650000000000000000000000005f82015250565b5f611bdb60148361153c565b9150611be682611ba7565b602082019050919050565b5f6020820190508181035f830152611c0881611bcf565b9050919050565b7f4f6e6c79206f776e65722063616e20706572666f726d207468697320616374695f8201527f6f6e000000000000000000000000000000000000000000000000000000000000602082015250565b5f611c6960228361153c565b9150611c7482611c0f565b604082019050919050565b5f6020820190508181035f830152611c9681611c5d565b9050919050565b7f496e73756666696369656e7420636f6e74726163742062616c616e63650000005f82015250565b5f611cd1601d8361153c565b9150611cdc82611c9d565b602082019050919050565b5f6020820190508181035f830152611cfe81611cc5565b9050919050565b5f606082019050611d185f830186611284565b611d25602083018561150a565b611d326040830184611284565b94935050505056fea264697066735822122023a37d3d3b2ad93fde247c4a33cca72de77565b8ee8abf4d4cb1bd5aad5a171264736f6c634300081a0033",
					"opcodes": "PUSH1 0x80 PUSH1 0x40 MSTORE CALLVALUE DUP1 ISZERO PUSH1 0xE JUMPI PUSH0 DUP1 REVERT JUMPDEST POP CALLER PUSH0 DUP1 PUSH2 0x100 EXP DUP2 SLOAD DUP2 PUSH20 0xFFFFFFFFFFFFFFFFFFFFFFFFFFFFFFFFFFFFFFFF MUL NOT AND SWAP1 DUP4 PUSH20 0xFFFFFFFFFFFFFFFFFFFFFFFFFFFFFFFFFFFFFFFF AND MUL OR SWAP1 SSTORE POP PUSH2 0x1D70 DUP1 PUSH2 0x5B PUSH0 CODECOPY PUSH0 RETURN INVALID PUSH1 0x80 PUSH1 0x40 MSTORE PUSH1 0x4 CALLDATASIZE LT PUSH2 0xEB JUMPI PUSH0 CALLDATALOAD PUSH1 0xE0 SHR DUP1 PUSH4 0x8DA5CB5B GT PUSH2 0x89 JUMPI DUP1 PUSH4 0xA87430BA GT PUSH2 0x58 JUMPI DUP1 PUSH4 0xA87430BA EQ PUSH2 0x2EF JUMPI DUP1 PUSH4 0xC1077194 EQ PUSH2 0x32D JUMPI DUP1 PUSH4 0xD62D5F78 EQ PUSH2 0x36E JUMPI DUP1 PUSH4 0xF5FF83B3 EQ PUSH2 0x3AA JUMPI PUSH2 0xF2 JUMP JUMPDEST DUP1 PUSH4 0x8DA5CB5B EQ PUSH2 0x222 JUMPI DUP1 PUSH4 0x96F979D2 EQ PUSH2 0x24C JUMPI DUP1 PUSH4 0x97B913DB EQ PUSH2 0x28B JUMPI DUP1 PUSH4 0xA1DB0E27 EQ PUSH2 0x2C7 JUMPI PUSH2 0xF2 JUMP JUMPDEST DUP1 PUSH4 0x5E52DA27 GT PUSH2 0xC5 JUMPI DUP1 PUSH4 0x5E52DA27 EQ PUSH2 0x164 JUMPI DUP1 PUSH4 0x60DD60E3 EQ PUSH2 0x180 JUMPI DUP1 PUSH4 0x82216FBD EQ PUSH2 0x1BC JUMPI DUP1 PUSH4 0x829AE6F4 EQ PUSH2 0x1E6 JUMPI PUSH2 0xF2 JUMP JUMPDEST DUP1 PUSH4 0x1CD12E53 EQ PUSH2 0xF6 JUMPI DUP1 PUSH4 0x40ACA1B1 EQ PUSH2 0x11E JUMPI DUP1 PUSH4 0x42CA6D58 EQ PUSH2 0x148 JUMPI PUSH2 0xF2 JUMP JUMPDEST CALLDATASIZE PUSH2 0xF2 JUMPI STOP JUMPDEST PUSH0 DUP1 REVERT JUMPDEST CALLVALUE DUP1 ISZERO PUSH2 0x101 JUMPI PUSH0 DUP1 REVERT JUMPDEST POP PUSH2 0x11C PUSH1 0x4 DUP1 CALLDATASIZE SUB DUP2 ADD SWAP1 PUSH2 0x117 SWAP2 SWAP1 PUSH2 0x1218 JUMP JUMPDEST PUSH2 0x3D2 JUMP JUMPDEST STOP JUMPDEST CALLVALUE DUP1 ISZERO PUSH2 0x129 JUMPI PUSH0 DUP1 REVERT JUMPDEST POP PUSH2 0x132 PUSH2 0x4CE JUMP JUMPDEST PUSH1 0x40 MLOAD PUSH2 0x13F SWAP2 SWAP1 PUSH2 0x1293 JUMP JUMPDEST PUSH1 0x40 MLOAD DUP1 SWAP2 SUB SWAP1 RETURN JUMPDEST PUSH2 0x162 PUSH1 0x4 DUP1 CALLDATASIZE SUB DUP2 ADD SWAP1 PUSH2 0x15D SWAP2 SWAP1 PUSH2 0x12AC JUMP JUMPDEST PUSH2 0x4D4 JUMP JUMPDEST STOP JUMPDEST PUSH2 0x17E PUSH1 0x4 DUP1 CALLDATASIZE SUB DUP2 ADD SWAP1 PUSH2 0x179 SWAP2 SWAP1 PUSH2 0x12AC JUMP JUMPDEST PUSH2 0x681 JUMP JUMPDEST STOP JUMPDEST CALLVALUE DUP1 ISZERO PUSH2 0x18B JUMPI PUSH0 DUP1 REVERT JUMPDEST POP PUSH2 0x1A6 PUSH1 0x4 DUP1 CALLDATASIZE SUB DUP2 ADD SWAP1 PUSH2 0x1A1 SWAP2 SWAP1 PUSH2 0x12AC JUMP JUMPDEST PUSH2 0x845 JUMP JUMPDEST PUSH1 0x40 MLOAD PUSH2 0x1B3 SWAP2 SWAP1 PUSH2 0x13BE JUMP JUMPDEST PUSH1 0x40 MLOAD DUP1 SWAP2 SUB SWAP1 RETURN JUMPDEST CALLVALUE DUP1 ISZERO PUSH2 0x1C7 JUMPI PUSH0 DUP1 REVERT JUMPDEST POP PUSH2 0x1D0 PUSH2 0x8E4 JUMP JUMPDEST PUSH1 0x40 MLOAD PUSH2 0x1DD SWAP2 SWAP1 PUSH2 0x1293 JUMP JUMPDEST PUSH1 0x40 MLOAD DUP1 SWAP2 SUB SWAP1 RETURN JUMPDEST CALLVALUE DUP1 ISZERO PUSH2 0x1F1 JUMPI PUSH0 DUP1 REVERT JUMPDEST POP PUSH2 0x20C PUSH1 0x4 DUP1 CALLDATASIZE SUB DUP2 ADD SWAP1 PUSH2 0x207 SWAP2 SWAP1 PUSH2 0x1408 JUMP JUMPDEST PUSH2 0x8EA JUMP JUMPDEST PUSH1 0x40 MLOAD PUSH2 0x219 SWAP2 SWAP1 PUSH2 0x14EA JUMP JUMPDEST PUSH1 0x40 MLOAD DUP1 SWAP2 SUB SWAP1 RETURN JUMPDEST CALLVALUE DUP1 ISZERO PUSH2 0x22D JUMPI PUSH0 DUP1 REVERT JUMPDEST POP PUSH2 0x236 PUSH2 0x980 JUMP JUMPDEST PUSH1 0x40 MLOAD PUSH2 0x243 SWAP2 SWAP1 PUSH2 0x1519 JUMP JUMPDEST PUSH1 0x40 MLOAD DUP1 SWAP2 SUB SWAP1 RETURN JUMPDEST CALLVALUE DUP1 ISZERO PUSH2 0x257 JUMPI PUSH0 DUP1 REVERT JUMPDEST POP PUSH2 0x272 PUSH1 0x4 DUP1 CALLDATASIZE SUB DUP2 ADD SWAP1 PUSH2 0x26D SWAP2 SWAP1 PUSH2 0x12AC JUMP JUMPDEST PUSH2 0x9A3 JUMP JUMPDEST PUSH1 0x40 MLOAD PUSH2 0x282 SWAP5 SWAP4 SWAP3 SWAP2 SWAP1 PUSH2 0x1592 JUMP JUMPDEST PUSH1 0x40 MLOAD DUP1 SWAP2 SUB SWAP1 RETURN JUMPDEST CALLVALUE DUP1 ISZERO PUSH2 0x296 JUMPI PUSH0 DUP1 REVERT JUMPDEST POP PUSH2 0x2B1 PUSH1 0x4 DUP1 CALLDATASIZE SUB DUP2 ADD SWAP1 PUSH2 0x2AC SWAP2 SWAP1 PUSH2 0x12AC JUMP JUMPDEST PUSH2 0xA74 JUMP JUMPDEST PUSH1 0x40 MLOAD PUSH2 0x2BE SWAP2 SWAP1 PUSH2 0x13BE JUMP JUMPDEST PUSH1 0x40 MLOAD DUP1 SWAP2 SUB SWAP1 RETURN JUMPDEST CALLVALUE DUP1 ISZERO PUSH2 0x2D2 JUMPI PUSH0 DUP1 REVERT JUMPDEST POP PUSH2 0x2ED PUSH1 0x4 DUP1 CALLDATASIZE SUB DUP2 ADD SWAP1 PUSH2 0x2E8 SWAP2 SWAP1 PUSH2 0x15DC JUMP JUMPDEST PUSH2 0xB13 JUMP JUMPDEST STOP JUMPDEST CALLVALUE DUP1 ISZERO PUSH2 0x2FA JUMPI PUSH0 DUP1 REVERT JUMPDEST POP PUSH2 0x315 PUSH1 0x4 DUP1 CALLDATASIZE SUB DUP2 ADD SWAP1 PUSH2 0x310 SWAP2 SWAP1 PUSH2 0x1408 JUMP JUMPDEST PUSH2 0xBE9 JUMP JUMPDEST PUSH1 0x40 MLOAD PUSH2 0x324 SWAP4 SWAP3 SWAP2 SWAP1 PUSH2 0x1636 JUMP JUMPDEST PUSH1 0x40 MLOAD DUP1 SWAP2 SUB SWAP1 RETURN JUMPDEST CALLVALUE DUP1 ISZERO PUSH2 0x338 JUMPI PUSH0 DUP1 REVERT JUMPDEST POP PUSH2 0x353 PUSH1 0x4 DUP1 CALLDATASIZE SUB DUP2 ADD SWAP1 PUSH2 0x34E SWAP2 SWAP1 PUSH2 0x12AC JUMP JUMPDEST PUSH2 0xD3A JUMP JUMPDEST PUSH1 0x40 MLOAD PUSH2 0x365 SWAP7 SWAP6 SWAP5 SWAP4 SWAP3 SWAP2 SWAP1 PUSH2 0x1693 JUMP JUMPDEST PUSH1 0x40 MLOAD DUP1 SWAP2 SUB SWAP1 RETURN JUMPDEST CALLVALUE DUP1 ISZERO PUSH2 0x379 JUMPI PUSH0 DUP1 REVERT JUMPDEST POP PUSH2 0x394 PUSH1 0x4 DUP1 CALLDATASIZE SUB DUP2 ADD SWAP1 PUSH2 0x38F SWAP2 SWAP1 PUSH2 0x1408 JUMP JUMPDEST PUSH2 0xE23 JUMP JUMPDEST PUSH1 0x40 MLOAD PUSH2 0x3A1 SWAP2 SWAP1 PUSH2 0x14EA JUMP JUMPDEST PUSH1 0x40 MLOAD DUP1 SWAP2 SUB SWAP1 RETURN JUMPDEST CALLVALUE DUP1 ISZERO PUSH2 0x3B5 JUMPI PUSH0 DUP1 REVERT JUMPDEST POP PUSH2 0x3D0 PUSH1 0x4 DUP1 CALLDATASIZE SUB DUP2 ADD SWAP1 PUSH2 0x3CB SWAP2 SWAP1 PUSH2 0x16F9 JUMP JUMPDEST PUSH2 0xEB9 JUMP JUMPDEST STOP JUMPDEST PUSH1 0x2 PUSH0 DUP2 SLOAD DUP1 SWAP3 SWAP2 SWAP1 PUSH2 0x3E4 SWAP1 PUSH2 0x1764 JUMP JUMPDEST SWAP2 SWAP1 POP SSTORE POP PUSH0 PUSH1 0x5 PUSH0 PUSH1 0x2 SLOAD DUP2 MSTORE PUSH1 0x20 ADD SWAP1 DUP2 MSTORE PUSH1 0x20 ADD PUSH0 KECCAK256 SWAP1 POP PUSH1 0x2 SLOAD DUP2 PUSH0 ADD DUP2 SWAP1 SSTORE POP DUP4 DUP2 PUSH1 0x1 ADD SWAP1 DUP2 PUSH2 0x41A SWAP2 SWAP1 PUSH2 0x19A5 JUMP JUMPDEST POP DUP3 DUP2 PUSH1 0x2 ADD DUP2 SWAP1 SSTORE POP DUP2 DUP2 PUSH1 0x3 ADD DUP2 SWAP1 SSTORE POP CALLER DUP2 PUSH1 0x4 ADD PUSH0 PUSH2 0x100 EXP DUP2 SLOAD DUP2 PUSH20 0xFFFFFFFFFFFFFFFFFFFFFFFFFFFFFFFFFFFFFFFF MUL NOT AND SWAP1 DUP4 PUSH20 0xFFFFFFFFFFFFFFFFFFFFFFFFFFFFFFFFFFFFFFFF AND MUL OR SWAP1 SSTORE POP PUSH1 0x1 DUP2 PUSH1 0x6 ADD PUSH0 PUSH2 0x100 EXP DUP2 SLOAD DUP2 PUSH1 0xFF MUL NOT AND SWAP1 DUP4 ISZERO ISZERO MUL OR SWAP1 SSTORE POP PUSH32 0xA94CD0B7A6A30768493DD3C96D659F8684F84657295D41125416F89E1027F876 PUSH1 0x2 SLOAD DUP6 CALLER PUSH1 0x40 MLOAD PUSH2 0x4C0 SWAP4 SWAP3 SWAP2 SWAP1 PUSH2 0x1A74 JUMP JUMPDEST PUSH1 0x40 MLOAD DUP1 SWAP2 SUB SWAP1 LOG1 POP POP POP POP JUMP JUMPDEST PUSH1 0x2 SLOAD DUP2 JUMP JUMPDEST PUSH0 PUSH1 0x5 PUSH0 DUP4 DUP2 MSTORE PUSH1 0x20 ADD SWAP1 DUP2 MSTORE PUSH1 0x20 ADD PUSH0 KECCAK256 SWAP1 POP DUP1 PUSH1 0x6 ADD PUSH0 SWAP1 SLOAD SWAP1 PUSH2 0x100 EXP SWAP1 DIV PUSH1 0xFF AND PUSH2 0x538 JUMPI PUSH1 0x40 MLOAD PUSH32 0x8C379A000000000000000000000000000000000000000000000000000000000 DUP2 MSTORE PUSH1 0x4 ADD PUSH2 0x52F SWAP1 PUSH2 0x1AFA JUMP JUMPDEST PUSH1 0x40 MLOAD DUP1 SWAP2 SUB SWAP1 REVERT JUMPDEST DUP1 PUSH1 0x2 ADD SLOAD CALLVALUE EQ PUSH2 0x57E JUMPI PUSH1 0x40 MLOAD PUSH32 0x8C379A000000000000000000000000000000000000000000000000000000000 DUP2 MSTORE PUSH1 0x4 ADD PUSH2 0x575 SWAP1 PUSH2 0x1B62 JUMP JUMPDEST PUSH1 0x40 MLOAD DUP1 SWAP2 SUB SWAP1 REVERT JUMPDEST DUP1 PUSH1 0x5 ADD CALLER SWAP1 DUP1 PUSH1 0x1 DUP2 SLOAD ADD DUP1 DUP3 SSTORE DUP1 SWAP2 POP POP PUSH1 0x1 SWAP1 SUB SWAP1 PUSH0 MSTORE PUSH1 0x20 PUSH0 KECCAK256 ADD PUSH0 SWAP1 SWAP2 SWAP1 SWAP2 SWAP1 SWAP2 PUSH2 0x100 EXP DUP2 SLOAD DUP2 PUSH20 0xFFFFFFFFFFFFFFFFFFFFFFFFFFFFFFFFFFFFFFFF MUL NOT AND SWAP1 DUP4 PUSH20 0xFFFFFFFFFFFFFFFFFFFFFFFFFFFFFFFFFFFFFFFF AND MUL OR SWAP1 SSTORE POP PUSH1 0x3 PUSH0 CALLER PUSH20 0xFFFFFFFFFFFFFFFFFFFFFFFFFFFFFFFFFFFFFFFF AND PUSH20 0xFFFFFFFFFFFFFFFFFFFFFFFFFFFFFFFFFFFFFFFF AND DUP2 MSTORE PUSH1 0x20 ADD SWAP1 DUP2 MSTORE PUSH1 0x20 ADD PUSH0 KECCAK256 PUSH1 0x4 ADD DUP3 SWAP1 DUP1 PUSH1 0x1 DUP2 SLOAD ADD DUP1 DUP3 SSTORE DUP1 SWAP2 POP POP PUSH1 0x1 SWAP1 SUB SWAP1 PUSH0 MSTORE PUSH1 0x20 PUSH0 KECCAK256 ADD PUSH0 SWAP1 SWAP2 SWAP1 SWAP2 SWAP1 SWAP2 POP SSTORE PUSH32 0xEED04D4BE145B563E5E53575C494B5A2FCCC5CE019758C15D37A0984F3633307 DUP3 CALLER PUSH1 0x40 MLOAD PUSH2 0x675 SWAP3 SWAP2 SWAP1 PUSH2 0x1B80 JUMP JUMPDEST PUSH1 0x40 MLOAD DUP1 SWAP2 SUB SWAP1 LOG1 POP POP JUMP JUMPDEST PUSH0 PUSH1 0x4 PUSH0 DUP4 DUP2 MSTORE PUSH1 0x20 ADD SWAP1 DUP2 MSTORE PUSH1 0x20 ADD PUSH0 KECCAK256 SWAP1 POP DUP1 PUSH1 0x2 ADD SLOAD CALLVALUE EQ PUSH2 0x6DB JUMPI PUSH1 0x40 MLOAD PUSH32 0x8C379A000000000000000000000000000000000000000000000000000000000 DUP2 MSTORE PUSH1 0x4 ADD PUSH2 0x6D2 SWAP1 PUSH2 0x1BF1 JUMP JUMPDEST PUSH1 0x40 MLOAD DUP1 SWAP2 SUB SWAP1 REVERT JUMPDEST DUP1 PUSH1 0x4 ADD CALLER SWAP1 DUP1 PUSH1 0x1 DUP2 SLOAD ADD DUP1 DUP3 SSTORE DUP1 SWAP2 POP POP PUSH1 0x1 SWAP1 SUB SWAP1 PUSH0 MSTORE PUSH1 0x20 PUSH0 KECCAK256 ADD PUSH0 SWAP1 SWAP2 SWAP1 SWAP2 SWAP1 SWAP2 PUSH2 0x100 EXP DUP2 SLOAD DUP2 PUSH20 0xFFFFFFFFFFFFFFFFFFFFFFFFFFFFFFFFFFFFFFFF MUL NOT AND SWAP1 DUP4 PUSH20 0xFFFFFFFFFFFFFFFFFFFFFFFFFFFFFFFFFFFFFFFF AND MUL OR SWAP1 SSTORE POP PUSH1 0x3 PUSH0 CALLER PUSH20 0xFFFFFFFFFFFFFFFFFFFFFFFFFFFFFFFFFFFFFFFF AND PUSH20 0xFFFFFFFFFFFFFFFFFFFFFFFFFFFFFFFFFFFFFFFF AND DUP2 MSTORE PUSH1 0x20 ADD SWAP1 DUP2 MSTORE PUSH1 0x20 ADD PUSH0 KECCAK256 PUSH1 0x3 ADD DUP3 SWAP1 DUP1 PUSH1 0x1 DUP2 SLOAD ADD DUP1 DUP3 SSTORE DUP1 SWAP2 POP POP PUSH1 0x1 SWAP1 SUB SWAP1 PUSH0 MSTORE PUSH1 0x20 PUSH0 KECCAK256 ADD PUSH0 SWAP1 SWAP2 SWAP1 SWAP2 SWAP1 SWAP2 POP SSTORE DUP1 PUSH1 0x3 ADD PUSH0 SWAP1 SLOAD SWAP1 PUSH2 0x100 EXP SWAP1 DIV PUSH20 0xFFFFFFFFFFFFFFFFFFFFFFFFFFFFFFFFFFFFFFFF AND PUSH20 0xFFFFFFFFFFFFFFFFFFFFFFFFFFFFFFFFFFFFFFFF AND PUSH2 0x8FC CALLVALUE SWAP1 DUP2 ISZERO MUL SWAP1 PUSH1 0x40 MLOAD PUSH0 PUSH1 0x40 MLOAD DUP1 DUP4 SUB DUP2 DUP6 DUP9 DUP9 CALL SWAP4 POP POP POP POP ISZERO DUP1 ISZERO PUSH2 0x807 JUMPI RETURNDATASIZE PUSH0 DUP1 RETURNDATACOPY RETURNDATASIZE PUSH0 REVERT JUMPDEST POP PUSH32 0xD1A80C70750F3AE815515EC08D02C6202510AA13797609FE270E902CDFD99F03 DUP3 CALLER PUSH1 0x40 MLOAD PUSH2 0x839 SWAP3 SWAP2 SWAP1 PUSH2 0x1B80 JUMP JUMPDEST PUSH1 0x40 MLOAD DUP1 SWAP2 SUB SWAP1 LOG1 POP POP JUMP JUMPDEST PUSH1 0x60 PUSH1 0x4 PUSH0 DUP4 DUP2 MSTORE PUSH1 0x20 ADD SWAP1 DUP2 MSTORE PUSH1 0x20 ADD PUSH0 KECCAK256 PUSH1 0x4 ADD DUP1 SLOAD DUP1 PUSH1 0x20 MUL PUSH1 0x20 ADD PUSH1 0x40 MLOAD SWAP1 DUP2 ADD PUSH1 0x40 MSTORE DUP1 SWAP3 SWAP2 SWAP1 DUP2 DUP2 MSTORE PUSH1 0x20 ADD DUP3 DUP1 SLOAD DUP1 ISZERO PUSH2 0x8D8 JUMPI PUSH1 0x20 MUL DUP3 ADD SWAP2 SWAP1 PUSH0 MSTORE PUSH1 0x20 PUSH0 KECCAK256 SWAP1 JUMPDEST DUP2 PUSH0 SWAP1 SLOAD SWAP1 PUSH2 0x100 EXP SWAP1 DIV PUSH20 0xFFFFFFFFFFFFFFFFFFFFFFFFFFFFFFFFFFFFFFFF AND PUSH20 0xFFFFFFFFFFFFFFFFFFFFFFFFFFFFFFFFFFFFFFFF AND DUP2 MSTORE PUSH1 0x20 ADD SWAP1 PUSH1 0x1 ADD SWAP1 DUP1 DUP4 GT PUSH2 0x88F JUMPI JUMPDEST POP POP POP POP POP SWAP1 POP SWAP2 SWAP1 POP JUMP JUMPDEST PUSH1 0x1 SLOAD DUP2 JUMP JUMPDEST PUSH1 0x60 PUSH1 0x3 PUSH0 DUP4 PUSH20 0xFFFFFFFFFFFFFFFFFFFFFFFFFFFFFFFFFFFFFFFF AND PUSH20 0xFFFFFFFFFFFFFFFFFFFFFFFFFFFFFFFFFFFFFFFF AND DUP2 MSTORE PUSH1 0x20 ADD SWAP1 DUP2 MSTORE PUSH1 0x20 ADD PUSH0 KECCAK256 PUSH1 0x3 ADD DUP1 SLOAD DUP1 PUSH1 0x20 MUL PUSH1 0x20 ADD PUSH1 0x40 MLOAD SWAP1 DUP2 ADD PUSH1 0x40 MSTORE DUP1 SWAP3 SWAP2 SWAP1 DUP2 DUP2 MSTORE PUSH1 0x20 ADD DUP3 DUP1 SLOAD DUP1 ISZERO PUSH2 0x974 JUMPI PUSH1 0x20 MUL DUP3 ADD SWAP2 SWAP1 PUSH0 MSTORE PUSH1 0x20 PUSH0 KECCAK256 SWAP1 JUMPDEST DUP2 SLOAD DUP2 MSTORE PUSH1 0x20 ADD SWAP1 PUSH1 0x1 ADD SWAP1 DUP1 DUP4 GT PUSH2 0x960 JUMPI JUMPDEST POP POP POP POP POP SWAP1 POP SWAP2 SWAP1 POP JUMP JUMPDEST PUSH0 DUP1 SLOAD SWAP1 PUSH2 0x100 EXP SWAP1 DIV PUSH20 0xFFFFFFFFFFFFFFFFFFFFFFFFFFFFFFFFFFFFFFFF AND DUP2 JUMP JUMPDEST PUSH1 0x4 PUSH1 0x20 MSTORE DUP1 PUSH0 MSTORE PUSH1 0x40 PUSH0 KECCAK256 PUSH0 SWAP2 POP SWAP1 POP DUP1 PUSH0 ADD SLOAD SWAP1 DUP1 PUSH1 0x1 ADD DUP1 SLOAD PUSH2 0x9C8 SWAP1 PUSH2 0x17D8 JUMP JUMPDEST DUP1 PUSH1 0x1F ADD PUSH1 0x20 DUP1 SWAP2 DIV MUL PUSH1 0x20 ADD PUSH1 0x40 MLOAD SWAP1 DUP2 ADD PUSH1 0x40 MSTORE DUP1 SWAP3 SWAP2 SWAP1 DUP2 DUP2 MSTORE PUSH1 0x20 ADD DUP3 DUP1 SLOAD PUSH2 0x9F4 SWAP1 PUSH2 0x17D8 JUMP JUMPDEST DUP1 ISZERO PUSH2 0xA3F JUMPI DUP1 PUSH1 0x1F LT PUSH2 0xA16 JUMPI PUSH2 0x100 DUP1 DUP4 SLOAD DIV MUL DUP4 MSTORE SWAP2 PUSH1 0x20 ADD SWAP2 PUSH2 0xA3F JUMP JUMPDEST DUP3 ADD SWAP2 SWAP1 PUSH0 MSTORE PUSH1 0x20 PUSH0 KECCAK256 SWAP1 JUMPDEST DUP2 SLOAD DUP2 MSTORE SWAP1 PUSH1 0x1 ADD SWAP1 PUSH1 0x20 ADD DUP1 DUP4 GT PUSH2 0xA22 JUMPI DUP3 SWAP1 SUB PUSH1 0x1F AND DUP3 ADD SWAP2 JUMPDEST POP POP POP POP POP SWAP1 DUP1 PUSH1 0x2 ADD SLOAD SWAP1 DUP1 PUSH1 0x3 ADD PUSH0 SWAP1 SLOAD SWAP1 PUSH2 0x100 EXP SWAP1 DIV PUSH20 0xFFFFFFFFFFFFFFFFFFFFFFFFFFFFFFFFFFFFFFFF AND SWAP1 POP DUP5 JUMP JUMPDEST PUSH1 0x60 PUSH1 0x5 PUSH0 DUP4 DUP2 MSTORE PUSH1 0x20 ADD SWAP1 DUP2 MSTORE PUSH1 0x20 ADD PUSH0 KECCAK256 PUSH1 0x5 ADD DUP1 SLOAD DUP1 PUSH1 0x20 MUL PUSH1 0x20 ADD PUSH1 0x40 MLOAD SWAP1 DUP2 ADD PUSH1 0x40 MSTORE DUP1 SWAP3 SWAP2 SWAP1 DUP2 DUP2 MSTORE PUSH1 0x20 ADD DUP3 DUP1 SLOAD DUP1 ISZERO PUSH2 0xB07 JUMPI PUSH1 0x20 MUL DUP3 ADD SWAP2 SWAP1 PUSH0 MSTORE PUSH1 0x20 PUSH0 KECCAK256 SWAP1 JUMPDEST DUP2 PUSH0 SWAP1 SLOAD SWAP1 PUSH2 0x100 EXP SWAP1 DIV PUSH20 0xFFFFFFFFFFFFFFFFFFFFFFFFFFFFFFFFFFFFFFFF AND PUSH20 0xFFFFFFFFFFFFFFFFFFFFFFFFFFFFFFFFFFFFFFFF AND DUP2 MSTORE PUSH1 0x20 ADD SWAP1 PUSH1 0x1 ADD SWAP1 DUP1 DUP4 GT PUSH2 0xABE JUMPI JUMPDEST POP POP POP POP POP SWAP1 POP SWAP2 SWAP1 POP JUMP JUMPDEST PUSH1 0x1 PUSH0 DUP2 SLOAD DUP1 SWAP3 SWAP2 SWAP1 PUSH2 0xB25 SWAP1 PUSH2 0x1764 JUMP JUMPDEST SWAP2 SWAP1 POP SSTORE POP PUSH0 PUSH1 0x4 PUSH0 PUSH1 0x1 SLOAD DUP2 MSTORE PUSH1 0x20 ADD SWAP1 DUP2 MSTORE PUSH1 0x20 ADD PUSH0 KECCAK256 SWAP1 POP PUSH1 0x1 SLOAD DUP2 PUSH0 ADD DUP2 SWAP1 SSTORE POP DUP3 DUP2 PUSH1 0x1 ADD SWAP1 DUP2 PUSH2 0xB5B SWAP2 SWAP1 PUSH2 0x19A5 JUMP JUMPDEST POP DUP2 DUP2 PUSH1 0x2 ADD DUP2 SWAP1 SSTORE POP CALLER DUP2 PUSH1 0x3 ADD PUSH0 PUSH2 0x100 EXP DUP2 SLOAD DUP2 PUSH20 0xFFFFFFFFFFFFFFFFFFFFFFFFFFFFFFFFFFFFFFFF MUL NOT AND SWAP1 DUP4 PUSH20 0xFFFFFFFFFFFFFFFFFFFFFFFFFFFFFFFFFFFFFFFF AND MUL OR SWAP1 SSTORE POP PUSH32 0xDB3FAFFFBB284E95F813AC0A83DBCAFBBE522F0FACB2CA6ED137FB6B807F3149 PUSH1 0x1 SLOAD DUP5 CALLER PUSH1 0x40 MLOAD PUSH2 0xBDC SWAP4 SWAP3 SWAP2 SWAP1 PUSH2 0x1A74 JUMP JUMPDEST PUSH1 0x40 MLOAD DUP1 SWAP2 SUB SWAP1 LOG1 POP POP POP JUMP JUMPDEST PUSH1 0x3 PUSH1 0x20 MSTORE DUP1 PUSH0 MSTORE PUSH1 0x40 PUSH0 KECCAK256 PUSH0 SWAP2 POP SWAP1 POP DUP1 PUSH0 ADD PUSH0 SWAP1 SLOAD SWAP1 PUSH2 0x100 EXP SWAP1 DIV PUSH20 0xFFFFFFFFFFFFFFFFFFFFFFFFFFFFFFFFFFFFFFFF AND SWAP1 DUP1 PUSH1 0x1 ADD DUP1 SLOAD PUSH2 0xC2D SWAP1 PUSH2 0x17D8 JUMP JUMPDEST DUP1 PUSH1 0x1F ADD PUSH1 0x20 DUP1 SWAP2 DIV MUL PUSH1 0x20 ADD PUSH1 0x40 MLOAD SWAP1 DUP2 ADD PUSH1 0x40 MSTORE DUP1 SWAP3 SWAP2 SWAP1 DUP2 DUP2 MSTORE PUSH1 0x20 ADD DUP3 DUP1 SLOAD PUSH2 0xC59 SWAP1 PUSH2 0x17D8 JUMP JUMPDEST DUP1 ISZERO PUSH2 0xCA4 JUMPI DUP1 PUSH1 0x1F LT PUSH2 0xC7B JUMPI PUSH2 0x100 DUP1 DUP4 SLOAD DIV MUL DUP4 MSTORE SWAP2 PUSH1 0x20 ADD SWAP2 PUSH2 0xCA4 JUMP JUMPDEST DUP3 ADD SWAP2 SWAP1 PUSH0 MSTORE PUSH1 0x20 PUSH0 KECCAK256 SWAP1 JUMPDEST DUP2 SLOAD DUP2 MSTORE SWAP1 PUSH1 0x1 ADD SWAP1 PUSH1 0x20 ADD DUP1 DUP4 GT PUSH2 0xC87 JUMPI DUP3 SWAP1 SUB PUSH1 0x1F AND DUP3 ADD SWAP2 JUMPDEST POP POP POP POP POP SWAP1 DUP1 PUSH1 0x2 ADD DUP1 SLOAD PUSH2 0xCB9 SWAP1 PUSH2 0x17D8 JUMP JUMPDEST DUP1 PUSH1 0x1F ADD PUSH1 0x20 DUP1 SWAP2 DIV MUL PUSH1 0x20 ADD PUSH1 0x40 MLOAD SWAP1 DUP2 ADD PUSH1 0x40 MSTORE DUP1 SWAP3 SWAP2 SWAP1 DUP2 DUP2 MSTORE PUSH1 0x20 ADD DUP3 DUP1 SLOAD PUSH2 0xCE5 SWAP1 PUSH2 0x17D8 JUMP JUMPDEST DUP1 ISZERO PUSH2 0xD30 JUMPI DUP1 PUSH1 0x1F LT PUSH2 0xD07 JUMPI PUSH2 0x100 DUP1 DUP4 SLOAD DIV MUL DUP4 MSTORE SWAP2 PUSH1 0x20 ADD SWAP2 PUSH2 0xD30 JUMP JUMPDEST DUP3 ADD SWAP2 SWAP1 PUSH0 MSTORE PUSH1 0x20 PUSH0 KECCAK256 SWAP1 JUMPDEST DUP2 SLOAD DUP2 MSTORE SWAP1 PUSH1 0x1 ADD SWAP1 PUSH1 0x20 ADD DUP1 DUP4 GT PUSH2 0xD13 JUMPI DUP3 SWAP1 SUB PUSH1 0x1F AND DUP3 ADD SWAP2 JUMPDEST POP POP POP POP POP SWAP1 POP DUP4 JUMP JUMPDEST PUSH1 0x5 PUSH1 0x20 MSTORE DUP1 PUSH0 MSTORE PUSH1 0x40 PUSH0 KECCAK256 PUSH0 SWAP2 POP SWAP1 POP DUP1 PUSH0 ADD SLOAD SWAP1 DUP1 PUSH1 0x1 ADD DUP1 SLOAD PUSH2 0xD5F SWAP1 PUSH2 0x17D8 JUMP JUMPDEST DUP1 PUSH1 0x1F ADD PUSH1 0x20 DUP1 SWAP2 DIV MUL PUSH1 0x20 ADD PUSH1 0x40 MLOAD SWAP1 DUP2 ADD PUSH1 0x40 MSTORE DUP1 SWAP3 SWAP2 SWAP1 DUP2 DUP2 MSTORE PUSH1 0x20 ADD DUP3 DUP1 SLOAD PUSH2 0xD8B SWAP1 PUSH2 0x17D8 JUMP JUMPDEST DUP1 ISZERO PUSH2 0xDD6 JUMPI DUP1 PUSH1 0x1F LT PUSH2 0xDAD JUMPI PUSH2 0x100 DUP1 DUP4 SLOAD DIV MUL DUP4 MSTORE SWAP2 PUSH1 0x20 ADD SWAP2 PUSH2 0xDD6 JUMP JUMPDEST DUP3 ADD SWAP2 SWAP1 PUSH0 MSTORE PUSH1 0x20 PUSH0 KECCAK256 SWAP1 JUMPDEST DUP2 SLOAD DUP2 MSTORE SWAP1 PUSH1 0x1 ADD SWAP1 PUSH1 0x20 ADD DUP1 DUP4 GT PUSH2 0xDB9 JUMPI DUP3 SWAP1 SUB PUSH1 0x1F AND DUP3 ADD SWAP2 JUMPDEST POP POP POP POP POP SWAP1 DUP1 PUSH1 0x2 ADD SLOAD SWAP1 DUP1 PUSH1 0x3 ADD SLOAD SWAP1 DUP1 PUSH1 0x4 ADD PUSH0 SWAP1 SLOAD SWAP1 PUSH2 0x100 EXP SWAP1 DIV PUSH20 0xFFFFFFFFFFFFFFFFFFFFFFFFFFFFFFFFFFFFFFFF AND SWAP1 DUP1 PUSH1 0x6 ADD PUSH0 SWAP1 SLOAD SWAP1 PUSH2 0x100 EXP SWAP1 DIV PUSH1 0xFF AND SWAP1 POP DUP7 JUMP JUMPDEST PUSH1 0x60 PUSH1 0x3 PUSH0 DUP4 PUSH20 0xFFFFFFFFFFFFFFFFFFFFFFFFFFFFFFFFFFFFFFFF AND PUSH20 0xFFFFFFFFFFFFFFFFFFFFFFFFFFFFFFFFFFFFFFFF AND DUP2 MSTORE PUSH1 0x20 ADD SWAP1 DUP2 MSTORE PUSH1 0x20 ADD PUSH0 KECCAK256 PUSH1 0x4 ADD DUP1 SLOAD DUP1 PUSH1 0x20 MUL PUSH1 0x20 ADD PUSH1 0x40 MLOAD SWAP1 DUP2 ADD PUSH1 0x40 MSTORE DUP1 SWAP3 SWAP2 SWAP1 DUP2 DUP2 MSTORE PUSH1 0x20 ADD DUP3 DUP1 SLOAD DUP1 ISZERO PUSH2 0xEAD JUMPI PUSH1 0x20 MUL DUP3 ADD SWAP2 SWAP1 PUSH0 MSTORE PUSH1 0x20 PUSH0 KECCAK256 SWAP1 JUMPDEST DUP2 SLOAD DUP2 MSTORE PUSH1 0x20 ADD SWAP1 PUSH1 0x1 ADD SWAP1 DUP1 DUP4 GT PUSH2 0xE99 JUMPI JUMPDEST POP POP POP POP POP SWAP1 POP SWAP2 SWAP1 POP JUMP JUMPDEST PUSH0 DUP1 SLOAD SWAP1 PUSH2 0x100 EXP SWAP1 DIV PUSH20 0xFFFFFFFFFFFFFFFFFFFFFFFFFFFFFFFFFFFFFFFF AND PUSH20 0xFFFFFFFFFFFFFFFFFFFFFFFFFFFFFFFFFFFFFFFF AND CALLER PUSH20 0xFFFFFFFFFFFFFFFFFFFFFFFFFFFFFFFFFFFFFFFF AND EQ PUSH2 0xF46 JUMPI PUSH1 0x40 MLOAD PUSH32 0x8C379A000000000000000000000000000000000000000000000000000000000 DUP2 MSTORE PUSH1 0x4 ADD PUSH2 0xF3D SWAP1 PUSH2 0x1C7F JUMP JUMPDEST PUSH1 0x40 MLOAD DUP1 SWAP2 SUB SWAP1 REVERT JUMPDEST PUSH0 PUSH1 0x5 PUSH0 DUP5 DUP2 MSTORE PUSH1 0x20 ADD SWAP1 DUP2 MSTORE PUSH1 0x20 ADD PUSH0 KECCAK256 SWAP1 POP DUP1 PUSH1 0x6 ADD PUSH0 SWAP1 SLOAD SWAP1 PUSH2 0x100 EXP SWAP1 DIV PUSH1 0xFF AND PUSH2 0xFAA JUMPI PUSH1 0x40 MLOAD PUSH32 0x8C379A000000000000000000000000000000000000000000000000000000000 DUP2 MSTORE PUSH1 0x4 ADD PUSH2 0xFA1 SWAP1 PUSH2 0x1AFA JUMP JUMPDEST PUSH1 0x40 MLOAD DUP1 SWAP2 SUB SWAP1 REVERT JUMPDEST DUP1 PUSH1 0x3 ADD SLOAD SELFBALANCE LT ISZERO PUSH2 0xFF1 JUMPI PUSH1 0x40 MLOAD PUSH32 0x8C379A000000000000000000000000000000000000000000000000000000000 DUP2 MSTORE PUSH1 0x4 ADD PUSH2 0xFE8 SWAP1 PUSH2 0x1CE7 JUMP JUMPDEST PUSH1 0x40 MLOAD DUP1 SWAP2 SUB SWAP1 REVERT JUMPDEST PUSH0 DUP2 PUSH1 0x6 ADD PUSH0 PUSH2 0x100 EXP DUP2 SLOAD DUP2 PUSH1 0xFF MUL NOT AND SWAP1 DUP4 ISZERO ISZERO MUL OR SWAP1 SSTORE POP DUP2 PUSH20 0xFFFFFFFFFFFFFFFFFFFFFFFFFFFFFFFFFFFFFFFF AND PUSH2 0x8FC DUP3 PUSH1 0x3 ADD SLOAD SWAP1 DUP2 ISZERO MUL SWAP1 PUSH1 0x40 MLOAD PUSH0 PUSH1 0x40 MLOAD DUP1 DUP4 SUB DUP2 DUP6 DUP9 DUP9 CALL SWAP4 POP POP POP POP ISZERO DUP1 ISZERO PUSH2 0x1053 JUMPI RETURNDATASIZE PUSH0 DUP1 RETURNDATACOPY RETURNDATASIZE PUSH0 REVERT JUMPDEST POP PUSH32 0xDC1D0B6A7CBFA6F3B2D4325BAB5A169B265AD0B2B4022FB550364F0DFEEB6A74 DUP4 DUP4 DUP4 PUSH1 0x3 ADD SLOAD PUSH1 0x40 MLOAD PUSH2 0x108B SWAP4 SWAP3 SWAP2 SWAP1 PUSH2 0x1D05 JUMP JUMPDEST PUSH1 0x40 MLOAD DUP1 SWAP2 SUB SWAP1 LOG1 POP POP POP JUMP JUMPDEST PUSH0 PUSH1 0x40 MLOAD SWAP1 POP SWAP1 JUMP JUMPDEST PUSH0 DUP1 REVERT JUMPDEST PUSH0 DUP1 REVERT JUMPDEST PUSH0 DUP1 REVERT JUMPDEST PUSH0 DUP1 REVERT JUMPDEST PUSH0 PUSH1 0x1F NOT PUSH1 0x1F DUP4 ADD AND SWAP1 POP SWAP2 SWAP1 POP JUMP JUMPDEST PUSH32 0x4E487B7100000000000000000000000000000000000000000000000000000000 PUSH0 MSTORE PUSH1 0x41 PUSH1 0x4 MSTORE PUSH1 0x24 PUSH0 REVERT JUMPDEST PUSH2 0x10F7 DUP3 PUSH2 0x10B1 JUMP JUMPDEST DUP2 ADD DUP2 DUP2 LT PUSH8 0xFFFFFFFFFFFFFFFF DUP3 GT OR ISZERO PUSH2 0x1116 JUMPI PUSH2 0x1115 PUSH2 0x10C1 JUMP JUMPDEST JUMPDEST DUP1 PUSH1 0x40 MSTORE POP POP POP JUMP JUMPDEST PUSH0 PUSH2 0x1128 PUSH2 0x1098 JUMP JUMPDEST SWAP1 POP PUSH2 0x1134 DUP3 DUP3 PUSH2 0x10EE JUMP JUMPDEST SWAP2 SWAP1 POP JUMP JUMPDEST PUSH0 PUSH8 0xFFFFFFFFFFFFFFFF DUP3 GT ISZERO PUSH2 0x1153 JUMPI PUSH2 0x1152 PUSH2 0x10C1 JUMP JUMPDEST JUMPDEST PUSH2 0x115C DUP3 PUSH2 0x10B1 JUMP JUMPDEST SWAP1 POP PUSH1 0x20 DUP2 ADD SWAP1 POP SWAP2 SWAP1 POP JUMP JUMPDEST DUP3 DUP2 DUP4 CALLDATACOPY PUSH0 DUP4 DUP4 ADD MSTORE POP POP POP JUMP JUMPDEST PUSH0 PUSH2 0x1189 PUSH2 0x1184 DUP5 PUSH2 0x1139 JUMP JUMPDEST PUSH2 0x111F JUMP JUMPDEST SWAP1 POP DUP3 DUP2 MSTORE PUSH1 0x20 DUP2 ADD DUP5 DUP5 DUP5 ADD GT ISZERO PUSH2 0x11A5 JUMPI PUSH2 0x11A4 PUSH2 0x10AD JUMP JUMPDEST JUMPDEST PUSH2 0x11B0 DUP5 DUP3 DUP6 PUSH2 0x1169 JUMP JUMPDEST POP SWAP4 SWAP3 POP POP POP JUMP JUMPDEST PUSH0 DUP3 PUSH1 0x1F DUP4 ADD SLT PUSH2 0x11CC JUMPI PUSH2 0x11CB PUSH2 0x10A9 JUMP JUMPDEST JUMPDEST DUP2 CALLDATALOAD PUSH2 0x11DC DUP5 DUP3 PUSH1 0x20 DUP7 ADD PUSH2 0x1177 JUMP JUMPDEST SWAP2 POP POP SWAP3 SWAP2 POP POP JUMP JUMPDEST PUSH0 DUP2 SWAP1 POP SWAP2 SWAP1 POP JUMP JUMPDEST PUSH2 0x11F7 DUP2 PUSH2 0x11E5 JUMP JUMPDEST DUP2 EQ PUSH2 0x1201 JUMPI PUSH0 DUP1 REVERT JUMPDEST POP JUMP JUMPDEST PUSH0 DUP2 CALLDATALOAD SWAP1 POP PUSH2 0x1212 DUP2 PUSH2 0x11EE JUMP JUMPDEST SWAP3 SWAP2 POP POP JUMP JUMPDEST PUSH0 DUP1 PUSH0 PUSH1 0x60 DUP5 DUP7 SUB SLT ISZERO PUSH2 0x122F JUMPI PUSH2 0x122E PUSH2 0x10A1 JUMP JUMPDEST JUMPDEST PUSH0 DUP5 ADD CALLDATALOAD PUSH8 0xFFFFFFFFFFFFFFFF DUP2 GT ISZERO PUSH2 0x124C JUMPI PUSH2 0x124B PUSH2 0x10A5 JUMP JUMPDEST JUMPDEST PUSH2 0x1258 DUP7 DUP3 DUP8 ADD PUSH2 0x11B8 JUMP JUMPDEST SWAP4 POP POP PUSH1 0x20 PUSH2 0x1269 DUP7 DUP3 DUP8 ADD PUSH2 0x1204 JUMP JUMPDEST SWAP3 POP POP PUSH1 0x40 PUSH2 0x127A DUP7 DUP3 DUP8 ADD PUSH2 0x1204 JUMP JUMPDEST SWAP2 POP POP SWAP3 POP SWAP3 POP SWAP3 JUMP JUMPDEST PUSH2 0x128D DUP2 PUSH2 0x11E5 JUMP JUMPDEST DUP3 MSTORE POP POP JUMP JUMPDEST PUSH0 PUSH1 0x20 DUP3 ADD SWAP1 POP PUSH2 0x12A6 PUSH0 DUP4 ADD DUP5 PUSH2 0x1284 JUMP JUMPDEST SWAP3 SWAP2 POP POP JUMP JUMPDEST PUSH0 PUSH1 0x20 DUP3 DUP5 SUB SLT ISZERO PUSH2 0x12C1 JUMPI PUSH2 0x12C0 PUSH2 0x10A1 JUMP JUMPDEST JUMPDEST PUSH0 PUSH2 0x12CE DUP5 DUP3 DUP6 ADD PUSH2 0x1204 JUMP JUMPDEST SWAP2 POP POP SWAP3 SWAP2 POP POP JUMP JUMPDEST PUSH0 DUP2 MLOAD SWAP1 POP SWAP2 SWAP1 POP JUMP JUMPDEST PUSH0 DUP3 DUP3 MSTORE PUSH1 0x20 DUP3 ADD SWAP1 POP SWAP3 SWAP2 POP POP JUMP JUMPDEST PUSH0 DUP2 SWAP1 POP PUSH1 0x20 DUP3 ADD SWAP1 POP SWAP2 SWAP1 POP JUMP JUMPDEST PUSH0 PUSH20 0xFFFFFFFFFFFFFFFFFFFFFFFFFFFFFFFFFFFFFFFF DUP3 AND SWAP1 POP SWAP2 SWAP1 POP JUMP JUMPDEST PUSH0 PUSH2 0x1329 DUP3 PUSH2 0x1300 JUMP JUMPDEST SWAP1 POP SWAP2 SWAP1 POP JUMP JUMPDEST PUSH2 0x1339 DUP2 PUSH2 0x131F JUMP JUMPDEST DUP3 MSTORE POP POP JUMP JUMPDEST PUSH0 PUSH2 0x134A DUP4 DUP4 PUSH2 0x1330 JUMP JUMPDEST PUSH1 0x20 DUP4 ADD SWAP1 POP SWAP3 SWAP2 POP POP JUMP JUMPDEST PUSH0 PUSH1 0x20 DUP3 ADD SWAP1 POP SWAP2 SWAP1 POP JUMP JUMPDEST PUSH0 PUSH2 0x136C DUP3 PUSH2 0x12D7 JUMP JUMPDEST PUSH2 0x1376 DUP2 DUP6 PUSH2 0x12E1 JUMP JUMPDEST SWAP4 POP PUSH2 0x1381 DUP4 PUSH2 0x12F1 JUMP JUMPDEST DUP1 PUSH0 JUMPDEST DUP4 DUP2 LT ISZERO PUSH2 0x13B1 JUMPI DUP2 MLOAD PUSH2 0x1398 DUP9 DUP3 PUSH2 0x133F JUMP JUMPDEST SWAP8 POP PUSH2 0x13A3 DUP4 PUSH2 0x1356 JUMP JUMPDEST SWAP3 POP POP PUSH1 0x1 DUP2 ADD SWAP1 POP PUSH2 0x1384 JUMP JUMPDEST POP DUP6 SWAP4 POP POP POP POP SWAP3 SWAP2 POP POP JUMP JUMPDEST PUSH0 PUSH1 0x20 DUP3 ADD SWAP1 POP DUP2 DUP2 SUB PUSH0 DUP4 ADD MSTORE PUSH2 0x13D6 DUP2 DUP5 PUSH2 0x1362 JUMP JUMPDEST SWAP1 POP SWAP3 SWAP2 POP POP JUMP JUMPDEST PUSH2 0x13E7 DUP2 PUSH2 0x131F JUMP JUMPDEST DUP2 EQ PUSH2 0x13F1 JUMPI PUSH0 DUP1 REVERT JUMPDEST POP JUMP JUMPDEST PUSH0 DUP2 CALLDATALOAD SWAP1 POP PUSH2 0x1402 DUP2 PUSH2 0x13DE JUMP JUMPDEST SWAP3 SWAP2 POP POP JUMP JUMPDEST PUSH0 PUSH1 0x20 DUP3 DUP5 SUB SLT ISZERO PUSH2 0x141D JUMPI PUSH2 0x141C PUSH2 0x10A1 JUMP JUMPDEST JUMPDEST PUSH0 PUSH2 0x142A DUP5 DUP3 DUP6 ADD PUSH2 0x13F4 JUMP JUMPDEST SWAP2 POP POP SWAP3 SWAP2 POP POP JUMP JUMPDEST PUSH0 DUP2 MLOAD SWAP1 POP SWAP2 SWAP1 POP JUMP JUMPDEST PUSH0 DUP3 DUP3 MSTORE PUSH1 0x20 DUP3 ADD SWAP1 POP SWAP3 SWAP2 POP POP JUMP JUMPDEST PUSH0 DUP2 SWAP1 POP PUSH1 0x20 DUP3 ADD SWAP1 POP SWAP2 SWAP1 POP JUMP JUMPDEST PUSH2 0x1465 DUP2 PUSH2 0x11E5 JUMP JUMPDEST DUP3 MSTORE POP POP JUMP JUMPDEST PUSH0 PUSH2 0x1476 DUP4 DUP4 PUSH2 0x145C JUMP JUMPDEST PUSH1 0x20 DUP4 ADD SWAP1 POP SWAP3 SWAP2 POP POP JUMP JUMPDEST PUSH0 PUSH1 0x20 DUP3 ADD SWAP1 POP SWAP2 SWAP1 POP JUMP JUMPDEST PUSH0 PUSH2 0x1498 DUP3 PUSH2 0x1433 JUMP JUMPDEST PUSH2 0x14A2 DUP2 DUP6 PUSH2 0x143D JUMP JUMPDEST SWAP4 POP PUSH2 0x14AD DUP4 PUSH2 0x144D JUMP JUMPDEST DUP1 PUSH0 JUMPDEST DUP4 DUP2 LT ISZERO PUSH2 0x14DD JUMPI DUP2 MLOAD PUSH2 0x14C4 DUP9 DUP3 PUSH2 0x146B JUMP JUMPDEST SWAP8 POP PUSH2 0x14CF DUP4 PUSH2 0x1482 JUMP JUMPDEST SWAP3 POP POP PUSH1 0x1 DUP2 ADD SWAP1 POP PUSH2 0x14B0 JUMP JUMPDEST POP DUP6 SWAP4 POP POP POP POP SWAP3 SWAP2 POP POP JUMP JUMPDEST PUSH0 PUSH1 0x20 DUP3 ADD SWAP1 POP DUP2 DUP2 SUB PUSH0 DUP4 ADD MSTORE PUSH2 0x1502 DUP2 DUP5 PUSH2 0x148E JUMP JUMPDEST SWAP1 POP SWAP3 SWAP2 POP POP JUMP JUMPDEST PUSH2 0x1513 DUP2 PUSH2 0x131F JUMP JUMPDEST DUP3 MSTORE POP POP JUMP JUMPDEST PUSH0 PUSH1 0x20 DUP3 ADD SWAP1 POP PUSH2 0x152C PUSH0 DUP4 ADD DUP5 PUSH2 0x150A JUMP JUMPDEST SWAP3 SWAP2 POP POP JUMP JUMPDEST PUSH0 DUP2 MLOAD SWAP1 POP SWAP2 SWAP1 POP JUMP JUMPDEST PUSH0 DUP3 DUP3 MSTORE PUSH1 0x20 DUP3 ADD SWAP1 POP SWAP3 SWAP2 POP POP JUMP JUMPDEST DUP3 DUP2 DUP4 MCOPY PUSH0 DUP4 DUP4 ADD MSTORE POP POP POP JUMP JUMPDEST PUSH0 PUSH2 0x1564 DUP3 PUSH2 0x1532 JUMP JUMPDEST PUSH2 0x156E DUP2 DUP6 PUSH2 0x153C JUMP JUMPDEST SWAP4 POP PUSH2 0x157E DUP2 DUP6 PUSH1 0x20 DUP7 ADD PUSH2 0x154C JUMP JUMPDEST PUSH2 0x1587 DUP2 PUSH2 0x10B1 JUMP JUMPDEST DUP5 ADD SWAP2 POP POP SWAP3 SWAP2 POP POP JUMP JUMPDEST PUSH0 PUSH1 0x80 DUP3 ADD SWAP1 POP PUSH2 0x15A5 PUSH0 DUP4 ADD DUP8 PUSH2 0x1284 JUMP JUMPDEST DUP2 DUP2 SUB PUSH1 0x20 DUP4 ADD MSTORE PUSH2 0x15B7 DUP2 DUP7 PUSH2 0x155A JUMP JUMPDEST SWAP1 POP PUSH2 0x15C6 PUSH1 0x40 DUP4 ADD DUP6 PUSH2 0x1284 JUMP JUMPDEST PUSH2 0x15D3 PUSH1 0x60 DUP4 ADD DUP5 PUSH2 0x150A JUMP JUMPDEST SWAP6 SWAP5 POP POP POP POP POP JUMP JUMPDEST PUSH0 DUP1 PUSH1 0x40 DUP4 DUP6 SUB SLT ISZERO PUSH2 0x15F2 JUMPI PUSH2 0x15F1 PUSH2 0x10A1 JUMP JUMPDEST JUMPDEST PUSH0 DUP4 ADD CALLDATALOAD PUSH8 0xFFFFFFFFFFFFFFFF DUP2 GT ISZERO PUSH2 0x160F JUMPI PUSH2 0x160E PUSH2 0x10A5 JUMP JUMPDEST JUMPDEST PUSH2 0x161B DUP6 DUP3 DUP7 ADD PUSH2 0x11B8 JUMP JUMPDEST SWAP3 POP POP PUSH1 0x20 PUSH2 0x162C DUP6 DUP3 DUP7 ADD PUSH2 0x1204 JUMP JUMPDEST SWAP2 POP POP SWAP3 POP SWAP3 SWAP1 POP JUMP JUMPDEST PUSH0 PUSH1 0x60 DUP3 ADD SWAP1 POP PUSH2 0x1649 PUSH0 DUP4 ADD DUP7 PUSH2 0x150A JUMP JUMPDEST DUP2 DUP2 SUB PUSH1 0x20 DUP4 ADD MSTORE PUSH2 0x165B DUP2 DUP6 PUSH2 0x155A JUMP JUMPDEST SWAP1 POP DUP2 DUP2 SUB PUSH1 0x40 DUP4 ADD MSTORE PUSH2 0x166F DUP2 DUP5 PUSH2 0x155A JUMP JUMPDEST SWAP1 POP SWAP5 SWAP4 POP POP POP POP JUMP JUMPDEST PUSH0 DUP2 ISZERO ISZERO SWAP1 POP SWAP2 SWAP1 POP JUMP JUMPDEST PUSH2 0x168D DUP2 PUSH2 0x1679 JUMP JUMPDEST DUP3 MSTORE POP POP JUMP JUMPDEST PUSH0 PUSH1 0xC0 DUP3 ADD SWAP1 POP PUSH2 0x16A6 PUSH0 DUP4 ADD DUP10 PUSH2 0x1284 JUMP JUMPDEST DUP2 DUP2 SUB PUSH1 0x20 DUP4 ADD MSTORE PUSH2 0x16B8 DUP2 DUP9 PUSH2 0x155A JUMP JUMPDEST SWAP1 POP PUSH2 0x16C7 PUSH1 0x40 DUP4 ADD DUP8 PUSH2 0x1284 JUMP JUMPDEST PUSH2 0x16D4 PUSH1 0x60 DUP4 ADD DUP7 PUSH2 0x1284 JUMP JUMPDEST PUSH2 0x16E1 PUSH1 0x80 DUP4 ADD DUP6 PUSH2 0x150A JUMP JUMPDEST PUSH2 0x16EE PUSH1 0xA0 DUP4 ADD DUP5 PUSH2 0x1684 JUMP JUMPDEST SWAP8 SWAP7 POP POP POP POP POP POP POP JUMP JUMPDEST PUSH0 DUP1 PUSH1 0x40 DUP4 DUP6 SUB SLT ISZERO PUSH2 0x170F JUMPI PUSH2 0x170E PUSH2 0x10A1 JUMP JUMPDEST JUMPDEST PUSH0 PUSH2 0x171C DUP6 DUP3 DUP7 ADD PUSH2 0x1204 JUMP JUMPDEST SWAP3 POP POP PUSH1 0x20 PUSH2 0x172D DUP6 DUP3 DUP7 ADD PUSH2 0x13F4 JUMP JUMPDEST SWAP2 POP POP SWAP3 POP SWAP3 SWAP1 POP JUMP JUMPDEST PUSH32 0x4E487B7100000000000000000000000000000000000000000000000000000000 PUSH0 MSTORE PUSH1 0x11 PUSH1 0x4 MSTORE PUSH1 0x24 PUSH0 REVERT JUMPDEST PUSH0 PUSH2 0x176E DUP3 PUSH2 0x11E5 JUMP JUMPDEST SWAP2 POP PUSH32 0xFFFFFFFFFFFFFFFFFFFFFFFFFFFFFFFFFFFFFFFFFFFFFFFFFFFFFFFFFFFFFFFF DUP3 SUB PUSH2 0x17A0 JUMPI PUSH2 0x179F PUSH2 0x1737 JUMP JUMPDEST JUMPDEST PUSH1 0x1 DUP3 ADD SWAP1 POP SWAP2 SWAP1 POP JUMP JUMPDEST PUSH32 0x4E487B7100000000000000000000000000000000000000000000000000000000 PUSH0 MSTORE PUSH1 0x22 PUSH1 0x4 MSTORE PUSH1 0x24 PUSH0 REVERT JUMPDEST PUSH0 PUSH1 0x2 DUP3 DIV SWAP1 POP PUSH1 0x1 DUP3 AND DUP1 PUSH2 0x17EF JUMPI PUSH1 0x7F DUP3 AND SWAP2 POP JUMPDEST PUSH1 0x20 DUP3 LT DUP2 SUB PUSH2 0x1802 JUMPI PUSH2 0x1801 PUSH2 0x17AB JUMP JUMPDEST JUMPDEST POP SWAP2 SWAP1 POP JUMP JUMPDEST PUSH0 DUP2 SWAP1 POP DUP2 PUSH0 MSTORE PUSH1 0x20 PUSH0 KECCAK256 SWAP1 POP SWAP2 SWAP1 POP JUMP JUMPDEST PUSH0 PUSH1 0x20 PUSH1 0x1F DUP4 ADD DIV SWAP1 POP SWAP2 SWAP1 POP JUMP JUMPDEST PUSH0 DUP3 DUP3 SHL SWAP1 POP SWAP3 SWAP2 POP POP JUMP JUMPDEST PUSH0 PUSH1 0x8 DUP4 MUL PUSH2 0x1864 PUSH32 0xFFFFFFFFFFFFFFFFFFFFFFFFFFFFFFFFFFFFFFFFFFFFFFFFFFFFFFFFFFFFFFFF DUP3 PUSH2 0x1829 JUMP JUMPDEST PUSH2 0x186E DUP7 DUP4 PUSH2 0x1829 JUMP JUMPDEST SWAP6 POP DUP1 NOT DUP5 AND SWAP4 POP DUP1 DUP7 AND DUP5 OR SWAP3 POP POP POP SWAP4 SWAP3 POP POP POP JUMP JUMPDEST PUSH0 DUP2 SWAP1 POP SWAP2 SWAP1 POP JUMP JUMPDEST PUSH0 PUSH2 0x18A9 PUSH2 0x18A4 PUSH2 0x189F DUP5 PUSH2 0x11E5 JUMP JUMPDEST PUSH2 0x1886 JUMP JUMPDEST PUSH2 0x11E5 JUMP JUMPDEST SWAP1 POP SWAP2 SWAP1 POP JUMP JUMPDEST PUSH0 DUP2 SWAP1 POP SWAP2 SWAP1 POP JUMP JUMPDEST PUSH2 0x18C2 DUP4 PUSH2 0x188F JUMP JUMPDEST PUSH2 0x18D6 PUSH2 0x18CE DUP3 PUSH2 0x18B0 JUMP JUMPDEST DUP5 DUP5 SLOAD PUSH2 0x1835 JUMP JUMPDEST DUP3 SSTORE POP POP POP POP JUMP JUMPDEST PUSH0 SWAP1 JUMP JUMPDEST PUSH2 0x18EA PUSH2 0x18DE JUMP JUMPDEST PUSH2 0x18F5 DUP2 DUP5 DUP5 PUSH2 0x18B9 JUMP JUMPDEST POP POP POP JUMP JUMPDEST JUMPDEST DUP2 DUP2 LT ISZERO PUSH2 0x1918 JUMPI PUSH2 0x190D PUSH0 DUP3 PUSH2 0x18E2 JUMP JUMPDEST PUSH1 0x1 DUP2 ADD SWAP1 POP PUSH2 0x18FB JUMP JUMPDEST POP POP JUMP JUMPDEST PUSH1 0x1F DUP3 GT ISZERO PUSH2 0x195D JUMPI PUSH2 0x192E DUP2 PUSH2 0x1808 JUMP JUMPDEST PUSH2 0x1937 DUP5 PUSH2 0x181A JUMP JUMPDEST DUP2 ADD PUSH1 0x20 DUP6 LT ISZERO PUSH2 0x1946 JUMPI DUP2 SWAP1 POP JUMPDEST PUSH2 0x195A PUSH2 0x1952 DUP6 PUSH2 0x181A JUMP JUMPDEST DUP4 ADD DUP3 PUSH2 0x18FA JUMP JUMPDEST POP POP JUMPDEST POP POP POP JUMP JUMPDEST PUSH0 DUP3 DUP3 SHR SWAP1 POP SWAP3 SWAP2 POP POP JUMP JUMPDEST PUSH0 PUSH2 0x197D PUSH0 NOT DUP5 PUSH1 0x8 MUL PUSH2 0x1962 JUMP JUMPDEST NOT DUP1 DUP4 AND SWAP2 POP POP SWAP3 SWAP2 POP POP JUMP JUMPDEST PUSH0 PUSH2 0x1995 DUP4 DUP4 PUSH2 0x196E JUMP JUMPDEST SWAP2 POP DUP3 PUSH1 0x2 MUL DUP3 OR SWAP1 POP SWAP3 SWAP2 POP POP JUMP JUMPDEST PUSH2 0x19AE DUP3 PUSH2 0x1532 JUMP JUMPDEST PUSH8 0xFFFFFFFFFFFFFFFF DUP2 GT ISZERO PUSH2 0x19C7 JUMPI PUSH2 0x19C6 PUSH2 0x10C1 JUMP JUMPDEST JUMPDEST PUSH2 0x19D1 DUP3 SLOAD PUSH2 0x17D8 JUMP JUMPDEST PUSH2 0x19DC DUP3 DUP3 DUP6 PUSH2 0x191C JUMP JUMPDEST PUSH0 PUSH1 0x20 SWAP1 POP PUSH1 0x1F DUP4 GT PUSH1 0x1 DUP2 EQ PUSH2 0x1A0D JUMPI PUSH0 DUP5 ISZERO PUSH2 0x19FB JUMPI DUP3 DUP8 ADD MLOAD SWAP1 POP JUMPDEST PUSH2 0x1A05 DUP6 DUP3 PUSH2 0x198A JUMP JUMPDEST DUP7 SSTORE POP PUSH2 0x1A6C JUMP JUMPDEST PUSH1 0x1F NOT DUP5 AND PUSH2 0x1A1B DUP7 PUSH2 0x1808 JUMP JUMPDEST PUSH0 JUMPDEST DUP3 DUP2 LT ISZERO PUSH2 0x1A42 JUMPI DUP5 DUP10 ADD MLOAD DUP3 SSTORE PUSH1 0x1 DUP3 ADD SWAP2 POP PUSH1 0x20 DUP6 ADD SWAP5 POP PUSH1 0x20 DUP2 ADD SWAP1 POP PUSH2 0x1A1D JUMP JUMPDEST DUP7 DUP4 LT ISZERO PUSH2 0x1A5F JUMPI DUP5 DUP10 ADD MLOAD PUSH2 0x1A5B PUSH1 0x1F DUP10 AND DUP3 PUSH2 0x196E JUMP JUMPDEST DUP4 SSTORE POP JUMPDEST PUSH1 0x1 PUSH1 0x2 DUP9 MUL ADD DUP9 SSTORE POP POP POP JUMPDEST POP POP POP POP POP POP JUMP JUMPDEST PUSH0 PUSH1 0x60 DUP3 ADD SWAP1 POP PUSH2 0x1A87 PUSH0 DUP4 ADD DUP7 PUSH2 0x1284 JUMP JUMPDEST DUP2 DUP2 SUB PUSH1 0x20 DUP4 ADD MSTORE PUSH2 0x1A99 DUP2 DUP6 PUSH2 0x155A JUMP JUMPDEST SWAP1 POP PUSH2 0x1AA8 PUSH1 0x40 DUP4 ADD DUP5 PUSH2 0x150A JUMP JUMPDEST SWAP5 SWAP4 POP POP POP POP JUMP JUMPDEST PUSH32 0x4861636B6174686F6E206973206E6F7420616374697665000000000000000000 PUSH0 DUP3 ADD MSTORE POP JUMP JUMPDEST PUSH0 PUSH2 0x1AE4 PUSH1 0x17 DUP4 PUSH2 0x153C JUMP JUMPDEST SWAP2 POP PUSH2 0x1AEF DUP3 PUSH2 0x1AB0 JUMP JUMPDEST PUSH1 0x20 DUP3 ADD SWAP1 POP SWAP2 SWAP1 POP JUMP JUMPDEST PUSH0 PUSH1 0x20 DUP3 ADD SWAP1 POP DUP2 DUP2 SUB PUSH0 DUP4 ADD MSTORE PUSH2 0x1B11 DUP2 PUSH2 0x1AD8 JUMP JUMPDEST SWAP1 POP SWAP2 SWAP1 POP JUMP JUMPDEST PUSH32 0x496E636F727265637420726567697374726174696F6E20666565000000000000 PUSH0 DUP3 ADD MSTORE POP JUMP JUMPDEST PUSH0 PUSH2 0x1B4C PUSH1 0x1A DUP4 PUSH2 0x153C JUMP JUMPDEST SWAP2 POP PUSH2 0x1B57 DUP3 PUSH2 0x1B18 JUMP JUMPDEST PUSH1 0x20 DUP3 ADD SWAP1 POP SWAP2 SWAP1 POP JUMP JUMPDEST PUSH0 PUSH1 0x20 DUP3 ADD SWAP1 POP DUP2 DUP2 SUB PUSH0 DUP4 ADD MSTORE PUSH2 0x1B79 DUP2 PUSH2 0x1B40 JUMP JUMPDEST SWAP1 POP SWAP2 SWAP1 POP JUMP JUMPDEST PUSH0 PUSH1 0x40 DUP3 ADD SWAP1 POP PUSH2 0x1B93 PUSH0 DUP4 ADD DUP6 PUSH2 0x1284 JUMP JUMPDEST PUSH2 0x1BA0 PUSH1 0x20 DUP4 ADD DUP5 PUSH2 0x150A JUMP JUMPDEST SWAP4 SWAP3 POP POP POP JUMP JUMPDEST PUSH32 0x496E636F727265637420636F7572736520666565000000000000000000000000 PUSH0 DUP3 ADD MSTORE POP JUMP JUMPDEST PUSH0 PUSH2 0x1BDB PUSH1 0x14 DUP4 PUSH2 0x153C JUMP JUMPDEST SWAP2 POP PUSH2 0x1BE6 DUP3 PUSH2 0x1BA7 JUMP JUMPDEST PUSH1 0x20 DUP3 ADD SWAP1 POP SWAP2 SWAP1 POP JUMP JUMPDEST PUSH0 PUSH1 0x20 DUP3 ADD SWAP1 POP DUP2 DUP2 SUB PUSH0 DUP4 ADD MSTORE PUSH2 0x1C08 DUP2 PUSH2 0x1BCF JUMP JUMPDEST SWAP1 POP SWAP2 SWAP1 POP JUMP JUMPDEST PUSH32 0x4F6E6C79206F776E65722063616E20706572666F726D20746869732061637469 PUSH0 DUP3 ADD MSTORE PUSH32 0x6F6E000000000000000000000000000000000000000000000000000000000000 PUSH1 0x20 DUP3 ADD MSTORE POP JUMP JUMPDEST PUSH0 PUSH2 0x1C69 PUSH1 0x22 DUP4 PUSH2 0x153C JUMP JUMPDEST SWAP2 POP PUSH2 0x1C74 DUP3 PUSH2 0x1C0F JUMP JUMPDEST PUSH1 0x40 DUP3 ADD SWAP1 POP SWAP2 SWAP1 POP JUMP JUMPDEST PUSH0 PUSH1 0x20 DUP3 ADD SWAP1 POP DUP2 DUP2 SUB PUSH0 DUP4 ADD MSTORE PUSH2 0x1C96 DUP2 PUSH2 0x1C5D JUMP JUMPDEST SWAP1 POP SWAP2 SWAP1 POP JUMP JUMPDEST PUSH32 0x496E73756666696369656E7420636F6E74726163742062616C616E6365000000 PUSH0 DUP3 ADD MSTORE POP JUMP JUMPDEST PUSH0 PUSH2 0x1CD1 PUSH1 0x1D DUP4 PUSH2 0x153C JUMP JUMPDEST SWAP2 POP PUSH2 0x1CDC DUP3 PUSH2 0x1C9D JUMP JUMPDEST PUSH1 0x20 DUP3 ADD SWAP1 POP SWAP2 SWAP1 POP JUMP JUMPDEST PUSH0 PUSH1 0x20 DUP3 ADD SWAP1 POP DUP2 DUP2 SUB PUSH0 DUP4 ADD MSTORE PUSH2 0x1CFE DUP2 PUSH2 0x1CC5 JUMP JUMPDEST SWAP1 POP SWAP2 SWAP1 POP JUMP JUMPDEST PUSH0 PUSH1 0x60 DUP3 ADD SWAP1 POP PUSH2 0x1D18 PUSH0 DUP4 ADD DUP7 PUSH2 0x1284 JUMP JUMPDEST PUSH2 0x1D25 PUSH1 0x20 DUP4 ADD DUP6 PUSH2 0x150A JUMP JUMPDEST PUSH2 0x1D32 PUSH1 0x40 DUP4 ADD DUP5 PUSH2 0x1284 JUMP JUMPDEST SWAP5 SWAP4 POP POP POP POP JUMP INVALID LOG2 PUSH5 0x6970667358 0x22 SLT KECCAK256 0x23 LOG3 PUSH30 0x3D3B2AD93FDE247C4A33CCA72DE77565B8EE8ABF4D4CB1BD5AAD5A171264 PUSH20 0x6F6C634300081A00330000000000000000000000 "
				},
				"gasEstimates": {
					"creation": {
						"codeDepositCost": "1507200",
						"executionCost": "25838",
						"totalCost": "1533038"
					},
					"external": {
						"courseCounter()": "2492",
						"courses(uint256)": "infinite",
						"createCourse(string,uint256)": "infinite",
						"createHackathon(string,uint256,uint256)": "infinite",
						"distributePrize(uint256,address)": "infinite",
						"enrollInCourse(uint256)": "infinite",
						"getCourseStudents(uint256)": "infinite",
						"getHackathonParticipants(uint256)": "infinite",
						"getUserEnrolledCourses(address)": "infinite",
						"getUserEnrolledHackathons(address)": "infinite",
						"hackathonCounter()": "2471",
						"hackathons(uint256)": "infinite",
						"joinHackathon(uint256)": "infinite",
						"owner()": "2528",
						"users(address)": "infinite"
					}
				},
				"methodIdentifiers": {
					"courseCounter()": "82216fbd",
					"courses(uint256)": "96f979d2",
					"createCourse(string,uint256)": "a1db0e27",
					"createHackathon(string,uint256,uint256)": "1cd12e53",
					"distributePrize(uint256,address)": "f5ff83b3",
					"enrollInCourse(uint256)": "5e52da27",
					"getCourseStudents(uint256)": "60dd60e3",
					"getHackathonParticipants(uint256)": "97b913db",
					"getUserEnrolledCourses(address)": "829ae6f4",
					"getUserEnrolledHackathons(address)": "d62d5f78",
					"hackathonCounter()": "40aca1b1",
					"hackathons(uint256)": "c1077194",
					"joinHackathon(uint256)": "42ca6d58",
					"owner()": "8da5cb5b",
					"users(address)": "a87430ba"
				}
			},
			"storageLayout": {
				"storage": [
					{
						"astId": 44,
						"contract": "contracts/mycontract2.sol:Learnopoly",
						"label": "owner",
						"offset": 0,
						"slot": "0",
						"type": "t_address"
					},
					{
						"astId": 46,
						"contract": "contracts/mycontract2.sol:Learnopoly",
						"label": "courseCounter",
						"offset": 0,
						"slot": "1",
						"type": "t_uint256"
					},
					{
						"astId": 48,
						"contract": "contracts/mycontract2.sol:Learnopoly",
						"label": "hackathonCounter",
						"offset": 0,
						"slot": "2",
						"type": "t_uint256"
					},
					{
						"astId": 53,
						"contract": "contracts/mycontract2.sol:Learnopoly",
						"label": "users",
						"offset": 0,
						"slot": "3",
						"type": "t_mapping(t_address,t_struct(User)14_storage)"
					},
					{
						"astId": 58,
						"contract": "contracts/mycontract2.sol:Learnopoly",
						"label": "courses",
						"offset": 0,
						"slot": "4",
						"type": "t_mapping(t_uint256,t_struct(Course)26_storage)"
					},
					{
						"astId": 63,
						"contract": "contracts/mycontract2.sol:Learnopoly",
						"label": "hackathons",
						"offset": 0,
						"slot": "5",
						"type": "t_mapping(t_uint256,t_struct(Hackathon)42_storage)"
					}
				],
				"types": {
					"t_address": {
						"encoding": "inplace",
						"label": "address",
						"numberOfBytes": "20"
					},
					"t_array(t_address)dyn_storage": {
						"base": "t_address",
						"encoding": "dynamic_array",
						"label": "address[]",
						"numberOfBytes": "32"
					},
					"t_array(t_uint256)dyn_storage": {
						"base": "t_uint256",
						"encoding": "dynamic_array",
						"label": "uint256[]",
						"numberOfBytes": "32"
					},
					"t_bool": {
						"encoding": "inplace",
						"label": "bool",
						"numberOfBytes": "1"
					},
					"t_mapping(t_address,t_struct(User)14_storage)": {
						"encoding": "mapping",
						"key": "t_address",
						"label": "mapping(address => struct Learnopoly.User)",
						"numberOfBytes": "32",
						"value": "t_struct(User)14_storage"
					},
					"t_mapping(t_uint256,t_struct(Course)26_storage)": {
						"encoding": "mapping",
						"key": "t_uint256",
						"label": "mapping(uint256 => struct Learnopoly.Course)",
						"numberOfBytes": "32",
						"value": "t_struct(Course)26_storage"
					},
					"t_mapping(t_uint256,t_struct(Hackathon)42_storage)": {
						"encoding": "mapping",
						"key": "t_uint256",
						"label": "mapping(uint256 => struct Learnopoly.Hackathon)",
						"numberOfBytes": "32",
						"value": "t_struct(Hackathon)42_storage"
					},
					"t_string_storage": {
						"encoding": "bytes",
						"label": "string",
						"numberOfBytes": "32"
					},
					"t_struct(Course)26_storage": {
						"encoding": "inplace",
						"label": "struct Learnopoly.Course",
						"members": [
							{
								"astId": 16,
								"contract": "contracts/mycontract2.sol:Learnopoly",
								"label": "id",
								"offset": 0,
								"slot": "0",
								"type": "t_uint256"
							},
							{
								"astId": 18,
								"contract": "contracts/mycontract2.sol:Learnopoly",
								"label": "title",
								"offset": 0,
								"slot": "1",
								"type": "t_string_storage"
							},
							{
								"astId": 20,
								"contract": "contracts/mycontract2.sol:Learnopoly",
								"label": "price",
								"offset": 0,
								"slot": "2",
								"type": "t_uint256"
							},
							{
								"astId": 22,
								"contract": "contracts/mycontract2.sol:Learnopoly",
								"label": "creator",
								"offset": 0,
								"slot": "3",
								"type": "t_address"
							},
							{
								"astId": 25,
								"contract": "contracts/mycontract2.sol:Learnopoly",
								"label": "students",
								"offset": 0,
								"slot": "4",
								"type": "t_array(t_address)dyn_storage"
							}
						],
						"numberOfBytes": "160"
					},
					"t_struct(Hackathon)42_storage": {
						"encoding": "inplace",
						"label": "struct Learnopoly.Hackathon",
						"members": [
							{
								"astId": 28,
								"contract": "contracts/mycontract2.sol:Learnopoly",
								"label": "id",
								"offset": 0,
								"slot": "0",
								"type": "t_uint256"
							},
							{
								"astId": 30,
								"contract": "contracts/mycontract2.sol:Learnopoly",
								"label": "name",
								"offset": 0,
								"slot": "1",
								"type": "t_string_storage"
							},
							{
								"astId": 32,
								"contract": "contracts/mycontract2.sol:Learnopoly",
								"label": "registrationFee",
								"offset": 0,
								"slot": "2",
								"type": "t_uint256"
							},
							{
								"astId": 34,
								"contract": "contracts/mycontract2.sol:Learnopoly",
								"label": "prizePool",
								"offset": 0,
								"slot": "3",
								"type": "t_uint256"
							},
							{
								"astId": 36,
								"contract": "contracts/mycontract2.sol:Learnopoly",
								"label": "organizer",
								"offset": 0,
								"slot": "4",
								"type": "t_address"
							},
							{
								"astId": 39,
								"contract": "contracts/mycontract2.sol:Learnopoly",
								"label": "participants",
								"offset": 0,
								"slot": "5",
								"type": "t_array(t_address)dyn_storage"
							},
							{
								"astId": 41,
								"contract": "contracts/mycontract2.sol:Learnopoly",
								"label": "isActive",
								"offset": 0,
								"slot": "6",
								"type": "t_bool"
							}
						],
						"numberOfBytes": "224"
					},
					"t_struct(User)14_storage": {
						"encoding": "inplace",
						"label": "struct Learnopoly.User",
						"members": [
							{
								"astId": 3,
								"contract": "contracts/mycontract2.sol:Learnopoly",
								"label": "walletAddress",
								"offset": 0,
								"slot": "0",
								"type": "t_address"
							},
							{
								"astId": 5,
								"contract": "contracts/mycontract2.sol:Learnopoly",
								"label": "name",
								"offset": 0,
								"slot": "1",
								"type": "t_string_storage"
							},
							{
								"astId": 7,
								"contract": "contracts/mycontract2.sol:Learnopoly",
								"label": "role",
								"offset": 0,
								"slot": "2",
								"type": "t_string_storage"
							},
							{
								"astId": 10,
								"contract": "contracts/mycontract2.sol:Learnopoly",
								"label": "enrolledCourses",
								"offset": 0,
								"slot": "3",
								"type": "t_array(t_uint256)dyn_storage"
							},
							{
								"astId": 13,
								"contract": "contracts/mycontract2.sol:Learnopoly",
								"label": "enrolledHackathons",
								"offset": 0,
								"slot": "4",
								"type": "t_array(t_uint256)dyn_storage"
							}
						],
						"numberOfBytes": "160"
					},
					"t_uint256": {
						"encoding": "inplace",
						"label": "uint256",
						"numberOfBytes": "32"
					}
				}
			},
			"userdoc": {
				"kind": "user",
				"methods": {},
				"version": 1
			}
		}
	}
}