{
	"contracts/myContract.sol": {
		"Learnopoly": {
			"abi": [
				{
					"inputs": [],
					"stateMutability": "nonpayable",
					"type": "constructor"
				},
				{
					"anonymous": false,
					"inputs": [
						{
							"indexed": false,
							"internalType": "uint256",
							"name": "id",
							"type": "uint256"
						},
						{
							"indexed": false,
							"internalType": "string",
							"name": "name",
							"type": "string"
						},
						{
							"indexed": false,
							"internalType": "address",
							"name": "organizer",
							"type": "address"
						}
					],
					"name": "HackathonCreated",
					"type": "event"
				},
				{
					"anonymous": false,
					"inputs": [
						{
							"indexed": false,
							"internalType": "uint256",
							"name": "hackathonId",
							"type": "uint256"
						},
						{
							"indexed": false,
							"internalType": "address",
							"name": "participant",
							"type": "address"
						}
					],
					"name": "HackathonJoined",
					"type": "event"
				},
				{
					"anonymous": false,
					"inputs": [
						{
							"indexed": false,
							"internalType": "uint256",
							"name": "hackathonId",
							"type": "uint256"
						},
						{
							"indexed": false,
							"internalType": "address",
							"name": "winner",
							"type": "address"
						},
						{
							"indexed": false,
							"internalType": "uint256",
							"name": "prize",
							"type": "uint256"
						}
					],
					"name": "PrizeDistributed",
					"type": "event"
				},
				{
					"anonymous": false,
					"inputs": [
						{
							"indexed": false,
							"internalType": "address",
							"name": "user",
							"type": "address"
						},
						{
							"indexed": false,
							"internalType": "string",
							"name": "name",
							"type": "string"
						},
						{
							"indexed": false,
							"internalType": "string",
							"name": "role",
							"type": "string"
						}
					],
					"name": "UserRegistered",
					"type": "event"
				},
				{
					"inputs": [
						{
							"internalType": "string",
							"name": "name",
							"type": "string"
						},
						{
							"internalType": "uint256",
							"name": "registrationFee",
							"type": "uint256"
						},
						{
							"internalType": "uint256",
							"name": "prizePool",
							"type": "uint256"
						}
					],
					"name": "createHackathon",
					"outputs": [],
					"stateMutability": "nonpayable",
					"type": "function"
				},
				{
					"inputs": [
						{
							"internalType": "uint256",
							"name": "hackathonId",
							"type": "uint256"
						},
						{
							"internalType": "address",
							"name": "winner",
							"type": "address"
						}
					],
					"name": "distributePrize",
					"outputs": [],
					"stateMutability": "nonpayable",
					"type": "function"
				},
				{
					"inputs": [
						{
							"internalType": "address",
							"name": "user",
							"type": "address"
						}
					],
					"name": "getEnrolledHackathons",
					"outputs": [
						{
							"internalType": "uint256[]",
							"name": "",
							"type": "uint256[]"
						}
					],
					"stateMutability": "view",
					"type": "function"
				},
				{
					"inputs": [
						{
							"internalType": "uint256",
							"name": "hackathonId",
							"type": "uint256"
						}
					],
					"name": "getHackathonParticipants",
					"outputs": [
						{
							"internalType": "address[]",
							"name": "",
							"type": "address[]"
						}
					],
					"stateMutability": "view",
					"type": "function"
				},
				{
					"inputs": [],
					"name": "hackathonCounter",
					"outputs": [
						{
							"internalType": "uint256",
							"name": "",
							"type": "uint256"
						}
					],
					"stateMutability": "view",
					"type": "function"
				},
				{
					"inputs": [
						{
							"internalType": "uint256",
							"name": "",
							"type": "uint256"
						}
					],
					"name": "hackathons",
					"outputs": [
						{
							"internalType": "uint256",
							"name": "id",
							"type": "uint256"
						},
						{
							"internalType": "string",
							"name": "name",
							"type": "string"
						},
						{
							"internalType": "uint256",
							"name": "registrationFee",
							"type": "uint256"
						},
						{
							"internalType": "uint256",
							"name": "prizePool",
							"type": "uint256"
						},
						{
							"internalType": "address",
							"name": "organizer",
							"type": "address"
						},
						{
							"internalType": "bool",
							"name": "isActive",
							"type": "bool"
						}
					],
					"stateMutability": "view",
					"type": "function"
				},
				{
					"inputs": [
						{
							"internalType": "uint256",
							"name": "hackathonId",
							"type": "uint256"
						}
					],
					"name": "joinHackathon",
					"outputs": [],
					"stateMutability": "payable",
					"type": "function"
				},
				{
					"inputs": [],
					"name": "owner",
					"outputs": [
						{
							"internalType": "address",
							"name": "",
							"type": "address"
						}
					],
					"stateMutability": "view",
					"type": "function"
				},
				{
					"inputs": [
						{
							"internalType": "string",
							"name": "name",
							"type": "string"
						},
						{
							"internalType": "string",
							"name": "role",
							"type": "string"
						}
					],
					"name": "registerUser",
					"outputs": [],
					"stateMutability": "nonpayable",
					"type": "function"
				},
				{
					"inputs": [
						{
							"internalType": "address",
							"name": "",
							"type": "address"
						}
					],
					"name": "users",
					"outputs": [
						{
							"internalType": "address",
							"name": "walletAddress",
							"type": "address"
						},
						{
							"internalType": "string",
							"name": "name",
							"type": "string"
						},
						{
							"internalType": "string",
							"name": "role",
							"type": "string"
						}
					],
					"stateMutability": "view",
					"type": "function"
				},
				{
					"stateMutability": "payable",
					"type": "receive"
				}
			],
			"devdoc": {
				"kind": "dev",
				"methods": {},
				"version": 1
			},
			"evm": {
				"assembly": "    /* \"contracts/myContract.sol\":60:3704  contract Learnopoly {... */\n  mstore(0x40, 0x80)\n    /* \"contracts/myContract.sol\":1285:1336  constructor() {... */\n  callvalue\n  dup1\n  iszero\n  tag_1\n  jumpi\n  0x00\n  dup1\n  revert\ntag_1:\n  pop\n    /* \"contracts/myContract.sol\":1318:1328  msg.sender */\n  caller\n    /* \"contracts/myContract.sol\":1310:1315  owner */\n  0x00\n  dup1\n    /* \"contracts/myContract.sol\":1310:1328  owner = msg.sender */\n  0x0100\n  exp\n  dup2\n  sload\n  dup2\n  0xffffffffffffffffffffffffffffffffffffffff\n  mul\n  not\n  and\n  swap1\n  dup4\n  0xffffffffffffffffffffffffffffffffffffffff\n  and\n  mul\n  or\n  swap1\n  sstore\n  pop\n    /* \"contracts/myContract.sol\":60:3704  contract Learnopoly {... */\n  dataSize(sub_0)\n  dup1\n  dataOffset(sub_0)\n  0x00\n  codecopy\n  0x00\n  return\nstop\n\nsub_0: assembly {\n        /* \"contracts/myContract.sol\":60:3704  contract Learnopoly {... */\n      mstore(0x40, 0x80)\n      jumpi(tag_1, lt(calldatasize, 0x04))\n      shr(0xe0, calldataload(0x00))\n      dup1\n      0x8da5cb5b\n      gt\n      tag_13\n      jumpi\n      dup1\n      0x8da5cb5b\n      eq\n      tag_8\n      jumpi\n      dup1\n      0x97b913db\n      eq\n      tag_9\n      jumpi\n      dup1\n      0xa87430ba\n      eq\n      tag_10\n      jumpi\n      dup1\n      0xc1077194\n      eq\n      tag_11\n      jumpi\n      dup1\n      0xf5ff83b3\n      eq\n      tag_12\n      jumpi\n      jump(tag_2)\n    tag_13:\n      dup1\n      0x1cd12e53\n      eq\n      tag_3\n      jumpi\n      dup1\n      0x1d2e4afd\n      eq\n      tag_4\n      jumpi\n      dup1\n      0x40aca1b1\n      eq\n      tag_5\n      jumpi\n      dup1\n      0x42ca6d58\n      eq\n      tag_6\n      jumpi\n      dup1\n      0x430ef744\n      eq\n      tag_7\n      jumpi\n      jump(tag_2)\n    tag_1:\n      jumpi(tag_2, calldatasize)\n      stop\n    tag_2:\n      0x00\n      dup1\n      revert\n        /* \"contracts/myContract.sol\":1650:2228  function createHackathon(... */\n    tag_3:\n      callvalue\n      dup1\n      iszero\n      tag_16\n      jumpi\n      0x00\n      dup1\n      revert\n    tag_16:\n      pop\n      tag_17\n      0x04\n      dup1\n      calldatasize\n      sub\n      dup2\n      add\n      swap1\n      tag_18\n      swap2\n      swap1\n      tag_19\n      jump\t// in\n    tag_18:\n      tag_20\n      jump\t// in\n    tag_17:\n      stop\n        /* \"contracts/myContract.sol\":1344:1642  function registerUser(string memory name, string memory role) external {... */\n    tag_4:\n      callvalue\n      dup1\n      iszero\n      tag_21\n      jumpi\n      0x00\n      dup1\n      revert\n    tag_21:\n      pop\n      tag_22\n      0x04\n      dup1\n      calldatasize\n      sub\n      dup2\n      add\n      swap1\n      tag_23\n      swap2\n      swap1\n      tag_24\n      jump\t// in\n    tag_23:\n      tag_25\n      jump\t// in\n    tag_22:\n      stop\n        /* \"contracts/myContract.sol\":510:541  uint256 public hackathonCounter */\n    tag_5:\n      callvalue\n      dup1\n      iszero\n      tag_26\n      jumpi\n      0x00\n      dup1\n      revert\n    tag_26:\n      pop\n      tag_27\n      tag_28\n      jump\t// in\n    tag_27:\n      mload(0x40)\n      tag_29\n      swap2\n      swap1\n      tag_30\n      jump\t// in\n    tag_29:\n      mload(0x40)\n      dup1\n      swap2\n      sub\n      swap1\n      return\n        /* \"contracts/myContract.sol\":2236:2732  function joinHackathon(uint256 hackathonId) external payable {... */\n    tag_6:\n      tag_31\n      0x04\n      dup1\n      calldatasize\n      sub\n      dup2\n      add\n      swap1\n      tag_32\n      swap2\n      swap1\n      tag_33\n      jump\t// in\n    tag_32:\n      tag_34\n      jump\t// in\n    tag_31:\n      stop\n        /* \"contracts/myContract.sol\":3484:3658  function getEnrolledHackathons(address user)... */\n    tag_7:\n      callvalue\n      dup1\n      iszero\n      tag_35\n      jumpi\n      0x00\n      dup1\n      revert\n    tag_35:\n      pop\n      tag_36\n      0x04\n      dup1\n      calldatasize\n      sub\n      dup2\n      add\n      swap1\n      tag_37\n      swap2\n      swap1\n      tag_38\n      jump\t// in\n    tag_37:\n      tag_39\n      jump\t// in\n    tag_36:\n      mload(0x40)\n      tag_40\n      swap2\n      swap1\n      tag_41\n      jump\t// in\n    tag_40:\n      mload(0x40)\n      dup1\n      swap2\n      sub\n      swap1\n      return\n        /* \"contracts/myContract.sol\":483:503  address public owner */\n    tag_8:\n      callvalue\n      dup1\n      iszero\n      tag_42\n      jumpi\n      0x00\n      dup1\n      revert\n    tag_42:\n      pop\n      tag_43\n      tag_44\n      jump\t// in\n    tag_43:\n      mload(0x40)\n      tag_45\n      swap2\n      swap1\n      tag_46\n      jump\t// in\n    tag_45:\n      mload(0x40)\n      dup1\n      swap2\n      sub\n      swap1\n      return\n        /* \"contracts/myContract.sol\":3286:3476  function getHackathonParticipants(uint256 hackathonId)... */\n    tag_9:\n      callvalue\n      dup1\n      iszero\n      tag_47\n      jumpi\n      0x00\n      dup1\n      revert\n    tag_47:\n      pop\n      tag_48\n      0x04\n      dup1\n      calldatasize\n      sub\n      dup2\n      add\n      swap1\n      tag_49\n      swap2\n      swap1\n      tag_33\n      jump\t// in\n    tag_49:\n      tag_50\n      jump\t// in\n    tag_48:\n      mload(0x40)\n      tag_51\n      swap2\n      swap1\n      tag_52\n      jump\t// in\n    tag_51:\n      mload(0x40)\n      dup1\n      swap2\n      sub\n      swap1\n      return\n        /* \"contracts/myContract.sol\":548:585  mapping(address => User) public users */\n    tag_10:\n      callvalue\n      dup1\n      iszero\n      tag_53\n      jumpi\n      0x00\n      dup1\n      revert\n    tag_53:\n      pop\n      tag_54\n      0x04\n      dup1\n      calldatasize\n      sub\n      dup2\n      add\n      swap1\n      tag_55\n      swap2\n      swap1\n      tag_38\n      jump\t// in\n    tag_55:\n      tag_56\n      jump\t// in\n    tag_54:\n      mload(0x40)\n      tag_57\n      swap4\n      swap3\n      swap2\n      swap1\n      tag_58\n      jump\t// in\n    tag_57:\n      mload(0x40)\n      dup1\n      swap2\n      sub\n      swap1\n      return\n        /* \"contracts/myContract.sol\":592:639  mapping(uint256 => Hackathon) public hackathons */\n    tag_11:\n      callvalue\n      dup1\n      iszero\n      tag_59\n      jumpi\n      0x00\n      dup1\n      revert\n    tag_59:\n      pop\n      tag_60\n      0x04\n      dup1\n      calldatasize\n      sub\n      dup2\n      add\n      swap1\n      tag_61\n      swap2\n      swap1\n      tag_33\n      jump\t// in\n    tag_61:\n      tag_62\n      jump\t// in\n    tag_60:\n      mload(0x40)\n      tag_63\n      swap7\n      swap6\n      swap5\n      swap4\n      swap3\n      swap2\n      swap1\n      tag_64\n      jump\t// in\n    tag_63:\n      mload(0x40)\n      dup1\n      swap2\n      sub\n      swap1\n      return\n        /* \"contracts/myContract.sol\":2740:3278  function distributePrize(uint256 hackathonId, address winner) external onlyOrganizer(hackathonId) {... */\n    tag_12:\n      callvalue\n      dup1\n      iszero\n      tag_65\n      jumpi\n      0x00\n      dup1\n      revert\n    tag_65:\n      pop\n      tag_66\n      0x04\n      dup1\n      calldatasize\n      sub\n      dup2\n      add\n      swap1\n      tag_67\n      swap2\n      swap1\n      tag_68\n      jump\t// in\n    tag_67:\n      tag_69\n      jump\t// in\n    tag_66:\n      stop\n        /* \"contracts/myContract.sol\":1650:2228  function createHackathon(... */\n    tag_20:\n        /* \"contracts/myContract.sol\":1793:1809  hackathonCounter */\n      0x01\n      0x00\n        /* \"contracts/myContract.sol\":1793:1811  hackathonCounter++ */\n      dup2\n      sload\n      dup1\n      swap3\n      swap2\n      swap1\n      tag_71\n      swap1\n      tag_72\n      jump\t// in\n    tag_71:\n      swap2\n      swap1\n      pop\n      sstore\n      pop\n        /* \"contracts/myContract.sol\":1822:1852  Hackathon storage newHackathon */\n      0x00\n        /* \"contracts/myContract.sol\":1855:1865  hackathons */\n      0x03\n        /* \"contracts/myContract.sol\":1855:1883  hackathons[hackathonCounter] */\n      0x00\n        /* \"contracts/myContract.sol\":1866:1882  hackathonCounter */\n      sload(0x01)\n        /* \"contracts/myContract.sol\":1855:1883  hackathons[hackathonCounter] */\n      dup2\n      mstore\n      0x20\n      add\n      swap1\n      dup2\n      mstore\n      0x20\n      add\n      0x00\n      keccak256\n        /* \"contracts/myContract.sol\":1822:1883  Hackathon storage newHackathon = hackathons[hackathonCounter] */\n      swap1\n      pop\n        /* \"contracts/myContract.sol\":1912:1928  hackathonCounter */\n      sload(0x01)\n        /* \"contracts/myContract.sol\":1894:1906  newHackathon */\n      dup2\n        /* \"contracts/myContract.sol\":1894:1909  newHackathon.id */\n      0x00\n      add\n        /* \"contracts/myContract.sol\":1894:1928  newHackathon.id = hackathonCounter */\n      dup2\n      swap1\n      sstore\n      pop\n        /* \"contracts/myContract.sol\":1959:1963  name */\n      dup4\n        /* \"contracts/myContract.sol\":1939:1951  newHackathon */\n      dup2\n        /* \"contracts/myContract.sol\":1939:1956  newHackathon.name */\n      0x01\n      add\n        /* \"contracts/myContract.sol\":1939:1963  newHackathon.name = name */\n      swap1\n      dup2\n      tag_73\n      swap2\n      swap1\n      tag_74\n      jump\t// in\n    tag_73:\n      pop\n        /* \"contracts/myContract.sol\":2005:2020  registrationFee */\n      dup3\n        /* \"contracts/myContract.sol\":1974:1986  newHackathon */\n      dup2\n        /* \"contracts/myContract.sol\":1974:2002  newHackathon.registrationFee */\n      0x02\n      add\n        /* \"contracts/myContract.sol\":1974:2020  newHackathon.registrationFee = registrationFee */\n      dup2\n      swap1\n      sstore\n      pop\n        /* \"contracts/myContract.sol\":2056:2065  prizePool */\n      dup2\n        /* \"contracts/myContract.sol\":2031:2043  newHackathon */\n      dup2\n        /* \"contracts/myContract.sol\":2031:2053  newHackathon.prizePool */\n      0x03\n      add\n        /* \"contracts/myContract.sol\":2031:2065  newHackathon.prizePool = prizePool */\n      dup2\n      swap1\n      sstore\n      pop\n        /* \"contracts/myContract.sol\":2101:2111  msg.sender */\n      caller\n        /* \"contracts/myContract.sol\":2076:2088  newHackathon */\n      dup2\n        /* \"contracts/myContract.sol\":2076:2098  newHackathon.organizer */\n      0x04\n      add\n      0x00\n        /* \"contracts/myContract.sol\":2076:2111  newHackathon.organizer = msg.sender */\n      0x0100\n      exp\n      dup2\n      sload\n      dup2\n      0xffffffffffffffffffffffffffffffffffffffff\n      mul\n      not\n      and\n      swap1\n      dup4\n      0xffffffffffffffffffffffffffffffffffffffff\n      and\n      mul\n      or\n      swap1\n      sstore\n      pop\n        /* \"contracts/myContract.sol\":2146:2150  true */\n      0x01\n        /* \"contracts/myContract.sol\":2122:2134  newHackathon */\n      dup2\n        /* \"contracts/myContract.sol\":2122:2143  newHackathon.isActive */\n      0x06\n      add\n      0x00\n        /* \"contracts/myContract.sol\":2122:2150  newHackathon.isActive = true */\n      0x0100\n      exp\n      dup2\n      sload\n      dup2\n      0xff\n      mul\n      not\n      and\n      swap1\n      dup4\n      iszero\n      iszero\n      mul\n      or\n      swap1\n      sstore\n      pop\n        /* \"contracts/myContract.sol\":2168:2220  HackathonCreated(hackathonCounter, name, msg.sender) */\n      0xa94cd0b7a6a30768493dd3c96d659f8684f84657295d41125416f89e1027f876\n        /* \"contracts/myContract.sol\":2185:2201  hackathonCounter */\n      sload(0x01)\n        /* \"contracts/myContract.sol\":2203:2207  name */\n      dup6\n        /* \"contracts/myContract.sol\":2209:2219  msg.sender */\n      caller\n        /* \"contracts/myContract.sol\":2168:2220  HackathonCreated(hackathonCounter, name, msg.sender) */\n      mload(0x40)\n      tag_75\n      swap4\n      swap3\n      swap2\n      swap1\n      tag_76\n      jump\t// in\n    tag_75:\n      mload(0x40)\n      dup1\n      swap2\n      sub\n      swap1\n      log1\n        /* \"contracts/myContract.sol\":1782:2228  {... */\n      pop\n        /* \"contracts/myContract.sol\":1650:2228  function createHackathon(... */\n      pop\n      pop\n      pop\n      jump\t// out\n        /* \"contracts/myContract.sol\":1344:1642  function registerUser(string memory name, string memory role) external {... */\n    tag_25:\n        /* \"contracts/myContract.sol\":1474:1475  0 */\n      0x00\n        /* \"contracts/myContract.sol\":1440:1445  users */\n      0x02\n        /* \"contracts/myContract.sol\":1440:1457  users[msg.sender] */\n      0x00\n        /* \"contracts/myContract.sol\":1446:1456  msg.sender */\n      caller\n        /* \"contracts/myContract.sol\":1440:1457  users[msg.sender] */\n      0xffffffffffffffffffffffffffffffffffffffff\n      and\n      0xffffffffffffffffffffffffffffffffffffffff\n      and\n      dup2\n      mstore\n      0x20\n      add\n      swap1\n      dup2\n      mstore\n      0x20\n      add\n      0x00\n      keccak256\n        /* \"contracts/myContract.sol\":1440:1462  users[msg.sender].name */\n      0x01\n      add\n        /* \"contracts/myContract.sol\":1434:1470  bytes(users[msg.sender].name).length */\n      dup1\n      sload\n      tag_78\n      swap1\n      tag_79\n      jump\t// in\n    tag_78:\n      swap1\n      pop\n        /* \"contracts/myContract.sol\":1434:1475  bytes(users[msg.sender].name).length == 0 */\n      eq\n        /* \"contracts/myContract.sol\":1426:1503  require(bytes(users[msg.sender].name).length == 0, \"User already registered\") */\n      tag_80\n      jumpi\n      mload(0x40)\n      0x08c379a000000000000000000000000000000000000000000000000000000000\n      dup2\n      mstore\n      0x04\n      add\n      tag_81\n      swap1\n      tag_82\n      jump\t// in\n    tag_81:\n      mload(0x40)\n      dup1\n      swap2\n      sub\n      swap1\n      revert\n    tag_80:\n        /* \"contracts/myContract.sol\":1534:1580  User(msg.sender, name, role, new uint256[](0)) */\n      mload(0x40)\n      dup1\n      0x80\n      add\n      0x40\n      mstore\n      dup1\n        /* \"contracts/myContract.sol\":1539:1549  msg.sender */\n      caller\n        /* \"contracts/myContract.sol\":1534:1580  User(msg.sender, name, role, new uint256[](0)) */\n      0xffffffffffffffffffffffffffffffffffffffff\n      and\n      dup2\n      mstore\n      0x20\n      add\n        /* \"contracts/myContract.sol\":1551:1555  name */\n      dup4\n        /* \"contracts/myContract.sol\":1534:1580  User(msg.sender, name, role, new uint256[](0)) */\n      dup2\n      mstore\n      0x20\n      add\n        /* \"contracts/myContract.sol\":1557:1561  role */\n      dup3\n        /* \"contracts/myContract.sol\":1534:1580  User(msg.sender, name, role, new uint256[](0)) */\n      dup2\n      mstore\n      0x20\n      add\n        /* \"contracts/myContract.sol\":1577:1578  0 */\n      0x00\n        /* \"contracts/myContract.sol\":1563:1579  new uint256[](0) */\n      0xffffffffffffffff\n      dup2\n      gt\n      iszero\n      tag_83\n      jumpi\n      tag_84\n      tag_85\n      jump\t// in\n    tag_84:\n    tag_83:\n      mload(0x40)\n      swap1\n      dup1\n      dup3\n      mstore\n      dup1\n      0x20\n      mul\n      0x20\n      add\n      dup3\n      add\n      0x40\n      mstore\n      dup1\n      iszero\n      tag_86\n      jumpi\n      dup2\n      0x20\n      add\n      0x20\n      dup3\n      mul\n      dup1\n      calldatasize\n      dup4\n      calldatacopy\n      dup1\n      dup3\n      add\n      swap2\n      pop\n      pop\n      swap1\n      pop\n    tag_86:\n      pop\n        /* \"contracts/myContract.sol\":1534:1580  User(msg.sender, name, role, new uint256[](0)) */\n      dup2\n      mstore\n      pop\n        /* \"contracts/myContract.sol\":1514:1519  users */\n      0x02\n        /* \"contracts/myContract.sol\":1514:1531  users[msg.sender] */\n      0x00\n        /* \"contracts/myContract.sol\":1520:1530  msg.sender */\n      caller\n        /* \"contracts/myContract.sol\":1514:1531  users[msg.sender] */\n      0xffffffffffffffffffffffffffffffffffffffff\n      and\n      0xffffffffffffffffffffffffffffffffffffffff\n      and\n      dup2\n      mstore\n      0x20\n      add\n      swap1\n      dup2\n      mstore\n      0x20\n      add\n      0x00\n      keccak256\n        /* \"contracts/myContract.sol\":1514:1580  users[msg.sender] = User(msg.sender, name, role, new uint256[](0)) */\n      0x00\n      dup3\n      add\n      mload\n      dup2\n      0x00\n      add\n      exp(0x0100, 0x00)\n      dup2\n      sload\n      dup2\n      0xffffffffffffffffffffffffffffffffffffffff\n      mul\n      not\n      and\n      swap1\n      dup4\n      0xffffffffffffffffffffffffffffffffffffffff\n      and\n      mul\n      or\n      swap1\n      sstore\n      pop\n      0x20\n      dup3\n      add\n      mload\n      dup2\n      0x01\n      add\n      swap1\n      dup2\n      tag_87\n      swap2\n      swap1\n      tag_74\n      jump\t// in\n    tag_87:\n      pop\n      0x40\n      dup3\n      add\n      mload\n      dup2\n      0x02\n      add\n      swap1\n      dup2\n      tag_88\n      swap2\n      swap1\n      tag_74\n      jump\t// in\n    tag_88:\n      pop\n      0x60\n      dup3\n      add\n      mload\n      dup2\n      0x03\n      add\n      swap1\n      dup1\n      mload\n      swap1\n      0x20\n      add\n      swap1\n      tag_89\n      swap3\n      swap2\n      swap1\n      tag_90\n      jump\t// in\n    tag_89:\n      pop\n      swap1\n      pop\n      pop\n        /* \"contracts/myContract.sol\":1596:1634  UserRegistered(msg.sender, name, role) */\n      0x92822564bab8864c3a47b34e8d23fbce5c46234eb5da261f94087b995ac0f33b\n        /* \"contracts/myContract.sol\":1611:1621  msg.sender */\n      caller\n        /* \"contracts/myContract.sol\":1623:1627  name */\n      dup4\n        /* \"contracts/myContract.sol\":1629:1633  role */\n      dup4\n        /* \"contracts/myContract.sol\":1596:1634  UserRegistered(msg.sender, name, role) */\n      mload(0x40)\n      tag_91\n      swap4\n      swap3\n      swap2\n      swap1\n      tag_58\n      jump\t// in\n    tag_91:\n      mload(0x40)\n      dup1\n      swap2\n      sub\n      swap1\n      log1\n        /* \"contracts/myContract.sol\":1344:1642  function registerUser(string memory name, string memory role) external {... */\n      pop\n      pop\n      jump\t// out\n        /* \"contracts/myContract.sol\":510:541  uint256 public hackathonCounter */\n    tag_28:\n      sload(0x01)\n      dup2\n      jump\t// out\n        /* \"contracts/myContract.sol\":2236:2732  function joinHackathon(uint256 hackathonId) external payable {... */\n    tag_34:\n        /* \"contracts/myContract.sol\":2308:2335  Hackathon storage hackathon */\n      0x00\n        /* \"contracts/myContract.sol\":2338:2348  hackathons */\n      0x03\n        /* \"contracts/myContract.sol\":2338:2361  hackathons[hackathonId] */\n      0x00\n        /* \"contracts/myContract.sol\":2349:2360  hackathonId */\n      dup4\n        /* \"contracts/myContract.sol\":2338:2361  hackathons[hackathonId] */\n      dup2\n      mstore\n      0x20\n      add\n      swap1\n      dup2\n      mstore\n      0x20\n      add\n      0x00\n      keccak256\n        /* \"contracts/myContract.sol\":2308:2361  Hackathon storage hackathon = hackathons[hackathonId] */\n      swap1\n      pop\n        /* \"contracts/myContract.sol\":2380:2389  hackathon */\n      dup1\n        /* \"contracts/myContract.sol\":2380:2398  hackathon.isActive */\n      0x06\n      add\n      0x00\n      swap1\n      sload\n      swap1\n      0x0100\n      exp\n      swap1\n      div\n      0xff\n      and\n        /* \"contracts/myContract.sol\":2372:2426  require(hackathon.isActive, \"Hackathon is not active\") */\n      tag_93\n      jumpi\n      mload(0x40)\n      0x08c379a000000000000000000000000000000000000000000000000000000000\n      dup2\n      mstore\n      0x04\n      add\n      tag_94\n      swap1\n      tag_95\n      jump\t// in\n    tag_94:\n      mload(0x40)\n      dup1\n      swap2\n      sub\n      swap1\n      revert\n    tag_93:\n        /* \"contracts/myContract.sol\":2472:2481  hackathon */\n      dup1\n        /* \"contracts/myContract.sol\":2472:2497  hackathon.registrationFee */\n      0x02\n      add\n      sload\n        /* \"contracts/myContract.sol\":2459:2468  msg.value */\n      callvalue\n        /* \"contracts/myContract.sol\":2459:2497  msg.value == hackathon.registrationFee */\n      eq\n        /* \"contracts/myContract.sol\":2437:2551  require(... */\n      tag_96\n      jumpi\n      mload(0x40)\n      0x08c379a000000000000000000000000000000000000000000000000000000000\n      dup2\n      mstore\n      0x04\n      add\n      tag_97\n      swap1\n      tag_98\n      jump\t// in\n    tag_97:\n      mload(0x40)\n      dup1\n      swap2\n      sub\n      swap1\n      revert\n    tag_96:\n        /* \"contracts/myContract.sol\":2562:2571  hackathon */\n      dup1\n        /* \"contracts/myContract.sol\":2562:2584  hackathon.participants */\n      0x05\n      add\n        /* \"contracts/myContract.sol\":2590:2600  msg.sender */\n      caller\n        /* \"contracts/myContract.sol\":2562:2601  hackathon.participants.push(msg.sender) */\n      swap1\n      dup1\n      0x01\n      dup2\n      sload\n      add\n      dup1\n      dup3\n      sstore\n      dup1\n      swap2\n      pop\n      pop\n      0x01\n      swap1\n      sub\n      swap1\n      0x00\n      mstore\n      keccak256(0x00, 0x20)\n      add\n      0x00\n      swap1\n      swap2\n      swap1\n      swap2\n      swap1\n      swap2\n      0x0100\n      exp\n      dup2\n      sload\n      dup2\n      0xffffffffffffffffffffffffffffffffffffffff\n      mul\n      not\n      and\n      swap1\n      dup4\n      0xffffffffffffffffffffffffffffffffffffffff\n      and\n      mul\n      or\n      swap1\n      sstore\n      pop\n        /* \"contracts/myContract.sol\":2612:2617  users */\n      0x02\n        /* \"contracts/myContract.sol\":2612:2629  users[msg.sender] */\n      0x00\n        /* \"contracts/myContract.sol\":2618:2628  msg.sender */\n      caller\n        /* \"contracts/myContract.sol\":2612:2629  users[msg.sender] */\n      0xffffffffffffffffffffffffffffffffffffffff\n      and\n      0xffffffffffffffffffffffffffffffffffffffff\n      and\n      dup2\n      mstore\n      0x20\n      add\n      swap1\n      dup2\n      mstore\n      0x20\n      add\n      0x00\n      keccak256\n        /* \"contracts/myContract.sol\":2612:2648  users[msg.sender].enrolledHackathons */\n      0x03\n      add\n        /* \"contracts/myContract.sol\":2654:2665  hackathonId */\n      dup3\n        /* \"contracts/myContract.sol\":2612:2666  users[msg.sender].enrolledHackathons.push(hackathonId) */\n      swap1\n      dup1\n      0x01\n      dup2\n      sload\n      add\n      dup1\n      dup3\n      sstore\n      dup1\n      swap2\n      pop\n      pop\n      0x01\n      swap1\n      sub\n      swap1\n      0x00\n      mstore\n      keccak256(0x00, 0x20)\n      add\n      0x00\n      swap1\n      swap2\n      swap1\n      swap2\n      swap1\n      swap2\n      pop\n      sstore\n        /* \"contracts/myContract.sol\":2684:2724  HackathonJoined(hackathonId, msg.sender) */\n      0xeed04d4be145b563e5e53575c494b5a2fccc5ce019758c15d37a0984f3633307\n        /* \"contracts/myContract.sol\":2700:2711  hackathonId */\n      dup3\n        /* \"contracts/myContract.sol\":2713:2723  msg.sender */\n      caller\n        /* \"contracts/myContract.sol\":2684:2724  HackathonJoined(hackathonId, msg.sender) */\n      mload(0x40)\n      tag_101\n      swap3\n      swap2\n      swap1\n      tag_102\n      jump\t// in\n    tag_101:\n      mload(0x40)\n      dup1\n      swap2\n      sub\n      swap1\n      log1\n        /* \"contracts/myContract.sol\":2297:2732  {... */\n      pop\n        /* \"contracts/myContract.sol\":2236:2732  function joinHackathon(uint256 hackathonId) external payable {... */\n      pop\n      jump\t// out\n        /* \"contracts/myContract.sol\":3484:3658  function getEnrolledHackathons(address user)... */\n    tag_39:\n        /* \"contracts/myContract.sol\":3579:3595  uint256[] memory */\n      0x60\n        /* \"contracts/myContract.sol\":3620:3625  users */\n      0x02\n        /* \"contracts/myContract.sol\":3620:3631  users[user] */\n      0x00\n        /* \"contracts/myContract.sol\":3626:3630  user */\n      dup4\n        /* \"contracts/myContract.sol\":3620:3631  users[user] */\n      0xffffffffffffffffffffffffffffffffffffffff\n      and\n      0xffffffffffffffffffffffffffffffffffffffff\n      and\n      dup2\n      mstore\n      0x20\n      add\n      swap1\n      dup2\n      mstore\n      0x20\n      add\n      0x00\n      keccak256\n        /* \"contracts/myContract.sol\":3620:3650  users[user].enrolledHackathons */\n      0x03\n      add\n        /* \"contracts/myContract.sol\":3613:3650  return users[user].enrolledHackathons */\n      dup1\n      sload\n      dup1\n      0x20\n      mul\n      0x20\n      add\n      mload(0x40)\n      swap1\n      dup2\n      add\n      0x40\n      mstore\n      dup1\n      swap3\n      swap2\n      swap1\n      dup2\n      dup2\n      mstore\n      0x20\n      add\n      dup3\n      dup1\n      sload\n      dup1\n      iszero\n      tag_104\n      jumpi\n      0x20\n      mul\n      dup3\n      add\n      swap2\n      swap1\n      0x00\n      mstore\n      keccak256(0x00, 0x20)\n      swap1\n    tag_105:\n      dup2\n      sload\n      dup2\n      mstore\n      0x20\n      add\n      swap1\n      0x01\n      add\n      swap1\n      dup1\n      dup4\n      gt\n      tag_105\n      jumpi\n    tag_104:\n      pop\n      pop\n      pop\n      pop\n      pop\n      swap1\n      pop\n        /* \"contracts/myContract.sol\":3484:3658  function getEnrolledHackathons(address user)... */\n      swap2\n      swap1\n      pop\n      jump\t// out\n        /* \"contracts/myContract.sol\":483:503  address public owner */\n    tag_44:\n      0x00\n      dup1\n      sload\n      swap1\n      0x0100\n      exp\n      swap1\n      div\n      0xffffffffffffffffffffffffffffffffffffffff\n      and\n      dup2\n      jump\t// out\n        /* \"contracts/myContract.sol\":3286:3476  function getHackathonParticipants(uint256 hackathonId)... */\n    tag_50:\n        /* \"contracts/myContract.sol\":3391:3407  address[] memory */\n      0x60\n        /* \"contracts/myContract.sol\":3432:3442  hackathons */\n      0x03\n        /* \"contracts/myContract.sol\":3432:3455  hackathons[hackathonId] */\n      0x00\n        /* \"contracts/myContract.sol\":3443:3454  hackathonId */\n      dup4\n        /* \"contracts/myContract.sol\":3432:3455  hackathons[hackathonId] */\n      dup2\n      mstore\n      0x20\n      add\n      swap1\n      dup2\n      mstore\n      0x20\n      add\n      0x00\n      keccak256\n        /* \"contracts/myContract.sol\":3432:3468  hackathons[hackathonId].participants */\n      0x05\n      add\n        /* \"contracts/myContract.sol\":3425:3468  return hackathons[hackathonId].participants */\n      dup1\n      sload\n      dup1\n      0x20\n      mul\n      0x20\n      add\n      mload(0x40)\n      swap1\n      dup2\n      add\n      0x40\n      mstore\n      dup1\n      swap3\n      swap2\n      swap1\n      dup2\n      dup2\n      mstore\n      0x20\n      add\n      dup3\n      dup1\n      sload\n      dup1\n      iszero\n      tag_107\n      jumpi\n      0x20\n      mul\n      dup3\n      add\n      swap2\n      swap1\n      0x00\n      mstore\n      keccak256(0x00, 0x20)\n      swap1\n    tag_108:\n      dup2\n      0x00\n      swap1\n      sload\n      swap1\n      0x0100\n      exp\n      swap1\n      div\n      0xffffffffffffffffffffffffffffffffffffffff\n      and\n      0xffffffffffffffffffffffffffffffffffffffff\n      and\n      dup2\n      mstore\n      0x20\n      add\n      swap1\n      0x01\n      add\n      swap1\n      dup1\n      dup4\n      gt\n      tag_108\n      jumpi\n    tag_107:\n      pop\n      pop\n      pop\n      pop\n      pop\n      swap1\n      pop\n        /* \"contracts/myContract.sol\":3286:3476  function getHackathonParticipants(uint256 hackathonId)... */\n      swap2\n      swap1\n      pop\n      jump\t// out\n        /* \"contracts/myContract.sol\":548:585  mapping(address => User) public users */\n    tag_56:\n      mstore(0x20, 0x02)\n      dup1\n      0x00\n      mstore\n      keccak256(0x00, 0x40)\n      0x00\n      swap2\n      pop\n      swap1\n      pop\n      dup1\n      0x00\n      add\n      0x00\n      swap1\n      sload\n      swap1\n      0x0100\n      exp\n      swap1\n      div\n      0xffffffffffffffffffffffffffffffffffffffff\n      and\n      swap1\n      dup1\n      0x01\n      add\n      dup1\n      sload\n      tag_109\n      swap1\n      tag_79\n      jump\t// in\n    tag_109:\n      dup1\n      0x1f\n      add\n      0x20\n      dup1\n      swap2\n      div\n      mul\n      0x20\n      add\n      mload(0x40)\n      swap1\n      dup2\n      add\n      0x40\n      mstore\n      dup1\n      swap3\n      swap2\n      swap1\n      dup2\n      dup2\n      mstore\n      0x20\n      add\n      dup3\n      dup1\n      sload\n      tag_110\n      swap1\n      tag_79\n      jump\t// in\n    tag_110:\n      dup1\n      iszero\n      tag_111\n      jumpi\n      dup1\n      0x1f\n      lt\n      tag_112\n      jumpi\n      0x0100\n      dup1\n      dup4\n      sload\n      div\n      mul\n      dup4\n      mstore\n      swap2\n      0x20\n      add\n      swap2\n      jump(tag_111)\n    tag_112:\n      dup3\n      add\n      swap2\n      swap1\n      0x00\n      mstore\n      keccak256(0x00, 0x20)\n      swap1\n    tag_113:\n      dup2\n      sload\n      dup2\n      mstore\n      swap1\n      0x01\n      add\n      swap1\n      0x20\n      add\n      dup1\n      dup4\n      gt\n      tag_113\n      jumpi\n      dup3\n      swap1\n      sub\n      0x1f\n      and\n      dup3\n      add\n      swap2\n    tag_111:\n      pop\n      pop\n      pop\n      pop\n      pop\n      swap1\n      dup1\n      0x02\n      add\n      dup1\n      sload\n      tag_114\n      swap1\n      tag_79\n      jump\t// in\n    tag_114:\n      dup1\n      0x1f\n      add\n      0x20\n      dup1\n      swap2\n      div\n      mul\n      0x20\n      add\n      mload(0x40)\n      swap1\n      dup2\n      add\n      0x40\n      mstore\n      dup1\n      swap3\n      swap2\n      swap1\n      dup2\n      dup2\n      mstore\n      0x20\n      add\n      dup3\n      dup1\n      sload\n      tag_115\n      swap1\n      tag_79\n      jump\t// in\n    tag_115:\n      dup1\n      iszero\n      tag_116\n      jumpi\n      dup1\n      0x1f\n      lt\n      tag_117\n      jumpi\n      0x0100\n      dup1\n      dup4\n      sload\n      div\n      mul\n      dup4\n      mstore\n      swap2\n      0x20\n      add\n      swap2\n      jump(tag_116)\n    tag_117:\n      dup3\n      add\n      swap2\n      swap1\n      0x00\n      mstore\n      keccak256(0x00, 0x20)\n      swap1\n    tag_118:\n      dup2\n      sload\n      dup2\n      mstore\n      swap1\n      0x01\n      add\n      swap1\n      0x20\n      add\n      dup1\n      dup4\n      gt\n      tag_118\n      jumpi\n      dup3\n      swap1\n      sub\n      0x1f\n      and\n      dup3\n      add\n      swap2\n    tag_116:\n      pop\n      pop\n      pop\n      pop\n      pop\n      swap1\n      pop\n      dup4\n      jump\t// out\n        /* \"contracts/myContract.sol\":592:639  mapping(uint256 => Hackathon) public hackathons */\n    tag_62:\n      mstore(0x20, 0x03)\n      dup1\n      0x00\n      mstore\n      keccak256(0x00, 0x40)\n      0x00\n      swap2\n      pop\n      swap1\n      pop\n      dup1\n      0x00\n      add\n      sload\n      swap1\n      dup1\n      0x01\n      add\n      dup1\n      sload\n      tag_119\n      swap1\n      tag_79\n      jump\t// in\n    tag_119:\n      dup1\n      0x1f\n      add\n      0x20\n      dup1\n      swap2\n      div\n      mul\n      0x20\n      add\n      mload(0x40)\n      swap1\n      dup2\n      add\n      0x40\n      mstore\n      dup1\n      swap3\n      swap2\n      swap1\n      dup2\n      dup2\n      mstore\n      0x20\n      add\n      dup3\n      dup1\n      sload\n      tag_120\n      swap1\n      tag_79\n      jump\t// in\n    tag_120:\n      dup1\n      iszero\n      tag_121\n      jumpi\n      dup1\n      0x1f\n      lt\n      tag_122\n      jumpi\n      0x0100\n      dup1\n      dup4\n      sload\n      div\n      mul\n      dup4\n      mstore\n      swap2\n      0x20\n      add\n      swap2\n      jump(tag_121)\n    tag_122:\n      dup3\n      add\n      swap2\n      swap1\n      0x00\n      mstore\n      keccak256(0x00, 0x20)\n      swap1\n    tag_123:\n      dup2\n      sload\n      dup2\n      mstore\n      swap1\n      0x01\n      add\n      swap1\n      0x20\n      add\n      dup1\n      dup4\n      gt\n      tag_123\n      jumpi\n      dup3\n      swap1\n      sub\n      0x1f\n      and\n      dup3\n      add\n      swap2\n    tag_121:\n      pop\n      pop\n      pop\n      pop\n      pop\n      swap1\n      dup1\n      0x02\n      add\n      sload\n      swap1\n      dup1\n      0x03\n      add\n      sload\n      swap1\n      dup1\n      0x04\n      add\n      0x00\n      swap1\n      sload\n      swap1\n      0x0100\n      exp\n      swap1\n      div\n      0xffffffffffffffffffffffffffffffffffffffff\n      and\n      swap1\n      dup1\n      0x06\n      add\n      0x00\n      swap1\n      sload\n      swap1\n      0x0100\n      exp\n      swap1\n      div\n      0xff\n      and\n      swap1\n      pop\n      dup7\n      jump\t// out\n        /* \"contracts/myContract.sol\":2740:3278  function distributePrize(uint256 hackathonId, address winner) external onlyOrganizer(hackathonId) {... */\n    tag_69:\n        /* \"contracts/myContract.sol\":2825:2836  hackathonId */\n      dup2\n        /* \"contracts/myContract.sol\":1181:1191  msg.sender */\n      caller\n        /* \"contracts/myContract.sol\":1144:1191  hackathons[hackathonId].organizer == msg.sender */\n      0xffffffffffffffffffffffffffffffffffffffff\n      and\n        /* \"contracts/myContract.sol\":1144:1154  hackathons */\n      0x03\n        /* \"contracts/myContract.sol\":1144:1167  hackathons[hackathonId] */\n      0x00\n        /* \"contracts/myContract.sol\":1155:1166  hackathonId */\n      dup4\n        /* \"contracts/myContract.sol\":1144:1167  hackathons[hackathonId] */\n      dup2\n      mstore\n      0x20\n      add\n      swap1\n      dup2\n      mstore\n      0x20\n      add\n      0x00\n      keccak256\n        /* \"contracts/myContract.sol\":1144:1177  hackathons[hackathonId].organizer */\n      0x04\n      add\n      0x00\n      swap1\n      sload\n      swap1\n      0x0100\n      exp\n      swap1\n      div\n      0xffffffffffffffffffffffffffffffffffffffff\n      and\n        /* \"contracts/myContract.sol\":1144:1191  hackathons[hackathonId].organizer == msg.sender */\n      0xffffffffffffffffffffffffffffffffffffffff\n      and\n      eq\n        /* \"contracts/myContract.sol\":1122:1257  require(... */\n      tag_125\n      jumpi\n      mload(0x40)\n      0x08c379a000000000000000000000000000000000000000000000000000000000\n      dup2\n      mstore\n      0x04\n      add\n      tag_126\n      swap1\n      tag_127\n      jump\t// in\n    tag_126:\n      mload(0x40)\n      dup1\n      swap2\n      sub\n      swap1\n      revert\n    tag_125:\n        /* \"contracts/myContract.sol\":2849:2876  Hackathon storage hackathon */\n      0x00\n        /* \"contracts/myContract.sol\":2879:2889  hackathons */\n      0x03\n        /* \"contracts/myContract.sol\":2879:2902  hackathons[hackathonId] */\n      0x00\n        /* \"contracts/myContract.sol\":2890:2901  hackathonId */\n      dup6\n        /* \"contracts/myContract.sol\":2879:2902  hackathons[hackathonId] */\n      dup2\n      mstore\n      0x20\n      add\n      swap1\n      dup2\n      mstore\n      0x20\n      add\n      0x00\n      keccak256\n        /* \"contracts/myContract.sol\":2849:2902  Hackathon storage hackathon = hackathons[hackathonId] */\n      swap1\n      pop\n        /* \"contracts/myContract.sol\":2921:2930  hackathon */\n      dup1\n        /* \"contracts/myContract.sol\":2921:2939  hackathon.isActive */\n      0x06\n      add\n      0x00\n      swap1\n      sload\n      swap1\n      0x0100\n      exp\n      swap1\n      div\n      0xff\n      and\n        /* \"contracts/myContract.sol\":2913:2967  require(hackathon.isActive, \"Hackathon is not active\") */\n      tag_129\n      jumpi\n      mload(0x40)\n      0x08c379a000000000000000000000000000000000000000000000000000000000\n      dup2\n      mstore\n      0x04\n      add\n      tag_130\n      swap1\n      tag_95\n      jump\t// in\n    tag_130:\n      mload(0x40)\n      dup1\n      swap2\n      sub\n      swap1\n      revert\n    tag_129:\n        /* \"contracts/myContract.sol\":3025:3034  hackathon */\n      dup1\n        /* \"contracts/myContract.sol\":3025:3044  hackathon.prizePool */\n      0x03\n      add\n      sload\n        /* \"contracts/myContract.sol\":3000:3021  address(this).balance */\n      selfbalance\n        /* \"contracts/myContract.sol\":3000:3044  address(this).balance >= hackathon.prizePool */\n      lt\n      iszero\n        /* \"contracts/myContract.sol\":2978:3101  require(... */\n      tag_131\n      jumpi\n      mload(0x40)\n      0x08c379a000000000000000000000000000000000000000000000000000000000\n      dup2\n      mstore\n      0x04\n      add\n      tag_132\n      swap1\n      tag_133\n      jump\t// in\n    tag_132:\n      mload(0x40)\n      dup1\n      swap2\n      sub\n      swap1\n      revert\n    tag_131:\n        /* \"contracts/myContract.sol\":3135:3140  false */\n      0x00\n        /* \"contracts/myContract.sol\":3114:3123  hackathon */\n      dup2\n        /* \"contracts/myContract.sol\":3114:3132  hackathon.isActive */\n      0x06\n      add\n      0x00\n        /* \"contracts/myContract.sol\":3114:3140  hackathon.isActive = false */\n      0x0100\n      exp\n      dup2\n      sload\n      dup2\n      0xff\n      mul\n      not\n      and\n      swap1\n      dup4\n      iszero\n      iszero\n      mul\n      or\n      swap1\n      sstore\n      pop\n        /* \"contracts/myContract.sol\":3159:3165  winner */\n      dup3\n        /* \"contracts/myContract.sol\":3151:3175  payable(winner).transfer */\n      0xffffffffffffffffffffffffffffffffffffffff\n      and\n        /* \"contracts/myContract.sol\":3151:3196  payable(winner).transfer(hackathon.prizePool) */\n      0x08fc\n        /* \"contracts/myContract.sol\":3176:3185  hackathon */\n      dup3\n        /* \"contracts/myContract.sol\":3176:3195  hackathon.prizePool */\n      0x03\n      add\n      sload\n        /* \"contracts/myContract.sol\":3151:3196  payable(winner).transfer(hackathon.prizePool) */\n      swap1\n      dup2\n      iszero\n      mul\n      swap1\n      mload(0x40)\n      0x00\n      mload(0x40)\n      dup1\n      dup4\n      sub\n      dup2\n      dup6\n      dup9\n      dup9\n      call\n      swap4\n      pop\n      pop\n      pop\n      pop\n      iszero\n      dup1\n      iszero\n      tag_135\n      jumpi\n      returndatasize\n      0x00\n      dup1\n      returndatacopy\n      revert(0x00, returndatasize)\n    tag_135:\n      pop\n        /* \"contracts/myContract.sol\":3212:3270  PrizeDistributed(hackathonId, winner, hackathon.prizePool) */\n      0xdc1d0b6a7cbfa6f3b2d4325bab5a169b265ad0b2b4022fb550364f0dfeeb6a74\n        /* \"contracts/myContract.sol\":3229:3240  hackathonId */\n      dup5\n        /* \"contracts/myContract.sol\":3242:3248  winner */\n      dup5\n        /* \"contracts/myContract.sol\":3250:3259  hackathon */\n      dup4\n        /* \"contracts/myContract.sol\":3250:3269  hackathon.prizePool */\n      0x03\n      add\n      sload\n        /* \"contracts/myContract.sol\":3212:3270  PrizeDistributed(hackathonId, winner, hackathon.prizePool) */\n      mload(0x40)\n      tag_136\n      swap4\n      swap3\n      swap2\n      swap1\n      tag_137\n      jump\t// in\n    tag_136:\n      mload(0x40)\n      dup1\n      swap2\n      sub\n      swap1\n      log1\n        /* \"contracts/myContract.sol\":2838:3278  {... */\n      pop\n        /* \"contracts/myContract.sol\":2740:3278  function distributePrize(uint256 hackathonId, address winner) external onlyOrganizer(hackathonId) {... */\n      pop\n      pop\n      pop\n      jump\t// out\n    tag_90:\n      dup3\n      dup1\n      sload\n      dup3\n      dup3\n      sstore\n      swap1\n      0x00\n      mstore\n      keccak256(0x00, 0x20)\n      swap1\n      dup2\n      add\n      swap3\n      dup3\n      iszero\n      tag_138\n      jumpi\n      swap2\n      0x20\n      mul\n      dup3\n      add\n    tag_139:\n      dup3\n      dup2\n      gt\n      iszero\n      tag_140\n      jumpi\n      dup3\n      mload\n      dup3\n      sstore\n      swap2\n      0x20\n      add\n      swap2\n      swap1\n      0x01\n      add\n      swap1\n      jump(tag_139)\n    tag_140:\n    tag_138:\n      pop\n      swap1\n      pop\n      tag_141\n      swap2\n      swap1\n      tag_142\n      jump\t// in\n    tag_141:\n      pop\n      swap1\n      jump\t// out\n    tag_142:\n    tag_143:\n      dup1\n      dup3\n      gt\n      iszero\n      tag_144\n      jumpi\n      0x00\n      dup2\n      0x00\n      swap1\n      sstore\n      pop\n      0x01\n      add\n      jump(tag_143)\n    tag_144:\n      pop\n      swap1\n      jump\t// out\n        /* \"#utility.yul\":7:82   */\n    tag_145:\n        /* \"#utility.yul\":40:46   */\n      0x00\n        /* \"#utility.yul\":73:75   */\n      0x40\n        /* \"#utility.yul\":67:76   */\n      mload\n        /* \"#utility.yul\":57:76   */\n      swap1\n      pop\n        /* \"#utility.yul\":7:82   */\n      swap1\n      jump\t// out\n        /* \"#utility.yul\":88:205   */\n    tag_146:\n        /* \"#utility.yul\":197:198   */\n      0x00\n        /* \"#utility.yul\":194:195   */\n      dup1\n        /* \"#utility.yul\":187:199   */\n      revert\n        /* \"#utility.yul\":211:328   */\n    tag_147:\n        /* \"#utility.yul\":320:321   */\n      0x00\n        /* \"#utility.yul\":317:318   */\n      dup1\n        /* \"#utility.yul\":310:322   */\n      revert\n        /* \"#utility.yul\":334:451   */\n    tag_148:\n        /* \"#utility.yul\":443:444   */\n      0x00\n        /* \"#utility.yul\":440:441   */\n      dup1\n        /* \"#utility.yul\":433:445   */\n      revert\n        /* \"#utility.yul\":457:574   */\n    tag_149:\n        /* \"#utility.yul\":566:567   */\n      0x00\n        /* \"#utility.yul\":563:564   */\n      dup1\n        /* \"#utility.yul\":556:568   */\n      revert\n        /* \"#utility.yul\":580:682   */\n    tag_150:\n        /* \"#utility.yul\":621:627   */\n      0x00\n        /* \"#utility.yul\":672:674   */\n      0x1f\n        /* \"#utility.yul\":668:675   */\n      not\n        /* \"#utility.yul\":663:665   */\n      0x1f\n        /* \"#utility.yul\":656:661   */\n      dup4\n        /* \"#utility.yul\":652:666   */\n      add\n        /* \"#utility.yul\":648:676   */\n      and\n        /* \"#utility.yul\":638:676   */\n      swap1\n      pop\n        /* \"#utility.yul\":580:682   */\n      swap2\n      swap1\n      pop\n      jump\t// out\n        /* \"#utility.yul\":688:868   */\n    tag_85:\n        /* \"#utility.yul\":736:813   */\n      0x4e487b7100000000000000000000000000000000000000000000000000000000\n        /* \"#utility.yul\":733:734   */\n      0x00\n        /* \"#utility.yul\":726:814   */\n      mstore\n        /* \"#utility.yul\":833:837   */\n      0x41\n        /* \"#utility.yul\":830:831   */\n      0x04\n        /* \"#utility.yul\":823:838   */\n      mstore\n        /* \"#utility.yul\":857:861   */\n      0x24\n        /* \"#utility.yul\":854:855   */\n      0x00\n        /* \"#utility.yul\":847:862   */\n      revert\n        /* \"#utility.yul\":874:1155   */\n    tag_151:\n        /* \"#utility.yul\":957:984   */\n      tag_222\n        /* \"#utility.yul\":979:983   */\n      dup3\n        /* \"#utility.yul\":957:984   */\n      tag_150\n      jump\t// in\n    tag_222:\n        /* \"#utility.yul\":949:955   */\n      dup2\n        /* \"#utility.yul\":945:985   */\n      add\n        /* \"#utility.yul\":1087:1093   */\n      dup2\n        /* \"#utility.yul\":1075:1085   */\n      dup2\n        /* \"#utility.yul\":1072:1094   */\n      lt\n        /* \"#utility.yul\":1051:1069   */\n      0xffffffffffffffff\n        /* \"#utility.yul\":1039:1049   */\n      dup3\n        /* \"#utility.yul\":1036:1070   */\n      gt\n        /* \"#utility.yul\":1033:1095   */\n      or\n        /* \"#utility.yul\":1030:1118   */\n      iszero\n      tag_223\n      jumpi\n        /* \"#utility.yul\":1098:1116   */\n      tag_224\n      tag_85\n      jump\t// in\n    tag_224:\n        /* \"#utility.yul\":1030:1118   */\n    tag_223:\n        /* \"#utility.yul\":1138:1148   */\n      dup1\n        /* \"#utility.yul\":1134:1136   */\n      0x40\n        /* \"#utility.yul\":1127:1149   */\n      mstore\n        /* \"#utility.yul\":917:1155   */\n      pop\n        /* \"#utility.yul\":874:1155   */\n      pop\n      pop\n      jump\t// out\n        /* \"#utility.yul\":1161:1290   */\n    tag_152:\n        /* \"#utility.yul\":1195:1201   */\n      0x00\n        /* \"#utility.yul\":1222:1242   */\n      tag_226\n      tag_145\n      jump\t// in\n    tag_226:\n        /* \"#utility.yul\":1212:1242   */\n      swap1\n      pop\n        /* \"#utility.yul\":1251:1284   */\n      tag_227\n        /* \"#utility.yul\":1279:1283   */\n      dup3\n        /* \"#utility.yul\":1271:1277   */\n      dup3\n        /* \"#utility.yul\":1251:1284   */\n      tag_151\n      jump\t// in\n    tag_227:\n        /* \"#utility.yul\":1161:1290   */\n      swap2\n      swap1\n      pop\n      jump\t// out\n        /* \"#utility.yul\":1296:1604   */\n    tag_153:\n        /* \"#utility.yul\":1358:1362   */\n      0x00\n        /* \"#utility.yul\":1448:1466   */\n      0xffffffffffffffff\n        /* \"#utility.yul\":1440:1446   */\n      dup3\n        /* \"#utility.yul\":1437:1467   */\n      gt\n        /* \"#utility.yul\":1434:1490   */\n      iszero\n      tag_229\n      jumpi\n        /* \"#utility.yul\":1470:1488   */\n      tag_230\n      tag_85\n      jump\t// in\n    tag_230:\n        /* \"#utility.yul\":1434:1490   */\n    tag_229:\n        /* \"#utility.yul\":1508:1537   */\n      tag_231\n        /* \"#utility.yul\":1530:1536   */\n      dup3\n        /* \"#utility.yul\":1508:1537   */\n      tag_150\n      jump\t// in\n    tag_231:\n        /* \"#utility.yul\":1500:1537   */\n      swap1\n      pop\n        /* \"#utility.yul\":1592:1596   */\n      0x20\n        /* \"#utility.yul\":1586:1590   */\n      dup2\n        /* \"#utility.yul\":1582:1597   */\n      add\n        /* \"#utility.yul\":1574:1597   */\n      swap1\n      pop\n        /* \"#utility.yul\":1296:1604   */\n      swap2\n      swap1\n      pop\n      jump\t// out\n        /* \"#utility.yul\":1610:1758   */\n    tag_154:\n        /* \"#utility.yul\":1708:1714   */\n      dup3\n        /* \"#utility.yul\":1703:1706   */\n      dup2\n        /* \"#utility.yul\":1698:1701   */\n      dup4\n        /* \"#utility.yul\":1685:1715   */\n      calldatacopy\n        /* \"#utility.yul\":1749:1750   */\n      0x00\n        /* \"#utility.yul\":1740:1746   */\n      dup4\n        /* \"#utility.yul\":1735:1738   */\n      dup4\n        /* \"#utility.yul\":1731:1747   */\n      add\n        /* \"#utility.yul\":1724:1751   */\n      mstore\n        /* \"#utility.yul\":1610:1758   */\n      pop\n      pop\n      pop\n      jump\t// out\n        /* \"#utility.yul\":1764:2189   */\n    tag_155:\n        /* \"#utility.yul\":1842:1847   */\n      0x00\n        /* \"#utility.yul\":1867:1933   */\n      tag_234\n        /* \"#utility.yul\":1883:1932   */\n      tag_235\n        /* \"#utility.yul\":1925:1931   */\n      dup5\n        /* \"#utility.yul\":1883:1932   */\n      tag_153\n      jump\t// in\n    tag_235:\n        /* \"#utility.yul\":1867:1933   */\n      tag_152\n      jump\t// in\n    tag_234:\n        /* \"#utility.yul\":1858:1933   */\n      swap1\n      pop\n        /* \"#utility.yul\":1956:1962   */\n      dup3\n        /* \"#utility.yul\":1949:1954   */\n      dup2\n        /* \"#utility.yul\":1942:1963   */\n      mstore\n        /* \"#utility.yul\":1994:1998   */\n      0x20\n        /* \"#utility.yul\":1987:1992   */\n      dup2\n        /* \"#utility.yul\":1983:1999   */\n      add\n        /* \"#utility.yul\":2032:2035   */\n      dup5\n        /* \"#utility.yul\":2023:2029   */\n      dup5\n        /* \"#utility.yul\":2018:2021   */\n      dup5\n        /* \"#utility.yul\":2014:2030   */\n      add\n        /* \"#utility.yul\":2011:2036   */\n      gt\n        /* \"#utility.yul\":2008:2120   */\n      iszero\n      tag_236\n      jumpi\n        /* \"#utility.yul\":2039:2118   */\n      tag_237\n      tag_149\n      jump\t// in\n    tag_237:\n        /* \"#utility.yul\":2008:2120   */\n    tag_236:\n        /* \"#utility.yul\":2129:2183   */\n      tag_238\n        /* \"#utility.yul\":2176:2182   */\n      dup5\n        /* \"#utility.yul\":2171:2174   */\n      dup3\n        /* \"#utility.yul\":2166:2169   */\n      dup6\n        /* \"#utility.yul\":2129:2183   */\n      tag_154\n      jump\t// in\n    tag_238:\n        /* \"#utility.yul\":1848:2189   */\n      pop\n        /* \"#utility.yul\":1764:2189   */\n      swap4\n      swap3\n      pop\n      pop\n      pop\n      jump\t// out\n        /* \"#utility.yul\":2209:2549   */\n    tag_156:\n        /* \"#utility.yul\":2265:2270   */\n      0x00\n        /* \"#utility.yul\":2314:2317   */\n      dup3\n        /* \"#utility.yul\":2307:2311   */\n      0x1f\n        /* \"#utility.yul\":2299:2305   */\n      dup4\n        /* \"#utility.yul\":2295:2312   */\n      add\n        /* \"#utility.yul\":2291:2318   */\n      slt\n        /* \"#utility.yul\":2281:2403   */\n      tag_240\n      jumpi\n        /* \"#utility.yul\":2322:2401   */\n      tag_241\n      tag_148\n      jump\t// in\n    tag_241:\n        /* \"#utility.yul\":2281:2403   */\n    tag_240:\n        /* \"#utility.yul\":2439:2445   */\n      dup2\n        /* \"#utility.yul\":2426:2446   */\n      calldataload\n        /* \"#utility.yul\":2464:2543   */\n      tag_242\n        /* \"#utility.yul\":2539:2542   */\n      dup5\n        /* \"#utility.yul\":2531:2537   */\n      dup3\n        /* \"#utility.yul\":2524:2528   */\n      0x20\n        /* \"#utility.yul\":2516:2522   */\n      dup7\n        /* \"#utility.yul\":2512:2529   */\n      add\n        /* \"#utility.yul\":2464:2543   */\n      tag_155\n      jump\t// in\n    tag_242:\n        /* \"#utility.yul\":2455:2543   */\n      swap2\n      pop\n        /* \"#utility.yul\":2271:2549   */\n      pop\n        /* \"#utility.yul\":2209:2549   */\n      swap3\n      swap2\n      pop\n      pop\n      jump\t// out\n        /* \"#utility.yul\":2555:2632   */\n    tag_157:\n        /* \"#utility.yul\":2592:2599   */\n      0x00\n        /* \"#utility.yul\":2621:2626   */\n      dup2\n        /* \"#utility.yul\":2610:2626   */\n      swap1\n      pop\n        /* \"#utility.yul\":2555:2632   */\n      swap2\n      swap1\n      pop\n      jump\t// out\n        /* \"#utility.yul\":2638:2760   */\n    tag_158:\n        /* \"#utility.yul\":2711:2735   */\n      tag_245\n        /* \"#utility.yul\":2729:2734   */\n      dup2\n        /* \"#utility.yul\":2711:2735   */\n      tag_157\n      jump\t// in\n    tag_245:\n        /* \"#utility.yul\":2704:2709   */\n      dup2\n        /* \"#utility.yul\":2701:2736   */\n      eq\n        /* \"#utility.yul\":2691:2754   */\n      tag_246\n      jumpi\n        /* \"#utility.yul\":2750:2751   */\n      0x00\n        /* \"#utility.yul\":2747:2748   */\n      dup1\n        /* \"#utility.yul\":2740:2752   */\n      revert\n        /* \"#utility.yul\":2691:2754   */\n    tag_246:\n        /* \"#utility.yul\":2638:2760   */\n      pop\n      jump\t// out\n        /* \"#utility.yul\":2766:2905   */\n    tag_159:\n        /* \"#utility.yul\":2812:2817   */\n      0x00\n        /* \"#utility.yul\":2850:2856   */\n      dup2\n        /* \"#utility.yul\":2837:2857   */\n      calldataload\n        /* \"#utility.yul\":2828:2857   */\n      swap1\n      pop\n        /* \"#utility.yul\":2866:2899   */\n      tag_248\n        /* \"#utility.yul\":2893:2898   */\n      dup2\n        /* \"#utility.yul\":2866:2899   */\n      tag_158\n      jump\t// in\n    tag_248:\n        /* \"#utility.yul\":2766:2905   */\n      swap3\n      swap2\n      pop\n      pop\n      jump\t// out\n        /* \"#utility.yul\":2911:3710   */\n    tag_19:\n        /* \"#utility.yul\":2998:3004   */\n      0x00\n        /* \"#utility.yul\":3006:3012   */\n      dup1\n        /* \"#utility.yul\":3014:3020   */\n      0x00\n        /* \"#utility.yul\":3063:3065   */\n      0x60\n        /* \"#utility.yul\":3051:3060   */\n      dup5\n        /* \"#utility.yul\":3042:3049   */\n      dup7\n        /* \"#utility.yul\":3038:3061   */\n      sub\n        /* \"#utility.yul\":3034:3066   */\n      slt\n        /* \"#utility.yul\":3031:3150   */\n      iszero\n      tag_250\n      jumpi\n        /* \"#utility.yul\":3069:3148   */\n      tag_251\n      tag_146\n      jump\t// in\n    tag_251:\n        /* \"#utility.yul\":3031:3150   */\n    tag_250:\n        /* \"#utility.yul\":3217:3218   */\n      0x00\n        /* \"#utility.yul\":3206:3215   */\n      dup5\n        /* \"#utility.yul\":3202:3219   */\n      add\n        /* \"#utility.yul\":3189:3220   */\n      calldataload\n        /* \"#utility.yul\":3247:3265   */\n      0xffffffffffffffff\n        /* \"#utility.yul\":3239:3245   */\n      dup2\n        /* \"#utility.yul\":3236:3266   */\n      gt\n        /* \"#utility.yul\":3233:3350   */\n      iszero\n      tag_252\n      jumpi\n        /* \"#utility.yul\":3269:3348   */\n      tag_253\n      tag_147\n      jump\t// in\n    tag_253:\n        /* \"#utility.yul\":3233:3350   */\n    tag_252:\n        /* \"#utility.yul\":3374:3437   */\n      tag_254\n        /* \"#utility.yul\":3429:3436   */\n      dup7\n        /* \"#utility.yul\":3420:3426   */\n      dup3\n        /* \"#utility.yul\":3409:3418   */\n      dup8\n        /* \"#utility.yul\":3405:3427   */\n      add\n        /* \"#utility.yul\":3374:3437   */\n      tag_156\n      jump\t// in\n    tag_254:\n        /* \"#utility.yul\":3364:3437   */\n      swap4\n      pop\n        /* \"#utility.yul\":3160:3447   */\n      pop\n        /* \"#utility.yul\":3486:3488   */\n      0x20\n        /* \"#utility.yul\":3512:3565   */\n      tag_255\n        /* \"#utility.yul\":3557:3564   */\n      dup7\n        /* \"#utility.yul\":3548:3554   */\n      dup3\n        /* \"#utility.yul\":3537:3546   */\n      dup8\n        /* \"#utility.yul\":3533:3555   */\n      add\n        /* \"#utility.yul\":3512:3565   */\n      tag_159\n      jump\t// in\n    tag_255:\n        /* \"#utility.yul\":3502:3565   */\n      swap3\n      pop\n        /* \"#utility.yul\":3457:3575   */\n      pop\n        /* \"#utility.yul\":3614:3616   */\n      0x40\n        /* \"#utility.yul\":3640:3693   */\n      tag_256\n        /* \"#utility.yul\":3685:3692   */\n      dup7\n        /* \"#utility.yul\":3676:3682   */\n      dup3\n        /* \"#utility.yul\":3665:3674   */\n      dup8\n        /* \"#utility.yul\":3661:3683   */\n      add\n        /* \"#utility.yul\":3640:3693   */\n      tag_159\n      jump\t// in\n    tag_256:\n        /* \"#utility.yul\":3630:3693   */\n      swap2\n      pop\n        /* \"#utility.yul\":3585:3703   */\n      pop\n        /* \"#utility.yul\":2911:3710   */\n      swap3\n      pop\n      swap3\n      pop\n      swap3\n      jump\t// out\n        /* \"#utility.yul\":3716:4550   */\n    tag_24:\n        /* \"#utility.yul\":3804:3810   */\n      0x00\n        /* \"#utility.yul\":3812:3818   */\n      dup1\n        /* \"#utility.yul\":3861:3863   */\n      0x40\n        /* \"#utility.yul\":3849:3858   */\n      dup4\n        /* \"#utility.yul\":3840:3847   */\n      dup6\n        /* \"#utility.yul\":3836:3859   */\n      sub\n        /* \"#utility.yul\":3832:3864   */\n      slt\n        /* \"#utility.yul\":3829:3948   */\n      iszero\n      tag_258\n      jumpi\n        /* \"#utility.yul\":3867:3946   */\n      tag_259\n      tag_146\n      jump\t// in\n    tag_259:\n        /* \"#utility.yul\":3829:3948   */\n    tag_258:\n        /* \"#utility.yul\":4015:4016   */\n      0x00\n        /* \"#utility.yul\":4004:4013   */\n      dup4\n        /* \"#utility.yul\":4000:4017   */\n      add\n        /* \"#utility.yul\":3987:4018   */\n      calldataload\n        /* \"#utility.yul\":4045:4063   */\n      0xffffffffffffffff\n        /* \"#utility.yul\":4037:4043   */\n      dup2\n        /* \"#utility.yul\":4034:4064   */\n      gt\n        /* \"#utility.yul\":4031:4148   */\n      iszero\n      tag_260\n      jumpi\n        /* \"#utility.yul\":4067:4146   */\n      tag_261\n      tag_147\n      jump\t// in\n    tag_261:\n        /* \"#utility.yul\":4031:4148   */\n    tag_260:\n        /* \"#utility.yul\":4172:4235   */\n      tag_262\n        /* \"#utility.yul\":4227:4234   */\n      dup6\n        /* \"#utility.yul\":4218:4224   */\n      dup3\n        /* \"#utility.yul\":4207:4216   */\n      dup7\n        /* \"#utility.yul\":4203:4225   */\n      add\n        /* \"#utility.yul\":4172:4235   */\n      tag_156\n      jump\t// in\n    tag_262:\n        /* \"#utility.yul\":4162:4235   */\n      swap3\n      pop\n        /* \"#utility.yul\":3958:4245   */\n      pop\n        /* \"#utility.yul\":4312:4314   */\n      0x20\n        /* \"#utility.yul\":4301:4310   */\n      dup4\n        /* \"#utility.yul\":4297:4315   */\n      add\n        /* \"#utility.yul\":4284:4316   */\n      calldataload\n        /* \"#utility.yul\":4343:4361   */\n      0xffffffffffffffff\n        /* \"#utility.yul\":4335:4341   */\n      dup2\n        /* \"#utility.yul\":4332:4362   */\n      gt\n        /* \"#utility.yul\":4329:4446   */\n      iszero\n      tag_263\n      jumpi\n        /* \"#utility.yul\":4365:4444   */\n      tag_264\n      tag_147\n      jump\t// in\n    tag_264:\n        /* \"#utility.yul\":4329:4446   */\n    tag_263:\n        /* \"#utility.yul\":4470:4533   */\n      tag_265\n        /* \"#utility.yul\":4525:4532   */\n      dup6\n        /* \"#utility.yul\":4516:4522   */\n      dup3\n        /* \"#utility.yul\":4505:4514   */\n      dup7\n        /* \"#utility.yul\":4501:4523   */\n      add\n        /* \"#utility.yul\":4470:4533   */\n      tag_156\n      jump\t// in\n    tag_265:\n        /* \"#utility.yul\":4460:4533   */\n      swap2\n      pop\n        /* \"#utility.yul\":4255:4543   */\n      pop\n        /* \"#utility.yul\":3716:4550   */\n      swap3\n      pop\n      swap3\n      swap1\n      pop\n      jump\t// out\n        /* \"#utility.yul\":4556:4674   */\n    tag_160:\n        /* \"#utility.yul\":4643:4667   */\n      tag_267\n        /* \"#utility.yul\":4661:4666   */\n      dup2\n        /* \"#utility.yul\":4643:4667   */\n      tag_157\n      jump\t// in\n    tag_267:\n        /* \"#utility.yul\":4638:4641   */\n      dup3\n        /* \"#utility.yul\":4631:4668   */\n      mstore\n        /* \"#utility.yul\":4556:4674   */\n      pop\n      pop\n      jump\t// out\n        /* \"#utility.yul\":4680:4902   */\n    tag_30:\n        /* \"#utility.yul\":4773:4777   */\n      0x00\n        /* \"#utility.yul\":4811:4813   */\n      0x20\n        /* \"#utility.yul\":4800:4809   */\n      dup3\n        /* \"#utility.yul\":4796:4814   */\n      add\n        /* \"#utility.yul\":4788:4814   */\n      swap1\n      pop\n        /* \"#utility.yul\":4824:4895   */\n      tag_269\n        /* \"#utility.yul\":4892:4893   */\n      0x00\n        /* \"#utility.yul\":4881:4890   */\n      dup4\n        /* \"#utility.yul\":4877:4894   */\n      add\n        /* \"#utility.yul\":4868:4874   */\n      dup5\n        /* \"#utility.yul\":4824:4895   */\n      tag_160\n      jump\t// in\n    tag_269:\n        /* \"#utility.yul\":4680:4902   */\n      swap3\n      swap2\n      pop\n      pop\n      jump\t// out\n        /* \"#utility.yul\":4908:5237   */\n    tag_33:\n        /* \"#utility.yul\":4967:4973   */\n      0x00\n        /* \"#utility.yul\":5016:5018   */\n      0x20\n        /* \"#utility.yul\":5004:5013   */\n      dup3\n        /* \"#utility.yul\":4995:5002   */\n      dup5\n        /* \"#utility.yul\":4991:5014   */\n      sub\n        /* \"#utility.yul\":4987:5019   */\n      slt\n        /* \"#utility.yul\":4984:5103   */\n      iszero\n      tag_271\n      jumpi\n        /* \"#utility.yul\":5022:5101   */\n      tag_272\n      tag_146\n      jump\t// in\n    tag_272:\n        /* \"#utility.yul\":4984:5103   */\n    tag_271:\n        /* \"#utility.yul\":5142:5143   */\n      0x00\n        /* \"#utility.yul\":5167:5220   */\n      tag_273\n        /* \"#utility.yul\":5212:5219   */\n      dup5\n        /* \"#utility.yul\":5203:5209   */\n      dup3\n        /* \"#utility.yul\":5192:5201   */\n      dup6\n        /* \"#utility.yul\":5188:5210   */\n      add\n        /* \"#utility.yul\":5167:5220   */\n      tag_159\n      jump\t// in\n    tag_273:\n        /* \"#utility.yul\":5157:5220   */\n      swap2\n      pop\n        /* \"#utility.yul\":5113:5230   */\n      pop\n        /* \"#utility.yul\":4908:5237   */\n      swap3\n      swap2\n      pop\n      pop\n      jump\t// out\n        /* \"#utility.yul\":5243:5369   */\n    tag_161:\n        /* \"#utility.yul\":5280:5287   */\n      0x00\n        /* \"#utility.yul\":5320:5362   */\n      0xffffffffffffffffffffffffffffffffffffffff\n        /* \"#utility.yul\":5313:5318   */\n      dup3\n        /* \"#utility.yul\":5309:5363   */\n      and\n        /* \"#utility.yul\":5298:5363   */\n      swap1\n      pop\n        /* \"#utility.yul\":5243:5369   */\n      swap2\n      swap1\n      pop\n      jump\t// out\n        /* \"#utility.yul\":5375:5471   */\n    tag_162:\n        /* \"#utility.yul\":5412:5419   */\n      0x00\n        /* \"#utility.yul\":5441:5465   */\n      tag_276\n        /* \"#utility.yul\":5459:5464   */\n      dup3\n        /* \"#utility.yul\":5441:5465   */\n      tag_161\n      jump\t// in\n    tag_276:\n        /* \"#utility.yul\":5430:5465   */\n      swap1\n      pop\n        /* \"#utility.yul\":5375:5471   */\n      swap2\n      swap1\n      pop\n      jump\t// out\n        /* \"#utility.yul\":5477:5599   */\n    tag_163:\n        /* \"#utility.yul\":5550:5574   */\n      tag_278\n        /* \"#utility.yul\":5568:5573   */\n      dup2\n        /* \"#utility.yul\":5550:5574   */\n      tag_162\n      jump\t// in\n    tag_278:\n        /* \"#utility.yul\":5543:5548   */\n      dup2\n        /* \"#utility.yul\":5540:5575   */\n      eq\n        /* \"#utility.yul\":5530:5593   */\n      tag_279\n      jumpi\n        /* \"#utility.yul\":5589:5590   */\n      0x00\n        /* \"#utility.yul\":5586:5587   */\n      dup1\n        /* \"#utility.yul\":5579:5591   */\n      revert\n        /* \"#utility.yul\":5530:5593   */\n    tag_279:\n        /* \"#utility.yul\":5477:5599   */\n      pop\n      jump\t// out\n        /* \"#utility.yul\":5605:5744   */\n    tag_164:\n        /* \"#utility.yul\":5651:5656   */\n      0x00\n        /* \"#utility.yul\":5689:5695   */\n      dup2\n        /* \"#utility.yul\":5676:5696   */\n      calldataload\n        /* \"#utility.yul\":5667:5696   */\n      swap1\n      pop\n        /* \"#utility.yul\":5705:5738   */\n      tag_281\n        /* \"#utility.yul\":5732:5737   */\n      dup2\n        /* \"#utility.yul\":5705:5738   */\n      tag_163\n      jump\t// in\n    tag_281:\n        /* \"#utility.yul\":5605:5744   */\n      swap3\n      swap2\n      pop\n      pop\n      jump\t// out\n        /* \"#utility.yul\":5750:6079   */\n    tag_38:\n        /* \"#utility.yul\":5809:5815   */\n      0x00\n        /* \"#utility.yul\":5858:5860   */\n      0x20\n        /* \"#utility.yul\":5846:5855   */\n      dup3\n        /* \"#utility.yul\":5837:5844   */\n      dup5\n        /* \"#utility.yul\":5833:5856   */\n      sub\n        /* \"#utility.yul\":5829:5861   */\n      slt\n        /* \"#utility.yul\":5826:5945   */\n      iszero\n      tag_283\n      jumpi\n        /* \"#utility.yul\":5864:5943   */\n      tag_284\n      tag_146\n      jump\t// in\n    tag_284:\n        /* \"#utility.yul\":5826:5945   */\n    tag_283:\n        /* \"#utility.yul\":5984:5985   */\n      0x00\n        /* \"#utility.yul\":6009:6062   */\n      tag_285\n        /* \"#utility.yul\":6054:6061   */\n      dup5\n        /* \"#utility.yul\":6045:6051   */\n      dup3\n        /* \"#utility.yul\":6034:6043   */\n      dup6\n        /* \"#utility.yul\":6030:6052   */\n      add\n        /* \"#utility.yul\":6009:6062   */\n      tag_164\n      jump\t// in\n    tag_285:\n        /* \"#utility.yul\":5999:6062   */\n      swap2\n      pop\n        /* \"#utility.yul\":5955:6072   */\n      pop\n        /* \"#utility.yul\":5750:6079   */\n      swap3\n      swap2\n      pop\n      pop\n      jump\t// out\n        /* \"#utility.yul\":6085:6199   */\n    tag_165:\n        /* \"#utility.yul\":6152:6158   */\n      0x00\n        /* \"#utility.yul\":6186:6191   */\n      dup2\n        /* \"#utility.yul\":6180:6192   */\n      mload\n        /* \"#utility.yul\":6170:6192   */\n      swap1\n      pop\n        /* \"#utility.yul\":6085:6199   */\n      swap2\n      swap1\n      pop\n      jump\t// out\n        /* \"#utility.yul\":6205:6389   */\n    tag_166:\n        /* \"#utility.yul\":6304:6315   */\n      0x00\n        /* \"#utility.yul\":6338:6344   */\n      dup3\n        /* \"#utility.yul\":6333:6336   */\n      dup3\n        /* \"#utility.yul\":6326:6345   */\n      mstore\n        /* \"#utility.yul\":6378:6382   */\n      0x20\n        /* \"#utility.yul\":6373:6376   */\n      dup3\n        /* \"#utility.yul\":6369:6383   */\n      add\n        /* \"#utility.yul\":6354:6383   */\n      swap1\n      pop\n        /* \"#utility.yul\":6205:6389   */\n      swap3\n      swap2\n      pop\n      pop\n      jump\t// out\n        /* \"#utility.yul\":6395:6527   */\n    tag_167:\n        /* \"#utility.yul\":6462:6466   */\n      0x00\n        /* \"#utility.yul\":6485:6488   */\n      dup2\n        /* \"#utility.yul\":6477:6488   */\n      swap1\n      pop\n        /* \"#utility.yul\":6515:6519   */\n      0x20\n        /* \"#utility.yul\":6510:6513   */\n      dup3\n        /* \"#utility.yul\":6506:6520   */\n      add\n        /* \"#utility.yul\":6498:6520   */\n      swap1\n      pop\n        /* \"#utility.yul\":6395:6527   */\n      swap2\n      swap1\n      pop\n      jump\t// out\n        /* \"#utility.yul\":6533:6641   */\n    tag_168:\n        /* \"#utility.yul\":6610:6634   */\n      tag_290\n        /* \"#utility.yul\":6628:6633   */\n      dup2\n        /* \"#utility.yul\":6610:6634   */\n      tag_157\n      jump\t// in\n    tag_290:\n        /* \"#utility.yul\":6605:6608   */\n      dup3\n        /* \"#utility.yul\":6598:6635   */\n      mstore\n        /* \"#utility.yul\":6533:6641   */\n      pop\n      pop\n      jump\t// out\n        /* \"#utility.yul\":6647:6826   */\n    tag_169:\n        /* \"#utility.yul\":6716:6726   */\n      0x00\n        /* \"#utility.yul\":6737:6783   */\n      tag_292\n        /* \"#utility.yul\":6779:6782   */\n      dup4\n        /* \"#utility.yul\":6771:6777   */\n      dup4\n        /* \"#utility.yul\":6737:6783   */\n      tag_168\n      jump\t// in\n    tag_292:\n        /* \"#utility.yul\":6815:6819   */\n      0x20\n        /* \"#utility.yul\":6810:6813   */\n      dup4\n        /* \"#utility.yul\":6806:6820   */\n      add\n        /* \"#utility.yul\":6792:6820   */\n      swap1\n      pop\n        /* \"#utility.yul\":6647:6826   */\n      swap3\n      swap2\n      pop\n      pop\n      jump\t// out\n        /* \"#utility.yul\":6832:6945   */\n    tag_170:\n        /* \"#utility.yul\":6902:6906   */\n      0x00\n        /* \"#utility.yul\":6934:6938   */\n      0x20\n        /* \"#utility.yul\":6929:6932   */\n      dup3\n        /* \"#utility.yul\":6925:6939   */\n      add\n        /* \"#utility.yul\":6917:6939   */\n      swap1\n      pop\n        /* \"#utility.yul\":6832:6945   */\n      swap2\n      swap1\n      pop\n      jump\t// out\n        /* \"#utility.yul\":6981:7713   */\n    tag_171:\n        /* \"#utility.yul\":7100:7103   */\n      0x00\n        /* \"#utility.yul\":7129:7183   */\n      tag_295\n        /* \"#utility.yul\":7177:7182   */\n      dup3\n        /* \"#utility.yul\":7129:7183   */\n      tag_165\n      jump\t// in\n    tag_295:\n        /* \"#utility.yul\":7199:7285   */\n      tag_296\n        /* \"#utility.yul\":7278:7284   */\n      dup2\n        /* \"#utility.yul\":7273:7276   */\n      dup6\n        /* \"#utility.yul\":7199:7285   */\n      tag_166\n      jump\t// in\n    tag_296:\n        /* \"#utility.yul\":7192:7285   */\n      swap4\n      pop\n        /* \"#utility.yul\":7309:7365   */\n      tag_297\n        /* \"#utility.yul\":7359:7364   */\n      dup4\n        /* \"#utility.yul\":7309:7365   */\n      tag_167\n      jump\t// in\n    tag_297:\n        /* \"#utility.yul\":7388:7395   */\n      dup1\n        /* \"#utility.yul\":7419:7420   */\n      0x00\n        /* \"#utility.yul\":7404:7688   */\n    tag_298:\n        /* \"#utility.yul\":7429:7435   */\n      dup4\n        /* \"#utility.yul\":7426:7427   */\n      dup2\n        /* \"#utility.yul\":7423:7436   */\n      lt\n        /* \"#utility.yul\":7404:7688   */\n      iszero\n      tag_300\n      jumpi\n        /* \"#utility.yul\":7505:7511   */\n      dup2\n        /* \"#utility.yul\":7499:7512   */\n      mload\n        /* \"#utility.yul\":7532:7595   */\n      tag_301\n        /* \"#utility.yul\":7591:7594   */\n      dup9\n        /* \"#utility.yul\":7576:7589   */\n      dup3\n        /* \"#utility.yul\":7532:7595   */\n      tag_169\n      jump\t// in\n    tag_301:\n        /* \"#utility.yul\":7525:7595   */\n      swap8\n      pop\n        /* \"#utility.yul\":7618:7678   */\n      tag_302\n        /* \"#utility.yul\":7671:7677   */\n      dup4\n        /* \"#utility.yul\":7618:7678   */\n      tag_170\n      jump\t// in\n    tag_302:\n        /* \"#utility.yul\":7608:7678   */\n      swap3\n      pop\n        /* \"#utility.yul\":7464:7688   */\n      pop\n        /* \"#utility.yul\":7451:7452   */\n      0x01\n        /* \"#utility.yul\":7448:7449   */\n      dup2\n        /* \"#utility.yul\":7444:7453   */\n      add\n        /* \"#utility.yul\":7439:7453   */\n      swap1\n      pop\n        /* \"#utility.yul\":7404:7688   */\n      jump(tag_298)\n    tag_300:\n        /* \"#utility.yul\":7408:7422   */\n      pop\n        /* \"#utility.yul\":7704:7707   */\n      dup6\n        /* \"#utility.yul\":7697:7707   */\n      swap4\n      pop\n        /* \"#utility.yul\":7105:7713   */\n      pop\n      pop\n      pop\n        /* \"#utility.yul\":6981:7713   */\n      swap3\n      swap2\n      pop\n      pop\n      jump\t// out\n        /* \"#utility.yul\":7719:8092   */\n    tag_41:\n        /* \"#utility.yul\":7862:7866   */\n      0x00\n        /* \"#utility.yul\":7900:7902   */\n      0x20\n        /* \"#utility.yul\":7889:7898   */\n      dup3\n        /* \"#utility.yul\":7885:7903   */\n      add\n        /* \"#utility.yul\":7877:7903   */\n      swap1\n      pop\n        /* \"#utility.yul\":7949:7958   */\n      dup2\n        /* \"#utility.yul\":7943:7947   */\n      dup2\n        /* \"#utility.yul\":7939:7959   */\n      sub\n        /* \"#utility.yul\":7935:7936   */\n      0x00\n        /* \"#utility.yul\":7924:7933   */\n      dup4\n        /* \"#utility.yul\":7920:7937   */\n      add\n        /* \"#utility.yul\":7913:7960   */\n      mstore\n        /* \"#utility.yul\":7977:8085   */\n      tag_304\n        /* \"#utility.yul\":8080:8084   */\n      dup2\n        /* \"#utility.yul\":8071:8077   */\n      dup5\n        /* \"#utility.yul\":7977:8085   */\n      tag_171\n      jump\t// in\n    tag_304:\n        /* \"#utility.yul\":7969:8085   */\n      swap1\n      pop\n        /* \"#utility.yul\":7719:8092   */\n      swap3\n      swap2\n      pop\n      pop\n      jump\t// out\n        /* \"#utility.yul\":8098:8216   */\n    tag_172:\n        /* \"#utility.yul\":8185:8209   */\n      tag_306\n        /* \"#utility.yul\":8203:8208   */\n      dup2\n        /* \"#utility.yul\":8185:8209   */\n      tag_162\n      jump\t// in\n    tag_306:\n        /* \"#utility.yul\":8180:8183   */\n      dup3\n        /* \"#utility.yul\":8173:8210   */\n      mstore\n        /* \"#utility.yul\":8098:8216   */\n      pop\n      pop\n      jump\t// out\n        /* \"#utility.yul\":8222:8444   */\n    tag_46:\n        /* \"#utility.yul\":8315:8319   */\n      0x00\n        /* \"#utility.yul\":8353:8355   */\n      0x20\n        /* \"#utility.yul\":8342:8351   */\n      dup3\n        /* \"#utility.yul\":8338:8356   */\n      add\n        /* \"#utility.yul\":8330:8356   */\n      swap1\n      pop\n        /* \"#utility.yul\":8366:8437   */\n      tag_308\n        /* \"#utility.yul\":8434:8435   */\n      0x00\n        /* \"#utility.yul\":8423:8432   */\n      dup4\n        /* \"#utility.yul\":8419:8436   */\n      add\n        /* \"#utility.yul\":8410:8416   */\n      dup5\n        /* \"#utility.yul\":8366:8437   */\n      tag_172\n      jump\t// in\n    tag_308:\n        /* \"#utility.yul\":8222:8444   */\n      swap3\n      swap2\n      pop\n      pop\n      jump\t// out\n        /* \"#utility.yul\":8450:8564   */\n    tag_173:\n        /* \"#utility.yul\":8517:8523   */\n      0x00\n        /* \"#utility.yul\":8551:8556   */\n      dup2\n        /* \"#utility.yul\":8545:8557   */\n      mload\n        /* \"#utility.yul\":8535:8557   */\n      swap1\n      pop\n        /* \"#utility.yul\":8450:8564   */\n      swap2\n      swap1\n      pop\n      jump\t// out\n        /* \"#utility.yul\":8570:8754   */\n    tag_174:\n        /* \"#utility.yul\":8669:8680   */\n      0x00\n        /* \"#utility.yul\":8703:8709   */\n      dup3\n        /* \"#utility.yul\":8698:8701   */\n      dup3\n        /* \"#utility.yul\":8691:8710   */\n      mstore\n        /* \"#utility.yul\":8743:8747   */\n      0x20\n        /* \"#utility.yul\":8738:8741   */\n      dup3\n        /* \"#utility.yul\":8734:8748   */\n      add\n        /* \"#utility.yul\":8719:8748   */\n      swap1\n      pop\n        /* \"#utility.yul\":8570:8754   */\n      swap3\n      swap2\n      pop\n      pop\n      jump\t// out\n        /* \"#utility.yul\":8760:8892   */\n    tag_175:\n        /* \"#utility.yul\":8827:8831   */\n      0x00\n        /* \"#utility.yul\":8850:8853   */\n      dup2\n        /* \"#utility.yul\":8842:8853   */\n      swap1\n      pop\n        /* \"#utility.yul\":8880:8884   */\n      0x20\n        /* \"#utility.yul\":8875:8878   */\n      dup3\n        /* \"#utility.yul\":8871:8885   */\n      add\n        /* \"#utility.yul\":8863:8885   */\n      swap1\n      pop\n        /* \"#utility.yul\":8760:8892   */\n      swap2\n      swap1\n      pop\n      jump\t// out\n        /* \"#utility.yul\":8898:9006   */\n    tag_176:\n        /* \"#utility.yul\":8975:8999   */\n      tag_313\n        /* \"#utility.yul\":8993:8998   */\n      dup2\n        /* \"#utility.yul\":8975:8999   */\n      tag_162\n      jump\t// in\n    tag_313:\n        /* \"#utility.yul\":8970:8973   */\n      dup3\n        /* \"#utility.yul\":8963:9000   */\n      mstore\n        /* \"#utility.yul\":8898:9006   */\n      pop\n      pop\n      jump\t// out\n        /* \"#utility.yul\":9012:9191   */\n    tag_177:\n        /* \"#utility.yul\":9081:9091   */\n      0x00\n        /* \"#utility.yul\":9102:9148   */\n      tag_315\n        /* \"#utility.yul\":9144:9147   */\n      dup4\n        /* \"#utility.yul\":9136:9142   */\n      dup4\n        /* \"#utility.yul\":9102:9148   */\n      tag_176\n      jump\t// in\n    tag_315:\n        /* \"#utility.yul\":9180:9184   */\n      0x20\n        /* \"#utility.yul\":9175:9178   */\n      dup4\n        /* \"#utility.yul\":9171:9185   */\n      add\n        /* \"#utility.yul\":9157:9185   */\n      swap1\n      pop\n        /* \"#utility.yul\":9012:9191   */\n      swap3\n      swap2\n      pop\n      pop\n      jump\t// out\n        /* \"#utility.yul\":9197:9310   */\n    tag_178:\n        /* \"#utility.yul\":9267:9271   */\n      0x00\n        /* \"#utility.yul\":9299:9303   */\n      0x20\n        /* \"#utility.yul\":9294:9297   */\n      dup3\n        /* \"#utility.yul\":9290:9304   */\n      add\n        /* \"#utility.yul\":9282:9304   */\n      swap1\n      pop\n        /* \"#utility.yul\":9197:9310   */\n      swap2\n      swap1\n      pop\n      jump\t// out\n        /* \"#utility.yul\":9346:10078   */\n    tag_179:\n        /* \"#utility.yul\":9465:9468   */\n      0x00\n        /* \"#utility.yul\":9494:9548   */\n      tag_318\n        /* \"#utility.yul\":9542:9547   */\n      dup3\n        /* \"#utility.yul\":9494:9548   */\n      tag_173\n      jump\t// in\n    tag_318:\n        /* \"#utility.yul\":9564:9650   */\n      tag_319\n        /* \"#utility.yul\":9643:9649   */\n      dup2\n        /* \"#utility.yul\":9638:9641   */\n      dup6\n        /* \"#utility.yul\":9564:9650   */\n      tag_174\n      jump\t// in\n    tag_319:\n        /* \"#utility.yul\":9557:9650   */\n      swap4\n      pop\n        /* \"#utility.yul\":9674:9730   */\n      tag_320\n        /* \"#utility.yul\":9724:9729   */\n      dup4\n        /* \"#utility.yul\":9674:9730   */\n      tag_175\n      jump\t// in\n    tag_320:\n        /* \"#utility.yul\":9753:9760   */\n      dup1\n        /* \"#utility.yul\":9784:9785   */\n      0x00\n        /* \"#utility.yul\":9769:10053   */\n    tag_321:\n        /* \"#utility.yul\":9794:9800   */\n      dup4\n        /* \"#utility.yul\":9791:9792   */\n      dup2\n        /* \"#utility.yul\":9788:9801   */\n      lt\n        /* \"#utility.yul\":9769:10053   */\n      iszero\n      tag_323\n      jumpi\n        /* \"#utility.yul\":9870:9876   */\n      dup2\n        /* \"#utility.yul\":9864:9877   */\n      mload\n        /* \"#utility.yul\":9897:9960   */\n      tag_324\n        /* \"#utility.yul\":9956:9959   */\n      dup9\n        /* \"#utility.yul\":9941:9954   */\n      dup3\n        /* \"#utility.yul\":9897:9960   */\n      tag_177\n      jump\t// in\n    tag_324:\n        /* \"#utility.yul\":9890:9960   */\n      swap8\n      pop\n        /* \"#utility.yul\":9983:10043   */\n      tag_325\n        /* \"#utility.yul\":10036:10042   */\n      dup4\n        /* \"#utility.yul\":9983:10043   */\n      tag_178\n      jump\t// in\n    tag_325:\n        /* \"#utility.yul\":9973:10043   */\n      swap3\n      pop\n        /* \"#utility.yul\":9829:10053   */\n      pop\n        /* \"#utility.yul\":9816:9817   */\n      0x01\n        /* \"#utility.yul\":9813:9814   */\n      dup2\n        /* \"#utility.yul\":9809:9818   */\n      add\n        /* \"#utility.yul\":9804:9818   */\n      swap1\n      pop\n        /* \"#utility.yul\":9769:10053   */\n      jump(tag_321)\n    tag_323:\n        /* \"#utility.yul\":9773:9787   */\n      pop\n        /* \"#utility.yul\":10069:10072   */\n      dup6\n        /* \"#utility.yul\":10062:10072   */\n      swap4\n      pop\n        /* \"#utility.yul\":9470:10078   */\n      pop\n      pop\n      pop\n        /* \"#utility.yul\":9346:10078   */\n      swap3\n      swap2\n      pop\n      pop\n      jump\t// out\n        /* \"#utility.yul\":10084:10457   */\n    tag_52:\n        /* \"#utility.yul\":10227:10231   */\n      0x00\n        /* \"#utility.yul\":10265:10267   */\n      0x20\n        /* \"#utility.yul\":10254:10263   */\n      dup3\n        /* \"#utility.yul\":10250:10268   */\n      add\n        /* \"#utility.yul\":10242:10268   */\n      swap1\n      pop\n        /* \"#utility.yul\":10314:10323   */\n      dup2\n        /* \"#utility.yul\":10308:10312   */\n      dup2\n        /* \"#utility.yul\":10304:10324   */\n      sub\n        /* \"#utility.yul\":10300:10301   */\n      0x00\n        /* \"#utility.yul\":10289:10298   */\n      dup4\n        /* \"#utility.yul\":10285:10302   */\n      add\n        /* \"#utility.yul\":10278:10325   */\n      mstore\n        /* \"#utility.yul\":10342:10450   */\n      tag_327\n        /* \"#utility.yul\":10445:10449   */\n      dup2\n        /* \"#utility.yul\":10436:10442   */\n      dup5\n        /* \"#utility.yul\":10342:10450   */\n      tag_179\n      jump\t// in\n    tag_327:\n        /* \"#utility.yul\":10334:10450   */\n      swap1\n      pop\n        /* \"#utility.yul\":10084:10457   */\n      swap3\n      swap2\n      pop\n      pop\n      jump\t// out\n        /* \"#utility.yul\":10463:10562   */\n    tag_180:\n        /* \"#utility.yul\":10515:10521   */\n      0x00\n        /* \"#utility.yul\":10549:10554   */\n      dup2\n        /* \"#utility.yul\":10543:10555   */\n      mload\n        /* \"#utility.yul\":10533:10555   */\n      swap1\n      pop\n        /* \"#utility.yul\":10463:10562   */\n      swap2\n      swap1\n      pop\n      jump\t// out\n        /* \"#utility.yul\":10568:10737   */\n    tag_181:\n        /* \"#utility.yul\":10652:10663   */\n      0x00\n        /* \"#utility.yul\":10686:10692   */\n      dup3\n        /* \"#utility.yul\":10681:10684   */\n      dup3\n        /* \"#utility.yul\":10674:10693   */\n      mstore\n        /* \"#utility.yul\":10726:10730   */\n      0x20\n        /* \"#utility.yul\":10721:10724   */\n      dup3\n        /* \"#utility.yul\":10717:10731   */\n      add\n        /* \"#utility.yul\":10702:10731   */\n      swap1\n      pop\n        /* \"#utility.yul\":10568:10737   */\n      swap3\n      swap2\n      pop\n      pop\n      jump\t// out\n        /* \"#utility.yul\":10743:10882   */\n    tag_182:\n        /* \"#utility.yul\":10832:10838   */\n      dup3\n        /* \"#utility.yul\":10827:10830   */\n      dup2\n        /* \"#utility.yul\":10822:10825   */\n      dup4\n        /* \"#utility.yul\":10816:10839   */\n      mcopy\n        /* \"#utility.yul\":10873:10874   */\n      0x00\n        /* \"#utility.yul\":10864:10870   */\n      dup4\n        /* \"#utility.yul\":10859:10862   */\n      dup4\n        /* \"#utility.yul\":10855:10871   */\n      add\n        /* \"#utility.yul\":10848:10875   */\n      mstore\n        /* \"#utility.yul\":10743:10882   */\n      pop\n      pop\n      pop\n      jump\t// out\n        /* \"#utility.yul\":10888:11265   */\n    tag_183:\n        /* \"#utility.yul\":10976:10979   */\n      0x00\n        /* \"#utility.yul\":11004:11043   */\n      tag_332\n        /* \"#utility.yul\":11037:11042   */\n      dup3\n        /* \"#utility.yul\":11004:11043   */\n      tag_180\n      jump\t// in\n    tag_332:\n        /* \"#utility.yul\":11059:11130   */\n      tag_333\n        /* \"#utility.yul\":11123:11129   */\n      dup2\n        /* \"#utility.yul\":11118:11121   */\n      dup6\n        /* \"#utility.yul\":11059:11130   */\n      tag_181\n      jump\t// in\n    tag_333:\n        /* \"#utility.yul\":11052:11130   */\n      swap4\n      pop\n        /* \"#utility.yul\":11139:11204   */\n      tag_334\n        /* \"#utility.yul\":11197:11203   */\n      dup2\n        /* \"#utility.yul\":11192:11195   */\n      dup6\n        /* \"#utility.yul\":11185:11189   */\n      0x20\n        /* \"#utility.yul\":11178:11183   */\n      dup7\n        /* \"#utility.yul\":11174:11190   */\n      add\n        /* \"#utility.yul\":11139:11204   */\n      tag_182\n      jump\t// in\n    tag_334:\n        /* \"#utility.yul\":11229:11258   */\n      tag_335\n        /* \"#utility.yul\":11251:11257   */\n      dup2\n        /* \"#utility.yul\":11229:11258   */\n      tag_150\n      jump\t// in\n    tag_335:\n        /* \"#utility.yul\":11224:11227   */\n      dup5\n        /* \"#utility.yul\":11220:11259   */\n      add\n        /* \"#utility.yul\":11213:11259   */\n      swap2\n      pop\n        /* \"#utility.yul\":10980:11265   */\n      pop\n        /* \"#utility.yul\":10888:11265   */\n      swap3\n      swap2\n      pop\n      pop\n      jump\t// out\n        /* \"#utility.yul\":11271:11895   */\n    tag_58:\n        /* \"#utility.yul\":11460:11464   */\n      0x00\n        /* \"#utility.yul\":11498:11500   */\n      0x60\n        /* \"#utility.yul\":11487:11496   */\n      dup3\n        /* \"#utility.yul\":11483:11501   */\n      add\n        /* \"#utility.yul\":11475:11501   */\n      swap1\n      pop\n        /* \"#utility.yul\":11511:11582   */\n      tag_337\n        /* \"#utility.yul\":11579:11580   */\n      0x00\n        /* \"#utility.yul\":11568:11577   */\n      dup4\n        /* \"#utility.yul\":11564:11581   */\n      add\n        /* \"#utility.yul\":11555:11561   */\n      dup7\n        /* \"#utility.yul\":11511:11582   */\n      tag_172\n      jump\t// in\n    tag_337:\n        /* \"#utility.yul\":11629:11638   */\n      dup2\n        /* \"#utility.yul\":11623:11627   */\n      dup2\n        /* \"#utility.yul\":11619:11639   */\n      sub\n        /* \"#utility.yul\":11614:11616   */\n      0x20\n        /* \"#utility.yul\":11603:11612   */\n      dup4\n        /* \"#utility.yul\":11599:11617   */\n      add\n        /* \"#utility.yul\":11592:11640   */\n      mstore\n        /* \"#utility.yul\":11657:11735   */\n      tag_338\n        /* \"#utility.yul\":11730:11734   */\n      dup2\n        /* \"#utility.yul\":11721:11727   */\n      dup6\n        /* \"#utility.yul\":11657:11735   */\n      tag_183\n      jump\t// in\n    tag_338:\n        /* \"#utility.yul\":11649:11735   */\n      swap1\n      pop\n        /* \"#utility.yul\":11782:11791   */\n      dup2\n        /* \"#utility.yul\":11776:11780   */\n      dup2\n        /* \"#utility.yul\":11772:11792   */\n      sub\n        /* \"#utility.yul\":11767:11769   */\n      0x40\n        /* \"#utility.yul\":11756:11765   */\n      dup4\n        /* \"#utility.yul\":11752:11770   */\n      add\n        /* \"#utility.yul\":11745:11793   */\n      mstore\n        /* \"#utility.yul\":11810:11888   */\n      tag_339\n        /* \"#utility.yul\":11883:11887   */\n      dup2\n        /* \"#utility.yul\":11874:11880   */\n      dup5\n        /* \"#utility.yul\":11810:11888   */\n      tag_183\n      jump\t// in\n    tag_339:\n        /* \"#utility.yul\":11802:11888   */\n      swap1\n      pop\n        /* \"#utility.yul\":11271:11895   */\n      swap5\n      swap4\n      pop\n      pop\n      pop\n      pop\n      jump\t// out\n        /* \"#utility.yul\":11901:11991   */\n    tag_184:\n        /* \"#utility.yul\":11935:11942   */\n      0x00\n        /* \"#utility.yul\":11978:11983   */\n      dup2\n        /* \"#utility.yul\":11971:11984   */\n      iszero\n        /* \"#utility.yul\":11964:11985   */\n      iszero\n        /* \"#utility.yul\":11953:11985   */\n      swap1\n      pop\n        /* \"#utility.yul\":11901:11991   */\n      swap2\n      swap1\n      pop\n      jump\t// out\n        /* \"#utility.yul\":11997:12106   */\n    tag_185:\n        /* \"#utility.yul\":12078:12099   */\n      tag_342\n        /* \"#utility.yul\":12093:12098   */\n      dup2\n        /* \"#utility.yul\":12078:12099   */\n      tag_184\n      jump\t// in\n    tag_342:\n        /* \"#utility.yul\":12073:12076   */\n      dup3\n        /* \"#utility.yul\":12066:12100   */\n      mstore\n        /* \"#utility.yul\":11997:12106   */\n      pop\n      pop\n      jump\t// out\n        /* \"#utility.yul\":12112:12966   */\n    tag_64:\n        /* \"#utility.yul\":12359:12363   */\n      0x00\n        /* \"#utility.yul\":12397:12400   */\n      0xc0\n        /* \"#utility.yul\":12386:12395   */\n      dup3\n        /* \"#utility.yul\":12382:12401   */\n      add\n        /* \"#utility.yul\":12374:12401   */\n      swap1\n      pop\n        /* \"#utility.yul\":12411:12482   */\n      tag_344\n        /* \"#utility.yul\":12479:12480   */\n      0x00\n        /* \"#utility.yul\":12468:12477   */\n      dup4\n        /* \"#utility.yul\":12464:12481   */\n      add\n        /* \"#utility.yul\":12455:12461   */\n      dup10\n        /* \"#utility.yul\":12411:12482   */\n      tag_160\n      jump\t// in\n    tag_344:\n        /* \"#utility.yul\":12529:12538   */\n      dup2\n        /* \"#utility.yul\":12523:12527   */\n      dup2\n        /* \"#utility.yul\":12519:12539   */\n      sub\n        /* \"#utility.yul\":12514:12516   */\n      0x20\n        /* \"#utility.yul\":12503:12512   */\n      dup4\n        /* \"#utility.yul\":12499:12517   */\n      add\n        /* \"#utility.yul\":12492:12540   */\n      mstore\n        /* \"#utility.yul\":12557:12635   */\n      tag_345\n        /* \"#utility.yul\":12630:12634   */\n      dup2\n        /* \"#utility.yul\":12621:12627   */\n      dup9\n        /* \"#utility.yul\":12557:12635   */\n      tag_183\n      jump\t// in\n    tag_345:\n        /* \"#utility.yul\":12549:12635   */\n      swap1\n      pop\n        /* \"#utility.yul\":12645:12717   */\n      tag_346\n        /* \"#utility.yul\":12713:12715   */\n      0x40\n        /* \"#utility.yul\":12702:12711   */\n      dup4\n        /* \"#utility.yul\":12698:12716   */\n      add\n        /* \"#utility.yul\":12689:12695   */\n      dup8\n        /* \"#utility.yul\":12645:12717   */\n      tag_160\n      jump\t// in\n    tag_346:\n        /* \"#utility.yul\":12727:12799   */\n      tag_347\n        /* \"#utility.yul\":12795:12797   */\n      0x60\n        /* \"#utility.yul\":12784:12793   */\n      dup4\n        /* \"#utility.yul\":12780:12798   */\n      add\n        /* \"#utility.yul\":12771:12777   */\n      dup7\n        /* \"#utility.yul\":12727:12799   */\n      tag_160\n      jump\t// in\n    tag_347:\n        /* \"#utility.yul\":12809:12882   */\n      tag_348\n        /* \"#utility.yul\":12877:12880   */\n      0x80\n        /* \"#utility.yul\":12866:12875   */\n      dup4\n        /* \"#utility.yul\":12862:12881   */\n      add\n        /* \"#utility.yul\":12853:12859   */\n      dup6\n        /* \"#utility.yul\":12809:12882   */\n      tag_172\n      jump\t// in\n    tag_348:\n        /* \"#utility.yul\":12892:12959   */\n      tag_349\n        /* \"#utility.yul\":12954:12957   */\n      0xa0\n        /* \"#utility.yul\":12943:12952   */\n      dup4\n        /* \"#utility.yul\":12939:12958   */\n      add\n        /* \"#utility.yul\":12930:12936   */\n      dup5\n        /* \"#utility.yul\":12892:12959   */\n      tag_185\n      jump\t// in\n    tag_349:\n        /* \"#utility.yul\":12112:12966   */\n      swap8\n      swap7\n      pop\n      pop\n      pop\n      pop\n      pop\n      pop\n      pop\n      jump\t// out\n        /* \"#utility.yul\":12972:13446   */\n    tag_68:\n        /* \"#utility.yul\":13040:13046   */\n      0x00\n        /* \"#utility.yul\":13048:13054   */\n      dup1\n        /* \"#utility.yul\":13097:13099   */\n      0x40\n        /* \"#utility.yul\":13085:13094   */\n      dup4\n        /* \"#utility.yul\":13076:13083   */\n      dup6\n        /* \"#utility.yul\":13072:13095   */\n      sub\n        /* \"#utility.yul\":13068:13100   */\n      slt\n        /* \"#utility.yul\":13065:13184   */\n      iszero\n      tag_351\n      jumpi\n        /* \"#utility.yul\":13103:13182   */\n      tag_352\n      tag_146\n      jump\t// in\n    tag_352:\n        /* \"#utility.yul\":13065:13184   */\n    tag_351:\n        /* \"#utility.yul\":13223:13224   */\n      0x00\n        /* \"#utility.yul\":13248:13301   */\n      tag_353\n        /* \"#utility.yul\":13293:13300   */\n      dup6\n        /* \"#utility.yul\":13284:13290   */\n      dup3\n        /* \"#utility.yul\":13273:13282   */\n      dup7\n        /* \"#utility.yul\":13269:13291   */\n      add\n        /* \"#utility.yul\":13248:13301   */\n      tag_159\n      jump\t// in\n    tag_353:\n        /* \"#utility.yul\":13238:13301   */\n      swap3\n      pop\n        /* \"#utility.yul\":13194:13311   */\n      pop\n        /* \"#utility.yul\":13350:13352   */\n      0x20\n        /* \"#utility.yul\":13376:13429   */\n      tag_354\n        /* \"#utility.yul\":13421:13428   */\n      dup6\n        /* \"#utility.yul\":13412:13418   */\n      dup3\n        /* \"#utility.yul\":13401:13410   */\n      dup7\n        /* \"#utility.yul\":13397:13419   */\n      add\n        /* \"#utility.yul\":13376:13429   */\n      tag_164\n      jump\t// in\n    tag_354:\n        /* \"#utility.yul\":13366:13429   */\n      swap2\n      pop\n        /* \"#utility.yul\":13321:13439   */\n      pop\n        /* \"#utility.yul\":12972:13446   */\n      swap3\n      pop\n      swap3\n      swap1\n      pop\n      jump\t// out\n        /* \"#utility.yul\":13452:13632   */\n    tag_186:\n        /* \"#utility.yul\":13500:13577   */\n      0x4e487b7100000000000000000000000000000000000000000000000000000000\n        /* \"#utility.yul\":13497:13498   */\n      0x00\n        /* \"#utility.yul\":13490:13578   */\n      mstore\n        /* \"#utility.yul\":13597:13601   */\n      0x11\n        /* \"#utility.yul\":13594:13595   */\n      0x04\n        /* \"#utility.yul\":13587:13602   */\n      mstore\n        /* \"#utility.yul\":13621:13625   */\n      0x24\n        /* \"#utility.yul\":13618:13619   */\n      0x00\n        /* \"#utility.yul\":13611:13626   */\n      revert\n        /* \"#utility.yul\":13638:13871   */\n    tag_72:\n        /* \"#utility.yul\":13677:13680   */\n      0x00\n        /* \"#utility.yul\":13700:13724   */\n      tag_357\n        /* \"#utility.yul\":13718:13723   */\n      dup3\n        /* \"#utility.yul\":13700:13724   */\n      tag_157\n      jump\t// in\n    tag_357:\n        /* \"#utility.yul\":13691:13724   */\n      swap2\n      pop\n        /* \"#utility.yul\":13746:13812   */\n      0xffffffffffffffffffffffffffffffffffffffffffffffffffffffffffffffff\n        /* \"#utility.yul\":13739:13744   */\n      dup3\n        /* \"#utility.yul\":13736:13813   */\n      sub\n        /* \"#utility.yul\":13733:13836   */\n      tag_358\n      jumpi\n        /* \"#utility.yul\":13816:13834   */\n      tag_359\n      tag_186\n      jump\t// in\n    tag_359:\n        /* \"#utility.yul\":13733:13836   */\n    tag_358:\n        /* \"#utility.yul\":13863:13864   */\n      0x01\n        /* \"#utility.yul\":13856:13861   */\n      dup3\n        /* \"#utility.yul\":13852:13865   */\n      add\n        /* \"#utility.yul\":13845:13865   */\n      swap1\n      pop\n        /* \"#utility.yul\":13638:13871   */\n      swap2\n      swap1\n      pop\n      jump\t// out\n        /* \"#utility.yul\":13877:14057   */\n    tag_187:\n        /* \"#utility.yul\":13925:14002   */\n      0x4e487b7100000000000000000000000000000000000000000000000000000000\n        /* \"#utility.yul\":13922:13923   */\n      0x00\n        /* \"#utility.yul\":13915:14003   */\n      mstore\n        /* \"#utility.yul\":14022:14026   */\n      0x22\n        /* \"#utility.yul\":14019:14020   */\n      0x04\n        /* \"#utility.yul\":14012:14027   */\n      mstore\n        /* \"#utility.yul\":14046:14050   */\n      0x24\n        /* \"#utility.yul\":14043:14044   */\n      0x00\n        /* \"#utility.yul\":14036:14051   */\n      revert\n        /* \"#utility.yul\":14063:14383   */\n    tag_79:\n        /* \"#utility.yul\":14107:14113   */\n      0x00\n        /* \"#utility.yul\":14144:14145   */\n      0x02\n        /* \"#utility.yul\":14138:14142   */\n      dup3\n        /* \"#utility.yul\":14134:14146   */\n      div\n        /* \"#utility.yul\":14124:14146   */\n      swap1\n      pop\n        /* \"#utility.yul\":14191:14192   */\n      0x01\n        /* \"#utility.yul\":14185:14189   */\n      dup3\n        /* \"#utility.yul\":14181:14193   */\n      and\n        /* \"#utility.yul\":14212:14230   */\n      dup1\n        /* \"#utility.yul\":14202:14283   */\n      tag_362\n      jumpi\n        /* \"#utility.yul\":14268:14272   */\n      0x7f\n        /* \"#utility.yul\":14260:14266   */\n      dup3\n        /* \"#utility.yul\":14256:14273   */\n      and\n        /* \"#utility.yul\":14246:14273   */\n      swap2\n      pop\n        /* \"#utility.yul\":14202:14283   */\n    tag_362:\n        /* \"#utility.yul\":14330:14332   */\n      0x20\n        /* \"#utility.yul\":14322:14328   */\n      dup3\n        /* \"#utility.yul\":14319:14333   */\n      lt\n        /* \"#utility.yul\":14299:14317   */\n      dup2\n        /* \"#utility.yul\":14296:14334   */\n      sub\n        /* \"#utility.yul\":14293:14377   */\n      tag_363\n      jumpi\n        /* \"#utility.yul\":14349:14367   */\n      tag_364\n      tag_187\n      jump\t// in\n    tag_364:\n        /* \"#utility.yul\":14293:14377   */\n    tag_363:\n        /* \"#utility.yul\":14114:14383   */\n      pop\n        /* \"#utility.yul\":14063:14383   */\n      swap2\n      swap1\n      pop\n      jump\t// out\n        /* \"#utility.yul\":14389:14530   */\n    tag_188:\n        /* \"#utility.yul\":14438:14442   */\n      0x00\n        /* \"#utility.yul\":14461:14464   */\n      dup2\n        /* \"#utility.yul\":14453:14464   */\n      swap1\n      pop\n        /* \"#utility.yul\":14484:14487   */\n      dup2\n        /* \"#utility.yul\":14481:14482   */\n      0x00\n        /* \"#utility.yul\":14474:14488   */\n      mstore\n        /* \"#utility.yul\":14518:14522   */\n      0x20\n        /* \"#utility.yul\":14515:14516   */\n      0x00\n        /* \"#utility.yul\":14505:14523   */\n      keccak256\n        /* \"#utility.yul\":14497:14523   */\n      swap1\n      pop\n        /* \"#utility.yul\":14389:14530   */\n      swap2\n      swap1\n      pop\n      jump\t// out\n        /* \"#utility.yul\":14536:14629   */\n    tag_189:\n        /* \"#utility.yul\":14573:14579   */\n      0x00\n        /* \"#utility.yul\":14620:14622   */\n      0x20\n        /* \"#utility.yul\":14615:14617   */\n      0x1f\n        /* \"#utility.yul\":14608:14613   */\n      dup4\n        /* \"#utility.yul\":14604:14618   */\n      add\n        /* \"#utility.yul\":14600:14623   */\n      div\n        /* \"#utility.yul\":14590:14623   */\n      swap1\n      pop\n        /* \"#utility.yul\":14536:14629   */\n      swap2\n      swap1\n      pop\n      jump\t// out\n        /* \"#utility.yul\":14635:14742   */\n    tag_190:\n        /* \"#utility.yul\":14679:14687   */\n      0x00\n        /* \"#utility.yul\":14729:14734   */\n      dup3\n        /* \"#utility.yul\":14723:14727   */\n      dup3\n        /* \"#utility.yul\":14719:14735   */\n      shl\n        /* \"#utility.yul\":14698:14735   */\n      swap1\n      pop\n        /* \"#utility.yul\":14635:14742   */\n      swap3\n      swap2\n      pop\n      pop\n      jump\t// out\n        /* \"#utility.yul\":14748:15141   */\n    tag_191:\n        /* \"#utility.yul\":14817:14823   */\n      0x00\n        /* \"#utility.yul\":14867:14868   */\n      0x08\n        /* \"#utility.yul\":14855:14865   */\n      dup4\n        /* \"#utility.yul\":14851:14869   */\n      mul\n        /* \"#utility.yul\":14890:14987   */\n      tag_369\n        /* \"#utility.yul\":14920:14986   */\n      0xffffffffffffffffffffffffffffffffffffffffffffffffffffffffffffffff\n        /* \"#utility.yul\":14909:14918   */\n      dup3\n        /* \"#utility.yul\":14890:14987   */\n      tag_190\n      jump\t// in\n    tag_369:\n        /* \"#utility.yul\":15008:15047   */\n      tag_370\n        /* \"#utility.yul\":15038:15046   */\n      dup7\n        /* \"#utility.yul\":15027:15036   */\n      dup4\n        /* \"#utility.yul\":15008:15047   */\n      tag_190\n      jump\t// in\n    tag_370:\n        /* \"#utility.yul\":14996:15047   */\n      swap6\n      pop\n        /* \"#utility.yul\":15080:15084   */\n      dup1\n        /* \"#utility.yul\":15076:15085   */\n      not\n        /* \"#utility.yul\":15069:15074   */\n      dup5\n        /* \"#utility.yul\":15065:15086   */\n      and\n        /* \"#utility.yul\":15056:15086   */\n      swap4\n      pop\n        /* \"#utility.yul\":15129:15133   */\n      dup1\n        /* \"#utility.yul\":15119:15127   */\n      dup7\n        /* \"#utility.yul\":15115:15134   */\n      and\n        /* \"#utility.yul\":15108:15113   */\n      dup5\n        /* \"#utility.yul\":15105:15135   */\n      or\n        /* \"#utility.yul\":15095:15135   */\n      swap3\n      pop\n        /* \"#utility.yul\":14824:15141   */\n      pop\n      pop\n        /* \"#utility.yul\":14748:15141   */\n      swap4\n      swap3\n      pop\n      pop\n      pop\n      jump\t// out\n        /* \"#utility.yul\":15147:15207   */\n    tag_192:\n        /* \"#utility.yul\":15175:15178   */\n      0x00\n        /* \"#utility.yul\":15196:15201   */\n      dup2\n        /* \"#utility.yul\":15189:15201   */\n      swap1\n      pop\n        /* \"#utility.yul\":15147:15207   */\n      swap2\n      swap1\n      pop\n      jump\t// out\n        /* \"#utility.yul\":15213:15355   */\n    tag_193:\n        /* \"#utility.yul\":15263:15272   */\n      0x00\n        /* \"#utility.yul\":15296:15349   */\n      tag_373\n        /* \"#utility.yul\":15314:15348   */\n      tag_374\n        /* \"#utility.yul\":15323:15347   */\n      tag_375\n        /* \"#utility.yul\":15341:15346   */\n      dup5\n        /* \"#utility.yul\":15323:15347   */\n      tag_157\n      jump\t// in\n    tag_375:\n        /* \"#utility.yul\":15314:15348   */\n      tag_192\n      jump\t// in\n    tag_374:\n        /* \"#utility.yul\":15296:15349   */\n      tag_157\n      jump\t// in\n    tag_373:\n        /* \"#utility.yul\":15283:15349   */\n      swap1\n      pop\n        /* \"#utility.yul\":15213:15355   */\n      swap2\n      swap1\n      pop\n      jump\t// out\n        /* \"#utility.yul\":15361:15436   */\n    tag_194:\n        /* \"#utility.yul\":15404:15407   */\n      0x00\n        /* \"#utility.yul\":15425:15430   */\n      dup2\n        /* \"#utility.yul\":15418:15430   */\n      swap1\n      pop\n        /* \"#utility.yul\":15361:15436   */\n      swap2\n      swap1\n      pop\n      jump\t// out\n        /* \"#utility.yul\":15442:15711   */\n    tag_195:\n        /* \"#utility.yul\":15552:15591   */\n      tag_378\n        /* \"#utility.yul\":15583:15590   */\n      dup4\n        /* \"#utility.yul\":15552:15591   */\n      tag_193\n      jump\t// in\n    tag_378:\n        /* \"#utility.yul\":15613:15704   */\n      tag_379\n        /* \"#utility.yul\":15662:15703   */\n      tag_380\n        /* \"#utility.yul\":15686:15702   */\n      dup3\n        /* \"#utility.yul\":15662:15703   */\n      tag_194\n      jump\t// in\n    tag_380:\n        /* \"#utility.yul\":15654:15660   */\n      dup5\n        /* \"#utility.yul\":15647:15651   */\n      dup5\n        /* \"#utility.yul\":15641:15652   */\n      sload\n        /* \"#utility.yul\":15613:15704   */\n      tag_191\n      jump\t// in\n    tag_379:\n        /* \"#utility.yul\":15607:15611   */\n      dup3\n        /* \"#utility.yul\":15600:15705   */\n      sstore\n        /* \"#utility.yul\":15518:15711   */\n      pop\n        /* \"#utility.yul\":15442:15711   */\n      pop\n      pop\n      pop\n      jump\t// out\n        /* \"#utility.yul\":15717:15790   */\n    tag_196:\n        /* \"#utility.yul\":15762:15765   */\n      0x00\n        /* \"#utility.yul\":15717:15790   */\n      swap1\n      jump\t// out\n        /* \"#utility.yul\":15796:15985   */\n    tag_197:\n        /* \"#utility.yul\":15873:15905   */\n      tag_383\n      tag_196\n      jump\t// in\n    tag_383:\n        /* \"#utility.yul\":15914:15979   */\n      tag_384\n        /* \"#utility.yul\":15972:15978   */\n      dup2\n        /* \"#utility.yul\":15964:15970   */\n      dup5\n        /* \"#utility.yul\":15958:15962   */\n      dup5\n        /* \"#utility.yul\":15914:15979   */\n      tag_195\n      jump\t// in\n    tag_384:\n        /* \"#utility.yul\":15849:15985   */\n      pop\n        /* \"#utility.yul\":15796:15985   */\n      pop\n      pop\n      jump\t// out\n        /* \"#utility.yul\":15991:16177   */\n    tag_198:\n        /* \"#utility.yul\":16051:16171   */\n    tag_386:\n        /* \"#utility.yul\":16068:16071   */\n      dup2\n        /* \"#utility.yul\":16061:16066   */\n      dup2\n        /* \"#utility.yul\":16058:16072   */\n      lt\n        /* \"#utility.yul\":16051:16171   */\n      iszero\n      tag_388\n      jumpi\n        /* \"#utility.yul\":16122:16161   */\n      tag_389\n        /* \"#utility.yul\":16159:16160   */\n      0x00\n        /* \"#utility.yul\":16152:16157   */\n      dup3\n        /* \"#utility.yul\":16122:16161   */\n      tag_197\n      jump\t// in\n    tag_389:\n        /* \"#utility.yul\":16095:16096   */\n      0x01\n        /* \"#utility.yul\":16088:16093   */\n      dup2\n        /* \"#utility.yul\":16084:16097   */\n      add\n        /* \"#utility.yul\":16075:16097   */\n      swap1\n      pop\n        /* \"#utility.yul\":16051:16171   */\n      jump(tag_386)\n    tag_388:\n        /* \"#utility.yul\":15991:16177   */\n      pop\n      pop\n      jump\t// out\n        /* \"#utility.yul\":16183:16726   */\n    tag_199:\n        /* \"#utility.yul\":16284:16286   */\n      0x1f\n        /* \"#utility.yul\":16279:16282   */\n      dup3\n        /* \"#utility.yul\":16276:16287   */\n      gt\n        /* \"#utility.yul\":16273:16719   */\n      iszero\n      tag_391\n      jumpi\n        /* \"#utility.yul\":16318:16356   */\n      tag_392\n        /* \"#utility.yul\":16350:16355   */\n      dup2\n        /* \"#utility.yul\":16318:16356   */\n      tag_188\n      jump\t// in\n    tag_392:\n        /* \"#utility.yul\":16402:16431   */\n      tag_393\n        /* \"#utility.yul\":16420:16430   */\n      dup5\n        /* \"#utility.yul\":16402:16431   */\n      tag_189\n      jump\t// in\n    tag_393:\n        /* \"#utility.yul\":16392:16400   */\n      dup2\n        /* \"#utility.yul\":16388:16432   */\n      add\n        /* \"#utility.yul\":16585:16587   */\n      0x20\n        /* \"#utility.yul\":16573:16583   */\n      dup6\n        /* \"#utility.yul\":16570:16588   */\n      lt\n        /* \"#utility.yul\":16567:16616   */\n      iszero\n      tag_394\n      jumpi\n        /* \"#utility.yul\":16606:16614   */\n      dup2\n        /* \"#utility.yul\":16591:16614   */\n      swap1\n      pop\n        /* \"#utility.yul\":16567:16616   */\n    tag_394:\n        /* \"#utility.yul\":16629:16709   */\n      tag_395\n        /* \"#utility.yul\":16685:16707   */\n      tag_396\n        /* \"#utility.yul\":16703:16706   */\n      dup6\n        /* \"#utility.yul\":16685:16707   */\n      tag_189\n      jump\t// in\n    tag_396:\n        /* \"#utility.yul\":16675:16683   */\n      dup4\n        /* \"#utility.yul\":16671:16708   */\n      add\n        /* \"#utility.yul\":16658:16669   */\n      dup3\n        /* \"#utility.yul\":16629:16709   */\n      tag_198\n      jump\t// in\n    tag_395:\n        /* \"#utility.yul\":16288:16719   */\n      pop\n      pop\n        /* \"#utility.yul\":16273:16719   */\n    tag_391:\n        /* \"#utility.yul\":16183:16726   */\n      pop\n      pop\n      pop\n      jump\t// out\n        /* \"#utility.yul\":16732:16849   */\n    tag_200:\n        /* \"#utility.yul\":16786:16794   */\n      0x00\n        /* \"#utility.yul\":16836:16841   */\n      dup3\n        /* \"#utility.yul\":16830:16834   */\n      dup3\n        /* \"#utility.yul\":16826:16842   */\n      shr\n        /* \"#utility.yul\":16805:16842   */\n      swap1\n      pop\n        /* \"#utility.yul\":16732:16849   */\n      swap3\n      swap2\n      pop\n      pop\n      jump\t// out\n        /* \"#utility.yul\":16855:17024   */\n    tag_201:\n        /* \"#utility.yul\":16899:16905   */\n      0x00\n        /* \"#utility.yul\":16932:16983   */\n      tag_399\n        /* \"#utility.yul\":16980:16981   */\n      0x00\n        /* \"#utility.yul\":16976:16982   */\n      not\n        /* \"#utility.yul\":16968:16973   */\n      dup5\n        /* \"#utility.yul\":16965:16966   */\n      0x08\n        /* \"#utility.yul\":16961:16974   */\n      mul\n        /* \"#utility.yul\":16932:16983   */\n      tag_200\n      jump\t// in\n    tag_399:\n        /* \"#utility.yul\":16928:16984   */\n      not\n        /* \"#utility.yul\":17013:17017   */\n      dup1\n        /* \"#utility.yul\":17007:17011   */\n      dup4\n        /* \"#utility.yul\":17003:17018   */\n      and\n        /* \"#utility.yul\":16993:17018   */\n      swap2\n      pop\n        /* \"#utility.yul\":16906:17024   */\n      pop\n        /* \"#utility.yul\":16855:17024   */\n      swap3\n      swap2\n      pop\n      pop\n      jump\t// out\n        /* \"#utility.yul\":17029:17324   */\n    tag_202:\n        /* \"#utility.yul\":17105:17109   */\n      0x00\n        /* \"#utility.yul\":17251:17280   */\n      tag_401\n        /* \"#utility.yul\":17276:17279   */\n      dup4\n        /* \"#utility.yul\":17270:17274   */\n      dup4\n        /* \"#utility.yul\":17251:17280   */\n      tag_201\n      jump\t// in\n    tag_401:\n        /* \"#utility.yul\":17243:17280   */\n      swap2\n      pop\n        /* \"#utility.yul\":17313:17316   */\n      dup3\n        /* \"#utility.yul\":17310:17311   */\n      0x02\n        /* \"#utility.yul\":17306:17317   */\n      mul\n        /* \"#utility.yul\":17300:17304   */\n      dup3\n        /* \"#utility.yul\":17297:17318   */\n      or\n        /* \"#utility.yul\":17289:17318   */\n      swap1\n      pop\n        /* \"#utility.yul\":17029:17324   */\n      swap3\n      swap2\n      pop\n      pop\n      jump\t// out\n        /* \"#utility.yul\":17329:18724   */\n    tag_74:\n        /* \"#utility.yul\":17446:17483   */\n      tag_403\n        /* \"#utility.yul\":17479:17482   */\n      dup3\n        /* \"#utility.yul\":17446:17483   */\n      tag_180\n      jump\t// in\n    tag_403:\n        /* \"#utility.yul\":17548:17566   */\n      0xffffffffffffffff\n        /* \"#utility.yul\":17540:17546   */\n      dup2\n        /* \"#utility.yul\":17537:17567   */\n      gt\n        /* \"#utility.yul\":17534:17590   */\n      iszero\n      tag_404\n      jumpi\n        /* \"#utility.yul\":17570:17588   */\n      tag_405\n      tag_85\n      jump\t// in\n    tag_405:\n        /* \"#utility.yul\":17534:17590   */\n    tag_404:\n        /* \"#utility.yul\":17614:17652   */\n      tag_406\n        /* \"#utility.yul\":17646:17650   */\n      dup3\n        /* \"#utility.yul\":17640:17651   */\n      sload\n        /* \"#utility.yul\":17614:17652   */\n      tag_79\n      jump\t// in\n    tag_406:\n        /* \"#utility.yul\":17699:17766   */\n      tag_407\n        /* \"#utility.yul\":17759:17765   */\n      dup3\n        /* \"#utility.yul\":17751:17757   */\n      dup3\n        /* \"#utility.yul\":17745:17749   */\n      dup6\n        /* \"#utility.yul\":17699:17766   */\n      tag_199\n      jump\t// in\n    tag_407:\n        /* \"#utility.yul\":17793:17794   */\n      0x00\n        /* \"#utility.yul\":17817:17821   */\n      0x20\n        /* \"#utility.yul\":17804:17821   */\n      swap1\n      pop\n        /* \"#utility.yul\":17849:17851   */\n      0x1f\n        /* \"#utility.yul\":17841:17847   */\n      dup4\n        /* \"#utility.yul\":17838:17852   */\n      gt\n        /* \"#utility.yul\":17866:17867   */\n      0x01\n        /* \"#utility.yul\":17861:18479   */\n      dup2\n      eq\n      tag_409\n      jumpi\n        /* \"#utility.yul\":18523:18524   */\n      0x00\n        /* \"#utility.yul\":18540:18546   */\n      dup5\n        /* \"#utility.yul\":18537:18614   */\n      iszero\n      tag_410\n      jumpi\n        /* \"#utility.yul\":18589:18598   */\n      dup3\n        /* \"#utility.yul\":18584:18587   */\n      dup8\n        /* \"#utility.yul\":18580:18599   */\n      add\n        /* \"#utility.yul\":18574:18600   */\n      mload\n        /* \"#utility.yul\":18565:18600   */\n      swap1\n      pop\n        /* \"#utility.yul\":18537:18614   */\n    tag_410:\n        /* \"#utility.yul\":18640:18707   */\n      tag_411\n        /* \"#utility.yul\":18700:18706   */\n      dup6\n        /* \"#utility.yul\":18693:18698   */\n      dup3\n        /* \"#utility.yul\":18640:18707   */\n      tag_202\n      jump\t// in\n    tag_411:\n        /* \"#utility.yul\":18634:18638   */\n      dup7\n        /* \"#utility.yul\":18627:18708   */\n      sstore\n        /* \"#utility.yul\":18496:18718   */\n      pop\n        /* \"#utility.yul\":17831:18718   */\n      jump(tag_408)\n        /* \"#utility.yul\":17861:18479   */\n    tag_409:\n        /* \"#utility.yul\":17913:17917   */\n      0x1f\n        /* \"#utility.yul\":17909:17918   */\n      not\n        /* \"#utility.yul\":17901:17907   */\n      dup5\n        /* \"#utility.yul\":17897:17919   */\n      and\n        /* \"#utility.yul\":17947:17984   */\n      tag_412\n        /* \"#utility.yul\":17979:17983   */\n      dup7\n        /* \"#utility.yul\":17947:17984   */\n      tag_188\n      jump\t// in\n    tag_412:\n        /* \"#utility.yul\":18006:18007   */\n      0x00\n        /* \"#utility.yul\":18020:18228   */\n    tag_413:\n        /* \"#utility.yul\":18034:18041   */\n      dup3\n        /* \"#utility.yul\":18031:18032   */\n      dup2\n        /* \"#utility.yul\":18028:18042   */\n      lt\n        /* \"#utility.yul\":18020:18228   */\n      iszero\n      tag_415\n      jumpi\n        /* \"#utility.yul\":18113:18122   */\n      dup5\n        /* \"#utility.yul\":18108:18111   */\n      dup10\n        /* \"#utility.yul\":18104:18123   */\n      add\n        /* \"#utility.yul\":18098:18124   */\n      mload\n        /* \"#utility.yul\":18090:18096   */\n      dup3\n        /* \"#utility.yul\":18083:18125   */\n      sstore\n        /* \"#utility.yul\":18164:18165   */\n      0x01\n        /* \"#utility.yul\":18156:18162   */\n      dup3\n        /* \"#utility.yul\":18152:18166   */\n      add\n        /* \"#utility.yul\":18142:18166   */\n      swap2\n      pop\n        /* \"#utility.yul\":18211:18213   */\n      0x20\n        /* \"#utility.yul\":18200:18209   */\n      dup6\n        /* \"#utility.yul\":18196:18214   */\n      add\n        /* \"#utility.yul\":18183:18214   */\n      swap5\n      pop\n        /* \"#utility.yul\":18057:18061   */\n      0x20\n        /* \"#utility.yul\":18054:18055   */\n      dup2\n        /* \"#utility.yul\":18050:18062   */\n      add\n        /* \"#utility.yul\":18045:18062   */\n      swap1\n      pop\n        /* \"#utility.yul\":18020:18228   */\n      jump(tag_413)\n    tag_415:\n        /* \"#utility.yul\":18256:18262   */\n      dup7\n        /* \"#utility.yul\":18247:18254   */\n      dup4\n        /* \"#utility.yul\":18244:18263   */\n      lt\n        /* \"#utility.yul\":18241:18420   */\n      iszero\n      tag_416\n      jumpi\n        /* \"#utility.yul\":18314:18323   */\n      dup5\n        /* \"#utility.yul\":18309:18312   */\n      dup10\n        /* \"#utility.yul\":18305:18324   */\n      add\n        /* \"#utility.yul\":18299:18325   */\n      mload\n        /* \"#utility.yul\":18357:18405   */\n      tag_417\n        /* \"#utility.yul\":18399:18403   */\n      0x1f\n        /* \"#utility.yul\":18391:18397   */\n      dup10\n        /* \"#utility.yul\":18387:18404   */\n      and\n        /* \"#utility.yul\":18376:18385   */\n      dup3\n        /* \"#utility.yul\":18357:18405   */\n      tag_201\n      jump\t// in\n    tag_417:\n        /* \"#utility.yul\":18349:18355   */\n      dup4\n        /* \"#utility.yul\":18342:18406   */\n      sstore\n        /* \"#utility.yul\":18264:18420   */\n      pop\n        /* \"#utility.yul\":18241:18420   */\n    tag_416:\n        /* \"#utility.yul\":18466:18467   */\n      0x01\n        /* \"#utility.yul\":18462:18463   */\n      0x02\n        /* \"#utility.yul\":18454:18460   */\n      dup9\n        /* \"#utility.yul\":18450:18464   */\n      mul\n        /* \"#utility.yul\":18446:18468   */\n      add\n        /* \"#utility.yul\":18440:18444   */\n      dup9\n        /* \"#utility.yul\":18433:18469   */\n      sstore\n        /* \"#utility.yul\":17868:18479   */\n      pop\n      pop\n      pop\n        /* \"#utility.yul\":17831:18718   */\n    tag_408:\n      pop\n        /* \"#utility.yul\":17421:18724   */\n      pop\n      pop\n      pop\n        /* \"#utility.yul\":17329:18724   */\n      pop\n      pop\n      jump\t// out\n        /* \"#utility.yul\":18730:19263   */\n    tag_76:\n        /* \"#utility.yul\":18899:18903   */\n      0x00\n        /* \"#utility.yul\":18937:18939   */\n      0x60\n        /* \"#utility.yul\":18926:18935   */\n      dup3\n        /* \"#utility.yul\":18922:18940   */\n      add\n        /* \"#utility.yul\":18914:18940   */\n      swap1\n      pop\n        /* \"#utility.yul\":18950:19021   */\n      tag_419\n        /* \"#utility.yul\":19018:19019   */\n      0x00\n        /* \"#utility.yul\":19007:19016   */\n      dup4\n        /* \"#utility.yul\":19003:19020   */\n      add\n        /* \"#utility.yul\":18994:19000   */\n      dup7\n        /* \"#utility.yul\":18950:19021   */\n      tag_160\n      jump\t// in\n    tag_419:\n        /* \"#utility.yul\":19068:19077   */\n      dup2\n        /* \"#utility.yul\":19062:19066   */\n      dup2\n        /* \"#utility.yul\":19058:19078   */\n      sub\n        /* \"#utility.yul\":19053:19055   */\n      0x20\n        /* \"#utility.yul\":19042:19051   */\n      dup4\n        /* \"#utility.yul\":19038:19056   */\n      add\n        /* \"#utility.yul\":19031:19079   */\n      mstore\n        /* \"#utility.yul\":19096:19174   */\n      tag_420\n        /* \"#utility.yul\":19169:19173   */\n      dup2\n        /* \"#utility.yul\":19160:19166   */\n      dup6\n        /* \"#utility.yul\":19096:19174   */\n      tag_183\n      jump\t// in\n    tag_420:\n        /* \"#utility.yul\":19088:19174   */\n      swap1\n      pop\n        /* \"#utility.yul\":19184:19256   */\n      tag_421\n        /* \"#utility.yul\":19252:19254   */\n      0x40\n        /* \"#utility.yul\":19241:19250   */\n      dup4\n        /* \"#utility.yul\":19237:19255   */\n      add\n        /* \"#utility.yul\":19228:19234   */\n      dup5\n        /* \"#utility.yul\":19184:19256   */\n      tag_172\n      jump\t// in\n    tag_421:\n        /* \"#utility.yul\":18730:19263   */\n      swap5\n      swap4\n      pop\n      pop\n      pop\n      pop\n      jump\t// out\n        /* \"#utility.yul\":19269:19442   */\n    tag_203:\n        /* \"#utility.yul\":19409:19434   */\n      0x5573657220616c72656164792072656769737465726564000000000000000000\n        /* \"#utility.yul\":19405:19406   */\n      0x00\n        /* \"#utility.yul\":19397:19403   */\n      dup3\n        /* \"#utility.yul\":19393:19407   */\n      add\n        /* \"#utility.yul\":19386:19435   */\n      mstore\n        /* \"#utility.yul\":19269:19442   */\n      pop\n      jump\t// out\n        /* \"#utility.yul\":19448:19814   */\n    tag_204:\n        /* \"#utility.yul\":19590:19593   */\n      0x00\n        /* \"#utility.yul\":19611:19678   */\n      tag_424\n        /* \"#utility.yul\":19675:19677   */\n      0x17\n        /* \"#utility.yul\":19670:19673   */\n      dup4\n        /* \"#utility.yul\":19611:19678   */\n      tag_181\n      jump\t// in\n    tag_424:\n        /* \"#utility.yul\":19604:19678   */\n      swap2\n      pop\n        /* \"#utility.yul\":19687:19780   */\n      tag_425\n        /* \"#utility.yul\":19776:19779   */\n      dup3\n        /* \"#utility.yul\":19687:19780   */\n      tag_203\n      jump\t// in\n    tag_425:\n        /* \"#utility.yul\":19805:19807   */\n      0x20\n        /* \"#utility.yul\":19800:19803   */\n      dup3\n        /* \"#utility.yul\":19796:19808   */\n      add\n        /* \"#utility.yul\":19789:19808   */\n      swap1\n      pop\n        /* \"#utility.yul\":19448:19814   */\n      swap2\n      swap1\n      pop\n      jump\t// out\n        /* \"#utility.yul\":19820:20239   */\n    tag_82:\n        /* \"#utility.yul\":19986:19990   */\n      0x00\n        /* \"#utility.yul\":20024:20026   */\n      0x20\n        /* \"#utility.yul\":20013:20022   */\n      dup3\n        /* \"#utility.yul\":20009:20027   */\n      add\n        /* \"#utility.yul\":20001:20027   */\n      swap1\n      pop\n        /* \"#utility.yul\":20073:20082   */\n      dup2\n        /* \"#utility.yul\":20067:20071   */\n      dup2\n        /* \"#utility.yul\":20063:20083   */\n      sub\n        /* \"#utility.yul\":20059:20060   */\n      0x00\n        /* \"#utility.yul\":20048:20057   */\n      dup4\n        /* \"#utility.yul\":20044:20061   */\n      add\n        /* \"#utility.yul\":20037:20084   */\n      mstore\n        /* \"#utility.yul\":20101:20232   */\n      tag_427\n        /* \"#utility.yul\":20227:20231   */\n      dup2\n        /* \"#utility.yul\":20101:20232   */\n      tag_204\n      jump\t// in\n    tag_427:\n        /* \"#utility.yul\":20093:20232   */\n      swap1\n      pop\n        /* \"#utility.yul\":19820:20239   */\n      swap2\n      swap1\n      pop\n      jump\t// out\n        /* \"#utility.yul\":20245:20418   */\n    tag_205:\n        /* \"#utility.yul\":20385:20410   */\n      0x4861636b6174686f6e206973206e6f7420616374697665000000000000000000\n        /* \"#utility.yul\":20381:20382   */\n      0x00\n        /* \"#utility.yul\":20373:20379   */\n      dup3\n        /* \"#utility.yul\":20369:20383   */\n      add\n        /* \"#utility.yul\":20362:20411   */\n      mstore\n        /* \"#utility.yul\":20245:20418   */\n      pop\n      jump\t// out\n        /* \"#utility.yul\":20424:20790   */\n    tag_206:\n        /* \"#utility.yul\":20566:20569   */\n      0x00\n        /* \"#utility.yul\":20587:20654   */\n      tag_430\n        /* \"#utility.yul\":20651:20653   */\n      0x17\n        /* \"#utility.yul\":20646:20649   */\n      dup4\n        /* \"#utility.yul\":20587:20654   */\n      tag_181\n      jump\t// in\n    tag_430:\n        /* \"#utility.yul\":20580:20654   */\n      swap2\n      pop\n        /* \"#utility.yul\":20663:20756   */\n      tag_431\n        /* \"#utility.yul\":20752:20755   */\n      dup3\n        /* \"#utility.yul\":20663:20756   */\n      tag_205\n      jump\t// in\n    tag_431:\n        /* \"#utility.yul\":20781:20783   */\n      0x20\n        /* \"#utility.yul\":20776:20779   */\n      dup3\n        /* \"#utility.yul\":20772:20784   */\n      add\n        /* \"#utility.yul\":20765:20784   */\n      swap1\n      pop\n        /* \"#utility.yul\":20424:20790   */\n      swap2\n      swap1\n      pop\n      jump\t// out\n        /* \"#utility.yul\":20796:21215   */\n    tag_95:\n        /* \"#utility.yul\":20962:20966   */\n      0x00\n        /* \"#utility.yul\":21000:21002   */\n      0x20\n        /* \"#utility.yul\":20989:20998   */\n      dup3\n        /* \"#utility.yul\":20985:21003   */\n      add\n        /* \"#utility.yul\":20977:21003   */\n      swap1\n      pop\n        /* \"#utility.yul\":21049:21058   */\n      dup2\n        /* \"#utility.yul\":21043:21047   */\n      dup2\n        /* \"#utility.yul\":21039:21059   */\n      sub\n        /* \"#utility.yul\":21035:21036   */\n      0x00\n        /* \"#utility.yul\":21024:21033   */\n      dup4\n        /* \"#utility.yul\":21020:21037   */\n      add\n        /* \"#utility.yul\":21013:21060   */\n      mstore\n        /* \"#utility.yul\":21077:21208   */\n      tag_433\n        /* \"#utility.yul\":21203:21207   */\n      dup2\n        /* \"#utility.yul\":21077:21208   */\n      tag_206\n      jump\t// in\n    tag_433:\n        /* \"#utility.yul\":21069:21208   */\n      swap1\n      pop\n        /* \"#utility.yul\":20796:21215   */\n      swap2\n      swap1\n      pop\n      jump\t// out\n        /* \"#utility.yul\":21221:21397   */\n    tag_207:\n        /* \"#utility.yul\":21361:21389   */\n      0x496e636f727265637420726567697374726174696f6e20666565000000000000\n        /* \"#utility.yul\":21357:21358   */\n      0x00\n        /* \"#utility.yul\":21349:21355   */\n      dup3\n        /* \"#utility.yul\":21345:21359   */\n      add\n        /* \"#utility.yul\":21338:21390   */\n      mstore\n        /* \"#utility.yul\":21221:21397   */\n      pop\n      jump\t// out\n        /* \"#utility.yul\":21403:21769   */\n    tag_208:\n        /* \"#utility.yul\":21545:21548   */\n      0x00\n        /* \"#utility.yul\":21566:21633   */\n      tag_436\n        /* \"#utility.yul\":21630:21632   */\n      0x1a\n        /* \"#utility.yul\":21625:21628   */\n      dup4\n        /* \"#utility.yul\":21566:21633   */\n      tag_181\n      jump\t// in\n    tag_436:\n        /* \"#utility.yul\":21559:21633   */\n      swap2\n      pop\n        /* \"#utility.yul\":21642:21735   */\n      tag_437\n        /* \"#utility.yul\":21731:21734   */\n      dup3\n        /* \"#utility.yul\":21642:21735   */\n      tag_207\n      jump\t// in\n    tag_437:\n        /* \"#utility.yul\":21760:21762   */\n      0x20\n        /* \"#utility.yul\":21755:21758   */\n      dup3\n        /* \"#utility.yul\":21751:21763   */\n      add\n        /* \"#utility.yul\":21744:21763   */\n      swap1\n      pop\n        /* \"#utility.yul\":21403:21769   */\n      swap2\n      swap1\n      pop\n      jump\t// out\n        /* \"#utility.yul\":21775:22194   */\n    tag_98:\n        /* \"#utility.yul\":21941:21945   */\n      0x00\n        /* \"#utility.yul\":21979:21981   */\n      0x20\n        /* \"#utility.yul\":21968:21977   */\n      dup3\n        /* \"#utility.yul\":21964:21982   */\n      add\n        /* \"#utility.yul\":21956:21982   */\n      swap1\n      pop\n        /* \"#utility.yul\":22028:22037   */\n      dup2\n        /* \"#utility.yul\":22022:22026   */\n      dup2\n        /* \"#utility.yul\":22018:22038   */\n      sub\n        /* \"#utility.yul\":22014:22015   */\n      0x00\n        /* \"#utility.yul\":22003:22012   */\n      dup4\n        /* \"#utility.yul\":21999:22016   */\n      add\n        /* \"#utility.yul\":21992:22039   */\n      mstore\n        /* \"#utility.yul\":22056:22187   */\n      tag_439\n        /* \"#utility.yul\":22182:22186   */\n      dup2\n        /* \"#utility.yul\":22056:22187   */\n      tag_208\n      jump\t// in\n    tag_439:\n        /* \"#utility.yul\":22048:22187   */\n      swap1\n      pop\n        /* \"#utility.yul\":21775:22194   */\n      swap2\n      swap1\n      pop\n      jump\t// out\n        /* \"#utility.yul\":22200:22532   */\n    tag_102:\n        /* \"#utility.yul\":22321:22325   */\n      0x00\n        /* \"#utility.yul\":22359:22361   */\n      0x40\n        /* \"#utility.yul\":22348:22357   */\n      dup3\n        /* \"#utility.yul\":22344:22362   */\n      add\n        /* \"#utility.yul\":22336:22362   */\n      swap1\n      pop\n        /* \"#utility.yul\":22372:22443   */\n      tag_441\n        /* \"#utility.yul\":22440:22441   */\n      0x00\n        /* \"#utility.yul\":22429:22438   */\n      dup4\n        /* \"#utility.yul\":22425:22442   */\n      add\n        /* \"#utility.yul\":22416:22422   */\n      dup6\n        /* \"#utility.yul\":22372:22443   */\n      tag_160\n      jump\t// in\n    tag_441:\n        /* \"#utility.yul\":22453:22525   */\n      tag_442\n        /* \"#utility.yul\":22521:22523   */\n      0x20\n        /* \"#utility.yul\":22510:22519   */\n      dup4\n        /* \"#utility.yul\":22506:22524   */\n      add\n        /* \"#utility.yul\":22497:22503   */\n      dup5\n        /* \"#utility.yul\":22453:22525   */\n      tag_172\n      jump\t// in\n    tag_442:\n        /* \"#utility.yul\":22200:22532   */\n      swap4\n      swap3\n      pop\n      pop\n      pop\n      jump\t// out\n        /* \"#utility.yul\":22538:22763   */\n    tag_209:\n        /* \"#utility.yul\":22678:22712   */\n      0x4f6e6c79206f7267616e697a65722063616e20706572666f726d207468697320\n        /* \"#utility.yul\":22674:22675   */\n      0x00\n        /* \"#utility.yul\":22666:22672   */\n      dup3\n        /* \"#utility.yul\":22662:22676   */\n      add\n        /* \"#utility.yul\":22655:22713   */\n      mstore\n        /* \"#utility.yul\":22747:22755   */\n      0x616374696f6e0000000000000000000000000000000000000000000000000000\n        /* \"#utility.yul\":22742:22744   */\n      0x20\n        /* \"#utility.yul\":22734:22740   */\n      dup3\n        /* \"#utility.yul\":22730:22745   */\n      add\n        /* \"#utility.yul\":22723:22756   */\n      mstore\n        /* \"#utility.yul\":22538:22763   */\n      pop\n      jump\t// out\n        /* \"#utility.yul\":22769:23135   */\n    tag_210:\n        /* \"#utility.yul\":22911:22914   */\n      0x00\n        /* \"#utility.yul\":22932:22999   */\n      tag_445\n        /* \"#utility.yul\":22996:22998   */\n      0x26\n        /* \"#utility.yul\":22991:22994   */\n      dup4\n        /* \"#utility.yul\":22932:22999   */\n      tag_181\n      jump\t// in\n    tag_445:\n        /* \"#utility.yul\":22925:22999   */\n      swap2\n      pop\n        /* \"#utility.yul\":23008:23101   */\n      tag_446\n        /* \"#utility.yul\":23097:23100   */\n      dup3\n        /* \"#utility.yul\":23008:23101   */\n      tag_209\n      jump\t// in\n    tag_446:\n        /* \"#utility.yul\":23126:23128   */\n      0x40\n        /* \"#utility.yul\":23121:23124   */\n      dup3\n        /* \"#utility.yul\":23117:23129   */\n      add\n        /* \"#utility.yul\":23110:23129   */\n      swap1\n      pop\n        /* \"#utility.yul\":22769:23135   */\n      swap2\n      swap1\n      pop\n      jump\t// out\n        /* \"#utility.yul\":23141:23560   */\n    tag_127:\n        /* \"#utility.yul\":23307:23311   */\n      0x00\n        /* \"#utility.yul\":23345:23347   */\n      0x20\n        /* \"#utility.yul\":23334:23343   */\n      dup3\n        /* \"#utility.yul\":23330:23348   */\n      add\n        /* \"#utility.yul\":23322:23348   */\n      swap1\n      pop\n        /* \"#utility.yul\":23394:23403   */\n      dup2\n        /* \"#utility.yul\":23388:23392   */\n      dup2\n        /* \"#utility.yul\":23384:23404   */\n      sub\n        /* \"#utility.yul\":23380:23381   */\n      0x00\n        /* \"#utility.yul\":23369:23378   */\n      dup4\n        /* \"#utility.yul\":23365:23382   */\n      add\n        /* \"#utility.yul\":23358:23405   */\n      mstore\n        /* \"#utility.yul\":23422:23553   */\n      tag_448\n        /* \"#utility.yul\":23548:23552   */\n      dup2\n        /* \"#utility.yul\":23422:23553   */\n      tag_210\n      jump\t// in\n    tag_448:\n        /* \"#utility.yul\":23414:23553   */\n      swap1\n      pop\n        /* \"#utility.yul\":23141:23560   */\n      swap2\n      swap1\n      pop\n      jump\t// out\n        /* \"#utility.yul\":23566:23745   */\n    tag_211:\n        /* \"#utility.yul\":23706:23737   */\n      0x496e73756666696369656e7420636f6e74726163742062616c616e6365000000\n        /* \"#utility.yul\":23702:23703   */\n      0x00\n        /* \"#utility.yul\":23694:23700   */\n      dup3\n        /* \"#utility.yul\":23690:23704   */\n      add\n        /* \"#utility.yul\":23683:23738   */\n      mstore\n        /* \"#utility.yul\":23566:23745   */\n      pop\n      jump\t// out\n        /* \"#utility.yul\":23751:24117   */\n    tag_212:\n        /* \"#utility.yul\":23893:23896   */\n      0x00\n        /* \"#utility.yul\":23914:23981   */\n      tag_451\n        /* \"#utility.yul\":23978:23980   */\n      0x1d\n        /* \"#utility.yul\":23973:23976   */\n      dup4\n        /* \"#utility.yul\":23914:23981   */\n      tag_181\n      jump\t// in\n    tag_451:\n        /* \"#utility.yul\":23907:23981   */\n      swap2\n      pop\n        /* \"#utility.yul\":23990:24083   */\n      tag_452\n        /* \"#utility.yul\":24079:24082   */\n      dup3\n        /* \"#utility.yul\":23990:24083   */\n      tag_211\n      jump\t// in\n    tag_452:\n        /* \"#utility.yul\":24108:24110   */\n      0x20\n        /* \"#utility.yul\":24103:24106   */\n      dup3\n        /* \"#utility.yul\":24099:24111   */\n      add\n        /* \"#utility.yul\":24092:24111   */\n      swap1\n      pop\n        /* \"#utility.yul\":23751:24117   */\n      swap2\n      swap1\n      pop\n      jump\t// out\n        /* \"#utility.yul\":24123:24542   */\n    tag_133:\n        /* \"#utility.yul\":24289:24293   */\n      0x00\n        /* \"#utility.yul\":24327:24329   */\n      0x20\n        /* \"#utility.yul\":24316:24325   */\n      dup3\n        /* \"#utility.yul\":24312:24330   */\n      add\n        /* \"#utility.yul\":24304:24330   */\n      swap1\n      pop\n        /* \"#utility.yul\":24376:24385   */\n      dup2\n        /* \"#utility.yul\":24370:24374   */\n      dup2\n        /* \"#utility.yul\":24366:24386   */\n      sub\n        /* \"#utility.yul\":24362:24363   */\n      0x00\n        /* \"#utility.yul\":24351:24360   */\n      dup4\n        /* \"#utility.yul\":24347:24364   */\n      add\n        /* \"#utility.yul\":24340:24387   */\n      mstore\n        /* \"#utility.yul\":24404:24535   */\n      tag_454\n        /* \"#utility.yul\":24530:24534   */\n      dup2\n        /* \"#utility.yul\":24404:24535   */\n      tag_212\n      jump\t// in\n    tag_454:\n        /* \"#utility.yul\":24396:24535   */\n      swap1\n      pop\n        /* \"#utility.yul\":24123:24542   */\n      swap2\n      swap1\n      pop\n      jump\t// out\n        /* \"#utility.yul\":24548:24990   */\n    tag_137:\n        /* \"#utility.yul\":24697:24701   */\n      0x00\n        /* \"#utility.yul\":24735:24737   */\n      0x60\n        /* \"#utility.yul\":24724:24733   */\n      dup3\n        /* \"#utility.yul\":24720:24738   */\n      add\n        /* \"#utility.yul\":24712:24738   */\n      swap1\n      pop\n        /* \"#utility.yul\":24748:24819   */\n      tag_456\n        /* \"#utility.yul\":24816:24817   */\n      0x00\n        /* \"#utility.yul\":24805:24814   */\n      dup4\n        /* \"#utility.yul\":24801:24818   */\n      add\n        /* \"#utility.yul\":24792:24798   */\n      dup7\n        /* \"#utility.yul\":24748:24819   */\n      tag_160\n      jump\t// in\n    tag_456:\n        /* \"#utility.yul\":24829:24901   */\n      tag_457\n        /* \"#utility.yul\":24897:24899   */\n      0x20\n        /* \"#utility.yul\":24886:24895   */\n      dup4\n        /* \"#utility.yul\":24882:24900   */\n      add\n        /* \"#utility.yul\":24873:24879   */\n      dup6\n        /* \"#utility.yul\":24829:24901   */\n      tag_172\n      jump\t// in\n    tag_457:\n        /* \"#utility.yul\":24911:24983   */\n      tag_458\n        /* \"#utility.yul\":24979:24981   */\n      0x40\n        /* \"#utility.yul\":24968:24977   */\n      dup4\n        /* \"#utility.yul\":24964:24982   */\n      add\n        /* \"#utility.yul\":24955:24961   */\n      dup5\n        /* \"#utility.yul\":24911:24983   */\n      tag_160\n      jump\t// in\n    tag_458:\n        /* \"#utility.yul\":24548:24990   */\n      swap5\n      swap4\n      pop\n      pop\n      pop\n      pop\n      jump\t// out\n\n    auxdata: 0xa264697066735822122057a5be3a29cfd4af1a4ed5765e4dd3be8fb9841b58177578e783181ab6e14ee064736f6c634300081a0033\n}\n",
				"bytecode": {
					"linkReferences": {},
					"object": "6080604052348015600e575f80fd5b50335f806101000a81548173ffffffffffffffffffffffffffffffffffffffff021916908373ffffffffffffffffffffffffffffffffffffffff1602179055506119dd8061005b5f395ff3fe608060405260043610610094575f3560e01c80638da5cb5b116100585780638da5cb5b1461017157806397b913db1461019b578063a87430ba146101d7578063c107719414610215578063f5ff83b3146102565761009b565b80631cd12e531461009f5780631d2e4afd146100c757806340aca1b1146100ef57806342ca6d5814610119578063430ef744146101355761009b565b3661009b57005b5f80fd5b3480156100aa575f80fd5b506100c560048036038101906100c09190610eb3565b61027e565b005b3480156100d2575f80fd5b506100ed60048036038101906100e89190610f1f565b61037a565b005b3480156100fa575f80fd5b50610103610593565b6040516101109190610fa4565b60405180910390f35b610133600480360381019061012e9190610fbd565b610599565b005b348015610140575f80fd5b5061015b60048036038101906101569190611042565b610746565b6040516101689190611124565b60405180910390f35b34801561017c575f80fd5b506101856107dc565b6040516101929190611153565b60405180910390f35b3480156101a6575f80fd5b506101c160048036038101906101bc9190610fbd565b6107ff565b6040516101ce9190611223565b60405180910390f35b3480156101e2575f80fd5b506101fd60048036038101906101f89190611042565b61089e565b60405161020c939291906112a3565b60405180910390f35b348015610220575f80fd5b5061023b60048036038101906102369190610fbd565b6109ef565b60405161024d96959493929190611300565b60405180910390f35b348015610261575f80fd5b5061027c60048036038101906102779190611366565b610ad8565b005b60015f815480929190610290906113d1565b91905055505f60035f60015481526020019081526020015f209050600154815f0181905550838160010190816102c69190611612565b5082816002018190555081816003018190555033816004015f6101000a81548173ffffffffffffffffffffffffffffffffffffffff021916908373ffffffffffffffffffffffffffffffffffffffff1602179055506001816006015f6101000a81548160ff0219169083151502179055507fa94cd0b7a6a30768493dd3c96d659f8684f84657295d41125416f89e1027f876600154853360405161036c939291906116e1565b60405180910390a150505050565b5f60025f3373ffffffffffffffffffffffffffffffffffffffff1673ffffffffffffffffffffffffffffffffffffffff1681526020019081526020015f2060010180546103c690611445565b905014610408576040517f08c379a00000000000000000000000000000000000000000000000000000000081526004016103ff90611767565b60405180910390fd5b60405180608001604052803373ffffffffffffffffffffffffffffffffffffffff1681526020018381526020018281526020015f67ffffffffffffffff81111561045557610454610d5c565b5b6040519080825280602002602001820160405280156104835781602001602082028036833780820191505090505b5081525060025f3373ffffffffffffffffffffffffffffffffffffffff1673ffffffffffffffffffffffffffffffffffffffff1681526020019081526020015f205f820151815f015f6101000a81548173ffffffffffffffffffffffffffffffffffffffff021916908373ffffffffffffffffffffffffffffffffffffffff160217905550602082015181600101908161051d9190611612565b5060408201518160020190816105339190611612565b506060820151816003019080519060200190610550929190610ccd565b509050507f92822564bab8864c3a47b34e8d23fbce5c46234eb5da261f94087b995ac0f33b338383604051610587939291906112a3565b60405180910390a15050565b60015481565b5f60035f8381526020019081526020015f209050806006015f9054906101000a900460ff166105fd576040517f08c379a00000000000000000000000000000000000000000000000000000000081526004016105f4906117cf565b60405180910390fd5b80600201543414610643576040517f08c379a000000000000000000000000000000000000000000000000000000000815260040161063a90611837565b60405180910390fd5b8060050133908060018154018082558091505060019003905f5260205f20015f9091909190916101000a81548173ffffffffffffffffffffffffffffffffffffffff021916908373ffffffffffffffffffffffffffffffffffffffff16021790555060025f3373ffffffffffffffffffffffffffffffffffffffff1673ffffffffffffffffffffffffffffffffffffffff1681526020019081526020015f2060030182908060018154018082558091505060019003905f5260205f20015f90919091909150557feed04d4be145b563e5e53575c494b5a2fccc5ce019758c15d37a0984f3633307823360405161073a929190611855565b60405180910390a15050565b606060025f8373ffffffffffffffffffffffffffffffffffffffff1673ffffffffffffffffffffffffffffffffffffffff1681526020019081526020015f206003018054806020026020016040519081016040528092919081815260200182805480156107d057602002820191905f5260205f20905b8154815260200190600101908083116107bc575b50505050509050919050565b5f8054906101000a900473ffffffffffffffffffffffffffffffffffffffff1681565b606060035f8381526020019081526020015f2060050180548060200260200160405190810160405280929190818152602001828054801561089257602002820191905f5260205f20905b815f9054906101000a900473ffffffffffffffffffffffffffffffffffffffff1673ffffffffffffffffffffffffffffffffffffffff1681526020019060010190808311610849575b50505050509050919050565b6002602052805f5260405f205f91509050805f015f9054906101000a900473ffffffffffffffffffffffffffffffffffffffff16908060010180546108e290611445565b80601f016020809104026020016040519081016040528092919081815260200182805461090e90611445565b80156109595780601f1061093057610100808354040283529160200191610959565b820191905f5260205f20905b81548152906001019060200180831161093c57829003601f168201915b50505050509080600201805461096e90611445565b80601f016020809104026020016040519081016040528092919081815260200182805461099a90611445565b80156109e55780601f106109bc576101008083540402835291602001916109e5565b820191905f5260205f20905b8154815290600101906020018083116109c857829003601f168201915b5050505050905083565b6003602052805f5260405f205f91509050805f015490806001018054610a1490611445565b80601f0160208091040260200160405190810160405280929190818152602001828054610a4090611445565b8015610a8b5780601f10610a6257610100808354040283529160200191610a8b565b820191905f5260205f20905b815481529060010190602001808311610a6e57829003601f168201915b505050505090806002015490806003015490806004015f9054906101000a900473ffffffffffffffffffffffffffffffffffffffff1690806006015f9054906101000a900460ff16905086565b813373ffffffffffffffffffffffffffffffffffffffff1660035f8381526020019081526020015f206004015f9054906101000a900473ffffffffffffffffffffffffffffffffffffffff1673ffffffffffffffffffffffffffffffffffffffff1614610b7a576040517f08c379a0000000000000000000000000000000000000000000000000000000008152600401610b71906118ec565b60405180910390fd5b5f60035f8581526020019081526020015f209050806006015f9054906101000a900460ff16610bde576040517f08c379a0000000000000000000000000000000000000000000000000000000008152600401610bd5906117cf565b60405180910390fd5b8060030154471015610c25576040517f08c379a0000000000000000000000000000000000000000000000000000000008152600401610c1c90611954565b60405180910390fd5b5f816006015f6101000a81548160ff0219169083151502179055508273ffffffffffffffffffffffffffffffffffffffff166108fc826003015490811502906040515f60405180830381858888f19350505050158015610c87573d5f803e3d5ffd5b507fdc1d0b6a7cbfa6f3b2d4325bab5a169b265ad0b2b4022fb550364f0dfeeb6a7484848360030154604051610cbf93929190611972565b60405180910390a150505050565b828054828255905f5260205f20908101928215610d07579160200282015b82811115610d06578251825591602001919060010190610ceb565b5b509050610d149190610d18565b5090565b5b80821115610d2f575f815f905550600101610d19565b5090565b5f604051905090565b5f80fd5b5f80fd5b5f80fd5b5f80fd5b5f601f19601f8301169050919050565b7f4e487b71000000000000000000000000000000000000000000000000000000005f52604160045260245ffd5b610d9282610d4c565b810181811067ffffffffffffffff82111715610db157610db0610d5c565b5b80604052505050565b5f610dc3610d33565b9050610dcf8282610d89565b919050565b5f67ffffffffffffffff821115610dee57610ded610d5c565b5b610df782610d4c565b9050602081019050919050565b828183375f83830152505050565b5f610e24610e1f84610dd4565b610dba565b905082815260208101848484011115610e4057610e3f610d48565b5b610e4b848285610e04565b509392505050565b5f82601f830112610e6757610e66610d44565b5b8135610e77848260208601610e12565b91505092915050565b5f819050919050565b610e9281610e80565b8114610e9c575f80fd5b50565b5f81359050610ead81610e89565b92915050565b5f805f60608486031215610eca57610ec9610d3c565b5b5f84013567ffffffffffffffff811115610ee757610ee6610d40565b5b610ef386828701610e53565b9350506020610f0486828701610e9f565b9250506040610f1586828701610e9f565b9150509250925092565b5f8060408385031215610f3557610f34610d3c565b5b5f83013567ffffffffffffffff811115610f5257610f51610d40565b5b610f5e85828601610e53565b925050602083013567ffffffffffffffff811115610f7f57610f7e610d40565b5b610f8b85828601610e53565b9150509250929050565b610f9e81610e80565b82525050565b5f602082019050610fb75f830184610f95565b92915050565b5f60208284031215610fd257610fd1610d3c565b5b5f610fdf84828501610e9f565b91505092915050565b5f73ffffffffffffffffffffffffffffffffffffffff82169050919050565b5f61101182610fe8565b9050919050565b61102181611007565b811461102b575f80fd5b50565b5f8135905061103c81611018565b92915050565b5f6020828403121561105757611056610d3c565b5b5f6110648482850161102e565b91505092915050565b5f81519050919050565b5f82825260208201905092915050565b5f819050602082019050919050565b61109f81610e80565b82525050565b5f6110b08383611096565b60208301905092915050565b5f602082019050919050565b5f6110d28261106d565b6110dc8185611077565b93506110e783611087565b805f5b838110156111175781516110fe88826110a5565b9750611109836110bc565b9250506001810190506110ea565b5085935050505092915050565b5f6020820190508181035f83015261113c81846110c8565b905092915050565b61114d81611007565b82525050565b5f6020820190506111665f830184611144565b92915050565b5f81519050919050565b5f82825260208201905092915050565b5f819050602082019050919050565b61119e81611007565b82525050565b5f6111af8383611195565b60208301905092915050565b5f602082019050919050565b5f6111d18261116c565b6111db8185611176565b93506111e683611186565b805f5b838110156112165781516111fd88826111a4565b9750611208836111bb565b9250506001810190506111e9565b5085935050505092915050565b5f6020820190508181035f83015261123b81846111c7565b905092915050565b5f81519050919050565b5f82825260208201905092915050565b8281835e5f83830152505050565b5f61127582611243565b61127f818561124d565b935061128f81856020860161125d565b61129881610d4c565b840191505092915050565b5f6060820190506112b65f830186611144565b81810360208301526112c8818561126b565b905081810360408301526112dc818461126b565b9050949350505050565b5f8115159050919050565b6112fa816112e6565b82525050565b5f60c0820190506113135f830189610f95565b8181036020830152611325818861126b565b90506113346040830187610f95565b6113416060830186610f95565b61134e6080830185611144565b61135b60a08301846112f1565b979650505050505050565b5f806040838503121561137c5761137b610d3c565b5b5f61138985828601610e9f565b925050602061139a8582860161102e565b9150509250929050565b7f4e487b71000000000000000000000000000000000000000000000000000000005f52601160045260245ffd5b5f6113db82610e80565b91507fffffffffffffffffffffffffffffffffffffffffffffffffffffffffffffffff820361140d5761140c6113a4565b5b600182019050919050565b7f4e487b71000000000000000000000000000000000000000000000000000000005f52602260045260245ffd5b5f600282049050600182168061145c57607f821691505b60208210810361146f5761146e611418565b5b50919050565b5f819050815f5260205f209050919050565b5f6020601f8301049050919050565b5f82821b905092915050565b5f600883026114d17fffffffffffffffffffffffffffffffffffffffffffffffffffffffffffffffff82611496565b6114db8683611496565b95508019841693508086168417925050509392505050565b5f819050919050565b5f61151661151161150c84610e80565b6114f3565b610e80565b9050919050565b5f819050919050565b61152f836114fc565b61154361153b8261151d565b8484546114a2565b825550505050565b5f90565b61155761154b565b611562818484611526565b505050565b5b818110156115855761157a5f8261154f565b600181019050611568565b5050565b601f8211156115ca5761159b81611475565b6115a484611487565b810160208510156115b3578190505b6115c76115bf85611487565b830182611567565b50505b505050565b5f82821c905092915050565b5f6115ea5f19846008026115cf565b1980831691505092915050565b5f61160283836115db565b9150826002028217905092915050565b61161b82611243565b67ffffffffffffffff81111561163457611633610d5c565b5b61163e8254611445565b611649828285611589565b5f60209050601f83116001811461167a575f8415611668578287015190505b61167285826115f7565b8655506116d9565b601f19841661168886611475565b5f5b828110156116af5784890151825560018201915060208501945060208101905061168a565b868310156116cc57848901516116c8601f8916826115db565b8355505b6001600288020188555050505b505050505050565b5f6060820190506116f45f830186610f95565b8181036020830152611706818561126b565b90506117156040830184611144565b949350505050565b7f5573657220616c726561647920726567697374657265640000000000000000005f82015250565b5f61175160178361124d565b915061175c8261171d565b602082019050919050565b5f6020820190508181035f83015261177e81611745565b9050919050565b7f4861636b6174686f6e206973206e6f74206163746976650000000000000000005f82015250565b5f6117b960178361124d565b91506117c482611785565b602082019050919050565b5f6020820190508181035f8301526117e6816117ad565b9050919050565b7f496e636f727265637420726567697374726174696f6e206665650000000000005f82015250565b5f611821601a8361124d565b915061182c826117ed565b602082019050919050565b5f6020820190508181035f83015261184e81611815565b9050919050565b5f6040820190506118685f830185610f95565b6118756020830184611144565b9392505050565b7f4f6e6c79206f7267616e697a65722063616e20706572666f726d2074686973205f8201527f616374696f6e0000000000000000000000000000000000000000000000000000602082015250565b5f6118d660268361124d565b91506118e18261187c565b604082019050919050565b5f6020820190508181035f830152611903816118ca565b9050919050565b7f496e73756666696369656e7420636f6e74726163742062616c616e63650000005f82015250565b5f61193e601d8361124d565b91506119498261190a565b602082019050919050565b5f6020820190508181035f83015261196b81611932565b9050919050565b5f6060820190506119855f830186610f95565b6119926020830185611144565b61199f6040830184610f95565b94935050505056fea264697066735822122057a5be3a29cfd4af1a4ed5765e4dd3be8fb9841b58177578e783181ab6e14ee064736f6c634300081a0033",
					"opcodes": "PUSH1 0x80 PUSH1 0x40 MSTORE CALLVALUE DUP1 ISZERO PUSH1 0xE JUMPI PUSH0 DUP1 REVERT JUMPDEST POP CALLER PUSH0 DUP1 PUSH2 0x100 EXP DUP2 SLOAD DUP2 PUSH20 0xFFFFFFFFFFFFFFFFFFFFFFFFFFFFFFFFFFFFFFFF MUL NOT AND SWAP1 DUP4 PUSH20 0xFFFFFFFFFFFFFFFFFFFFFFFFFFFFFFFFFFFFFFFF AND MUL OR SWAP1 SSTORE POP PUSH2 0x19DD DUP1 PUSH2 0x5B PUSH0 CODECOPY PUSH0 RETURN INVALID PUSH1 0x80 PUSH1 0x40 MSTORE PUSH1 0x4 CALLDATASIZE LT PUSH2 0x94 JUMPI PUSH0 CALLDATALOAD PUSH1 0xE0 SHR DUP1 PUSH4 0x8DA5CB5B GT PUSH2 0x58 JUMPI DUP1 PUSH4 0x8DA5CB5B EQ PUSH2 0x171 JUMPI DUP1 PUSH4 0x97B913DB EQ PUSH2 0x19B JUMPI DUP1 PUSH4 0xA87430BA EQ PUSH2 0x1D7 JUMPI DUP1 PUSH4 0xC1077194 EQ PUSH2 0x215 JUMPI DUP1 PUSH4 0xF5FF83B3 EQ PUSH2 0x256 JUMPI PUSH2 0x9B JUMP JUMPDEST DUP1 PUSH4 0x1CD12E53 EQ PUSH2 0x9F JUMPI DUP1 PUSH4 0x1D2E4AFD EQ PUSH2 0xC7 JUMPI DUP1 PUSH4 0x40ACA1B1 EQ PUSH2 0xEF JUMPI DUP1 PUSH4 0x42CA6D58 EQ PUSH2 0x119 JUMPI DUP1 PUSH4 0x430EF744 EQ PUSH2 0x135 JUMPI PUSH2 0x9B JUMP JUMPDEST CALLDATASIZE PUSH2 0x9B JUMPI STOP JUMPDEST PUSH0 DUP1 REVERT JUMPDEST CALLVALUE DUP1 ISZERO PUSH2 0xAA JUMPI PUSH0 DUP1 REVERT JUMPDEST POP PUSH2 0xC5 PUSH1 0x4 DUP1 CALLDATASIZE SUB DUP2 ADD SWAP1 PUSH2 0xC0 SWAP2 SWAP1 PUSH2 0xEB3 JUMP JUMPDEST PUSH2 0x27E JUMP JUMPDEST STOP JUMPDEST CALLVALUE DUP1 ISZERO PUSH2 0xD2 JUMPI PUSH0 DUP1 REVERT JUMPDEST POP PUSH2 0xED PUSH1 0x4 DUP1 CALLDATASIZE SUB DUP2 ADD SWAP1 PUSH2 0xE8 SWAP2 SWAP1 PUSH2 0xF1F JUMP JUMPDEST PUSH2 0x37A JUMP JUMPDEST STOP JUMPDEST CALLVALUE DUP1 ISZERO PUSH2 0xFA JUMPI PUSH0 DUP1 REVERT JUMPDEST POP PUSH2 0x103 PUSH2 0x593 JUMP JUMPDEST PUSH1 0x40 MLOAD PUSH2 0x110 SWAP2 SWAP1 PUSH2 0xFA4 JUMP JUMPDEST PUSH1 0x40 MLOAD DUP1 SWAP2 SUB SWAP1 RETURN JUMPDEST PUSH2 0x133 PUSH1 0x4 DUP1 CALLDATASIZE SUB DUP2 ADD SWAP1 PUSH2 0x12E SWAP2 SWAP1 PUSH2 0xFBD JUMP JUMPDEST PUSH2 0x599 JUMP JUMPDEST STOP JUMPDEST CALLVALUE DUP1 ISZERO PUSH2 0x140 JUMPI PUSH0 DUP1 REVERT JUMPDEST POP PUSH2 0x15B PUSH1 0x4 DUP1 CALLDATASIZE SUB DUP2 ADD SWAP1 PUSH2 0x156 SWAP2 SWAP1 PUSH2 0x1042 JUMP JUMPDEST PUSH2 0x746 JUMP JUMPDEST PUSH1 0x40 MLOAD PUSH2 0x168 SWAP2 SWAP1 PUSH2 0x1124 JUMP JUMPDEST PUSH1 0x40 MLOAD DUP1 SWAP2 SUB SWAP1 RETURN JUMPDEST CALLVALUE DUP1 ISZERO PUSH2 0x17C JUMPI PUSH0 DUP1 REVERT JUMPDEST POP PUSH2 0x185 PUSH2 0x7DC JUMP JUMPDEST PUSH1 0x40 MLOAD PUSH2 0x192 SWAP2 SWAP1 PUSH2 0x1153 JUMP JUMPDEST PUSH1 0x40 MLOAD DUP1 SWAP2 SUB SWAP1 RETURN JUMPDEST CALLVALUE DUP1 ISZERO PUSH2 0x1A6 JUMPI PUSH0 DUP1 REVERT JUMPDEST POP PUSH2 0x1C1 PUSH1 0x4 DUP1 CALLDATASIZE SUB DUP2 ADD SWAP1 PUSH2 0x1BC SWAP2 SWAP1 PUSH2 0xFBD JUMP JUMPDEST PUSH2 0x7FF JUMP JUMPDEST PUSH1 0x40 MLOAD PUSH2 0x1CE SWAP2 SWAP1 PUSH2 0x1223 JUMP JUMPDEST PUSH1 0x40 MLOAD DUP1 SWAP2 SUB SWAP1 RETURN JUMPDEST CALLVALUE DUP1 ISZERO PUSH2 0x1E2 JUMPI PUSH0 DUP1 REVERT JUMPDEST POP PUSH2 0x1FD PUSH1 0x4 DUP1 CALLDATASIZE SUB DUP2 ADD SWAP1 PUSH2 0x1F8 SWAP2 SWAP1 PUSH2 0x1042 JUMP JUMPDEST PUSH2 0x89E JUMP JUMPDEST PUSH1 0x40 MLOAD PUSH2 0x20C SWAP4 SWAP3 SWAP2 SWAP1 PUSH2 0x12A3 JUMP JUMPDEST PUSH1 0x40 MLOAD DUP1 SWAP2 SUB SWAP1 RETURN JUMPDEST CALLVALUE DUP1 ISZERO PUSH2 0x220 JUMPI PUSH0 DUP1 REVERT JUMPDEST POP PUSH2 0x23B PUSH1 0x4 DUP1 CALLDATASIZE SUB DUP2 ADD SWAP1 PUSH2 0x236 SWAP2 SWAP1 PUSH2 0xFBD JUMP JUMPDEST PUSH2 0x9EF JUMP JUMPDEST PUSH1 0x40 MLOAD PUSH2 0x24D SWAP7 SWAP6 SWAP5 SWAP4 SWAP3 SWAP2 SWAP1 PUSH2 0x1300 JUMP JUMPDEST PUSH1 0x40 MLOAD DUP1 SWAP2 SUB SWAP1 RETURN JUMPDEST CALLVALUE DUP1 ISZERO PUSH2 0x261 JUMPI PUSH0 DUP1 REVERT JUMPDEST POP PUSH2 0x27C PUSH1 0x4 DUP1 CALLDATASIZE SUB DUP2 ADD SWAP1 PUSH2 0x277 SWAP2 SWAP1 PUSH2 0x1366 JUMP JUMPDEST PUSH2 0xAD8 JUMP JUMPDEST STOP JUMPDEST PUSH1 0x1 PUSH0 DUP2 SLOAD DUP1 SWAP3 SWAP2 SWAP1 PUSH2 0x290 SWAP1 PUSH2 0x13D1 JUMP JUMPDEST SWAP2 SWAP1 POP SSTORE POP PUSH0 PUSH1 0x3 PUSH0 PUSH1 0x1 SLOAD DUP2 MSTORE PUSH1 0x20 ADD SWAP1 DUP2 MSTORE PUSH1 0x20 ADD PUSH0 KECCAK256 SWAP1 POP PUSH1 0x1 SLOAD DUP2 PUSH0 ADD DUP2 SWAP1 SSTORE POP DUP4 DUP2 PUSH1 0x1 ADD SWAP1 DUP2 PUSH2 0x2C6 SWAP2 SWAP1 PUSH2 0x1612 JUMP JUMPDEST POP DUP3 DUP2 PUSH1 0x2 ADD DUP2 SWAP1 SSTORE POP DUP2 DUP2 PUSH1 0x3 ADD DUP2 SWAP1 SSTORE POP CALLER DUP2 PUSH1 0x4 ADD PUSH0 PUSH2 0x100 EXP DUP2 SLOAD DUP2 PUSH20 0xFFFFFFFFFFFFFFFFFFFFFFFFFFFFFFFFFFFFFFFF MUL NOT AND SWAP1 DUP4 PUSH20 0xFFFFFFFFFFFFFFFFFFFFFFFFFFFFFFFFFFFFFFFF AND MUL OR SWAP1 SSTORE POP PUSH1 0x1 DUP2 PUSH1 0x6 ADD PUSH0 PUSH2 0x100 EXP DUP2 SLOAD DUP2 PUSH1 0xFF MUL NOT AND SWAP1 DUP4 ISZERO ISZERO MUL OR SWAP1 SSTORE POP PUSH32 0xA94CD0B7A6A30768493DD3C96D659F8684F84657295D41125416F89E1027F876 PUSH1 0x1 SLOAD DUP6 CALLER PUSH1 0x40 MLOAD PUSH2 0x36C SWAP4 SWAP3 SWAP2 SWAP1 PUSH2 0x16E1 JUMP JUMPDEST PUSH1 0x40 MLOAD DUP1 SWAP2 SUB SWAP1 LOG1 POP POP POP POP JUMP JUMPDEST PUSH0 PUSH1 0x2 PUSH0 CALLER PUSH20 0xFFFFFFFFFFFFFFFFFFFFFFFFFFFFFFFFFFFFFFFF AND PUSH20 0xFFFFFFFFFFFFFFFFFFFFFFFFFFFFFFFFFFFFFFFF AND DUP2 MSTORE PUSH1 0x20 ADD SWAP1 DUP2 MSTORE PUSH1 0x20 ADD PUSH0 KECCAK256 PUSH1 0x1 ADD DUP1 SLOAD PUSH2 0x3C6 SWAP1 PUSH2 0x1445 JUMP JUMPDEST SWAP1 POP EQ PUSH2 0x408 JUMPI PUSH1 0x40 MLOAD PUSH32 0x8C379A000000000000000000000000000000000000000000000000000000000 DUP2 MSTORE PUSH1 0x4 ADD PUSH2 0x3FF SWAP1 PUSH2 0x1767 JUMP JUMPDEST PUSH1 0x40 MLOAD DUP1 SWAP2 SUB SWAP1 REVERT JUMPDEST PUSH1 0x40 MLOAD DUP1 PUSH1 0x80 ADD PUSH1 0x40 MSTORE DUP1 CALLER PUSH20 0xFFFFFFFFFFFFFFFFFFFFFFFFFFFFFFFFFFFFFFFF AND DUP2 MSTORE PUSH1 0x20 ADD DUP4 DUP2 MSTORE PUSH1 0x20 ADD DUP3 DUP2 MSTORE PUSH1 0x20 ADD PUSH0 PUSH8 0xFFFFFFFFFFFFFFFF DUP2 GT ISZERO PUSH2 0x455 JUMPI PUSH2 0x454 PUSH2 0xD5C JUMP JUMPDEST JUMPDEST PUSH1 0x40 MLOAD SWAP1 DUP1 DUP3 MSTORE DUP1 PUSH1 0x20 MUL PUSH1 0x20 ADD DUP3 ADD PUSH1 0x40 MSTORE DUP1 ISZERO PUSH2 0x483 JUMPI DUP2 PUSH1 0x20 ADD PUSH1 0x20 DUP3 MUL DUP1 CALLDATASIZE DUP4 CALLDATACOPY DUP1 DUP3 ADD SWAP2 POP POP SWAP1 POP JUMPDEST POP DUP2 MSTORE POP PUSH1 0x2 PUSH0 CALLER PUSH20 0xFFFFFFFFFFFFFFFFFFFFFFFFFFFFFFFFFFFFFFFF AND PUSH20 0xFFFFFFFFFFFFFFFFFFFFFFFFFFFFFFFFFFFFFFFF AND DUP2 MSTORE PUSH1 0x20 ADD SWAP1 DUP2 MSTORE PUSH1 0x20 ADD PUSH0 KECCAK256 PUSH0 DUP3 ADD MLOAD DUP2 PUSH0 ADD PUSH0 PUSH2 0x100 EXP DUP2 SLOAD DUP2 PUSH20 0xFFFFFFFFFFFFFFFFFFFFFFFFFFFFFFFFFFFFFFFF MUL NOT AND SWAP1 DUP4 PUSH20 0xFFFFFFFFFFFFFFFFFFFFFFFFFFFFFFFFFFFFFFFF AND MUL OR SWAP1 SSTORE POP PUSH1 0x20 DUP3 ADD MLOAD DUP2 PUSH1 0x1 ADD SWAP1 DUP2 PUSH2 0x51D SWAP2 SWAP1 PUSH2 0x1612 JUMP JUMPDEST POP PUSH1 0x40 DUP3 ADD MLOAD DUP2 PUSH1 0x2 ADD SWAP1 DUP2 PUSH2 0x533 SWAP2 SWAP1 PUSH2 0x1612 JUMP JUMPDEST POP PUSH1 0x60 DUP3 ADD MLOAD DUP2 PUSH1 0x3 ADD SWAP1 DUP1 MLOAD SWAP1 PUSH1 0x20 ADD SWAP1 PUSH2 0x550 SWAP3 SWAP2 SWAP1 PUSH2 0xCCD JUMP JUMPDEST POP SWAP1 POP POP PUSH32 0x92822564BAB8864C3A47B34E8D23FBCE5C46234EB5DA261F94087B995AC0F33B CALLER DUP4 DUP4 PUSH1 0x40 MLOAD PUSH2 0x587 SWAP4 SWAP3 SWAP2 SWAP1 PUSH2 0x12A3 JUMP JUMPDEST PUSH1 0x40 MLOAD DUP1 SWAP2 SUB SWAP1 LOG1 POP POP JUMP JUMPDEST PUSH1 0x1 SLOAD DUP2 JUMP JUMPDEST PUSH0 PUSH1 0x3 PUSH0 DUP4 DUP2 MSTORE PUSH1 0x20 ADD SWAP1 DUP2 MSTORE PUSH1 0x20 ADD PUSH0 KECCAK256 SWAP1 POP DUP1 PUSH1 0x6 ADD PUSH0 SWAP1 SLOAD SWAP1 PUSH2 0x100 EXP SWAP1 DIV PUSH1 0xFF AND PUSH2 0x5FD JUMPI PUSH1 0x40 MLOAD PUSH32 0x8C379A000000000000000000000000000000000000000000000000000000000 DUP2 MSTORE PUSH1 0x4 ADD PUSH2 0x5F4 SWAP1 PUSH2 0x17CF JUMP JUMPDEST PUSH1 0x40 MLOAD DUP1 SWAP2 SUB SWAP1 REVERT JUMPDEST DUP1 PUSH1 0x2 ADD SLOAD CALLVALUE EQ PUSH2 0x643 JUMPI PUSH1 0x40 MLOAD PUSH32 0x8C379A000000000000000000000000000000000000000000000000000000000 DUP2 MSTORE PUSH1 0x4 ADD PUSH2 0x63A SWAP1 PUSH2 0x1837 JUMP JUMPDEST PUSH1 0x40 MLOAD DUP1 SWAP2 SUB SWAP1 REVERT JUMPDEST DUP1 PUSH1 0x5 ADD CALLER SWAP1 DUP1 PUSH1 0x1 DUP2 SLOAD ADD DUP1 DUP3 SSTORE DUP1 SWAP2 POP POP PUSH1 0x1 SWAP1 SUB SWAP1 PUSH0 MSTORE PUSH1 0x20 PUSH0 KECCAK256 ADD PUSH0 SWAP1 SWAP2 SWAP1 SWAP2 SWAP1 SWAP2 PUSH2 0x100 EXP DUP2 SLOAD DUP2 PUSH20 0xFFFFFFFFFFFFFFFFFFFFFFFFFFFFFFFFFFFFFFFF MUL NOT AND SWAP1 DUP4 PUSH20 0xFFFFFFFFFFFFFFFFFFFFFFFFFFFFFFFFFFFFFFFF AND MUL OR SWAP1 SSTORE POP PUSH1 0x2 PUSH0 CALLER PUSH20 0xFFFFFFFFFFFFFFFFFFFFFFFFFFFFFFFFFFFFFFFF AND PUSH20 0xFFFFFFFFFFFFFFFFFFFFFFFFFFFFFFFFFFFFFFFF AND DUP2 MSTORE PUSH1 0x20 ADD SWAP1 DUP2 MSTORE PUSH1 0x20 ADD PUSH0 KECCAK256 PUSH1 0x3 ADD DUP3 SWAP1 DUP1 PUSH1 0x1 DUP2 SLOAD ADD DUP1 DUP3 SSTORE DUP1 SWAP2 POP POP PUSH1 0x1 SWAP1 SUB SWAP1 PUSH0 MSTORE PUSH1 0x20 PUSH0 KECCAK256 ADD PUSH0 SWAP1 SWAP2 SWAP1 SWAP2 SWAP1 SWAP2 POP SSTORE PUSH32 0xEED04D4BE145B563E5E53575C494B5A2FCCC5CE019758C15D37A0984F3633307 DUP3 CALLER PUSH1 0x40 MLOAD PUSH2 0x73A SWAP3 SWAP2 SWAP1 PUSH2 0x1855 JUMP JUMPDEST PUSH1 0x40 MLOAD DUP1 SWAP2 SUB SWAP1 LOG1 POP POP JUMP JUMPDEST PUSH1 0x60 PUSH1 0x2 PUSH0 DUP4 PUSH20 0xFFFFFFFFFFFFFFFFFFFFFFFFFFFFFFFFFFFFFFFF AND PUSH20 0xFFFFFFFFFFFFFFFFFFFFFFFFFFFFFFFFFFFFFFFF AND DUP2 MSTORE PUSH1 0x20 ADD SWAP1 DUP2 MSTORE PUSH1 0x20 ADD PUSH0 KECCAK256 PUSH1 0x3 ADD DUP1 SLOAD DUP1 PUSH1 0x20 MUL PUSH1 0x20 ADD PUSH1 0x40 MLOAD SWAP1 DUP2 ADD PUSH1 0x40 MSTORE DUP1 SWAP3 SWAP2 SWAP1 DUP2 DUP2 MSTORE PUSH1 0x20 ADD DUP3 DUP1 SLOAD DUP1 ISZERO PUSH2 0x7D0 JUMPI PUSH1 0x20 MUL DUP3 ADD SWAP2 SWAP1 PUSH0 MSTORE PUSH1 0x20 PUSH0 KECCAK256 SWAP1 JUMPDEST DUP2 SLOAD DUP2 MSTORE PUSH1 0x20 ADD SWAP1 PUSH1 0x1 ADD SWAP1 DUP1 DUP4 GT PUSH2 0x7BC JUMPI JUMPDEST POP POP POP POP POP SWAP1 POP SWAP2 SWAP1 POP JUMP JUMPDEST PUSH0 DUP1 SLOAD SWAP1 PUSH2 0x100 EXP SWAP1 DIV PUSH20 0xFFFFFFFFFFFFFFFFFFFFFFFFFFFFFFFFFFFFFFFF AND DUP2 JUMP JUMPDEST PUSH1 0x60 PUSH1 0x3 PUSH0 DUP4 DUP2 MSTORE PUSH1 0x20 ADD SWAP1 DUP2 MSTORE PUSH1 0x20 ADD PUSH0 KECCAK256 PUSH1 0x5 ADD DUP1 SLOAD DUP1 PUSH1 0x20 MUL PUSH1 0x20 ADD PUSH1 0x40 MLOAD SWAP1 DUP2 ADD PUSH1 0x40 MSTORE DUP1 SWAP3 SWAP2 SWAP1 DUP2 DUP2 MSTORE PUSH1 0x20 ADD DUP3 DUP1 SLOAD DUP1 ISZERO PUSH2 0x892 JUMPI PUSH1 0x20 MUL DUP3 ADD SWAP2 SWAP1 PUSH0 MSTORE PUSH1 0x20 PUSH0 KECCAK256 SWAP1 JUMPDEST DUP2 PUSH0 SWAP1 SLOAD SWAP1 PUSH2 0x100 EXP SWAP1 DIV PUSH20 0xFFFFFFFFFFFFFFFFFFFFFFFFFFFFFFFFFFFFFFFF AND PUSH20 0xFFFFFFFFFFFFFFFFFFFFFFFFFFFFFFFFFFFFFFFF AND DUP2 MSTORE PUSH1 0x20 ADD SWAP1 PUSH1 0x1 ADD SWAP1 DUP1 DUP4 GT PUSH2 0x849 JUMPI JUMPDEST POP POP POP POP POP SWAP1 POP SWAP2 SWAP1 POP JUMP JUMPDEST PUSH1 0x2 PUSH1 0x20 MSTORE DUP1 PUSH0 MSTORE PUSH1 0x40 PUSH0 KECCAK256 PUSH0 SWAP2 POP SWAP1 POP DUP1 PUSH0 ADD PUSH0 SWAP1 SLOAD SWAP1 PUSH2 0x100 EXP SWAP1 DIV PUSH20 0xFFFFFFFFFFFFFFFFFFFFFFFFFFFFFFFFFFFFFFFF AND SWAP1 DUP1 PUSH1 0x1 ADD DUP1 SLOAD PUSH2 0x8E2 SWAP1 PUSH2 0x1445 JUMP JUMPDEST DUP1 PUSH1 0x1F ADD PUSH1 0x20 DUP1 SWAP2 DIV MUL PUSH1 0x20 ADD PUSH1 0x40 MLOAD SWAP1 DUP2 ADD PUSH1 0x40 MSTORE DUP1 SWAP3 SWAP2 SWAP1 DUP2 DUP2 MSTORE PUSH1 0x20 ADD DUP3 DUP1 SLOAD PUSH2 0x90E SWAP1 PUSH2 0x1445 JUMP JUMPDEST DUP1 ISZERO PUSH2 0x959 JUMPI DUP1 PUSH1 0x1F LT PUSH2 0x930 JUMPI PUSH2 0x100 DUP1 DUP4 SLOAD DIV MUL DUP4 MSTORE SWAP2 PUSH1 0x20 ADD SWAP2 PUSH2 0x959 JUMP JUMPDEST DUP3 ADD SWAP2 SWAP1 PUSH0 MSTORE PUSH1 0x20 PUSH0 KECCAK256 SWAP1 JUMPDEST DUP2 SLOAD DUP2 MSTORE SWAP1 PUSH1 0x1 ADD SWAP1 PUSH1 0x20 ADD DUP1 DUP4 GT PUSH2 0x93C JUMPI DUP3 SWAP1 SUB PUSH1 0x1F AND DUP3 ADD SWAP2 JUMPDEST POP POP POP POP POP SWAP1 DUP1 PUSH1 0x2 ADD DUP1 SLOAD PUSH2 0x96E SWAP1 PUSH2 0x1445 JUMP JUMPDEST DUP1 PUSH1 0x1F ADD PUSH1 0x20 DUP1 SWAP2 DIV MUL PUSH1 0x20 ADD PUSH1 0x40 MLOAD SWAP1 DUP2 ADD PUSH1 0x40 MSTORE DUP1 SWAP3 SWAP2 SWAP1 DUP2 DUP2 MSTORE PUSH1 0x20 ADD DUP3 DUP1 SLOAD PUSH2 0x99A SWAP1 PUSH2 0x1445 JUMP JUMPDEST DUP1 ISZERO PUSH2 0x9E5 JUMPI DUP1 PUSH1 0x1F LT PUSH2 0x9BC JUMPI PUSH2 0x100 DUP1 DUP4 SLOAD DIV MUL DUP4 MSTORE SWAP2 PUSH1 0x20 ADD SWAP2 PUSH2 0x9E5 JUMP JUMPDEST DUP3 ADD SWAP2 SWAP1 PUSH0 MSTORE PUSH1 0x20 PUSH0 KECCAK256 SWAP1 JUMPDEST DUP2 SLOAD DUP2 MSTORE SWAP1 PUSH1 0x1 ADD SWAP1 PUSH1 0x20 ADD DUP1 DUP4 GT PUSH2 0x9C8 JUMPI DUP3 SWAP1 SUB PUSH1 0x1F AND DUP3 ADD SWAP2 JUMPDEST POP POP POP POP POP SWAP1 POP DUP4 JUMP JUMPDEST PUSH1 0x3 PUSH1 0x20 MSTORE DUP1 PUSH0 MSTORE PUSH1 0x40 PUSH0 KECCAK256 PUSH0 SWAP2 POP SWAP1 POP DUP1 PUSH0 ADD SLOAD SWAP1 DUP1 PUSH1 0x1 ADD DUP1 SLOAD PUSH2 0xA14 SWAP1 PUSH2 0x1445 JUMP JUMPDEST DUP1 PUSH1 0x1F ADD PUSH1 0x20 DUP1 SWAP2 DIV MUL PUSH1 0x20 ADD PUSH1 0x40 MLOAD SWAP1 DUP2 ADD PUSH1 0x40 MSTORE DUP1 SWAP3 SWAP2 SWAP1 DUP2 DUP2 MSTORE PUSH1 0x20 ADD DUP3 DUP1 SLOAD PUSH2 0xA40 SWAP1 PUSH2 0x1445 JUMP JUMPDEST DUP1 ISZERO PUSH2 0xA8B JUMPI DUP1 PUSH1 0x1F LT PUSH2 0xA62 JUMPI PUSH2 0x100 DUP1 DUP4 SLOAD DIV MUL DUP4 MSTORE SWAP2 PUSH1 0x20 ADD SWAP2 PUSH2 0xA8B JUMP JUMPDEST DUP3 ADD SWAP2 SWAP1 PUSH0 MSTORE PUSH1 0x20 PUSH0 KECCAK256 SWAP1 JUMPDEST DUP2 SLOAD DUP2 MSTORE SWAP1 PUSH1 0x1 ADD SWAP1 PUSH1 0x20 ADD DUP1 DUP4 GT PUSH2 0xA6E JUMPI DUP3 SWAP1 SUB PUSH1 0x1F AND DUP3 ADD SWAP2 JUMPDEST POP POP POP POP POP SWAP1 DUP1 PUSH1 0x2 ADD SLOAD SWAP1 DUP1 PUSH1 0x3 ADD SLOAD SWAP1 DUP1 PUSH1 0x4 ADD PUSH0 SWAP1 SLOAD SWAP1 PUSH2 0x100 EXP SWAP1 DIV PUSH20 0xFFFFFFFFFFFFFFFFFFFFFFFFFFFFFFFFFFFFFFFF AND SWAP1 DUP1 PUSH1 0x6 ADD PUSH0 SWAP1 SLOAD SWAP1 PUSH2 0x100 EXP SWAP1 DIV PUSH1 0xFF AND SWAP1 POP DUP7 JUMP JUMPDEST DUP2 CALLER PUSH20 0xFFFFFFFFFFFFFFFFFFFFFFFFFFFFFFFFFFFFFFFF AND PUSH1 0x3 PUSH0 DUP4 DUP2 MSTORE PUSH1 0x20 ADD SWAP1 DUP2 MSTORE PUSH1 0x20 ADD PUSH0 KECCAK256 PUSH1 0x4 ADD PUSH0 SWAP1 SLOAD SWAP1 PUSH2 0x100 EXP SWAP1 DIV PUSH20 0xFFFFFFFFFFFFFFFFFFFFFFFFFFFFFFFFFFFFFFFF AND PUSH20 0xFFFFFFFFFFFFFFFFFFFFFFFFFFFFFFFFFFFFFFFF AND EQ PUSH2 0xB7A JUMPI PUSH1 0x40 MLOAD PUSH32 0x8C379A000000000000000000000000000000000000000000000000000000000 DUP2 MSTORE PUSH1 0x4 ADD PUSH2 0xB71 SWAP1 PUSH2 0x18EC JUMP JUMPDEST PUSH1 0x40 MLOAD DUP1 SWAP2 SUB SWAP1 REVERT JUMPDEST PUSH0 PUSH1 0x3 PUSH0 DUP6 DUP2 MSTORE PUSH1 0x20 ADD SWAP1 DUP2 MSTORE PUSH1 0x20 ADD PUSH0 KECCAK256 SWAP1 POP DUP1 PUSH1 0x6 ADD PUSH0 SWAP1 SLOAD SWAP1 PUSH2 0x100 EXP SWAP1 DIV PUSH1 0xFF AND PUSH2 0xBDE JUMPI PUSH1 0x40 MLOAD PUSH32 0x8C379A000000000000000000000000000000000000000000000000000000000 DUP2 MSTORE PUSH1 0x4 ADD PUSH2 0xBD5 SWAP1 PUSH2 0x17CF JUMP JUMPDEST PUSH1 0x40 MLOAD DUP1 SWAP2 SUB SWAP1 REVERT JUMPDEST DUP1 PUSH1 0x3 ADD SLOAD SELFBALANCE LT ISZERO PUSH2 0xC25 JUMPI PUSH1 0x40 MLOAD PUSH32 0x8C379A000000000000000000000000000000000000000000000000000000000 DUP2 MSTORE PUSH1 0x4 ADD PUSH2 0xC1C SWAP1 PUSH2 0x1954 JUMP JUMPDEST PUSH1 0x40 MLOAD DUP1 SWAP2 SUB SWAP1 REVERT JUMPDEST PUSH0 DUP2 PUSH1 0x6 ADD PUSH0 PUSH2 0x100 EXP DUP2 SLOAD DUP2 PUSH1 0xFF MUL NOT AND SWAP1 DUP4 ISZERO ISZERO MUL OR SWAP1 SSTORE POP DUP3 PUSH20 0xFFFFFFFFFFFFFFFFFFFFFFFFFFFFFFFFFFFFFFFF AND PUSH2 0x8FC DUP3 PUSH1 0x3 ADD SLOAD SWAP1 DUP2 ISZERO MUL SWAP1 PUSH1 0x40 MLOAD PUSH0 PUSH1 0x40 MLOAD DUP1 DUP4 SUB DUP2 DUP6 DUP9 DUP9 CALL SWAP4 POP POP POP POP ISZERO DUP1 ISZERO PUSH2 0xC87 JUMPI RETURNDATASIZE PUSH0 DUP1 RETURNDATACOPY RETURNDATASIZE PUSH0 REVERT JUMPDEST POP PUSH32 0xDC1D0B6A7CBFA6F3B2D4325BAB5A169B265AD0B2B4022FB550364F0DFEEB6A74 DUP5 DUP5 DUP4 PUSH1 0x3 ADD SLOAD PUSH1 0x40 MLOAD PUSH2 0xCBF SWAP4 SWAP3 SWAP2 SWAP1 PUSH2 0x1972 JUMP JUMPDEST PUSH1 0x40 MLOAD DUP1 SWAP2 SUB SWAP1 LOG1 POP POP POP POP JUMP JUMPDEST DUP3 DUP1 SLOAD DUP3 DUP3 SSTORE SWAP1 PUSH0 MSTORE PUSH1 0x20 PUSH0 KECCAK256 SWAP1 DUP2 ADD SWAP3 DUP3 ISZERO PUSH2 0xD07 JUMPI SWAP2 PUSH1 0x20 MUL DUP3 ADD JUMPDEST DUP3 DUP2 GT ISZERO PUSH2 0xD06 JUMPI DUP3 MLOAD DUP3 SSTORE SWAP2 PUSH1 0x20 ADD SWAP2 SWAP1 PUSH1 0x1 ADD SWAP1 PUSH2 0xCEB JUMP JUMPDEST JUMPDEST POP SWAP1 POP PUSH2 0xD14 SWAP2 SWAP1 PUSH2 0xD18 JUMP JUMPDEST POP SWAP1 JUMP JUMPDEST JUMPDEST DUP1 DUP3 GT ISZERO PUSH2 0xD2F JUMPI PUSH0 DUP2 PUSH0 SWAP1 SSTORE POP PUSH1 0x1 ADD PUSH2 0xD19 JUMP JUMPDEST POP SWAP1 JUMP JUMPDEST PUSH0 PUSH1 0x40 MLOAD SWAP1 POP SWAP1 JUMP JUMPDEST PUSH0 DUP1 REVERT JUMPDEST PUSH0 DUP1 REVERT JUMPDEST PUSH0 DUP1 REVERT JUMPDEST PUSH0 DUP1 REVERT JUMPDEST PUSH0 PUSH1 0x1F NOT PUSH1 0x1F DUP4 ADD AND SWAP1 POP SWAP2 SWAP1 POP JUMP JUMPDEST PUSH32 0x4E487B7100000000000000000000000000000000000000000000000000000000 PUSH0 MSTORE PUSH1 0x41 PUSH1 0x4 MSTORE PUSH1 0x24 PUSH0 REVERT JUMPDEST PUSH2 0xD92 DUP3 PUSH2 0xD4C JUMP JUMPDEST DUP2 ADD DUP2 DUP2 LT PUSH8 0xFFFFFFFFFFFFFFFF DUP3 GT OR ISZERO PUSH2 0xDB1 JUMPI PUSH2 0xDB0 PUSH2 0xD5C JUMP JUMPDEST JUMPDEST DUP1 PUSH1 0x40 MSTORE POP POP POP JUMP JUMPDEST PUSH0 PUSH2 0xDC3 PUSH2 0xD33 JUMP JUMPDEST SWAP1 POP PUSH2 0xDCF DUP3 DUP3 PUSH2 0xD89 JUMP JUMPDEST SWAP2 SWAP1 POP JUMP JUMPDEST PUSH0 PUSH8 0xFFFFFFFFFFFFFFFF DUP3 GT ISZERO PUSH2 0xDEE JUMPI PUSH2 0xDED PUSH2 0xD5C JUMP JUMPDEST JUMPDEST PUSH2 0xDF7 DUP3 PUSH2 0xD4C JUMP JUMPDEST SWAP1 POP PUSH1 0x20 DUP2 ADD SWAP1 POP SWAP2 SWAP1 POP JUMP JUMPDEST DUP3 DUP2 DUP4 CALLDATACOPY PUSH0 DUP4 DUP4 ADD MSTORE POP POP POP JUMP JUMPDEST PUSH0 PUSH2 0xE24 PUSH2 0xE1F DUP5 PUSH2 0xDD4 JUMP JUMPDEST PUSH2 0xDBA JUMP JUMPDEST SWAP1 POP DUP3 DUP2 MSTORE PUSH1 0x20 DUP2 ADD DUP5 DUP5 DUP5 ADD GT ISZERO PUSH2 0xE40 JUMPI PUSH2 0xE3F PUSH2 0xD48 JUMP JUMPDEST JUMPDEST PUSH2 0xE4B DUP5 DUP3 DUP6 PUSH2 0xE04 JUMP JUMPDEST POP SWAP4 SWAP3 POP POP POP JUMP JUMPDEST PUSH0 DUP3 PUSH1 0x1F DUP4 ADD SLT PUSH2 0xE67 JUMPI PUSH2 0xE66 PUSH2 0xD44 JUMP JUMPDEST JUMPDEST DUP2 CALLDATALOAD PUSH2 0xE77 DUP5 DUP3 PUSH1 0x20 DUP7 ADD PUSH2 0xE12 JUMP JUMPDEST SWAP2 POP POP SWAP3 SWAP2 POP POP JUMP JUMPDEST PUSH0 DUP2 SWAP1 POP SWAP2 SWAP1 POP JUMP JUMPDEST PUSH2 0xE92 DUP2 PUSH2 0xE80 JUMP JUMPDEST DUP2 EQ PUSH2 0xE9C JUMPI PUSH0 DUP1 REVERT JUMPDEST POP JUMP JUMPDEST PUSH0 DUP2 CALLDATALOAD SWAP1 POP PUSH2 0xEAD DUP2 PUSH2 0xE89 JUMP JUMPDEST SWAP3 SWAP2 POP POP JUMP JUMPDEST PUSH0 DUP1 PUSH0 PUSH1 0x60 DUP5 DUP7 SUB SLT ISZERO PUSH2 0xECA JUMPI PUSH2 0xEC9 PUSH2 0xD3C JUMP JUMPDEST JUMPDEST PUSH0 DUP5 ADD CALLDATALOAD PUSH8 0xFFFFFFFFFFFFFFFF DUP2 GT ISZERO PUSH2 0xEE7 JUMPI PUSH2 0xEE6 PUSH2 0xD40 JUMP JUMPDEST JUMPDEST PUSH2 0xEF3 DUP7 DUP3 DUP8 ADD PUSH2 0xE53 JUMP JUMPDEST SWAP4 POP POP PUSH1 0x20 PUSH2 0xF04 DUP7 DUP3 DUP8 ADD PUSH2 0xE9F JUMP JUMPDEST SWAP3 POP POP PUSH1 0x40 PUSH2 0xF15 DUP7 DUP3 DUP8 ADD PUSH2 0xE9F JUMP JUMPDEST SWAP2 POP POP SWAP3 POP SWAP3 POP SWAP3 JUMP JUMPDEST PUSH0 DUP1 PUSH1 0x40 DUP4 DUP6 SUB SLT ISZERO PUSH2 0xF35 JUMPI PUSH2 0xF34 PUSH2 0xD3C JUMP JUMPDEST JUMPDEST PUSH0 DUP4 ADD CALLDATALOAD PUSH8 0xFFFFFFFFFFFFFFFF DUP2 GT ISZERO PUSH2 0xF52 JUMPI PUSH2 0xF51 PUSH2 0xD40 JUMP JUMPDEST JUMPDEST PUSH2 0xF5E DUP6 DUP3 DUP7 ADD PUSH2 0xE53 JUMP JUMPDEST SWAP3 POP POP PUSH1 0x20 DUP4 ADD CALLDATALOAD PUSH8 0xFFFFFFFFFFFFFFFF DUP2 GT ISZERO PUSH2 0xF7F JUMPI PUSH2 0xF7E PUSH2 0xD40 JUMP JUMPDEST JUMPDEST PUSH2 0xF8B DUP6 DUP3 DUP7 ADD PUSH2 0xE53 JUMP JUMPDEST SWAP2 POP POP SWAP3 POP SWAP3 SWAP1 POP JUMP JUMPDEST PUSH2 0xF9E DUP2 PUSH2 0xE80 JUMP JUMPDEST DUP3 MSTORE POP POP JUMP JUMPDEST PUSH0 PUSH1 0x20 DUP3 ADD SWAP1 POP PUSH2 0xFB7 PUSH0 DUP4 ADD DUP5 PUSH2 0xF95 JUMP JUMPDEST SWAP3 SWAP2 POP POP JUMP JUMPDEST PUSH0 PUSH1 0x20 DUP3 DUP5 SUB SLT ISZERO PUSH2 0xFD2 JUMPI PUSH2 0xFD1 PUSH2 0xD3C JUMP JUMPDEST JUMPDEST PUSH0 PUSH2 0xFDF DUP5 DUP3 DUP6 ADD PUSH2 0xE9F JUMP JUMPDEST SWAP2 POP POP SWAP3 SWAP2 POP POP JUMP JUMPDEST PUSH0 PUSH20 0xFFFFFFFFFFFFFFFFFFFFFFFFFFFFFFFFFFFFFFFF DUP3 AND SWAP1 POP SWAP2 SWAP1 POP JUMP JUMPDEST PUSH0 PUSH2 0x1011 DUP3 PUSH2 0xFE8 JUMP JUMPDEST SWAP1 POP SWAP2 SWAP1 POP JUMP JUMPDEST PUSH2 0x1021 DUP2 PUSH2 0x1007 JUMP JUMPDEST DUP2 EQ PUSH2 0x102B JUMPI PUSH0 DUP1 REVERT JUMPDEST POP JUMP JUMPDEST PUSH0 DUP2 CALLDATALOAD SWAP1 POP PUSH2 0x103C DUP2 PUSH2 0x1018 JUMP JUMPDEST SWAP3 SWAP2 POP POP JUMP JUMPDEST PUSH0 PUSH1 0x20 DUP3 DUP5 SUB SLT ISZERO PUSH2 0x1057 JUMPI PUSH2 0x1056 PUSH2 0xD3C JUMP JUMPDEST JUMPDEST PUSH0 PUSH2 0x1064 DUP5 DUP3 DUP6 ADD PUSH2 0x102E JUMP JUMPDEST SWAP2 POP POP SWAP3 SWAP2 POP POP JUMP JUMPDEST PUSH0 DUP2 MLOAD SWAP1 POP SWAP2 SWAP1 POP JUMP JUMPDEST PUSH0 DUP3 DUP3 MSTORE PUSH1 0x20 DUP3 ADD SWAP1 POP SWAP3 SWAP2 POP POP JUMP JUMPDEST PUSH0 DUP2 SWAP1 POP PUSH1 0x20 DUP3 ADD SWAP1 POP SWAP2 SWAP1 POP JUMP JUMPDEST PUSH2 0x109F DUP2 PUSH2 0xE80 JUMP JUMPDEST DUP3 MSTORE POP POP JUMP JUMPDEST PUSH0 PUSH2 0x10B0 DUP4 DUP4 PUSH2 0x1096 JUMP JUMPDEST PUSH1 0x20 DUP4 ADD SWAP1 POP SWAP3 SWAP2 POP POP JUMP JUMPDEST PUSH0 PUSH1 0x20 DUP3 ADD SWAP1 POP SWAP2 SWAP1 POP JUMP JUMPDEST PUSH0 PUSH2 0x10D2 DUP3 PUSH2 0x106D JUMP JUMPDEST PUSH2 0x10DC DUP2 DUP6 PUSH2 0x1077 JUMP JUMPDEST SWAP4 POP PUSH2 0x10E7 DUP4 PUSH2 0x1087 JUMP JUMPDEST DUP1 PUSH0 JUMPDEST DUP4 DUP2 LT ISZERO PUSH2 0x1117 JUMPI DUP2 MLOAD PUSH2 0x10FE DUP9 DUP3 PUSH2 0x10A5 JUMP JUMPDEST SWAP8 POP PUSH2 0x1109 DUP4 PUSH2 0x10BC JUMP JUMPDEST SWAP3 POP POP PUSH1 0x1 DUP2 ADD SWAP1 POP PUSH2 0x10EA JUMP JUMPDEST POP DUP6 SWAP4 POP POP POP POP SWAP3 SWAP2 POP POP JUMP JUMPDEST PUSH0 PUSH1 0x20 DUP3 ADD SWAP1 POP DUP2 DUP2 SUB PUSH0 DUP4 ADD MSTORE PUSH2 0x113C DUP2 DUP5 PUSH2 0x10C8 JUMP JUMPDEST SWAP1 POP SWAP3 SWAP2 POP POP JUMP JUMPDEST PUSH2 0x114D DUP2 PUSH2 0x1007 JUMP JUMPDEST DUP3 MSTORE POP POP JUMP JUMPDEST PUSH0 PUSH1 0x20 DUP3 ADD SWAP1 POP PUSH2 0x1166 PUSH0 DUP4 ADD DUP5 PUSH2 0x1144 JUMP JUMPDEST SWAP3 SWAP2 POP POP JUMP JUMPDEST PUSH0 DUP2 MLOAD SWAP1 POP SWAP2 SWAP1 POP JUMP JUMPDEST PUSH0 DUP3 DUP3 MSTORE PUSH1 0x20 DUP3 ADD SWAP1 POP SWAP3 SWAP2 POP POP JUMP JUMPDEST PUSH0 DUP2 SWAP1 POP PUSH1 0x20 DUP3 ADD SWAP1 POP SWAP2 SWAP1 POP JUMP JUMPDEST PUSH2 0x119E DUP2 PUSH2 0x1007 JUMP JUMPDEST DUP3 MSTORE POP POP JUMP JUMPDEST PUSH0 PUSH2 0x11AF DUP4 DUP4 PUSH2 0x1195 JUMP JUMPDEST PUSH1 0x20 DUP4 ADD SWAP1 POP SWAP3 SWAP2 POP POP JUMP JUMPDEST PUSH0 PUSH1 0x20 DUP3 ADD SWAP1 POP SWAP2 SWAP1 POP JUMP JUMPDEST PUSH0 PUSH2 0x11D1 DUP3 PUSH2 0x116C JUMP JUMPDEST PUSH2 0x11DB DUP2 DUP6 PUSH2 0x1176 JUMP JUMPDEST SWAP4 POP PUSH2 0x11E6 DUP4 PUSH2 0x1186 JUMP JUMPDEST DUP1 PUSH0 JUMPDEST DUP4 DUP2 LT ISZERO PUSH2 0x1216 JUMPI DUP2 MLOAD PUSH2 0x11FD DUP9 DUP3 PUSH2 0x11A4 JUMP JUMPDEST SWAP8 POP PUSH2 0x1208 DUP4 PUSH2 0x11BB JUMP JUMPDEST SWAP3 POP POP PUSH1 0x1 DUP2 ADD SWAP1 POP PUSH2 0x11E9 JUMP JUMPDEST POP DUP6 SWAP4 POP POP POP POP SWAP3 SWAP2 POP POP JUMP JUMPDEST PUSH0 PUSH1 0x20 DUP3 ADD SWAP1 POP DUP2 DUP2 SUB PUSH0 DUP4 ADD MSTORE PUSH2 0x123B DUP2 DUP5 PUSH2 0x11C7 JUMP JUMPDEST SWAP1 POP SWAP3 SWAP2 POP POP JUMP JUMPDEST PUSH0 DUP2 MLOAD SWAP1 POP SWAP2 SWAP1 POP JUMP JUMPDEST PUSH0 DUP3 DUP3 MSTORE PUSH1 0x20 DUP3 ADD SWAP1 POP SWAP3 SWAP2 POP POP JUMP JUMPDEST DUP3 DUP2 DUP4 MCOPY PUSH0 DUP4 DUP4 ADD MSTORE POP POP POP JUMP JUMPDEST PUSH0 PUSH2 0x1275 DUP3 PUSH2 0x1243 JUMP JUMPDEST PUSH2 0x127F DUP2 DUP6 PUSH2 0x124D JUMP JUMPDEST SWAP4 POP PUSH2 0x128F DUP2 DUP6 PUSH1 0x20 DUP7 ADD PUSH2 0x125D JUMP JUMPDEST PUSH2 0x1298 DUP2 PUSH2 0xD4C JUMP JUMPDEST DUP5 ADD SWAP2 POP POP SWAP3 SWAP2 POP POP JUMP JUMPDEST PUSH0 PUSH1 0x60 DUP3 ADD SWAP1 POP PUSH2 0x12B6 PUSH0 DUP4 ADD DUP7 PUSH2 0x1144 JUMP JUMPDEST DUP2 DUP2 SUB PUSH1 0x20 DUP4 ADD MSTORE PUSH2 0x12C8 DUP2 DUP6 PUSH2 0x126B JUMP JUMPDEST SWAP1 POP DUP2 DUP2 SUB PUSH1 0x40 DUP4 ADD MSTORE PUSH2 0x12DC DUP2 DUP5 PUSH2 0x126B JUMP JUMPDEST SWAP1 POP SWAP5 SWAP4 POP POP POP POP JUMP JUMPDEST PUSH0 DUP2 ISZERO ISZERO SWAP1 POP SWAP2 SWAP1 POP JUMP JUMPDEST PUSH2 0x12FA DUP2 PUSH2 0x12E6 JUMP JUMPDEST DUP3 MSTORE POP POP JUMP JUMPDEST PUSH0 PUSH1 0xC0 DUP3 ADD SWAP1 POP PUSH2 0x1313 PUSH0 DUP4 ADD DUP10 PUSH2 0xF95 JUMP JUMPDEST DUP2 DUP2 SUB PUSH1 0x20 DUP4 ADD MSTORE PUSH2 0x1325 DUP2 DUP9 PUSH2 0x126B JUMP JUMPDEST SWAP1 POP PUSH2 0x1334 PUSH1 0x40 DUP4 ADD DUP8 PUSH2 0xF95 JUMP JUMPDEST PUSH2 0x1341 PUSH1 0x60 DUP4 ADD DUP7 PUSH2 0xF95 JUMP JUMPDEST PUSH2 0x134E PUSH1 0x80 DUP4 ADD DUP6 PUSH2 0x1144 JUMP JUMPDEST PUSH2 0x135B PUSH1 0xA0 DUP4 ADD DUP5 PUSH2 0x12F1 JUMP JUMPDEST SWAP8 SWAP7 POP POP POP POP POP POP POP JUMP JUMPDEST PUSH0 DUP1 PUSH1 0x40 DUP4 DUP6 SUB SLT ISZERO PUSH2 0x137C JUMPI PUSH2 0x137B PUSH2 0xD3C JUMP JUMPDEST JUMPDEST PUSH0 PUSH2 0x1389 DUP6 DUP3 DUP7 ADD PUSH2 0xE9F JUMP JUMPDEST SWAP3 POP POP PUSH1 0x20 PUSH2 0x139A DUP6 DUP3 DUP7 ADD PUSH2 0x102E JUMP JUMPDEST SWAP2 POP POP SWAP3 POP SWAP3 SWAP1 POP JUMP JUMPDEST PUSH32 0x4E487B7100000000000000000000000000000000000000000000000000000000 PUSH0 MSTORE PUSH1 0x11 PUSH1 0x4 MSTORE PUSH1 0x24 PUSH0 REVERT JUMPDEST PUSH0 PUSH2 0x13DB DUP3 PUSH2 0xE80 JUMP JUMPDEST SWAP2 POP PUSH32 0xFFFFFFFFFFFFFFFFFFFFFFFFFFFFFFFFFFFFFFFFFFFFFFFFFFFFFFFFFFFFFFFF DUP3 SUB PUSH2 0x140D JUMPI PUSH2 0x140C PUSH2 0x13A4 JUMP JUMPDEST JUMPDEST PUSH1 0x1 DUP3 ADD SWAP1 POP SWAP2 SWAP1 POP JUMP JUMPDEST PUSH32 0x4E487B7100000000000000000000000000000000000000000000000000000000 PUSH0 MSTORE PUSH1 0x22 PUSH1 0x4 MSTORE PUSH1 0x24 PUSH0 REVERT JUMPDEST PUSH0 PUSH1 0x2 DUP3 DIV SWAP1 POP PUSH1 0x1 DUP3 AND DUP1 PUSH2 0x145C JUMPI PUSH1 0x7F DUP3 AND SWAP2 POP JUMPDEST PUSH1 0x20 DUP3 LT DUP2 SUB PUSH2 0x146F JUMPI PUSH2 0x146E PUSH2 0x1418 JUMP JUMPDEST JUMPDEST POP SWAP2 SWAP1 POP JUMP JUMPDEST PUSH0 DUP2 SWAP1 POP DUP2 PUSH0 MSTORE PUSH1 0x20 PUSH0 KECCAK256 SWAP1 POP SWAP2 SWAP1 POP JUMP JUMPDEST PUSH0 PUSH1 0x20 PUSH1 0x1F DUP4 ADD DIV SWAP1 POP SWAP2 SWAP1 POP JUMP JUMPDEST PUSH0 DUP3 DUP3 SHL SWAP1 POP SWAP3 SWAP2 POP POP JUMP JUMPDEST PUSH0 PUSH1 0x8 DUP4 MUL PUSH2 0x14D1 PUSH32 0xFFFFFFFFFFFFFFFFFFFFFFFFFFFFFFFFFFFFFFFFFFFFFFFFFFFFFFFFFFFFFFFF DUP3 PUSH2 0x1496 JUMP JUMPDEST PUSH2 0x14DB DUP7 DUP4 PUSH2 0x1496 JUMP JUMPDEST SWAP6 POP DUP1 NOT DUP5 AND SWAP4 POP DUP1 DUP7 AND DUP5 OR SWAP3 POP POP POP SWAP4 SWAP3 POP POP POP JUMP JUMPDEST PUSH0 DUP2 SWAP1 POP SWAP2 SWAP1 POP JUMP JUMPDEST PUSH0 PUSH2 0x1516 PUSH2 0x1511 PUSH2 0x150C DUP5 PUSH2 0xE80 JUMP JUMPDEST PUSH2 0x14F3 JUMP JUMPDEST PUSH2 0xE80 JUMP JUMPDEST SWAP1 POP SWAP2 SWAP1 POP JUMP JUMPDEST PUSH0 DUP2 SWAP1 POP SWAP2 SWAP1 POP JUMP JUMPDEST PUSH2 0x152F DUP4 PUSH2 0x14FC JUMP JUMPDEST PUSH2 0x1543 PUSH2 0x153B DUP3 PUSH2 0x151D JUMP JUMPDEST DUP5 DUP5 SLOAD PUSH2 0x14A2 JUMP JUMPDEST DUP3 SSTORE POP POP POP POP JUMP JUMPDEST PUSH0 SWAP1 JUMP JUMPDEST PUSH2 0x1557 PUSH2 0x154B JUMP JUMPDEST PUSH2 0x1562 DUP2 DUP5 DUP5 PUSH2 0x1526 JUMP JUMPDEST POP POP POP JUMP JUMPDEST JUMPDEST DUP2 DUP2 LT ISZERO PUSH2 0x1585 JUMPI PUSH2 0x157A PUSH0 DUP3 PUSH2 0x154F JUMP JUMPDEST PUSH1 0x1 DUP2 ADD SWAP1 POP PUSH2 0x1568 JUMP JUMPDEST POP POP JUMP JUMPDEST PUSH1 0x1F DUP3 GT ISZERO PUSH2 0x15CA JUMPI PUSH2 0x159B DUP2 PUSH2 0x1475 JUMP JUMPDEST PUSH2 0x15A4 DUP5 PUSH2 0x1487 JUMP JUMPDEST DUP2 ADD PUSH1 0x20 DUP6 LT ISZERO PUSH2 0x15B3 JUMPI DUP2 SWAP1 POP JUMPDEST PUSH2 0x15C7 PUSH2 0x15BF DUP6 PUSH2 0x1487 JUMP JUMPDEST DUP4 ADD DUP3 PUSH2 0x1567 JUMP JUMPDEST POP POP JUMPDEST POP POP POP JUMP JUMPDEST PUSH0 DUP3 DUP3 SHR SWAP1 POP SWAP3 SWAP2 POP POP JUMP JUMPDEST PUSH0 PUSH2 0x15EA PUSH0 NOT DUP5 PUSH1 0x8 MUL PUSH2 0x15CF JUMP JUMPDEST NOT DUP1 DUP4 AND SWAP2 POP POP SWAP3 SWAP2 POP POP JUMP JUMPDEST PUSH0 PUSH2 0x1602 DUP4 DUP4 PUSH2 0x15DB JUMP JUMPDEST SWAP2 POP DUP3 PUSH1 0x2 MUL DUP3 OR SWAP1 POP SWAP3 SWAP2 POP POP JUMP JUMPDEST PUSH2 0x161B DUP3 PUSH2 0x1243 JUMP JUMPDEST PUSH8 0xFFFFFFFFFFFFFFFF DUP2 GT ISZERO PUSH2 0x1634 JUMPI PUSH2 0x1633 PUSH2 0xD5C JUMP JUMPDEST JUMPDEST PUSH2 0x163E DUP3 SLOAD PUSH2 0x1445 JUMP JUMPDEST PUSH2 0x1649 DUP3 DUP3 DUP6 PUSH2 0x1589 JUMP JUMPDEST PUSH0 PUSH1 0x20 SWAP1 POP PUSH1 0x1F DUP4 GT PUSH1 0x1 DUP2 EQ PUSH2 0x167A JUMPI PUSH0 DUP5 ISZERO PUSH2 0x1668 JUMPI DUP3 DUP8 ADD MLOAD SWAP1 POP JUMPDEST PUSH2 0x1672 DUP6 DUP3 PUSH2 0x15F7 JUMP JUMPDEST DUP7 SSTORE POP PUSH2 0x16D9 JUMP JUMPDEST PUSH1 0x1F NOT DUP5 AND PUSH2 0x1688 DUP7 PUSH2 0x1475 JUMP JUMPDEST PUSH0 JUMPDEST DUP3 DUP2 LT ISZERO PUSH2 0x16AF JUMPI DUP5 DUP10 ADD MLOAD DUP3 SSTORE PUSH1 0x1 DUP3 ADD SWAP2 POP PUSH1 0x20 DUP6 ADD SWAP5 POP PUSH1 0x20 DUP2 ADD SWAP1 POP PUSH2 0x168A JUMP JUMPDEST DUP7 DUP4 LT ISZERO PUSH2 0x16CC JUMPI DUP5 DUP10 ADD MLOAD PUSH2 0x16C8 PUSH1 0x1F DUP10 AND DUP3 PUSH2 0x15DB JUMP JUMPDEST DUP4 SSTORE POP JUMPDEST PUSH1 0x1 PUSH1 0x2 DUP9 MUL ADD DUP9 SSTORE POP POP POP JUMPDEST POP POP POP POP POP POP JUMP JUMPDEST PUSH0 PUSH1 0x60 DUP3 ADD SWAP1 POP PUSH2 0x16F4 PUSH0 DUP4 ADD DUP7 PUSH2 0xF95 JUMP JUMPDEST DUP2 DUP2 SUB PUSH1 0x20 DUP4 ADD MSTORE PUSH2 0x1706 DUP2 DUP6 PUSH2 0x126B JUMP JUMPDEST SWAP1 POP PUSH2 0x1715 PUSH1 0x40 DUP4 ADD DUP5 PUSH2 0x1144 JUMP JUMPDEST SWAP5 SWAP4 POP POP POP POP JUMP JUMPDEST PUSH32 0x5573657220616C72656164792072656769737465726564000000000000000000 PUSH0 DUP3 ADD MSTORE POP JUMP JUMPDEST PUSH0 PUSH2 0x1751 PUSH1 0x17 DUP4 PUSH2 0x124D JUMP JUMPDEST SWAP2 POP PUSH2 0x175C DUP3 PUSH2 0x171D JUMP JUMPDEST PUSH1 0x20 DUP3 ADD SWAP1 POP SWAP2 SWAP1 POP JUMP JUMPDEST PUSH0 PUSH1 0x20 DUP3 ADD SWAP1 POP DUP2 DUP2 SUB PUSH0 DUP4 ADD MSTORE PUSH2 0x177E DUP2 PUSH2 0x1745 JUMP JUMPDEST SWAP1 POP SWAP2 SWAP1 POP JUMP JUMPDEST PUSH32 0x4861636B6174686F6E206973206E6F7420616374697665000000000000000000 PUSH0 DUP3 ADD MSTORE POP JUMP JUMPDEST PUSH0 PUSH2 0x17B9 PUSH1 0x17 DUP4 PUSH2 0x124D JUMP JUMPDEST SWAP2 POP PUSH2 0x17C4 DUP3 PUSH2 0x1785 JUMP JUMPDEST PUSH1 0x20 DUP3 ADD SWAP1 POP SWAP2 SWAP1 POP JUMP JUMPDEST PUSH0 PUSH1 0x20 DUP3 ADD SWAP1 POP DUP2 DUP2 SUB PUSH0 DUP4 ADD MSTORE PUSH2 0x17E6 DUP2 PUSH2 0x17AD JUMP JUMPDEST SWAP1 POP SWAP2 SWAP1 POP JUMP JUMPDEST PUSH32 0x496E636F727265637420726567697374726174696F6E20666565000000000000 PUSH0 DUP3 ADD MSTORE POP JUMP JUMPDEST PUSH0 PUSH2 0x1821 PUSH1 0x1A DUP4 PUSH2 0x124D JUMP JUMPDEST SWAP2 POP PUSH2 0x182C DUP3 PUSH2 0x17ED JUMP JUMPDEST PUSH1 0x20 DUP3 ADD SWAP1 POP SWAP2 SWAP1 POP JUMP JUMPDEST PUSH0 PUSH1 0x20 DUP3 ADD SWAP1 POP DUP2 DUP2 SUB PUSH0 DUP4 ADD MSTORE PUSH2 0x184E DUP2 PUSH2 0x1815 JUMP JUMPDEST SWAP1 POP SWAP2 SWAP1 POP JUMP JUMPDEST PUSH0 PUSH1 0x40 DUP3 ADD SWAP1 POP PUSH2 0x1868 PUSH0 DUP4 ADD DUP6 PUSH2 0xF95 JUMP JUMPDEST PUSH2 0x1875 PUSH1 0x20 DUP4 ADD DUP5 PUSH2 0x1144 JUMP JUMPDEST SWAP4 SWAP3 POP POP POP JUMP JUMPDEST PUSH32 0x4F6E6C79206F7267616E697A65722063616E20706572666F726D207468697320 PUSH0 DUP3 ADD MSTORE PUSH32 0x616374696F6E0000000000000000000000000000000000000000000000000000 PUSH1 0x20 DUP3 ADD MSTORE POP JUMP JUMPDEST PUSH0 PUSH2 0x18D6 PUSH1 0x26 DUP4 PUSH2 0x124D JUMP JUMPDEST SWAP2 POP PUSH2 0x18E1 DUP3 PUSH2 0x187C JUMP JUMPDEST PUSH1 0x40 DUP3 ADD SWAP1 POP SWAP2 SWAP1 POP JUMP JUMPDEST PUSH0 PUSH1 0x20 DUP3 ADD SWAP1 POP DUP2 DUP2 SUB PUSH0 DUP4 ADD MSTORE PUSH2 0x1903 DUP2 PUSH2 0x18CA JUMP JUMPDEST SWAP1 POP SWAP2 SWAP1 POP JUMP JUMPDEST PUSH32 0x496E73756666696369656E7420636F6E74726163742062616C616E6365000000 PUSH0 DUP3 ADD MSTORE POP JUMP JUMPDEST PUSH0 PUSH2 0x193E PUSH1 0x1D DUP4 PUSH2 0x124D JUMP JUMPDEST SWAP2 POP PUSH2 0x1949 DUP3 PUSH2 0x190A JUMP JUMPDEST PUSH1 0x20 DUP3 ADD SWAP1 POP SWAP2 SWAP1 POP JUMP JUMPDEST PUSH0 PUSH1 0x20 DUP3 ADD SWAP1 POP DUP2 DUP2 SUB PUSH0 DUP4 ADD MSTORE PUSH2 0x196B DUP2 PUSH2 0x1932 JUMP JUMPDEST SWAP1 POP SWAP2 SWAP1 POP JUMP JUMPDEST PUSH0 PUSH1 0x60 DUP3 ADD SWAP1 POP PUSH2 0x1985 PUSH0 DUP4 ADD DUP7 PUSH2 0xF95 JUMP JUMPDEST PUSH2 0x1992 PUSH1 0x20 DUP4 ADD DUP6 PUSH2 0x1144 JUMP JUMPDEST PUSH2 0x199F PUSH1 0x40 DUP4 ADD DUP5 PUSH2 0xF95 JUMP JUMPDEST SWAP5 SWAP4 POP POP POP POP JUMP INVALID LOG2 PUSH5 0x6970667358 0x22 SLT KECCAK256 JUMPI 0xA5 0xBE GASPRICE 0x29 0xCF 0xD4 0xAF BYTE 0x4E 0xD5 PUSH23 0x5E4DD3BE8FB9841B58177578E783181AB6E14EE064736F PUSH13 0x634300081A0033000000000000 "
				},
				"gasEstimates": {
					"creation": {
						"codeDepositCost": "1324200",
						"executionCost": "25639",
						"totalCost": "1349839"
					},
					"external": {
						"createHackathon(string,uint256,uint256)": "infinite",
						"distributePrize(uint256,address)": "infinite",
						"getEnrolledHackathons(address)": "infinite",
						"getHackathonParticipants(uint256)": "infinite",
						"hackathonCounter()": "2470",
						"hackathons(uint256)": "infinite",
						"joinHackathon(uint256)": "infinite",
						"owner()": "2505",
						"registerUser(string,string)": "infinite",
						"users(address)": "infinite"
					}
				},
				"methodIdentifiers": {
					"createHackathon(string,uint256,uint256)": "1cd12e53",
					"distributePrize(uint256,address)": "f5ff83b3",
					"getEnrolledHackathons(address)": "430ef744",
					"getHackathonParticipants(uint256)": "97b913db",
					"hackathonCounter()": "40aca1b1",
					"hackathons(uint256)": "c1077194",
					"joinHackathon(uint256)": "42ca6d58",
					"owner()": "8da5cb5b",
					"registerUser(string,string)": "1d2e4afd",
					"users(address)": "a87430ba"
				}
			},
			"storageLayout": {
				"storage": [
					{
						"astId": 29,
						"contract": "contracts/myContract.sol:Learnopoly",
						"label": "owner",
						"offset": 0,
						"slot": "0",
						"type": "t_address"
					},
					{
						"astId": 31,
						"contract": "contracts/myContract.sol:Learnopoly",
						"label": "hackathonCounter",
						"offset": 0,
						"slot": "1",
						"type": "t_uint256"
					},
					{
						"astId": 36,
						"contract": "contracts/myContract.sol:Learnopoly",
						"label": "users",
						"offset": 0,
						"slot": "2",
						"type": "t_mapping(t_address,t_struct(User)11_storage)"
					},
					{
						"astId": 41,
						"contract": "contracts/myContract.sol:Learnopoly",
						"label": "hackathons",
						"offset": 0,
						"slot": "3",
						"type": "t_mapping(t_uint256,t_struct(Hackathon)27_storage)"
					}
				],
				"types": {
					"t_address": {
						"encoding": "inplace",
						"label": "address",
						"numberOfBytes": "20"
					},
					"t_array(t_address)dyn_storage": {
						"base": "t_address",
						"encoding": "dynamic_array",
						"label": "address[]",
						"numberOfBytes": "32"
					},
					"t_array(t_uint256)dyn_storage": {
						"base": "t_uint256",
						"encoding": "dynamic_array",
						"label": "uint256[]",
						"numberOfBytes": "32"
					},
					"t_bool": {
						"encoding": "inplace",
						"label": "bool",
						"numberOfBytes": "1"
					},
					"t_mapping(t_address,t_struct(User)11_storage)": {
						"encoding": "mapping",
						"key": "t_address",
						"label": "mapping(address => struct Learnopoly.User)",
						"numberOfBytes": "32",
						"value": "t_struct(User)11_storage"
					},
					"t_mapping(t_uint256,t_struct(Hackathon)27_storage)": {
						"encoding": "mapping",
						"key": "t_uint256",
						"label": "mapping(uint256 => struct Learnopoly.Hackathon)",
						"numberOfBytes": "32",
						"value": "t_struct(Hackathon)27_storage"
					},
					"t_string_storage": {
						"encoding": "bytes",
						"label": "string",
						"numberOfBytes": "32"
					},
					"t_struct(Hackathon)27_storage": {
						"encoding": "inplace",
						"label": "struct Learnopoly.Hackathon",
						"members": [
							{
								"astId": 13,
								"contract": "contracts/myContract.sol:Learnopoly",
								"label": "id",
								"offset": 0,
								"slot": "0",
								"type": "t_uint256"
							},
							{
								"astId": 15,
								"contract": "contracts/myContract.sol:Learnopoly",
								"label": "name",
								"offset": 0,
								"slot": "1",
								"type": "t_string_storage"
							},
							{
								"astId": 17,
								"contract": "contracts/myContract.sol:Learnopoly",
								"label": "registrationFee",
								"offset": 0,
								"slot": "2",
								"type": "t_uint256"
							},
							{
								"astId": 19,
								"contract": "contracts/myContract.sol:Learnopoly",
								"label": "prizePool",
								"offset": 0,
								"slot": "3",
								"type": "t_uint256"
							},
							{
								"astId": 21,
								"contract": "contracts/myContract.sol:Learnopoly",
								"label": "organizer",
								"offset": 0,
								"slot": "4",
								"type": "t_address"
							},
							{
								"astId": 24,
								"contract": "contracts/myContract.sol:Learnopoly",
								"label": "participants",
								"offset": 0,
								"slot": "5",
								"type": "t_array(t_address)dyn_storage"
							},
							{
								"astId": 26,
								"contract": "contracts/myContract.sol:Learnopoly",
								"label": "isActive",
								"offset": 0,
								"slot": "6",
								"type": "t_bool"
							}
						],
						"numberOfBytes": "224"
					},
					"t_struct(User)11_storage": {
						"encoding": "inplace",
						"label": "struct Learnopoly.User",
						"members": [
							{
								"astId": 3,
								"contract": "contracts/myContract.sol:Learnopoly",
								"label": "walletAddress",
								"offset": 0,
								"slot": "0",
								"type": "t_address"
							},
							{
								"astId": 5,
								"contract": "contracts/myContract.sol:Learnopoly",
								"label": "name",
								"offset": 0,
								"slot": "1",
								"type": "t_string_storage"
							},
							{
								"astId": 7,
								"contract": "contracts/myContract.sol:Learnopoly",
								"label": "role",
								"offset": 0,
								"slot": "2",
								"type": "t_string_storage"
							},
							{
								"astId": 10,
								"contract": "contracts/myContract.sol:Learnopoly",
								"label": "enrolledHackathons",
								"offset": 0,
								"slot": "3",
								"type": "t_array(t_uint256)dyn_storage"
							}
						],
						"numberOfBytes": "128"
					},
					"t_uint256": {
						"encoding": "inplace",
						"label": "uint256",
						"numberOfBytes": "32"
					}
				}
			},
			"userdoc": {
				"kind": "user",
				"methods": {},
				"version": 1
			}
		}
	}
}